:10000000187600208D6A0100856B0100856B010068
:1000100000000000000000000000000000000000E0
:10002000000000000000000000000000215C000053
:100030000000000000000000415D0000895D00003C
:10004000856B0100856B0100856B0100DD2B0100D4
:1000500009210100856B010061040000856B01002E
:10006000A50500008132010099320100B132010082
:10007000C9320100E1320100F9320100D569010005
:10008000E9690100FD6901000D3900002139000016
:10009000353900000000000000000000E902000007
:1000A000856B010025040000856B0100856B010054
:1000B0000000000010B5064C2378002B07D1054B3B
:1000C000002B02D0044800E000BF0123237010BDC4
:1000D000F00200200000000074550200084B10B52B
:1000E000002B03D00749084800E000BF0748036819
:1000F000002B00D110BD064B002BFBD09847F9E731
:1001000000000000F4020020745502007455020043
:100110000000000080B584B000AF78607B681B6889
:10012000FB60FB685B7EDBB25BB2002B01DA012374
:1001300000E000231800BD4604B080BD80B584B047
:1001400000AF78607B681B68FB60C0467B68180066
:100150000B4B9847031EF9D1FB681B7BDBB20222D5
:100160001343DAB2FB681A73C0467B681800044B6D
:100170009847031EF9D1C046BD4604B080BDC046B5
:100180001501000080B584B000AF78600A00FB1C48
:100190001A707B681B68FB60FB68FA1C12789A7502
:1001A000C046BD4604B080BD80B584B000AF02003B
:1001B000FB1D1A70FB1D1A78474B9200D358FB6049
:1001C000FB681B681B7EDAB2FB681B68DB7DDBB259
:1001D0001340DBB2BB60BB680122134045D0FB6813
:1001E0001B6801221A76C046FB6818003B4B9847F3
:1001F000031EF9D1FB685B69991CFA685161FA68C2
:100200001268528B92B21A80FB681B8B9BB2013B27
:100210009BB2FA68191C1183002B08D0FB685B7F26
:10022000002B22D0FB6818002D4B98471DE0FB687F
:10023000012118002B4B9847FB681B7FDBB2052B75
:1002400013D1FB6800221A77FB68DB7E1A000123BA
:1002500013400AD0FB689B7E1A000123134004D090
:10026000FB689B68FA6810009847BB68042213403B
:1002700014D0FB681B6804221A76FB68DB7E1A0028
:10028000022313400AD0FB689B7E1A00022313400E
:1002900004D0FB68DB68FA6810009847BB6802224C
:1002A000134014D0FB681B6802221A76FB68DB7EC1
:1002B0001A00042313400AD0FB689B7E1A00042313
:1002C000134004D0FB681B69FA6810009847C046C9
:1002D000BD4604B080BDC04690410020150100001D
:1002E0003D0100008501000080B500AF0020024BF9
:1002F0009847C046BD4680BDA901000080B582B0C8
:1003000000AF0200FB1D1A70074AFB1D1B78190085
:100310001F230B40012199400B0019008023D1506D
:10032000C046BD4602B080BD00E100E080B584B0AB
:1003300000AF0200FB1D1A70FB1D1A78374B9200AC
:10034000D358FB60FB681B68BB60BB689B79DBB262
:100350001A00012313400ED0BB6801229A71FB687A
:100360001433002B07D0FB685B7C002B03D0FB68A9
:100370009B6900209847BB689B79DBB21A00022377
:10038000134047D0BB6802229A71FB689B899BB2DD
:10039000002B33D0FB689A68FB68DB899BB2591C41
:1003A00088B2F968C8815B00D3181B889AB2BB6811
:1003B0009A81FB689B899BB2013B9AB2FB689A8148
:1003C000FB689B899BB2002B18D1FB68202200217F
:1003D0009954BB6802221A71BB6802229A711920D3
:1003E0000F4B9847FB681433002B07D0FB689B7CAE
:1003F000002B03D0FB68DB6900209847FB681433AF
:10040000002B07D0FB681B7C002B03D0FB685B69CB
:1004100000209847C046BD4604B080BD94410020EE
:10042000FD02000080B500AF0020024B9847C04697
:10043000BD4680BD2D03000080B500AF024B98473C
:10044000C046BD4680BDC046691D010080B500AFF5
:10045000024B9847C046BD4680BDC046BD1D010049
:1004600080B586B000AF494B9847494B1B8C9BB277
:10047000DAB21723FB180F210A401A701723FB1852
:100480001A78444B9200D3583B61414A3B691B7830
:100490000F210B40D9B23F23D1543D490F23FB1804
:1004A0004E228A5C1A703B691B783B4A1B01D318A9
:1004B00002331B889BB2BB603B691B78374A1B0128
:1004C000D31802331B889BB27B60BA687B68D21A50
:1004D0003B695A610F23FB181B780122134016D089
:1004E0002B4A4E230121D1543B6910225A743B6997
:1004F0001B7C1A000123134042D03B695B68002B30
:100500003ED03B695B683A691000984738E00F239A
:10051000FB181B780222134016D01D4A4E230221DD
:10052000D1543B6900225A743B691B7C1A00022398
:10053000134025D03B699B68002B21D03B699B6809
:100540003A69100098471BE00F23FB181B78042220
:10055000134015D00E4A4E230421D1543B69062284
:100560005A743B691B7C1A000423134008D03B6972
:10057000DB68002B04D03B69DB683A6910009847C0
:10058000074B9847C046BD4606B080BD3904000001
:100590000048004160030020A0410020100300201B
:1005A0004D04000080B582B000AF154B1B697B6025
:1005B000144B9B693B60124B9A683B681A43104B83
:1005C0009A60104B104A9A6108E07B685A687B6811
:1005D0001B68180090477B689B687B607B68002BDA
:1005E000F3D1074BDB683B60054B9B683A68D2430D
:1005F0001A40034B9A60C046BD4602B080BDC0465B
:100600000000002000040042FFFF0F0F80B582B001
:1006100000AF02003960FB1D1A70FB1D1B78012B17
:100620000AD0022B0FD0002B14D10E4B0D4A91692A
:100630003A680A439A610FE00A4B0A4AD1693A685C
:100640000A43DA6108E0074B064A116A3A680A432E
:100650001A6201E0172300E000231800BD4602B033
:1006600080BDC0460004004080B500AF02210220DA
:10067000074B9847074B01221A70C046054B1B7861
:10068000DBB21A0001231340F8D1C046BD4680BD3D
:100690000D0600000004004280B584B000AF786011
:1006A0007B681B68FB60FB68DB69072213405A1EEE
:1006B0009341DBB21800BD4604B080BD80B582B066
:1006C00000AF7860C0467B681800044B9847031E53
:1006D000F9D1C046BD4602B080BDC04699060000B3
:1006E00080B584B000AF78607B681B68FB60FB68F6
:1006F0001B681B01DB0FDBB21A000B23FB18511E1A
:100700008A411A700823FB187A68528B1A807B681A
:100710009B8B9AB20823FB180821791809888A1A3A
:100720001A807B689B8B9BB2013B9AB27B689A8351
:100730000B23FB181B78002B10D07B68DB7A002B77
:100740001CD07B689B8B9BB2012B17D1FB685B682D
:100750008022D2021A43FB685A600FE07B68DB7A82
:10076000002B0BD07B689B8B9BB2002B06D1FB68C8
:100770005B688022D2021A43FB685A607B689B8BBD
:100780009BB2002B0ED17B689B7A002B0AD07B6832
:1007900018000E4B9847FB685B68C02292021A4310
:1007A000FB685A607B681800084B98477B681A6A98
:1007B0000823FB181B88D318FA682821525CD2B290
:1007C0001A70C046BD4604B080BDC046BD060000DC
:1007D00080B584B000AF78607B681B68FB60FB6805
:1007E0005B8B9BB21A000423134004D07B68252244
:1007F0001E21995424E00A23FB187A68528B1A8030
:100800007B689B8B9AB20A23FB180A217918098806
:100810008A1A1A807B689B8B9BB2013B9AB27B68D9
:100820009A837B681800084B98477B681A6A0A23EA
:10083000FB181B88D3181B78D9B2FB68282299545F
:10084000BD4604B080BDC046BD06000080B584B082
:1008500000AF78607B681B68FB60FB681B7EDBB2C7
:100860001A00012313402BD0FB6801221A76FB6883
:100870005B8B9BB21A000223134004D07B682522B5
:10088000412199541CE0FB685B8B9BB21A00042346
:10089000134015D07B682522182199547B680022CB
:1008A0009A837B689B7A002B0AD07B681800134BD5
:1008B0009847FB685B68C02292021A43FB685A6043
:1008C0007B689B8B9AB27B685A837B6825229B5CF2
:1008D000DBB2052B0ED17B6824229B5CDBB2002BA4
:1008E00004D17B681800064B984703E07B6818002A
:1008F000044B9847C046BD4604B080BDBD0600000D
:10090000D1070000E106000080B584B000AFF860B8
:10091000B960FB1D1A70FB1D1B78FA6802339B003F
:10092000D3180433BA681A60FB681B7EDBB25AB274
:10093000FB1D1B78012199400B005BB213435BB296
:10094000DAB2FB681A76C046BD4604B080BD00002E
:1009500080B584B000AF786039607B681B68FB604D
:100960003B685B7A002B06D03B689A7A7B68110063
:1009700018001E4B9847FB685B681D4A1A40FB68CD
:100980005A603B685A687B681A623B685A887B6881
:100990009A837B682422002199547B6825220521B3
:1009A0009954FB6803229A753B681B7A002B0DD083
:1009B0003B681B885A003B685B7A9B0313431A0011
:1009C00080231B021A43FB685A6209E03B681B88BC
:1009D0005A003B685B7A9B0313431A00FB685A6218
:1009E00000231800BD4604B080BDC046B9380000E1
:1009F000FFFFFBFF80B582B000AF786039607B6895
:100A00009B8B9BB2002B01D005230CE07B6801225D
:100A10009A727B680122DA723A687B6811001800CA
:100A2000034B984703001800BD4602B080BDC04686
:100A30005109000080B586B000AF0200FB1D1A709E
:100A4000FB1D1A78934B9200D3587B617B691B681E
:100A50003B613B691B681B01DB0FDBB21A000F23F4
:100A6000FB18511E8A411A700E23FB187A69527EB8
:100A70001A707B691B7EDAB20E23FB180E217918DF
:100A800009780A401A707B695B8B9BB2002B09D1F5
:100A90007B699B8B9BB2002B04D07B6918007E4B3B
:100AA000984770E07B695B8B9BB2002B39D07B69E8
:100AB0009B8B9BB2002B34D17B6925229B5CDBB2E4
:100AC000052B2ED17B6924229B5CDBB2002B28D125
:100AD0003B6903221A757B6900225A837B692522B0
:100AE000002199547B699B7A002B0BD07B691800FD
:100AF0006A4B98473B695B68C02292021A433B6984
:100B00005A6002E03B6901221A760E23FB181B781B
:100B10000122134037D07B69DB687A69100098475F
:100B200031E07B695B8B9BB2002B2CD07B699B8B6C
:100B30009BB2002B27D03B695B8B9BB21A00202312
:100B4000134011D10F23FB181B7801225340DBB255
:100B5000002B04D17B699B8B9BB2012B04D07B695A
:100B60002522412199540EE07B6924229B5CDBB253
:100B7000002B04D17B691800494B984703E07B693F
:100B80001800484B98477B695B8B9BB2002B47D082
:100B90007B699B8B9BB2002B42D17B6925229B5C9E
:100BA000DBB2052B3CD17B6924229B5CDBB2012BA1
:100BB00036D13B691B7EDBB21A000223134002D000
:100BC0003B6902221A763B6903221A757B6900226F
:100BD0005A837B692522002199540E23FB181B7828
:100BE000022213400BD07B6924229B5CDBB2012BD9
:100BF00005D17B691B697A691000984710E00E23C4
:100C0000FB181B78012213400AD07B6924229B5CCD
:100C1000DBB2002B04D17B69DB687A69100098474E
:100C20007B6925229B5CDBB2052B2ED07B692522BC
:100C30009B5CDBB2002B28D03B6903221A757B69D1
:100C400000225A837B6900229A837B6925229B5C60
:100C5000DBB2412B0ED07B699B7A002B0AD07B69DB
:100C600018000E4B98473B695B68E022D2021A439A
:100C70003B695A600E23FB181B780422134004D0F2
:100C80007B695B697A6910009847C046BD4606B02B
:100C900080BDC046885500204D080000BD060000FC
:100CA000D1070000E106000080B500AFBFF34F8F11
:100CB000024B034ADA60BFF34F8FFEE700ED00E01E
:100CC0000400FA0580B500AF024B9847C046BD4608
:100CD00080BDC046A90C000080B586B000AF78602A
:100CE000984B1800984B9847984B1800964B98478C
:100CF000974B1800944B9847964B1800924B984787
:100D0000954B1800904B9847944B18008E4B984782
:100D10001723FB1800221A70914B1800914B98472B
:100D2000032200210120904B984702008F4B1A604C
:100D30008E4B1B68002B07D18D4B190003208D4B68
:100D4000984700208C4B98470C23FB1818008B4BBE
:100D500098470C23FB181B780A2B04D00C23FB1894
:100D60001B780D2B37D1864B18007E4B9847854B4F
:100D700000221A70844B00221A708449844B31225D
:100D80001800844B9847824B3122002199548249A4
:100D90007E4B64221800814B984703003B617E4BD9
:100DA0006322002199547C4B18006E4B98473B6995
:100DB000002BECD11723FB1800221A70734B322240
:100DC00000211800764B9847734B642200211800CD
:100DD000734B9847B5E06B4B1B78002B59D06A4B8F
:100DE0001B78032B0CD8684B1B785A1CD1B2664A6F
:100DF00011701A000C23FB1819786A4B995405E0FE
:100E0000604B00221A70604B00221A705E4B1B78F8
:100E1000012B99D9644A634B11001800634B984722
:100E2000031E2FD06249594B1B221800614B984773
:100E3000564B18004B4B98471723FB1800221A708B
:100E4000524B322200211800554B984750494F4BC6
:100E5000312218004F4B98474C4B1800564B98477F
:100E60000300302B06D84A4B1800534B9847030019
:100E7000DAB200E031221723FB181A70434B180036
:100E8000384B98473F4B00221A703F4B00221A7094
:100E90005AE70C23FB181B780D2B00D154E70C23C9
:100EA000FB181B78082B04D00C23FB181B787F2B16
:100EB0001CD10823FB18414A12681A600823FB184A
:100EC0001800284B98471723FB181B78002B37D0A6
:100ED0001723FB181A781723FB18013A1A701723E7
:100EE000FB181B78294A0021D15429E00C23FB1858
:100EF0001B781B2B06D1234B01221A70224B002298
:100F00001A7021E71723FB181B78312B0ED81723F3
:100F1000FB181B780C22BA1811781C4AD1541723DD
:100F2000FB181A781723FB1801321A700C23FB18D0
:100F300000225A700C23FB1818000A4B984703E74D
:100F4000C04601E714170200013A000064170200CE
:100F5000241702003417020044170200541702003D
:100F60000015020029990000C95F0000F04100202F
:100F70005C160200159A0000B57D0000C10F00004C
:100F80007C1602008403002085030020BC0300209F
:100F9000880300200B050200F0030020713A0000D6
:100FA00023010200540400208016020025040200E0
:100FB00084160200E1030200DB0402008C1602002A
:100FC00080B584B000AF78607B6818000D4B9847FF
:100FD0000300FB600FE00C4B1A6801235B42190011
:100FE00010000A4B9847031E05D07B681800054B7C
:100FF00098470300FB60FB680133ECD0C046BD4658
:1010000004B080BDC5990000F0410020816F000050
:1010100080B500AF0A4B00221A600A4B1B68084AD1
:1010200011001800084B9847054B1B68002B03D094
:10103000064B802252051A60C046BD4680BDC046A0
:1010400058040020F0410020F968000004ED00E0A1
:1010500090B587B000AFF860B9607A601723FB18CD
:101060001B221A701723FB181B78084A08480F2107
:10107000084CA047064AB968FB681800054B98471A
:1010800000231800BD4607B090BDC0469016020070
:10109000740300207D03020080B584B000AFF860C7
:1010A000B9607A600220034B984700231800BD46C0
:1010B00004B080BDC530000080B584B000AFF860DA
:1010C000B9607A60034B984700231800BD4604B00E
:1010D00080BDC046C50C000090B585B000AFF8607B
:1010E000B9607A60054B064AB968F868054CA047B4
:1010F00000231800BD4605B090BDC04698160200FA
:10110000A01602007D03020090B587B000AFF86022
:10111000B9607A60074B984703007B617B69064A98
:10112000B968F868054CA04700231800BD4607B011
:1011300090BDC0461D810000B81602007D0302006C
:1011400090B58FB000AFF860B9607A601823FB18D3
:1011500000221A701823FB1800225A701823FB185B
:1011600000221A701823FB1800225A701C23FB1847
:1011700000221A701C23FB181422BA189A601C2330
:10118000FB180122DA811C23FB181822BA185A60B6
:101190001C23FB1801229A812C4B18002C4B9847DA
:1011A00000237B6346E07B6B2A4A2B480F212B4CA4
:1011B000A047294B1800264B984700233B632FE09C
:1011C0007B6BDAB23B6BDBB2D318DBB2DB18DAB283
:1011D0001C23FB181A701C23FB1864211800204BD9
:1011E00098470300FB62FB6A002B0CD11C23FB1801
:1011F0001B78184A18480F21184CA047164B1800A6
:10120000134B984709E0144B164A118819809278BD
:101210009A70114B18000E4B98473B6B01333B63A0
:101220003B6B0F2BCCDD104B1800094B98477B6BA9
:1012300010337B637B6B7F2BB5DD0B4B1800044BAE
:10124000984700231800BD460FB090BDD416020089
:101250002999000008170200740300207D03020092
:10126000E9170000101702007C16020080B582B05A
:1012700000AF0200FB1D1A70064BFA1D1278110018
:101280001F220A40012191400A001A60C046BD4653
:1012900002B080BD00E100E080B584B000AF7860AE
:1012A0007B681B68FB60FB68DB69072213405A1EE2
:1012B0009341DBB21800BD4604B080BD80B582B05A
:1012C00000AF7860C0467B681800044B9847031E47
:1012D000F9D1C046BD4602B080BDC046991200009B
:1012E00080B582B000AF78607B6864221A607B684A
:1012F0001B4A5A607B6800229A607B6800221A733E
:101300007B6800221A767B68802292031A617B68D0
:1013100001225242DA827B68012252429A827B6821
:101320000022DA617B6800221A627B682422002195
:1013300099547B6800229A627B682C220021995480
:101340007B682D22002199547B682E22002199541C
:101350007B68D7221A86C046BD4602B080BDC04613
:10136000480D000080B584B000AF78607B681B68D2
:10137000BB600023FB607B681800144B9847BB6878
:101380001B6802221A43BB681A607B681B6818003E
:101390000F4B9847030018000E4B98470CE0FB6872
:1013A0000133FB607B68DB881A00FB689A4203D834
:1013B000BB6810225A8306E0BB685B8B9BB21A00A5
:1013C00010231340EBD0BD4604B080BDBD12000019
:1013D0003D3201006D12000080B582B000AF786030
:1013E0000A00FB1C1A707B685B7EDBB25AB2FB1CE6
:1013F0001B78012199400B005BB213435BB2DAB258
:101400007B685A76C046BD4602B080BD90B591B0AB
:1014100000AF0023FB633A23FB1800221A703B1D28
:101420001800214B98473B1D204ADA613B1D204A9A
:101430001A623B1DFA229200DA823B23FB18032238
:101440001A701EE03A23FC183A1D1A491A4B18006C
:101450001A4B9847030023703A23FB181B78002B84
:1014600004D13A23FB181B78FB630FE0124B1800E2
:10147000134B98473B23FB181A783B23FB18013A80
:101480001A703B23FB181B78002BDBD1FB6B002B66
:1014900004D1094B18000B4B984700E0C046FB6B8A
:1014A0001800BD4611B090BDE11200000200080016
:1014B0000200090000080042F8410020BD3600008B
:1014C000F13700006513000080B584B000AF78608C
:1014D0000E4B00221A700D4B01229A600023FB6014
:1014E0000B4B1B680C22BA1811001800094B9847C7
:1014F000094B00221A70FB68002B03D0074B802297
:1015000052051A60C046BD4604B080BD600400208C
:1015100020420020F96800005C04002004ED00E097
:1015200080B584B000AF78600E4B00221A700D4B6E
:1015300001229A600023FB600B4B1B680C22BA1837
:1015400011001800094B9847094B00221A70FB68DC
:10155000002B03D0074B802252051A60C046BD46BF
:1015600004B080BD6004002020420020F968000023
:101570005C04002004ED00E080B584B000AF78602A
:101580000E4B00221A700D4B01225A600023FB60A3
:101590000B4B1B680C22BA1811001800094B984716
:1015A000094B01221A70FB68002B03D0074B8022E5
:1015B00052051A60C046BD4604B080BD60040020DC
:1015C00020420020F96800005C04002004ED00E0E7
:1015D00080B500AF1149124B00221800114B9847FB
:1015E0000F4B00211800104B984710490C4B01225B
:1015F00018000C4B98470A4B012118000A4B9847DA
:101600000B49074B02221800064B9847044B022156
:101610001800054B9847C046BD4680BDC914000060
:10162000F841002009090000D9130000211500002D
:101630007915000080B582B000AF00237B60144BA9
:10164000984703007B607B68002B1AD1114B9847A9
:101650000120114B98470200104B1A600322002111
:1016600001200F4B984702000E4B1A600B4B1B6872
:10167000002B03D00B4B1B68002B03D106237B6090
:1016800000E0C0467B681800BD4602B080BDC04681
:101690000D140000D115000031620000F44100205B
:1016A000C95F00002042002090B585B000AF78608F
:1016B0000023FB607B68002B03D07B685B68002BFA
:1016C00003D108235B42FB601FE07B681B789AB262
:1016D000104B1A807B685A680E4B5A607B68DA8917
:1016E0000C4B5A800B23FC180A4A0B4B11001800B4
:1016F0000A4B9847030023700B23FB181B78002B21
:1017000003D006235B42FB60C046FB681800BD4661
:1017100005B090BD24420020F8410020F5090000EA
:1017200090B583B000AF00237B60094B186800239D
:1017300000220021074CA0470300012B02D01423F4
:101740005B427B607B681800BD4603B090BDC0461D
:10175000F44100207162000080B584B000AF786071
:101760000023FB60084B1B687A6811001800074BC8
:1017700098470300012B02D01D235B42FB60FB68EE
:101780001800BD4604B080BDF4410020816F000008
:1017900080B584B000AF78600023FB60044B1A680A
:1017A0007B681A60FB681800BD4604B080BDC04667
:1017B0002042002080B500AF024B1B781800BD46C8
:1017C00080BDC0465C04002080B582B000AF02003E
:1017D000FB1D1A70034BFA1D12781A70C046BD46E5
:1017E00002B080BD5C04002080B584B000AF78609A
:1017F00039600023FB600023BB6096235B00180068
:10180000284B98470300FB60FB68002B38D1082366
:10181000FB181800244B98470300FB60FB68002B63
:1018200030D17B681800214B98470300FB60FB68B0
:10183000002B2AD1BB683A68110018001C4B98474E
:101840000300012B11D11B4B9847031E11D0002020
:10185000194B9847FB68002B03D021235B42FB60A8
:1018600014E003235B42FB6010E003235B42FB6058
:101870000CE0124B98470200FB681343FB6002E048
:10188000C04600E0C046FB6807E0C0460B4B9847E7
:101890000200FB681343FB60FB681800BD4604B000
:1018A00080BDC0465917000091170000A91600001E
:1018B000816F0000B5170000C91700002117000054
:1018C00080B584B000AF0200FB1D1A700F23FB1817
:1018D000FA1D1278D2091A700E23FB18FA1D12781D
:1018E00052091A700D4BBB600F23FB181B78002B9D
:1018F0000FD10F23FB181B789B0010229446BC4489
:101900006344083B1A680E23FB181B78DB01D318CD
:1019100000E000231800BD4604B080BD0044004133
:1019200080B582B000AF0200FB1D1A70FB1D1B7852
:101930001800034B984703001800BD4602B080BD55
:10194000C118000080B584B000AF0200FB1D1A7002
:10195000BB1D0A1C1A70FB1D1B7818000D4B984705
:101960000300FB60FB1D1B781F22134001229A40DD
:101970001300BB60BB1D1B78002B03D0FB68BA684B
:101980009A6102E0FB68BA685A61C046BD4604B07D
:1019900080BDC0462119000080B500AF024B002277
:1019A0001A70C046BD4680BD8904002080B582B053
:1019B00000AF0200FB1D1A70FB1D1B785BB2DB43FE
:1019C0005BB2064A127852B213405BB2DAB2034BF2
:1019D0001A70C046BD4602B080BDC04689040020D2
:1019E00080B582B000AF0200FB1D1A70054B1A785B
:1019F000FB1D1B781343DAB2024B1A70C046BD467A
:101A000002B080BD8904002080B582B000AF020022
:101A1000FB1D1A70064B1B78FA1D12781340DBB2BF
:101A20005A1E9341DBB21800BD4602B080BDC046CD
:101A30008904002090B585B000AF786039607B687C
:101A4000002B02D03B68002B01D1002313E00F23B1
:101A5000FC1839680A4B002218000A4B984703000B
:101A60002370074B1800084B98470F23FB181B786F
:101A70005A425341DBB21800BD4605B090BDC04686
:101A8000BC060020C1940100C19E010080B59EB03B
:101A900000AFF860B960FB1D1A707623FB180122B5
:101AA0001A807423FB1800221A806E23FB18002270
:101AB0001A807223FB1800221A802423FB181800B6
:101AC00041231A000021924B98471823FB18180055
:101AD00009231A0000218E4B98471423FB1800227B
:101AE0001A600023BB667123FB1800221A70BB68C2
:101AF000002B01D1002306E1BA68FB681100180031
:101B0000844B984703001A0001235340DBB2002B9B
:101B100001D00123F7E0BB6818007F4B9847030012
:101B2000402B01D90023EEE0BB682E2118007B4B2F
:101B300098470300BB66BB6E002B52D0BB6E1800EB
:101B4000754B984702006E23FB181A806E23FB1812
:101B50001B88072B37D87123FB1801221A70BA6E25
:101B60001823FB18110018006D4B9847BB6818002C
:101B7000694B984702006E23FB181B88D31A3C2B35
:101B800011D97423FB186E22BA1812883C218A1AC4
:101B90001A807423FB181A88B9682423FB181800CC
:101BA000604B98472AE0BA6EBB68D21A7423FB18C0
:101BB0001A807423FB181A88B9682423FB181800AC
:101BC000584B98471AE07423FB183C221A80742360
:101BD000FB181A88B9682423FB181800514B984742
:101BE0000CE07423FB183C221A807423FB181A881B
:101BF000B9682423FB1818004A4B98477423FB1834
:101C00001B887422BA18591C11801A002423FB184F
:101C10002D2199547623FB1800221A807223FB1879
:101C200001221A8010E07223FA187223FB181B8815
:101C3000191C8900CB18DB1813807623FB181A882F
:101C40007623FB1801321A807623FB181B88022B9F
:101C5000E9D97623FB1801221A804BE07623FB1882
:101C60001A8831491423FB181800304B9847742305
:101C7000FB181B882422BA18D3181422B91803227F
:101C80001800284B98477123FB181B78002B0CD0A9
:101C90007423FB181B8803332422BA18D318182284
:101CA000BA18110018001E4B98472423FA18FB6835
:101CB00011001800174B984703001A0001235340E6
:101CC000DBB2002B0FD0FB1D1A78BB680021180077
:101CD0000F4B98472423FA18BB6811001800104BCB
:101CE000984701230FE07623FB181A887623FB1808
:101CF00001321A807623FA187223FB1812881B8887
:101D00009A42ABD300231800BD461EB080BDC0462A
:101D100023010200351A0000DB0402003505020031
:101D20008F0402000B05020088170200E103020085
:101D300090B585B002AF0120234B984703001A00ED
:101D400001235340DBB2002B05D0204B19000120AA
:101D50001F4B984734E002201B4B984703001A00A2
:101D600001235340DBB2002B05D01A4B1900012090
:101D7000174B984724E00420134B9847031E05D0C7
:101D8000154B19000120124B984719E008200E4B03
:101D90009847031E05D0114B190001200C4B9847A2
:101DA0000EE00F4B19000120094B98470D490E48D2
:101DB00000230093002301220C4CA04703007B600A
:101DC000BD4603B090BDC046091A0000901702003E
:101DD000159A0000BC170200E81702001418020050
:101DE000401802006C1802008842002015CB010048
:101DF000B0B586B000AF786039607B68002B02D048
:101E00003B68002B05D1584B19000120574B9847D0
:101E1000A6E00820564B984703001A0001235340C0
:101E2000DBB2002B55D000237B61524B30221A705D
:101E3000504B3A225A70504B7B6102E07B69013B68
:101E40007B617B691B782F2BF8D17B6918004B4B8A
:101E500098470300012B24D97B6901337B617A69A0
:101E6000474B11001800474B98474249464B4022C8
:101E70001800464B98473F4A454B190001203B4B01
:101E800098471323FC183B493F4B0A221800414B4B
:101E90009847030023701323FB181B78002B12D0E4
:101EA00008E03D4B19000120304B984720203B4B68
:101EB000984755E01323FB181A78394B1900012075
:101EC0002A4B98474CE0374B00221A600820334BCE
:101ED00098477B68002B43D00023FB601323FC183A
:101EE0000C23FB183A68796827482F4DA847030050
:101EF00023701323FB181B78002B0CD0224B1800E7
:101F00002A4B98472020254B9847294B1900012040
:101F1000164B984724E0234B1A68FB68D218214BD4
:101F20001A60204B1A68234B1B68234901200F4C71
:101F3000A0471C4B1A681F4B1B689A4210D3124BC8
:101F400018001A4B98471D4B19000120074B984762
:101F5000002117201A4B98471020104B9847C04675
:101F6000BD4606B0B0BDC0468C180200159A0000F0
:101F7000091A00009800002089180200DB04020002
:101F80009A0000208F040200BC0600208D1A000079
:101F9000F0180200C1940100B0180200E11900001D
:101FA00018190200E4060020F1990100C19E010009
:101FB0004C190200E006002088190200BC1902003A
:101FC0004519000090B585B000AFF860B9607A603F
:101FD000BB68042B00D977E0BB689A003C4BD31850
:101FE0001B689F463B4B190001203B4B98476BE019
:101FF0003A4B19000120384B98470420384B98473A
:1020000062E07B681B881A007B685B6835490120A9
:10201000314CA0477B681B88C82B0DD17B685A6860
:10202000314B1A60314B00221A607B685A6880235A
:102030009B009A4243D803E02020294B984743E075
:102040007B689A687B685B6819001000284B98478A
:102050001020234B984732E07B685A687B681B68E6
:1020600019001000224B98477B681B7A002B28D060
:1020700010201B4B984724E07B681A681D4B190001
:102080000120154B98477B681B680B331BD1082038
:10209000194B9847031E06D0184B1800184B984749
:1020A0000820184B98470420134B9847031E02D072
:1020B0000420144B9847144B9847C04603E0C04691
:1020C00002E0C04600E0C046BD4605B090BDC04637
:1020D000FC200200F0190200159A0000281A0200E4
:1020E000E1190000541A0200E0060020E406002076
:1020F000F11D0000901A0200091A0000BC06002021
:10210000C19E0100AD190000311D000080B582B0F4
:1021100000AF3A60FB1D021C1A70BB1D0A1C1A702E
:102120003A68BB1D1978FB1D1B785BB21800034B86
:102130009847C046BD4602B080BDC04625C80100D4
:10214000B0B586B004AF786039603B68FF221340B9
:102150001C003B681B0A1A00FF2313403A68120C4C
:102160001100FF220A403968090E0D0078680949FC
:10217000029501920093230002000120064CA04723
:102180003A687B6811001800044B9847C046BD466A
:1021900002B0B0BDC01A0200159A000089C9010042
:1021A00090B587B002AF02003960FB1D1A70FB1DAD
:1021B0001B782C2B02D0322B3DD06FE03B68FB60AC
:1021C000FB681B78012B07D1364B19000120364BD9
:1021D0009847364B98475EE0FB681B78002B5AD136
:1021E000334B19000120304B98470220314B984760
:1021F0000820314B9847031E06D0304B1800304B57
:10220000984708202B4B984704202B4B9847031ED8
:1022100002D00420274B98472A4B012118002A4B53
:1022200098472A4A2A48FF230093130002221121CB
:10223000284CA0472FE03B68BB60BB681B781800A8
:10224000BB6801331B781C00BB6802331B781A0083
:10225000BB6803331B7820490193009223000200DE
:102260000120114CA04702201C4B98471C4B1B78A7
:10227000012B02D11B4B98470FE01B4A114B110059
:1022800018001A4B9847031E07D0194B190001205C
:10229000054B984701E0C04600E0C046C046BD4639
:1022A00005B090BDF01A0200159A0000F5DF00009D
:1022B000101B0200AD190000091A0000BC06002026
:1022C000C19E0100E8060020D1B40100341B0200C9
:1022D000441B020021DB0000581B0200E119000032
:1022E00088040020311D0000741702009DB3010016
:1022F000801B020090B583B000AF294B9847294B53
:1023000019000120284B9847FC1D0020274B9847B7
:1023100003002370FB1D1B78012B10D1244B1900E7
:102320000120214B9847234B190001201E4B984751
:10233000C0460020204B98470300022BF9D1FB1D1B
:102340001B78002BE0D11D4B19000120164B98473C
:102350008C239A001A4B002118001A4B9847BC1D79
:10236000174B19000020184B984703002370BB1D22
:102370001B780B2B07D1BB1D1A78144B19000120B9
:10238000094B984708E0124B19000120064B98476B
:102390000120104B9847C046BD4603B090BDC046D3
:1023A0002DA80000A41B0200159A000009AD000032
:1023B000DC1B0200041C02007DA80000381C020087
:1023C0008C04002023010200699401005C1C0200BF
:1023D0008C1C0200E119000080B582B000AF3B1DEB
:1023E0001800084B98473A1D074B11001800074B7F
:1023F0009847054B1800064B9847C046BD4602B0AB
:1024000080BDC046B9DF010030420020DDDF0100A1
:10241000C9E0010080B588B000AF3B001800164B42
:1024200098473B00802292001A613B00134A5A6091
:102430003B00BC22FF321A803B0001229A703A0016
:102440000F4B110018000F4B98470300FB61FB690D
:10245000002B06DAFA690C4B190001200B4B984748
:10246000FEE70B4A064B110018000A4B9847C0467E
:10247000BD4608B080BDC0464DC6010030420020B8
:102480008842002099C60100B01C0200159A000085
:10249000C51F000085C7010080B582B000AF3A605B
:1024A000FB1D021C1A70BB1D0A1C1A703A68BB1D6A
:1024B0001978FB1D1B785BB21800034B9847C04688
:1024C000BD4602B080BDC04645B3010080B582B0B4
:1024D00000AF786039603A687B6811001800034BE0
:1024E0009847C046BD4602B080BDC04679B30100E2
:1024F00090B589B002AF78601023FB1800221A70E3
:102500001023FB1800225A701023FB1800229A7027
:102510007B685B685A687B685B689B68244901201C
:10252000244CA0477B681B689B6823490422180041
:10253000224B9847031E37D17B681B689B68043386
:10254000FB6000237B6115E07C69631C7B61FB6899
:102550000C22B9180A221800194B98470300DAB266
:102560001023FB181A55FB681B782C2B0AD1FB682B
:102570000133FB607B69022B05DCFB681B78002BB9
:10258000E2D100E0C0461023FB181B781A0010238C
:10259000FB185B7818001023FB189B7809490093FF
:1025A00003000120034CA047C046BD4607B090BDC4
:1025B000F81C0200159A0000001D0200E904020048
:1025C00095060200081D020090B58BB000AF786040
:1025D0000C23FB181422FF211800414B98477B68FD
:1025E0001B689B683F49092218003F4B9847031E10
:1025F00059D13E4B190001203D4B98477B685B68E1
:102600005A687B685B689B683A490120384CA04750
:102610007B681B68DA687B681B689B683649012009
:10262000334CA04700237B627B681B689B6809339F
:10263000BB6015E07C6A631C7B62BB680822B9182A
:102640000A2218002D4B98470300DAB20C23FB181E
:102650001A55BB681B782C2B0AD1BB680133BB60B1
:102660007B6A132B05DCBB681B78002BE2D100E0F2
:10267000C046234B190001201D4B984700233B62A5
:102680000DE00C23FA183B6AD3181B781A001D4B77
:1026900019000120164B98473B6A01333B623B6AA5
:1026A000132BEEDD18E0184B19000120104B984752
:1026B0007B685B685A687B685B689B680D49012092
:1026C0000B4CA0477B681B68DA687B681B689B68BB
:1026D00009490120064CA047C046BD460BB090BD3D
:1026E000230102001C1D0200E9040200281D020053
:1026F000159A0000F81C0200441D02009506020015
:102700004C1D0200601D0200641D020090B583B0E4
:1027100000AF7860094B19000120094B98477B688E
:102720005B685A687B685B689B6806490120044CBB
:10273000A047C046BD4603B090BDC046941D0200F0
:10274000159A0000F81C020090B58BB006AFF86037
:10275000B9607A60BB68012B3BD0052B5ED0002BA3
:1027600000D061E07B681B68002B25DB304B190033
:102770000120304B98473049304AF86800230593D0
:102780000023049300230393002302930023019367
:102790002A4B00930B000121294CA047031E05D0B2
:1027A000284B19000120234B98473DE0264B190088
:1027B0000120204B984737E0244A254B190001207F
:1027C0001C4B9847214AFB6811001800214B984781
:1027D0002AE07B681B78002B17D11F4B1F49F86834
:1027E00002221F4CA0471F4B1F49F86802221C4CB5
:1027F000A0471E4B1E49F8680222194CA0471D4BEA
:10280000190001200B4B98470EE07B681B781A00DB
:10281000194B19000120074B984705E0174B190089
:102820000120044B9847C046C046BD4605B090BD48
:10283000F81D0200159A0000141E0200241E02005A
:10284000E5B30100301E0200581E0200741702009A
:10285000741E02009DB30100C9250000AC1E0200D9
:1028600085B50100F1240000D41D02000D270000F1
:10287000C01E0200D41E0200E81E02001C1F02003F
:1028800080B588B000AF3B1D18001F4B98473B1D1B
:102890001E4A9A603B1D80229200DA603B1D1C4A52
:1028A0001A613B1D802292005A613B1D194A1A8011
:1028B0003B1D194A9A803A1D184B11001800184BFD
:1028C00098470300FB61FB69002B06DAFA69154B98
:1028D00019000120144B9847FEE7144A0F4B1100D2
:1028E0001800134B98470300FB61FB69002B06DAC5
:1028F000FA69104B190001200B4B9847FEE7C046C0
:10290000BD4608B080BDC046DDB2010020070020F2
:10291000200900205B07000070170000E806002077
:102920002DB20100301F0200159A00004927000057
:102930001DB30100641F020080B584B000AF3B1DD1
:1029400018000B4B98473B1D37221A603B1D002295
:102950005A603B1D01221A723B1D0222DA723B1D96
:1029600019000720034B9847C046BD4604B080BD00
:10297000152401004924010080B500AF064B002258
:1029800007211800054B984700210720044B984762
:10299000C046BD4680BDC046A529000015200100E7
:1029A00079200100B0B500AF0C4B1B685A1C0B4BD3
:1029B0001A600A4B1B68282B02D9084B01221A60A7
:1029C000064B1B68064A07483F21074CA047074BA8
:1029D00001221A70C046BD46B0BDC046940000201A
:1029E000981F0200540000207D030200200B0020ED
:1029F00080B500AF154A164B11001800154B9847CB
:102A0000031E08D0144B19000120144B984702E014
:102A10000020134B98470E4B34229B5C002BF7D1C0
:102A2000104B9847104B01221A70104A104B11009E
:102A30001800104B9847104B9847104B9847104B75
:102A400003221A70C046BD4680BDC04674170200FE
:102A5000E8060020D1B40100801B0200159A000096
:102A600005DB0000C11001008804002041210000A6
:102A70000D2100000911010071100100311D00003D
:102A80007404002090B585B000AF09E000202A4B07
:102A900098472A4B18002A4B98470520294B9847FE
:102AA0001020294B984703001A0001235340DBB242
:102AB000002B09D02020244B984703001A00012343
:102AC0005340DBB2002BE1D1204B9847FA239B0007
:102AD00018001C4B98471E4B00221A703B001D4AE1
:102AE00013CA13C33B0030221A700F23FC1839009D
:102AF000194B0A221800194B9847030023700F2323
:102B0000FB181B78002B08D00F23FB181A78144BE6
:102B100019000020134B984703E0134B1800134B88
:102B200098470D4B1800124B9847124B00221A7011
:102B3000C046BD4605B090BD05DB00003042002018
:102B4000F9E10100D57C0000091A0000C110010064
:102B500088040020D01F0200BC060020C1940100A0
:102B6000AC1F0200159A0000BC1F0200299900004A
:102B7000C19E01007404002080B500AF184B984737
:102B8000184B9847184A194B11001800184B9847D2
:102B9000184B9847184B34229B5C01225340DBB200
:102BA000002B0CD0154A144B11001800144B9847F9
:102BB000031E04D0134B19000120134B98470E4BF2
:102BC00034229B5C002B04D0104B190001200E4BCB
:102BD00098470F4B01221A70C046BD4680BDC046C3
:102BE000C110010081280000CD24000099240000BC
:102BF0000911010071100100E8060020741702009D
:102C00009DB30100801B0200159A0000DC1F02002A
:102C10007404002080B500AF00200B4B98470B4B8D
:102C200018000B4B98470B4B98470B4B98470B4B97
:102C300034229B5C002B04D0084B64211800084B05
:102C40009847C046BD4680BD05DB000030420020ED
:102C5000F9E10100F12C0000652C0000E8060020DD
:102C6000CDB5010090B585B002AF184B1B68390097
:102C700000221800164B98470300012B21D13B007E
:102C800000229B5E1C003B0002229B5E19003B0061
:102C900004229B5E0F4A10480193009123003F21BC
:102CA0000E4CA0470C4B18000D4B984704000A4AE5
:102CB0000C490D48002301930123009323000B4C82
:102CC000A047C046BD4603B090BDC046800400206A
:102CD000296B0000F81F0200140000207D03020091
:102CE000DB040200C01E0200E806002019B5010046
:102CF00090B58BB002AF394B1B680822B91800227F
:102D00001800374B98470300012B63D1354B364AE7
:102D100003CA03C312881A800023FB612DE0082335
:102D2000FA18FB69D3181B78FF2B2AD00823FA184E
:102D3000FB69D3181B782D4A380003212C4CA0477F
:102D40003A00284B110018002A4B9847FB690133C1
:102D50000822BA18D35CFF2B0CD0FB690133132B6C
:102D600008DC3B002C221A803A001E4B1100180090
:102D7000204B9847FB690133FB61FB69132BCEDDC8
:102D800000E0C046174B18001B4B984703001A0081
:102D9000144BD218194B1000190003231A00184BBA
:102DA0009847104B19000120164B9847164B1900F5
:102DB0000120144B98470B4B18000F4B9847040009
:102DC000084A12491248002301930123009323006B
:102DD000104CA047C046BD4609B090BD7C04002001
:102DE000296B0000140000201C1D02001C200200A2
:102DF0007D03020061040200DB04020020200200C7
:102E0000ED000200159A0000242002002820020094
:102E1000E806002019B5010090B58DB002AF7860CA
:102E20006420794B9847794B98470022042105206C
:102E3000774B98470200774B1A6000220621052045
:102E4000734B98470200744B1A6000221421022031
:102E50006F4B98470200714B1A6000220221052037
:102E60006B4B984702006E4B1A606A4B1B68002B35
:102E70000BD0694B1B68002B07D0684B1B68002BDD
:102E800003D0674B1B68002B03D1664B1800664BC1
:102E90009847664B1800644B9847654B9847654BBD
:102EA0009847654B9847654B9847654B9847654BE6
:102EB00098470C23FB18182200211800624B9847F2
:102EC000624B98470C23FB18614A1A602723FC18B1
:102ED0000C23FB1818005F4B98470300237027232F
:102EE000FB181B785BB2002B09D02723FB180022AC
:102EF0009A56594B19000120584B9847FEE7584AFB
:102F0000584B19000120554B9847574B9847574A43
:102F1000574B11001800574B9847574A5048FF230A
:102F20000093130002221121544CA04706E0002018
:102F3000534B9847534B1800534B98470220534B21
:102F4000984703001A0001235340DBB2002BEED157
:102F5000FA239B0018002C4B98474D4B01221A7006
:102F60004B4B1B785BB2012B0BD002DC002B05D046
:102F700010E0022B08D0032B09D00BE0454B9847FB
:102F80000CE0454B984709E0444B984706E0444B1A
:102F9000984703E03E4B00221A70C0460B23FB18F3
:102FA00000221A701B4B1B680B22B9180022180054
:102FB0003C4B98470300012B05D10B23FB181B78D2
:102FC0005AB2334B1A70384B1B78DBB2002B17D038
:102FD000364B1800364B98470400344A354936487A
:102FE00000230193012300932300344CA0472F4A70
:102FF000334B19000120194B98472B4B00221A70B4
:103000006420014B9847ABE7D57C0000991900007C
:10301000C95F000078040020800400207C040020A8
:10302000840400203C200200299900006420020052
:10303000D92300001524000081280000F52200009B
:1030400039290000792900002301020039BE00005F
:10305000A121000011D9000080200200159A000073
:10306000441B0200AC20020071100100CD240000BE
:103070009924000009110100341B020021DB00002B
:1030800005DB000030420020F9E10100091A0000D0
:1030900074040020792B0000152C0000F129000099
:1030A000852A0000296B0000200B0020540000201E
:1030B000DB040200D0200200E806002019B5010060
:1030C000EC20020090B583B000AF0200FB1D1A7027
:1030D000FB1D1B78032B06D8054B1868F91D002330
:1030E0000A22044CA047C046BD4603B090BDC0466E
:1030F000780400207162000080B582B000AF786073
:103100007B6800221A70C046BD4602B080BD000038
:1031100080B582B000AF02003960FB1D1A70FB1D44
:103120001B78012B0AD0022B0FD0002B14D10E4B91
:103130000D4A91693A680A439A610FE00A4B0A4ABC
:10314000D1693A680A43DA6108E0074B064A116A16
:103150003A680A431A6201E0172300E000231800CE
:10316000BD4602B080BDC0460004004080B582B0BC
:1031700000AF78607B6880221A707B6800225A70EA
:103180007B6801229A707B680022DA70C046BD46D7
:1031900002B080BD80B500AF054B9B78DBB21A0052
:1031A000022313405A1E9341DBB21800BD4680BD76
:1031B0000020004180B500AF024B9847C046BD4695
:1031C00080BDC046691D010080B500AF024B984725
:1031D000C046BD4680BDC046BD1D010080B582B061
:1031E00000AF0200FB1D1A70074AFB1D1B78190077
:1031F0001F230B40012199400B0019008023D1505F
:10320000C046BD4602B080BD00E100E080B584B09C
:1032100000AF78607B681B68FB60FB68DB69072296
:1032200013405A1E9341DBB21800BD4604B080BD66
:1032300080B582B000AF7860C0467B681800044B50
:103240009847031EF9D1C046BD4602B080BDC046B6
:103250000D32000080B584B000AF78607B681B68D9
:10326000FB607B681B6818000D4B98470300180033
:103270000C4B98477B6818000B4B9847FB688322E0
:103280001A75FB6883221A76FB681B680222934337
:103290001A00FB681A60C046BD4604B080BDC04637
:1032A0003D320100DD31000031320000F0B597B051
:1032B00000AF786139610023FB6300233B65002385
:1032C000FB643B2310229446BC44634400221A70E2
:1032D0007B691B68BB637B691B687B6323231022AC
:1032E000BA18D4187B6B1800C04B984703002370A2
:1032F0000C2310229446BC4463441800BC4B9847EE
:103300003B69DB697B643B691B6A3B647B6C002B1C
:1033100006D17B6B00211800B64B984703007B64F5
:103320007B6CDAB20C2310218C46BC4463441A70C7
:103330000C2310229446BC44634402225A707B6CD6
:103340001B0CDBB20C2210218C46BC4462441100E1
:103350001800A94B98473B6C002B06D17B6B0121D1
:103360001800A44B984703003B643B6CDAB20C2373
:1033700010218C46BC4463441A700C2310229446DE
:10338000BC44634402225A703B6C1B0CDBB20C221F
:1033900010218C46BC44624411001800964B98479B
:1033A0003B699A8A7B69DA803B69DA8A7B691A8190
:1033B0003B691B7E002B03D1904B9847031E02D024
:1033C00080237B6501E000237B653B691B69002B43
:1033D00004D03B691B697A6D13437B653B699B682D
:1033E0007A6D13437B653B6924229B5C002B04D0E0
:1033F0007B6D8022D20513437B653B699B6A002B62
:1034000004D03B699B6A7A6D13437B653B692C2230
:103410009B5C002B05D13B699A6880239B049A42F0
:1034200004D17B6D8022120513437B653B692D22FD
:103430009B5C002B04D07B6D8022120413437B65C0
:103440003B692E229B5C002B04D07B6D8022D20333
:1034500013437B65BB6B1A687B6D1A43BB6B1A60A9
:10346000BB6B802252005A60232310229446BC4436
:1034700063441B781433DBB21800614B9847030098
:10348000FB623B691B68FA2292005343BB623B69B3
:103490005B68FA22920053437B623B691B8E3B625E
:1034A000584BF86A984705000E00564BB86A984783
:1034B000B860F960534BF86A9847534C534A544BE1
:1034C000A04703000C003B607C604E4B386A984775
:1034D00002000B004C4C38687968A04703000C00D0
:1034E000180021004B4C00224B4BA04703000C005E
:1034F0001A002300444CB868F968A04703000C0088
:103500001A002300454C28003100A04703000C009E
:103510001D002600BB6A5A003A4B10009847020073
:103520000B003C4C28003100A04703000C001800A1
:1035300021003A4C00223A4BA04703000C001D002A
:103540002600BB6A5A002F4B1000984702000B0060
:10355000344C28003100A04703000C001900220061
:10356000314B0800110098470300FB633B699A68E0
:1035700080239B049A426AD1224BF86A9847254CD3
:1035800002000B00A04703000C001D0026001D4B8D
:10359000786A98471C4C0022244BA04703000C007B
:1035A0001A0023001F4C28003100A04703000C0024
:1035B00018002100194C0022194BA04703000C00F1
:1035C00019002200184B0800110098470300FB6403
:1035D000FB6C002B2ED0164B796AF86A98470300D3
:1035E0009A1EFB6CD31A3B6531E0C0466D31010079
:1035F0006D310000B12F01005D5D010095310000CB
:10360000215B0100C5FF010031F4010095D626E8D9
:103610000B2E113EA9E701000000244031F9010002
:103620000000F03FC9ED01005DFF0100000008400F
:1036300069E401007B6A5A00FB6AD3185A1E7B6A50
:1036400059001D4B100098470300013B3B65FB6B85
:10365000FF2B08DCFB6B002B05DB3B6DFF2B02DC3B
:103660003B6D002B06DA3B2310229446BC44634496
:1036700040221A703B2310229446BC4463441B78BA
:10368000402B0ED0FB6BFF221A403B6D1B04190030
:10369000FF231B040B401343FA6C12061A43BB6B47
:1036A000DA603B2310229446BC4463441B78180024
:1036B000BD4617B0F0BDC04669E4010090B58BB0BF
:1036C00000AFF860B9607A60FB68BA681A60FB689E
:1036D0001B687B62FB681B6818003B4B9847030024
:1036E0003B623B6A0233FB613B6A1433BB610122DC
:1036F000FB699A40130019000220344B98471423A9
:10370000FB181800324B98477B681A7B1423FB1870
:103710001A70BB69DBB21422BA18110018002D4BC5
:103720009847BB69DBB218002B4B98477B681B7B23
:1037300000211800294B98477B6A1B68022213401E
:1037400001D01C233BE07B6A1B680122134001D09F
:10375000052334E0FB681B681722BC1818001A4BBD
:103760009847030023701E4A1723FB181B7811008B
:1037700018001C4B98471723FB181A781A4B920015
:10378000F968D150FB6800221A76FB6800225A764D
:10379000FB6800225A83FB6800229A83FB6825227B
:1037A00000219954FB6800221A627B6A14221A6075
:1037B0007A68FB68110018000C4B9847030018004A
:1037C000BD460BB090BDC0466D3101001131000007
:1037D000F9300000FD590100415A0100252F010078
:1037E000350A0000D131010088550020AD320000BB
:1037F00080B584B000AF78607B681B68FB607B6835
:1038000018000F4B98477B6818000E4B98470E4BDB
:1038100098477B681B6818000C4B984703001800FA
:103820000B4B98470B4B98477B681800044B984705
:10383000FB6801221A60C046BD4604B080BDC04688
:103840003132000055320000B53100003D32010038
:10385000795B0100C931000080B584B000AF7860A9
:103860007B681B68BB600E23FB1800221A800FE0E8
:103870000E23FB180E22BA18128801321A807B68B8
:103880001B890E22BA1812889A4201D312230EE025
:10389000BB681B7EDBB21A000123134006D1BB6854
:1038A0001B7EDBB21A0002231340E1D00023180074
:1038B000BD4604B080BD000090B585B000AF786013
:1038C0000A00FB1C1A707B681B68FB60FB685B6866
:1038D0008022D2021A43FB685A60FB1C1A78FB68EC
:1038E0005A620B23FC187B681800074B98470300AB
:1038F0002370FB6801221A760B23FB181B78180033
:10390000BD4605B090BDC0465938000080B500AF37
:103910000020024B9847C046BD4680BD4939000093
:1039200080B500AF0120024B9847C046BD4680BD20
:103930004939000080B500AF0220024B9847C046CD
:10394000BD4680BD4939000080B584B000AF02009B
:10395000FB1D1A70FB1D1A78284B9200D358FB6090
:10396000FB681B689B7BDBB2FA68127E1340DAB2FD
:10397000FB68597E0B23FB180A401A700B23FB18B7
:103980001B780122134008D0FB689B68FA6810007E
:103990009847FB681B6801229A730B23FB181B785E
:1039A0000222134008D0FB68DB68FA6810009847D1
:1039B000FB681B6802229A730B23FB181B781022EA
:1039C000134008D0FB681B69FA6810009847FB6831
:1039D0001B6810229A730B23FB181B7820221340BC
:1039E00008D0FB685B69FA6810009847FB681B68A1
:1039F00020229A73C046BD4604B080BD70430020AB
:103A000080B584B000AF78600023FB607B68002B3A
:103A100001D172B6FEE70820114B98470300BB6046
:103A2000BB68002B01D172B6FEE7BB68002B12D039
:103A30000C4B9847BB687A681A60BB6800225A60D2
:103A4000094B1B68BA685A60074BBA681A60074B83
:103A500098470123FB60FB681800BD4604B080BD99
:103A6000115E0000D95C0000E4000020FD5C000055
:103A700080B588B000AFF860B9607A600123FB615F
:103A80003D4B1B68002B44D13B4B3C4A1A603AE04B
:103A9000394B1B681B681B68BB61BB691800384B3E
:103AA000984703007B61FA687B69D3181B78202B49
:103AB00005D0FA687B69D3181B78002B1ED17A6970
:103AC000B969FB6818002F4B9847031E16D12A4B83
:103AD0001B681B681B7B5BB2002B19DBFB681800A3
:103AE000294B984703001A00234B1B681B681B7B5C
:103AF0005BB29A420CD00023FB6109E01E4B1B68AD
:103B00005A681D4B1A601C4B1B68002BC0D100E08B
:103B1000C046194B1B68002B0CD0FB69002B09D148
:103B20007A681A49BB681800194B9847124B002253
:103B30001A601CE0104B1B68002B10D00E4B1B684A
:103B40001B689B68FA687968B86898470300FB614E
:103B5000FB69002B0BD1084B00221A6007E07A6842
:103B60000C49BB6818000A4B98470023FB61FB69AE
:103B70001800BD4608B080BD240B0020DC000020EA
:103B8000DB040200E9040200F93B000048210200C6
:103B90000B050200A021020080B586B000AFF860DE
:103BA000B9607A60114B1B68002B02D10F4B104A91
:103BB0001A600E4B1B681B685968BA68FB681800CE
:103BC0000C4B9847094B1B685A68084B1A60074B07
:103BD0001B68002B02D100237B6101E001237B6184
:103BE0007B691800BD4606B080BDC046280B00208A
:103BF000DC0000200B05020080B584B000AF7860C7
:103C00000F23FB1800221A700023BB6018E07B68AA
:103C10001B78202B0FD1BB68012B0ED00F23FB1874
:103C20001B785BB2DBB20133DAB20F23FB181A70D8
:103C30000123BB6001E00023BB607B6801337B6034
:103C40007B681B78002BE2D1BB68012B09D10F23C5
:103C5000FB181B785BB2DBB2013BDAB20F23FB1817
:103C60001A700F23FB181B785BB21800BD4604B016
:103C700080BD000080B582B000AF78607B6818001E
:103C8000034B984703001800BD4602B080BDC046F4
:103C90003974000080B582B000AF78607B6818008E
:103CA000034B984703001800BD4602B080BDC046D4
:103CB0006574000080B582B000AF78607B68180042
:103CC000034B984703009BB21800BD4602B080BD6D
:103CD0009587000080B582B000AF78607B681800DF
:103CE000044B984703001B0C9BB21800BD4602B062
:103CF00080BDC0469587000080B582B000AF786077
:103D00000A00BB1C1A807B681800084B9847030008
:103D10001B0C1A04BB1C1B881A437B68110018007B
:103D2000034B9847C046BD4602B080BD9587000052
:103D3000BD87000080B582B000AF78600A00BB1C70
:103D40001A807B681800094B984703001B041A0C63
:103D5000BB1C1B881B041A437B6811001800044B12
:103D60009847C046BD4602B080BDC046958700005A
:103D7000BD87000080B582B000AF78607B68180016
:103D8000034B984703009BB21800BD4602B080BDAC
:103D9000753C000080B582B000AF78607B68180089
:103DA000044B984703001B0C9BB21800BD4602B0A1
:103DB00080BDC046753C000080B582B000AF786021
:103DC0000A00BB1C1A807B681800084B9847030048
:103DD0001B0C1A04BB1C1B881A437B6811001800BB
:103DE000034B9847C046BD4602B080BD753C0000FD
:103DF0004D74000080B582B000AF78600A00BB1C33
:103E00001A807B681800094B984703001B041A0CA2
:103E1000BB1C1B881B041A437B6811001800044B51
:103E20009847C046BD4602B080BDC046753C000004
:103E30004D74000080B584B000AF78600023FB6053
:103E40000023BB6018E0144BBA68D200D358002B93
:103E50000FD1114BBA68D2007968D1500E4ABB68B5
:103E6000DB00D3180433012252421A600123FB60A5
:103E700005E0BB680133BB60BB68092BE3DDFB6871
:103E8000002B04D1054B1B685A1C044B1A60C0461A
:103E9000BD4604B080BDC046300B0020800B002022
:103EA00090B585B000AF0023FB602B4B1B68BB6057
:103EB000294B1A68294BD200D358002B35D0264BFA
:103EC0001A68264BD200D3581800254B9847030098
:103ED0007B60214B1B68214ADB00D31804331A682E
:103EE0007B689A4207D91C4B1B681C4ADB00D3181D
:103EF00004337A681A60184B1A68184BD200D358EA
:103F00001800184B98470300DBB21900124B1B68CE
:103F1000124ADB00D31804331B680A000321EA208D
:103F2000114CA047FB680133FB600B4B1B685A1C0C
:103F30000E4B0A21100098470B001A00064B1A601E
:103F4000FB68002B04DC044B1A68BB689A42AFD1B3
:103F5000C046BD4605B090BD840B0020300B00204C
:103F600035890000B53C0000FD47000049E701002D
:103F700080B500AF024B984703001800BD4680BDD6
:103F8000E189000090B585B002AF7860144B984786
:103F90007B68012B02D1134B98470EE07B68022B04
:103FA00004D1114B1800114B984706E07B68002B99
:103FB00003D00F4B18000D4B98470E4B1B68002B7E
:103FC00009D10D490D480B4B0193042300930023A5
:103FD000C8220B4CA047C046BD4603B090BDC046AA
:103FE000C94E00002144000000220200715500006B
:103FF000402202002C0B0020742202000540000029
:104000003979000080B582B000AF7860044B9847E2
:10401000031E01D0034B98470420034B9847F5E754
:1040200065440000A13E0000D57C000080B500AFD3
:10403000604B1B680922DA655E4B1B6864220A210B
:1040400099545C4B1B6865220A219954594B1B6893
:1040500066220A219954574B1B6867220F219954F5
:10406000544B1B68682205219954524B1B686922E6
:10407000052199544F4B1B686A22052199544D4BD9
:104080001B686B22052199544A4B1B686C22052141
:104090009954484B1B6870220F219954454B1B685B
:1040A00071220F219954434B1B6872220F2199549E
:1040B000404B1B6873220F2199543E4B1B6874229E
:1040C0000F2199543B4B1B6875220F219954394B92
:1040D0001B6876220F219954364B1B6877220F21DB
:1040E0009954344B1B6878220F219954314B1B682B
:1040F0007C22102199542F4B1B687D22102199544A
:104100002C4B1B687E22102199542A4B1B687F225E
:1041100013219954274B1B68802211219954254B58
:104120001B68812210219954224B1B688222132183
:104130009954204B1B688322132199541D4B1B68F3
:104140008422132199541B4B1B6888220021995209
:10415000184B1B688A22A0219952164B1B688C228F
:10416000A02149009952134B1B688E22F02149006F
:104170009952104B1B6890220F4999520D4B1B68A6
:1041800092220E4999520B4B1B6894220C4999526A
:10419000084B1B6896220B499952064B1B689822C4
:1041A0008C21C9009952034B1B68074A1A66C04606
:1041B000BD4680BD440C0020FD02000052030000FB
:1041C000A203000001040000BF04000080B500AF9E
:1041D0002E4B00225A822D4B5A8A2C4B1A802B4B85
:1041E0000A229A82294B9A8A284B5A80274B1422FA
:1041F000DA82264BDA8A254B9A80244B1E221A83B8
:10420000224B1A8B214BDA80204B2D225A831F4BD5
:104210005A8B1E4B1A811D4B32229A831B4B9A8B51
:104220001A4B5A81194B3722DA83184BDA8B174B0A
:104230009A81164B3C221A84144B1A8C134BDA8148
:10424000124B41225A84114B5A8C104B1A820F4B3D
:1042500009229A840D4B1322DA840C4B1D221A85F5
:104260000A4B2C225A85094B31229A85074B36225C
:10427000DA85064B3B221A86044B40225A86034BB2
:1042800045229A86C046BD4680BDC046B40B00207C
:1042900080B582B000AF0200FB1D1A70FB1D1B78B9
:1042A000082B16D89A000D4BD3181B689F460C4B51
:1042B00010E00C4B0EE00C4B0CE00C4B0AE00C4BEE
:1042C00008E00C4B06E00C4B04E00C4B02E00C4BFE
:1042D00000E00C4B1800BD4602B080BD7C250200FA
:1042E0007C220200C42202000C2302006023020090
:1042F000AC230200F82302004424020098240200A8
:10430000F02402004C25020090B587B000AF1723BF
:10431000FB1800221A70364B1B68002B0BD1344B54
:104320001B68002B05D1334B1800334B98470023F3
:1043300059E0002357E02E4B1B681B6B012B01D16A
:10434000012350E02D4B1B68002B49D1EFF3108364
:10435000BB60BB683B610123FB60FB6883F3108893
:10436000274B1B685A1C264B1A60214B1B680122E5
:104370001A63244B984703001800234B9847030007
:104380001A001723FB181A701723FB181B78002B31
:1043900016D11723FC1803201C4B984703002370E9
:1043A0001B4A1723FB181B7819000320194B984749
:1043B0001723FB181B78002219000320164B98477F
:1043C0001723FB181B781800144B98470C4B1B68DD
:1043D0005A1E0B4B1A603B697B607B6883F3108825
:1043E000034B1B681B6B1800BD4607B090BDC04651
:1043F000440C0020A025020071550000A40B0020F1
:104400009C0B0020713F0000B53C0000555200009D
:10441000E425020085540000E94B0000D14A000069
:1044200080B500AF024B9847C046BD4680BDC04630
:104430000943000080B500AF084B1B68002B03D078
:10444000064B1B6800221A63054B1B68002B02D029
:10445000034B1B689847C046BD4680BD440C0020F6
:10446000AC0B002080B500AF054B1B68002B03D0C0
:10447000034B1B681B6B00E000231800BD4680BD8A
:10448000440C002090B589B000AF0200FB1D1A70EB
:10449000FB1D1B78002B57D02E4B1B68002B55D0D3
:1044A000FB1D1B780F2B04D92B4B18002B4B984767
:1044B0004DE02B4B1B68002B04D02A4B1800274BD8
:1044C000984744E0EFF31083FB60FB68FB61012336
:1044D0003B613B6983F31088214B1B685A1C204BBE
:1044E0001A60214B1B681B6B002B22D01A23FC186F
:1044F0001E4B18001E4B9847030023801923FB18FE
:10450000FA1D12781A701B4B984703007B617B6978
:10451000002B0ED07B6902221A707B691A22BA180E
:1045200012885A807B691922BA1812785A70124B75
:1045300098470B4B1B685A1E094B1A60FB69BB60FE
:10454000BB6883F3108802E0C04600E0C046BD4669
:1045500009B090BDF00000204C2902007155000008
:104560009C0B00208C290200440C0020FFFF00005F
:1045700085570000295100002D57000080B58EB0EE
:1045800000AFF860B9607A60484B1B68002B00D11F
:1045900088E07B68002B03DA7B685B427B6301E089
:1045A0007B687B63EFF31083BB61BB693B630123D3
:1045B000FB61FB6983F310883D4B1B685A1C3C4B25
:1045C0001A60BB68002B05D03A4B1A687B68D2187A
:1045D000384B1A60354B1B681B6B002B57D0FF20E4
:1045E000354B984703001A002F23FB181A707B6B7A
:1045F000324A19001000324B984702002C23FB1856
:104600001A80304B98470300BB62BB6A002B3ED038
:10461000BB6A2F22BA1812785A70BB6A00221A702D
:10462000BB6A2C22BA1812885A80274B9847BB685D
:10463000224A19001000224B984702002623FB183B
:104640001A802523FB1800221A701E4B984703007E
:104650003B623B6A002B1AD03B6A2622BA181288AA
:104660005A803B6A2522BA1812785A70FB68DBB26E
:104670000133DAB23B6A1A70FB68DAB2BB6A1A70AD
:10468000114B9847094B1B680A4A12681A65084B78
:104690001B685A1E064B1A603B6B7B617B6983F378
:1046A000108800E0C046BD460EB080BD440C00201E
:1046B0009C0B0020B00B002085570000FFFF00007E
:1046C00049490000295100002D57000090B58BB0DA
:1046D00000AFF8607A600B23FB180A1C1A70FB68A5
:1046E000FE2B04D9394B1800394B98476BE00B234C
:1046F000FB181B78082B04D9364B1800344B98470D
:1047000061E0354B1A680B23FB181B786421D31822
:104710005B181B781A007B689A4204D22F4B180052
:104720002B4B98474FE02E4B1B68002B04D02D4B92
:104730001800274B984746E02B4B1B78002B41D0A5
:10474000EFF310837B617B697B620123BB61BB69F3
:1047500083F31088224B1B685A1C214B1A601E4B96
:104760001B681B6B002B22D02223FC181F4B180048
:104770001F4B9847030023802123FB187A681A7087
:104780001C4B98470300FB61FB69002B0FD0FB69B2
:104790002222BA1812885A80FB68DAB2FB691A70B2
:1047A000FB692122BA1812785A70134B98470C4BA8
:1047B0001B685A1E0A4B1A607B6A3B613B6983F394
:1047C000108800E0C046BD460BB090BDFC29020039
:1047D00071550000342A0200440C00207C2A02009B
:1047E0009C0B0020C42A0200A80B0020FFFF000041
:1047F00085570000295100002D57000080B58AB070
:1048000000AFF8607A603B600B23FB180A1C1A703B
:10481000FB68FE2B04D9404B1800404B984777E0CB
:104820000B23FB181B78082B04D93D4B18003B4B7E
:1048300098476DE03B4B1A680B23FB181B786421EB
:10484000D3185B181B781A007B689A4204D2364B47
:104850001800324B98475BE0344B1B68002B04D0A8
:10486000334B18002D4B984752E0EFF310837B61D8
:104870007B697B620123BB61BB6983F310882B4B8F
:104880001B685A1C294B1A60264B1B681B6B002B9C
:1048900034D0284B1B78002B30D0FF20264B984774
:1048A00003001A002323FB181A703B681900FF202D
:1048B000224B984702002223FB181A702123FB1871
:1048C0007A681A701E4B98470300FB61FB69002B46
:1048D00014D0FB692322BA181278DA70FB68DAB2B6
:1048E000FB691A70FB692122BA1812785A70FB69A9
:1048F0002222BA1812789A70124B98470B4B1B68F9
:104900005A1E0A4B1A607B6A3B613B6983F310882D
:10491000BD460AB080BDC046FC2A020071550000A9
:104920003C2B0200440C00208C2B02009C0B00202E
:10493000DC2B0200A80B002085570000494900002D
:10494000295100002D57000080B584B000AF786079
:1049500039607B68FF2B09D07B68194A934205D0E8
:10496000184B1800184B98473B6824E03A687B685E
:104970009A4201D83B681EE0144B98470300FB6045
:10498000FB68002B14D0FB6801221A707B68DB43A4
:104990003A6813401B0ADAB2FB685A707B68DB4343
:1049A0003A6813401B0C9AB2FB685A80084B984730
:1049B0003B687A6813401800BD4604B080BDC0460D
:1049C000FFFF0000142C0200715500002951000067
:1049D0002D57000080B58AB000AF7860396026237B
:1049E000FB1800221A807B68FE2B04D92D4B18007F
:1049F0002D4B984753E02D4B1B68002B04D02C4BBC
:104A00001800294B98474AE0EFF310833B613B695C
:104A10003B6201237B617B6983F31088234B1B6816
:104A20005A1C224B1A60234B1B681B6B002B2CD08B
:104A3000214B1B78002B28D0FF20204B98470300E8
:104A40001A001F23FB181A703B681D4A190010003A
:104A50001C4B984702002623FB181A801A4B9847D4
:104A60000300BB61BB69002B0FD0BB691F22BA18C2
:104A700012785A707B68DAB2BB691A70BB69262259
:104A8000BA1812885A80114B9847084B1B685A1E57
:104A9000064B1A603B6AFB60FB6883F31088BD46D7
:104AA0000AB080BD502C0200715500009C0B002004
:104AB000A82C0200440C0020A80B00208557000001
:104AC000FFFF000049490000295100002D57000058
:104AD00090B589B000AF0200FB1D1A70FB1D1B785A
:104AE0000F2B04D9344B1800344B984761E0EFF397
:104AF0001083FB60FB68FB6101233B613B6983F32F
:104B000010882F4B1B685A1C2D4B1A602D4B1B789D
:104B1000FA1D12789A4242D02B4B1B681B6B002B5C
:104B20003DD02A4B00221A601A23FC18284B18008B
:104B3000284B984703002380224BFA1D12781A70E5
:104B40001923FB181F4A12781A70234B9847030049
:104B50007B617B69002B22D01A4B1B781900032044
:104B60001E4B98470300012B03D17B6907221A7063
:104B700002E07B6906221A707B691A22BA18128831
:104B80005A807B691922BA1812785A700D4B1B781B
:104B9000012219000320124B9847124B9847084BEB
:104BA0001B685A1E064B1A60FB69BB60BB6883F327
:104BB0001088BD4609B090BDE02C02007155000080
:104BC0009C0B0020A80B0020440C0020880B002028
:104BD000FFFF00008557000029510000CD4D000067
:104BE000294D00002D57000090B583B000AF0400A0
:104BF00008001100FB1D221C1A70BB1D021C1A703C
:104C00007B1D0A1C1A70FB1D1B78082B04D91A4B3C
:104C100018001A4B98472CE0194B1A68FB1D1B789B
:104C20006421D3185B181B78BA1D12789A4204D9F4
:104C3000144B1800114B98471BE0114B1C68FB1DCF
:104C40001A78BB1D1B78110018000F4B9847030002
:104C500018000B4B1A68FB1D1B787021D3185B18CA
:104C60001B78C31801339C22E3189B187A1D127815
:104C70001A70BD4603B090BD742E0200715500003D
:104C8000440C0020C02E02007D51000090B583B07E
:104C900000AF0200FB1D1A70BB1D0A1C1A70FB1D21
:104CA0001B78082B05D91B4B18001B4B984700237A
:104CB0002BE01A4B1A68FB1D1B786421D3185B1874
:104CC0001B78BA1D12789A4205D9154B1800124B61
:104CD0009847002319E0114B1C68FB1D1A78BB1D77
:104CE0001B78110018000F4B9847030018000B4B5E
:104CF0001A68FB1D1B787021D3185B181B78C3182A
:104D000001339C22E3189B181B781800BD4603B0A2
:104D100090BDC046002F020071550000440C0020D9
:104D20004C2F02007D51000090B583B000AF04000D
:104D300008001100FB1D221C1A70BB1D021C1A70FA
:104D40007B1D0A1C1A70FB1D1B78082B04D91A4BFB
:104D500018001A4B98472BE0194B1A68FB1D1B785B
:104D60006421D3185B181B78BA1D12789A4204D9B3
:104D7000144B1800114B98471AE0114B1C68FB1D8F
:104D80001A78BB1D1B78110018000F4B98470300C1
:104D900018000B4B1A68FB1D1B787021D3185B1889
:104DA0001B78C3189C22E3189B187A1D12781A707E
:104DB000BD4603B090BDC0468C2F02007155000067
:104DC000440C0020D02F02007D51000090B583B02C
:104DD00000AF0200FB1D1A70BB1D0A1C1A70FB1DE0
:104DE0001B78082B05D91A4B18001A4B984700233B
:104DF0002AE0194B1A68FB1D1B786421D3185B1835
:104E00001B78BA1D12789A4205D9144B1800114B21
:104E10009847002318E0104B1C68FB1D1A78BB1D37
:104E20001B78110018000E4B9847030018000A4B1E
:104E30001A68FB1D1B787021D3185B181B78C318E8
:104E40009C22E3189B181B781800BD4603B090BD48
:104E50000C30020071550000440C0020503002005C
:104E60007D51000090B583B000AF0200FB1D1A70A9
:104E7000114B1B6867229B5CFA1D12789A4204D979
:104E80000E4B18000E4B984713E00B4B1C68FB1D94
:104E90001B78032118000B4B984703001900064BA1
:104EA0001B6873229B5CCB189C22E3189B18002282
:104EB0001A70BD4603B090BD440C00208C30020037
:104EC000715500007D51000080B500AF754B1B6827
:104ED000002B03D1734B744A1A6006E0714B1B68B8
:104EE0001B78DBB2012B00D1D8E0704B1A68704BF5
:104EF0001A606C4B1868BD231B011A0000216D4B12
:104F00009847684B1B686C4A9A81664B1B68052260
:104F10009A73644B1B680022DA73624B1B68BD22D4
:104F200012011A615F4B1B68962252009A615D4B19
:104F30001B68624A5A655B4B1B6800229A65594B95
:104F40001B6800225A635E4B9847564B1B685D4AAC
:104F50005D499950534B1A68AC23DB00C821D150EE
:104F6000504B1B68594A012199504E4B1A68D72360
:104F7000DB005749D1504B4B1B68564A944663445B
:104F8000554950221800554B9847464B1B68544AC8
:104F900054499950434B1B68534A0A219954414B39
:104FA0001B68524A0B2199543E4B1B68504A0C21F6
:104FB00099543C4B1B684F4A0D219954394B1B683F
:104FC0004D4A71219954374B1B684C4A72219954B0
:104FD000344B1B684A4A73219954324B1B68494A27
:104FE000742199542F4B1B68474AF12199542D4B3A
:104FF0001B68464AF22199542A4B1B68444AF32104
:105000009954284B1B68434AF4219954424B9847C2
:10501000244B1B68F422DA72224B1B68F3229A722B
:10502000204B1B68F2225A721E4B1B68F1221A7227
:105030001C4B1B687422DA711A4B1B6873229A711D
:10504000184B1B6872225A71164B1B6871221A7119
:10505000144B1B680422DA70124B1B6803229A70EF
:10506000104B1B6802225A700E4B1B6801221A70EB
:105070002A4B1B68002B12D00A4B1B68154A981844
:10508000264B1B6850221900144B9847054B1B6890
:10509000234A01219950234B984700E0C046BD4662
:1050A00080BDC046440C00207C43002018E000E096
:1050B0004C4F002023010200A11A0000F0F0F0F094
:1050C0002D4000005C050000F1F1F1F164050000E5
:1050D000F2F2F2F2BC060000D43002003D540000AF
:1050E0000C070000F3F3F3F3C40B0000C50B000042
:1050F000C60B0000C70B0000C80B0000C90B000066
:10510000CA0B0000CB0B0000CC0B0000CD0B000045
:10511000CE0B0000CF0B0000CD410000A40B0020FF
:10512000B40600003544000080B500AF104B1B688A
:105130001B6B002B01D1002317E00D4B1B68DA69B4
:105140002C23FF339A4205D90A4B18000A4B984783
:1051500000230AE0064B1A68054B1B68DB699B00BD
:10516000E221C9008C466344D3181800BD4680BDB7
:10517000440C0020E83002007155000080B582B078
:1051800000AF0200FB1D1A70BB1D0A1C1A70BB1D6C
:105190001B78082B05D92A4B18002A4B9847002367
:1051A00049E0FB1D1B78002B0BD0274B1A68BB1D59
:1051B0001B786421D3185B181B78FA1D12789A4269
:1051C00005D9224B18001F4B9847002333E0BB1D25
:1051D0001B78082B2AD8FB1D1B78002B26D01A4BD6
:1051E0001A68BB1D1B786421D3185B181B78FA1D45
:1051F00012789A421AD8144B1A68BB1D1B78403398
:105200005B00D31808331A880F4B1968BB1D1B7835
:105210007C20CB181B181B789BB2F91D097801392B
:1052200089B24B439BB2D3189BB204E0084B1800E1
:10523000044B984700231800BD4602B080BDC0460D
:105240001031020071550000440C00205031020062
:105250009031020080B588B000AF0200FB1D1A70CB
:105260005A4B1B68002B05D1594B1800594B9847D6
:105270000023A7E0FB1D1B78082B05D9564B18000F
:10528000544B984700239DE0EFF31083FB60FB68CD
:10529000BB6101233B613B6983F310884F4B1B6863
:1052A0005A1C4E4B1A60FB1D1A784D4B5200D35AB4
:1052B0001A004C4B1A604B4B1B68494A4821D318C3
:1052C0005B181B78002B17D1464B1A68454B1B689F
:1052D000D9B2FB1D1B78424808335B00C318023368
:1052E0001B88DBB2CB1ADBB20133D8B23C4B48216E
:1052F0009B185B18021C1A703A4B1A681F23FB1884
:10530000374948208A18121812781A70FB1D1A782B
:10531000334B5200D25AFB1D1B78314910335B00CE
:10532000CB1804331B889A420DD9FB1D1B7818003B
:105330002D4B984703001800264B98471F23FB1856
:1053400000221A7031E0FB1D1B78254A59008A5A49
:10535000013291B2224A5B009952FB1D1A78204B10
:105360005200D35A1900FB1D1B781D4A08335B00FD
:10537000D31802331B88CB1A7B61FB1D1B78184A9C
:1053800018335B00D31806331B881A007B699A42D6
:105390000BDAFB1D1B787A69D2B291B2104A18332E
:1053A0005B00D31806330A1C1A800C4B1B685A1E6C
:1053B0000A4B1A60BB69BB60BB6883F310881F236C
:1053C000FB181B781800BD4608B080BD440C0020B7
:1053D000F025020071550000D03102009C0B002026
:1053E000B40B0020480C00209142000090B585B01D
:1053F00000AF0200FB1D1A70BB1D0A1C1A700E23A1
:10540000FC18FB1D1A78BB1D1B7811001800094BF6
:10541000984703002380084B1A680E23FB181B884B
:105420009C21D3185B1801221A70C046BD4605B0F6
:1054300090BDC0467D510000440C002080B586B070
:1054400000AFF860B9607A6000237B6110E0FA6811
:105450007B69D318B9687A698A1812781A70BA68A1
:105460007B69D3181B78002B07D07B6901337B61E4
:105470007A697B689A42EAD300E0C046C046BD46DE
:1054800006B080BD80B582B000AF3A60FB1D021C43
:105490001A70BB1D0A1C1A703B68002B04D12A4BE2
:1054A00018002A4B98474BE0FB1D1B78082B04D9AA
:1054B000274B1800254B984742E0BB1D1B78002B5B
:1054C00004D1244B1800214B984739E0224B1A682D
:1054D000FB1D1B786421D3185B181B78BA1D12784A
:1054E0009A4209D9FB1D1B7818001C4B98470300F2
:1054F0001800164B984723E0FB1D1A78BB1D1B783C
:1055000011001800164B984703001A00154B1A801B
:10551000154B1B68002B13D10F4B1A68114B1B88BE
:105520009833D318181D0C4B1A68FB1D1B7870217B
:10553000D3185B181B781A003B6819000B4B98476F
:10554000BD4602B080BDC046D43202007155000095
:105550000833020038330200440C0020914200005E
:105560007D5100004C0C0020A40B00203D54000095
:1055700080B582B000AF7860114B1B68002B01D062
:10558000104B9847104B1B68002B15D10E4B7A68B7
:105590001A600B4B1B68002B0ED0094B1B680B4A83
:1055A0009818094B1B6850221900094B9847044B67
:1055B0001B68084A01219950C046BD4602B080BD13
:1055C000440C002035440000A40B0020BC06000061
:1055D0003D540000B406000080B586B000AF020064
:1055E000FB1D1A7000237B6100233B61FB1D1B78B0
:1055F000002B00D089E0494B1800494B98478AE0BE
:10560000484B1B68DA697B69D3183B61454B1968C5
:105610003B699A00E223DB008A18D3181B78982B89
:1056200034D9404B19683B699A00E223DB008A18A1
:10563000D3181B78A72B29D83A4B19683B699A00D5
:10564000E223DB008A18D3181A780F23FB1868327C
:105650001A700F23FB181A783B69D218314B1B685C
:105660009B699A424DD22F4B1A683B699B00E221FD
:10567000C9008C466344D0180F23FB181B780133F4
:105680009B001A000021284B98473AE0254B1968E7
:105690003B699A00E223DB008A18D3181B78012BA0
:1056A00030D13B695A1C1F4B1B689B699A420ED232
:1056B0001C4B1A683B699B00E221C9008C4663447D
:1056C000D318082200211800174B98471AE0154BF1
:1056D0001B68E222D2009446634404220021180091
:1056E000114B98470F4B1A683B699B00E221C90098
:1056F0008C466344D3180422002118000A4B9847B3
:1057000000E0C0467B6901337B61FB1D1A787B6931
:105710009A4200D974E7BD4606B080BD98330200B6
:1057200071550000440C00202301020080B500AF39
:10573000124B1B681B6B002B1CD0104B1B685A694B
:1057400001325A610D4B1B68DA690132DA610B4B89
:105750001B68DA692C23FF339A4207D9074B1B6871
:1057600001221A62054B1B680022DA610120044BFA
:10577000984700E0C046BD4680BDC046440C0020AE
:10578000D9550000B0B586B000AF0200BB1D1A802D
:1057900000237B6100233B610023FB60BB1D1B8852
:1057A000FF2B0AD0BB1D1B88604A934205D0604B7B
:1057B0001800604B98470023B3E05F4B1B685B6A9F
:1057C000002B18D15D4B1B68002B06D05A4B1B6871
:1057D0005A4A126892085A620DE0594B1A68594B9E
:1057E0001B689A4207D0544B1C680020564B9847C0
:1057F00003009B0863620C23FB181800534B984767
:10580000FA68534B1B68D31A3B61FA68504B1A6015
:10581000494B1B685B6A002B44D0474B1B685A6A94
:105820003B699A421ED2444B1C68434B1B68DD6A9D
:10583000414B1B685A6A474B11003869984703006F
:10584000EB18E3623C4B1C683B4B1B689D6A3A4B70
:105850001B68596A3A69404B100098470B00EB18D7
:10586000A36207E0344B1B68334A1268916A3A69B5
:105870008A189A62304B1B689A6A2F4B1B685B6AC6
:105880009A4213D32C4B1B68DA6A0132DA622A4B34
:105890001B68294A1268916A274A1268526A8A1A52
:1058A0009A6203E0244B1B68FA689A62BB1D1A884F
:1058B0003B699A422FD2294B984703007B617B6951
:1058C000002B28D0BB1D1B88184A93420BD17B6943
:1058D000A9221A703B691B0C9AB27B695A807B69BA
:1058E00000225A7015E0BB1D1B88FF2B0DD17B6970
:1058F000A8221A703B691B0A9AB27B695A803B69DD
:105900001B0EDAB27B695A7003E0154B1800094B85
:105910009847144B98473B699BB2BA1D12881340B5
:105920009BB21800BD4606B0B0BDC046FFFF0000E8
:10593000F033020071550000440C0020A00B002041
:1059400018E000E04C4F0020255901006959000083
:10595000500C002069E4010075E5010029510000A8
:10596000303402002D57000080B584B000AF78605D
:105970000023BB600023FB602D4B1B68012B07D16C
:105980007B68002B4FD02B4B1A687B681A604AE06B
:10599000294B1A68294B1B68D31A0133BB60284B6B
:1059A0001A68284B1B68D31A013B002B03DB244BDE
:1059B0001B68FB6002E0234B1B68FB60204B1B68ED
:1059C000FA689A4207D1204B1B68BA689A4202D201
:1059D000FB680133FB607B68002B16D0164B1B68FD
:1059E00001339B08FA685A43124B1A60124B1B682A
:1059F000013303221340FA685A43BB68D3189A084C
:105A00000C4B1B68D2180B4B1A600D4BFA681A60CE
:105A10007B68002B03D0074B1A687B681A600A4B1F
:105A2000BA681A6000E0C046BD4604B080BDC046FA
:105A3000900B0020940B002014E000E018E000E040
:105A4000540C00208C0B0020580C002080B582B034
:105A500000AF78607B6808331A007B685A607B6807
:105A6000012252429A607B6808331A007B68DA6030
:105A70007B6808331A007B681A617B6800221A6011
:105A8000C046BD4602B080BD80B582B000AF786030
:105A90007B6800221A61C046BD4602B080BD80B559
:105AA00084B000AF786039607B685B68FB603B68FE
:105AB000FA685A60FB689A683B689A60FB689B6862
:105AC0003A685A60FB683A689A603B687A681A617B
:105AD0007B681B685A1C7B681A60C046BD4604B0D0
