S01300004170706C69636174696F6E2E737265639D
S21401200068680020358A0100198A0100198A0100D2
S21401201000000000000000000000000000000000BA
S214012020000000000000000000000000F550010064
S2140120300000000000000000D1510100155201000F
S214012040198A0100198A0100198A010075790100AF
S21401205081780100198A010065220100198A0100B0
S21401206009230100197D0100297D0100397D010048
S214012070497D0100597D0100697D0100E989010062
S214012080F9890100098A0100013E0100113E0100A3
S214012090213E010000000000000000003521010083
S2140120A0198A0100E1210100198A0100198A01003B
S2140120B00000000010B5064C2378002B07D1054B15
S2140120C0002B02D0044800E000BF0123237010BD9E
S2140120D04002002000000000D8D30100084B10B5D4
S2140120E0002B03D00749084800E000BF07480368F3
S2140120F0002B00D110BD064B002BFBD09847F9E70B
S2140121000000000044020020D8D30100D8D301000B
S2140121100000000003685A7E52B2002AFBDB02224E
S214012120197B0A431A730268537E5BB2002BFBDBF2
S2140121307047000070B5284B1C6823681A7EDD7D49
S21401214015400122154228D01A7621684B7E5BB2D3
S214012150002BFBDB6269931C63614B8B9BB2138084
S214012160238B013B9BB22383002B10D101222168D4
S2140121708A75217F052910D12377E37E13420CD07F
S214012180A37E134209D02000A368984705E0637F29
S214012190002B02D02000114B984704231D420BD080
S2140121A022681376E27E023B1A4205D0A27E1A42CC
S2140121B002D02000E368984702231D420BD0226814
S2140121C01376E27EDB181A4205D0A27E1A4202D0AE
S2140121D023692000984770BD643500201521010051
S2140121E070B51E4B1C6801232568AA791A4206D0D1
S2140121F0AB71637C002B02D00020A36998470222B2
S214012200AB79134229D0AA71A389002B1FD0E38989
S2140122109BB2591C89B2E181A1685B00CB181B886F
S2140122209BB2AB81A389013B9BB2A381A08980B2FB
S21401223000280CD1631CD8772A71AA718022084B1A
S2140122409204DA67A37C002B01D0E3699847237CCC
S214012250002B02D063690020984770BD68350020C6
S21401226004E100E070B5204B98470F221F4B204930
S2140122701B8C204C13409B0058581F4D037813406D
S2140122801E4A137001781E4A0901641869181378EA
S21401229064884988DBB2611A41611C0001210C4047
S2140122A00CD0102311704374037C0B4203D0436897
S2140122B0002B00D09847134B984770BD02210B4264
S2140122C006D01170037C44740B42F4D08368EFE7A8
S2140122D004210B42EFD0062311704374037C0B429A
S2140122E0E9D0C368E4E7C046CD7701000048004165
S2140122F05C02002070350020700200203F4800413B
S2140123004E4800410178010070B50A4A0A4C9369AB
S214012310A16825690B43A360084B9361002D04D186
S214012320E268A3689343A36070BD28686B6898470A
S214012330AD68F3E70004004200000020FFFF0F0F26
S2140123400223054A116A0B4313620123034A1370E1
S21401235011781942FCD17047000400400004004285
S21401236007230168CA691A42FCD17047F8B50568A7
S21401237004002A68468B838BF61A838BB6B2013B20
S2140123809BB28383C37A12010AD5002B0DD0838BAF
S214012390012B0AD180236A68DB0213436B6004E0D9
S2140123A0002B02D0838B002BF4D0A38B0A4F002B7B
S2140123B009D1A37A002B06D02000B847C0236A684B
S2140123C09B0213436B602000B847236A28359E1989
S2140123D02B78DBB23370F8BD6123010070B5066857
S2140123E00400738B5B0703D51E230634E37770BDA9
S2140123F0458B838B2836ED1A838BADB2013B9BB29E
S2140124008383044B9847236A5D192B78DBB23370BC
S214012410EDE7C0466123010070B54B7A05000E005A
S2140124200468002B02D0897A0F4B984763680F4ADD
S21401243013400022636073682B627388AB836B1D45
S214012440DA7705230635EB77023BA375727A338874
S214012450317A5B0092031343002902D080221202D4
S21401246013430020636270BD853D0100FFFFFBFF43
S2140124700122F8B54B68046803624B880600838323
S214012480431DDA77831D0432DA7727684B7A3F01DA
S2140124900D00FF0F002B02D0897A204B9847002FA2
S2140124A02FD06B88012B2CD180236268DB0213436B
S2140124B06360287A002828D02B886A7A5B0092030A
S2140124C0134380221202134363623000144B984771
S2140124D06368144A13406360002811D13000124B20
S2140124E0984700280CD10323A3752A887533120A4E
S2140124F013430122697A5B0089030A43134363622B
S214012500F8BD6368074A1340D2E70323A3752B88F7
S2140125106A7A5B00920313430122EFE7853D0100CF
S2140125205D3D0100FFFFFBFF313D0100931C9B0059
S214012530C318596001239340017E0B43DBB2037637
S2140125407047000010B5828B03000520002A05D1D4
S21401255001329A72DA721800014B984710BDC046D4
S2140125607124010010B5828B03000520002A05D1D5
S21401257001329A72DA721800014B984710BDC046B4
S21401258019240100F8B55E4B8000C4582568A61DC5
S2140125902B68627E277E1B011740628BDB0F002AA9
S2140125A02ED1A28B002A2BD001232A7E1A4206D0D6
S2140125B002222B766B8B134010D04123F377A38B2B
S2140125C09BB26383F37F052B3CD1631DDB7F200029
S2140125D0002B00D08AE04B4B984733E06A8B5207BA
S2140125E0EDD51822F277A383A37A002BE7D0464BCA
S2140125F020009847C0236A689B0213436B60DEE79E
S214012600628B002A5FD0A28B002A5CD1F27F052A5A
S21401261059D1621DD27FD2B2002A54D103232B7521
S2140126206283F277A37A002B4AD0374B2000984773
S214012630C0236A689B0213436B60FB0702D5E368FD
S21401264020009847638B002B1BD0A38B002B18D13F
S214012650F37F052B15D1631DDA7F012A11D1297E5F
S2140126600132114200D02A7603222A7500226283A3
S214012670F277BA073CD5DA7F012A39D123692000DF
S2140126809847F37F052B1AD0F37F002B17D003232F
S2140126902B7500236383A383F37F412B0AD0A37A90
S2140126A0002B07D0184B20009847E0236A68DB020E
S2140126B013436B607B0702D5636920009847F8BD1A
S2140126C001232B76B9E7628B002ABBD0A28B002AA6
S2140126D0B8D06A8B920600D577E7002B03D0A38B80
S2140126E0012B00D171E74123F377ABE7074B73E783
S2140126F0FA07C6D5DB7F002BC3D1E368BFE7C04628
S21401270000480020DD230100612301006D23010044
S214012710F8B506000F00064D1B232800054C064A97
S2140127200F21A0472A0039003000A0470020F8BD3D
S214012730CC02002095B60100D0C1010010B5034BB4
S214012740034A044CA047002010BDC0466BBF0100E1
S21401275071BF010095B6010010B50220064B9847DF
S2140127600648074B9847BFF34F8F064A064BDA6079
S214012770BFF34F8FFEE7C046C1390100A0860100B6
S2140127803D6901000400FA0500ED00E070B5064B56
S2140127900D000400984729000300044A2000044C59
S2140127A0A047002070BDC046B166010052BF0100BF
S2140127B095B60100F0B5002489B002AB04AD1C70DB
S2140127C05C7003ABAB60012302AAEB81AB811E48B0
S2140127D01E4B2C706A6098471D4E23001D4A0F2120
S2140127E01D4F3000B847194B30009847E3B25F00E1
S2140127F010335B00DBB2FFB2019300226421280094
S214012800164B2F709847002819D12B78114A0F21A3
S2140128100F48114EB0470D4B0D4898470237019BA4
S214012820FFB29F42E9D10E4F084E38001034B04730
S214012830802CD1D13800B047002009B0F0BD09493D
S214012840094B03489847E6E788BF010095760100E3
S214012850CC020020B9BF010095B601003D31010050
S214012860BDC20100C0BF010079B70100F0B50F2558
S21401287087B01D4B0E0002900027984702ABED185B
S21401288029001A4B04002F7098472B78BB4228D09A
S214012890174D062239002800164B9847164B29007B
S2140128A020009847154F0023E85EB847144C206077
S2140128B00223E85EB84760600423E85EB847114D1E
S2140128C0A060071C2068A8470390381CA847019001
S2140128D06068A847039B00900B4A310002980B4C96
S2140128E0A047002007B0F0BD5933010001330100B5
S2140128F0AA0300200FB5010021330100E9320100CF
S214012900C0020020AD97010010BF010095B601007E
S21401291070B50E000500064C0120A0470020A04718
S21401292031002800034A044B9847002070BDC0467A
S214012930312D0100FEBE010095B60100F8B50E4B23
S2140129400E000500984705210C4B0400984700230C
S214012950FF211A000A4F2000B847FA20094BC00091
S21401296098472000084B984731002800074A084B33
S21401297098470020F8BDC046FD350100CD35010061
S214012980413401003D690100E53501003FBF01000A
S21401299095B601007FB505000E0003AC2000064B7E
S2140129A0984762782378310000922800034A044C45
S2140129B0A047002004B070BD8933010029BF010083
S2140129C095B60100BFF34F8F024A034BDA60BFF39F
S2140129D04F8FFEE70400FA0500ED00E0F7B5644C02
S2140129E06448A0476448A0476448A0476448A04795
S2140129F06448A0476448A0476448A0476448A04785
S214012A006448A0476448A0476448654FB847654B8B
S214012A100322002101209847634B041E186006D14B
S214012A200320624B624998472000624B9847002674
S214012A306846614CA047431C2ED06B461B785F4D01
S214012A400A2B01D00D2B31D100245D48B8475D4BD0
S214012A505D4E2C705D4D1C703000312229005C4BA0
S214012A603136984734705B4C64225B4B210028005A
S214012A709847230000220600633320001A70B847E7
S214012A80002EF0D1310032222800544DA84764228E
S214012A9031002000A847CBE70121434B4942186883
S214012AA04F4B98470028F7D06846C3E72A78002A94
S214012AB037D0444A117803292FD8481C107049484A
S214012AC043541378012BB3D947494648474B984797
S214012AD000281DD03D4C1B224549464B20009847F7
S214012AE02000B847322200213C4B20009847384B43
S214012AF0312235492000984720003F4EB047030059
S214012B003120302B01D83048B047C6B22000B84734
S214012B1000232C4A2B7013708AE700232B70137046
S214012B20CFE7082B01D07F2B0FD10422334901A810
S214012B30334B984701A8B847002E00D178E700220A
S214012B40013E224BF6B29A5572E71B2B04D11A3B73
S214012B502B701C4B1A706BE7312E03D81B4A93550A
S214012B600136F6B200236A4668465370B8475FE7F7
S214012B70613E010008C20100C0C1010018C2010087
S214012B80F8C1010058C2010048C20100E8C10100B5
S214012B90D8C1010038C2010028C20100C3BF01002C
S214012BA095760100B9550100C0350020397701003E
S214012BB096C101009D6A01000D770100DC0200202C
S214012BC0BDC20100DD02002014030020E202002045
S214012BD0B9B7010046030020A53E01000FB501006C
S214012BE02D5F0100DE020020B5C101003DB70100E6
S214012BF0B8C10100F9B6010089B70100FABE0100AB
S214012C00D9B40100002310B5074C2360074B2100FF
S214012C101868074B98472368002B03D08022054B82
S214012C2052051A6010BDC046B0030020C035002012
S214012C30855C010004ED00E010B50748074C826092
S214012C40217064225A21838101230170446011009E
S214012C50034CC381A04710BDC4350020D4350020E5
S214012C60AD31010070B50C4C2170002188B2834251
S214012C700CD85A2109480170591CC1818381826090
S214012C8064210122064B4460984770BD555C60186C
S214012C9045700131EAE7C046D4350020C43500202E
S214012CA03D310100802310B5044C9B03A361052030
S214012CB0034B984780235B03636110BD00440041CA
S214012CC03D69010010B500280AD180230C4C5B0336
S214012CD0A36105300B4B984780239B03636110BDAE
S214012CE0012802D1084B9847F9E78022044B52038A
S214012CF05A61802292035A610520024B9847EEE7FB
S214012D00004400413D690100A52C010010B504688E
S214012D108068A04710BD000013B56B46DA1D01237D
S214012D200C21024C1370A04713BDC0460D2D0100A7
S214012D3010B5064CA0470648064B98479620064B0A
S214012D40400098470220A04710BDC046C52C010090
S214012D5014000020192D01003D69010013B500245F
S214012D60074B01A91868074B01949847064B1C703E
S214012D70019BA34203D08022044B52051A6013BD67
S214012D8040360020855C0100B403002004ED00E01D
S214012D9010B5014B984710BD5D2D0100002307B506
S214012DA00193084B01A91868074B98470122074B66
S214012DB01A70019B002B03D08022054B52051A6026
S214012DC007BDC04640360020855C0100B4030020E4
S214012DD004ED00E070B5072206000568EC691440B2
S214012DE0FCD102232A6813432B603068084B9847AE
S214012DF01F2318401E3B8340064A13601022698B2E
S214012E00114204D1F18801348C42F8D36A8370BD33
S214012E10ED7C010000E100E0F8B501260227184C20
S214012E20184D200000221849A847637E320033431C
S214012E30200016496376A847637E3A003B4320008C
S214012E4013496376A8470422637E0F4913436376CA
S214012E50104C00222000A847637E32003343200036
S214012E600A496376A847637E3A003B430849200037
S214012E706376A8470422637E13436376F8BDC04693
S214012E80443600202D250100912D01005D2D010005
S214012E909D2D01001436002080216423F0B591B0E9
S214012EA003AF890339610121282003930023494296
S214012EB0B98202A909180B70093002A909180B700A
S214012EC0013002A90EAD0918BB603B733B76BB62AD
S214012ED02B700B70D7333B86384B0324FB61384B82
S214012EE0384A3B62FA239B007A60FB820192364E97
S214012EF03A0036493000364B9847002847D18022A1
S214012F00642392033A6101220393019B28217B608B
S214012F1000235242BA8202AA52181370093102AA39
S214012F2052181370013102AA5218BB603B733B76EC
S214012F30BB622B701370D7333B86264B0324FB6191
S214012F40254B3B62FA239B00FB82244D3A00244921
S214012F5028001F4B9847002821D1224C3000A0475B
S214012F602800A047204B9847204B01209847204C2B
S214012F70032220601F4B0021012098471E4A0300B0
S214012F80106022680620002A11D111B0F0BD013C64
S214012F9030001A4BE4B29847002CA8D1AFE7013CA9
S214012FA02800164BE4B29847002CCED1D5E75A42FA
S214012FB0534106205B421840E7E7C046020008007E
S214012FC002000900480D00004436002000080042B7
S214012FD0F13901000200160003001100143600202A
S214012FE000140042D52D0100192E0100855901005B
S214012FF03C360020B955010040360020C93C01008E
S21401300010B5002811D04368002B0ED0027808496D
S2140130100A804B60C38907484B80074B98470023BB
S214013020984200D0063B180010BD08235B42FAE721
S2140130306C360020443600206525010010B50028B6
S21401304011D04368002B0ED0027808490A804B60E5
S214013050C38907484B80074B98470023984200D006
S214013060063B180010BD08235B42FAE76C360020C9
S214013070143600206525010010B5002812D04368DB
S214013080002B0FD0037809490B8083684B60838936
S21401309007484B80074B98470023984200D0063BD1
S2140130A0180010BD08235B42FAE7C0466C360020C4
S2140130B0443600204525010010B5002812D043688B
S2140130C0002B0FD0037809490B8083684B608389F6
S2140130D007484B80074B98470023984200D0063B91
S2140130E0180010BD08235B42FAE7C0466C36002084
S2140130F01436002045250100002310B505481A00A6
S21401310019000068044CA0470023012800D0143B96
S214013110180010BD3C360020ED56010010B5054BD9
S21401312001001868044B98470023012800D01D3B76
S214013130180010BD3C3600202D5F0100F8B50500D3
S2140131409620134B40000F001400984700281AD110
S214013150104B28001E68104B012C00D10F4B9847CE
S2140131600F4D041E0BD1390030000E4B9847012835
S2140131700AD10D4B1A78002A04D01C70033CA847CC
S214013180204300E0A847F8BD03246442F7E7C046A1
S2140131901D31010040360020013001003D300100A4
S2140131A0F93001002D5F0100B4030020F7B50400DB
S2140131B09620009340001C4B019117009847002869
S2140131C017D11A4B20001E68009B012B12D0184BFA
S2140131D0984700280BD139003000164B9847012834
S2140131E005D1154D2B78002B06D000232B70134BE1
S2140131F09847FEBD124BEBE70198124B9847009B90
S2140132002000012B0DD0104B98470028EFD1390034
S2140132103000084B98470128E9D12B78002BE4D1E0
S214013220E5E70A4BF0E7C0461D31010040360020B5
S214013230013001002D5F0100B4030020F9300100C8
S2140132403D3001003D69010079300100B9300100CF
S21401325010B5034B002801D10120024B984710BD41
S214013260A17701007577010010B50748074C826009
S21401327021706422192183810123017044601100A9
S214013280034CC381A04710BDB83600207836002015
S214013290AD31010070B50C4C2170002188B283421B
S2140132A00CD8192109480170591CC181838182609B
S2140132B064210122064B4460984770BD555C601836
S2140132C045700131EAE7C04678360020B83600205E
S2140132D03D31010010B5002803D04468C068A047FE
S2140132E010BD01204042FBE710B5034B9847F6217D
S2140132F0024B8905984710BDED97010035920100F4
S21401330073B50C0001AD2A00044E01232721B047F6
S2140133102B781B07DB0F237076BDC046D532010024
S21401332037B506230C006A460A4DA821A8476B4606
S2140133305A781B7812029B1823806B46DA789B78A2
S21401334012029B1863806B465A791B7912029B18EE
S214013350A3803EBDD5320100004870472000002002
S21401336073B50123002501AC064E21000620257009
S2140133706370A570B047210005202570B04728006E
S21401338076BDC046557901000121054B1A6A92099E
S2140133900A4002701B6A5B090B4043707047C046C7
S2140133A00044004110B504688068A04710BD0000C5
S2140133B010B50848084C826021706422232183815D
S2140133C001230170C381446000231100034CA04710
S2140133D010BDC046C8360020D8360020AD310100E9
S2140133E070B50C4C2170002188B283420CD8232181
S2140133F009480170591CC1818381826064210022C1
S214013400064B4460984770BD555C601845700131A5
S214013410EAE7C046D8360020C83600203D31010014
S21401342037B506AC257801ACE57021706270A370E3
S214013430220004237121014CA0473EBDA5330100A3
S21401344013B501AC21706270A370220003237221B0
S214013450014CA04716BDC046A5330100F0B58FB09C
S214013460049314AB1D78019003912800544B0C2152
S214013470170098472800534BCEB20C219847C3B289
S21401348002930C23039900200D00029A07935A43D6
S21401349005928A180692069B9D4245D1002E0FD0B2
S2140134A00C21029B03985943002309AA16705170F8
S2140134B04418B3424DD3B31C73210198424CA04724
S2140134C03C00059BFB180393039B9C4246D1002EB0
S2140134D00ED00C23029909AA4B4300211670537093
S2140134E0FF18B1424DD3B31C74210198364CA04746
S2140134F0049A059B944663441C001500A54245D1D9
S214013500002E0FD00C20029B04995843002309AAD1
S214013510507016700818B3424CD3B31C752101982D
S214013520294CA0470FB0F0BD6B461B7F09AA13704C
S214013530039BEB1A53700023E85CD11801338870A3
S2140135400C2BF9D10233732101981F4CA0470C357F
S214013550A1E7E05CD11888700133AAE70C2309AA19
S2140135601370E31B53700023E05CD118013388709D
S2140135700C2BF9D1023374210198134DA8470C3452
S214013580A2E7785C531898700131AAE70C2309AAC0
S2140135901370049BEB1A53700023E85CD1180133B7
S2140135A088700C2BF9D1023375210198064FB84764
S2140135B00C35A3E7C45CD1188C700133ABE7C04669
S2140135C0318F0100258E0100A533010013B56B462E
S2140135D0DA1D117001237721014CA04716BDC046A4
S2140135E0A533010013B56B46DA1D00237821024C82
S2140135F01370A04716BDC046A533010000487047AA
S21401360030000020F7B50D4E032130000C4B9847D3
S214013610002400252100C8232A0000953000094F08
S214013620B847962001344000074BE4B298470A2C6D
S214013630EFD13000054B98472800FEBD3000002032
S214013640CD35010021340100A1770100E5350100E7
S214013650002370B51A00074DFF210600A847064C47
S214013660FA20A047002330001A001900A847FA20C4
S214013670A04770BD413401003D690100F0B595B029
S21401368002AF6420B14B9847B14B9847B14BF861F4
S2140136909847B14B0121F86998470223AF4A137046
S2140136A0AF4A1370AD4B1A78012A7CD0002A33D06A
S2140136B0022AF9D16B463B600123FB600024FB68BC
S2140136C0BB61BD69002D00DC1435A64B2800984768
S2140136D0002238617961A44BA44EB047B860002837
S2140136E06CD02423FF22FB18E2542800A04B9847F5
S2140136F0A049A14B9847A14B9847A14B9847A14B8E
S214013700984720221023BA18D3180022E05420210B
S2140137101C237918CB1876E09B4B1A70904B1B78BC
S214013720022B05D11300FF21F869984CA047B9E791
S214013730012BB7D8002B17D10725140002333B61A4
S2140137405B19BB61BB699D4214DD0A207F4DA8470A
S2140137503A698F4B944216DD0122FA2019788000CF
S2140137604A401A70A8479DE7092315003B610724C4
S214013770073BE6E700220092E9B21300F869854E9E
S214013780B0470135DEE700201B78E1B2834207D05F
S214013790FF22A5230090F8697E4EB0470134D7E793
S2140137A002000300F6E7784BF8691B78012B02D17B
S2140137B0794B984776E7674B984773E70022386955
S2140137C07969764B694EB047786000283ED0684BE1
S2140137D0280098476749684B9847714B011C714808
S2140137E09847664B9847664B9847664B98472423FD
S2140137F02021FB18E0541023FF227918CB18E2543D
S2140138001C233A7ACB18E254BB6901340133BB61FD
S2140138100A2C00D055E720221C23BA182021D318E1
S214013820102279188A18242100947918F8695E4CB8
S214013830A0479620454B40009847FB68013BFB603C
S214013840133300D03AE73B689D462BE700223869E0
S2140138507969564B454EB047B86000281ED02423E0
S2140138603A79FB182021E2541023FF227918CB184D
S214013870E25428003E4B98473E493F4B98474949FA
S214013880474B98473D4B98473D4B98473D4B98478C
S21401389020221C23BA18D318E054B5E70022386951
S2140138A07969434B314EB047786000281AD02423FB
S2140138B03A7AFB18E25428002D4B98472D492E4B97
S2140138C09847374B011C3B4898472C4B98472C4B45
S2140138D098472C4B984720221023BA18D318E05447
S2140138E0FF2214E7002238697969334B1F4EB0472F
S2140138F0002818D01E4B280098471E491E4B984793
S2140139002C49274B98471D4B98471D4B98471D4BF5
S214013910984724232022FB18E0541023BA18D31802
S2140139203A79E254DCE72423FF22FB18E254102301
S214013930DF3ABA18D318E0540D4B280098470D49C2
S2140139400D4B9847011C1D489AE7C0463D6901008A
S214013950FD350100E5350100CD350100B603002037
S214013960B5030020A9B201000000084069910100DA
S214013970ED97010000009942359201009DB30100C8
S214013980E18C0100F9910100B703002041340100E8
S2140139903C0000202134010051360100000018408F
S2140139A0759401000000FF435D34010000002440CF
S2140139B000002A4000007F44000030400040BF4421
S2140139C013B56B46D91D0870032805D80348002394
S2140139D00A220068024CA04713BDC046B803002067
S2140139E0ED56010007230168CA691A42FCD17047E7
S2140139F0F0B507008BB0396008009B4B14000E0031
S214013A0098470125831C9D402B00984A1430116A63
S214013A10C5B20B431362237B08AA1370110028005A
S214013A20934B98472800934B9847934B207B002154
S214013A30984733681C209B0700D509E101233568A8
S214013A4017381D4000D003E1874B386898478B49EB
S214013A508B4B04909847049B3D769A00894B7D7664
S214013A60D750BB1D7D83BD83DD7714233D62336054
S214013A703B6809AE049318007B4B9847802300905F
S214013A80E06933707F3B7570F570B370256A002866
S214013A9003D101007C4B0498984702233070000C38
S214013AA07370C0B23100794B9847002D04D10121C3
S214013AB00498754B98470500022335702D0C7370DA
S214013AC0E8B2724B31009847A38AFB80E38A3B81B8
S214013AD0227E8023002A06D16D4B02329B7813404A
S214013AE05F1EBB41DB01A268276917431F43631DA5
S214013AF0DB7F002B02D08023DB051F43A36A1F4315
S214013B0023002C331B78002B03D180239B049A427D
S214013B1002D180231B051F4323002D331B78002B66
S214013B2002D080231B041F4323002E331B78002B57
S214013B3002D08023DB031F43049B00981B68FA25F1
S214013B401F43049B049A1F60802314305B0053605C
S214013B50C0B2504B98472368AD005D4363680700C9
S214013B6005934D4B98474C4B009001916800984740
S214013B7002900391484B208E9847484E0690079135
S214013B8000980199464A474BB04702000B00069839
S214013B900799B047444E0022444BB0473E4B06902F
S214013BA00791280098473D4D02000B00069807999B
S214013BB0A8473F4D02000B0000980199A847029ABA
S214013BC0039BB04700223B4BA847029A039B3A4E01
S214013BD0B0473A4B984780230290A2689B049A42CA
S214013BE03ED1FA23059C9B005C43009A019B2E4E16
S214013BF010001900B047284B00900191200098470B
S214013C0000222F4B254EB0472B4E02000B0000988A
S214013C100199B0470022274BA847284B9847294BC4
S214013C20061E17D02100380098470238831B029AD7
S214013C304020FF2A0CD8FF2B0AD8FF2015000004CD
S214013C401B040340002036063543049A2B43D360F9
S214013C500BB0F0BD6100481EC0199847431EE6E749
S214013C6000263300E3E7C046817C010000040040E3
S214013C704D880100C5870100E17A01008525010014
S214013C80B57C010000480020257B01005189010018
S214013C9000200041698801002DB3010015A701002D
S214013CA095D626E80B2E113E8D9801000000244083
S214013CB015AC01000000F03FAD9E010041B20100CD
S214013CC000000840258E0100F7B504000368124E77
S214013CD00193B0472568114F2800B8471F230122DA
S214013CE0184082400E4B2000DA67B0478323022239
S214013CF02B752B762B6893432B600A4B98472068CD
S214013D00B847094B9847094B98472000B04701220E
S214013D10019B1A60F7BDC046E5390100ED7C010044
S214013D2004E100E0CD7701009D88010001780100E3
S214013D3002220368197E114206D01A765B8B412057
S214013D4013420AD1002008E05A8B5207FAD5C02246
S214013D501820596892020A435A60704770B50022CB
S214013D600126022401680B7E334002D10D7E2542D6
S214013D7001D0002005E00132038992B29342F2D8C5
S214013D80122070BD802310B50468DB0262681343FD
S214013D9063606162024B98470123237610BDC046DB
S214013DA05D3D010070B50126144B8000C4582368A0
S214013DB0227E657E9B7B15401D40354204D0A3685C
S214013DC02000984723689E730226354204D0E36894
S214013DD02000984723689E731026354204D0236935
S214013DE02000984723689E732026354204D06369D5
S214013DF02000984723689E7370BDC0461837002080
S214013E0010B50020014B984710BDC046A53D0100E6
S214013E1010B50120014B984710BDC046A53D0100D5
S214013E2010B50220014B984710BDC046A53D0100C4
S214013E3070B5084C0A002368002B01D1064B23609D
S214013E4025682B685968054B984768682060431EAB
S214013E50984170BDC003002044000020B9B701009E
S214013E6070B5051E01D172B6FEE70820094B9847CA
S214013E70041E01D172B6FEE7074B98470023636024
S214013E80064B25601A681C605460054B9847012054
S214013E9070BDC0464552010081510100400000201E
S214013EA099510100F0B5324B85B002921A680600AE
S214013EB00191002A0FD001231C002D4F3D68002DD3
S214013EC04ED0002C40D12B4B029A2B490198984793
S214013ED023003B6041E0294A03931A60039B1C6858
S214013EE0002CE8D02768264B3D68280098472021FB
S214013EF0335C02008B4323D129003000214B9847C5
S214013F0000281DD10C23FB56002BD4DB3200040005
S214013F1001211578002D08D1012801D1013C64B298
S214013F201C1B624262411400C7E7202D06D10128FE
S214013F3002D00800013464B20132EAE70020FBE750
S214013F4062680B4B1A60C9E72B6832009B680299BE
S214013F50019898470400031EBBD0200005B0F0BDB1
S214013F60029A09490198034B98472C00F5E7C04689
S214013F70BC030020B9B7010068C20100440000205C
S214013F8089B7010097B70100C0C2010010B5014B07
S214013F90984710BD5162010010B5024B984780B298
S214013FA010BDC0469D6D010010B5024B9847000C30
S214013FB010BDC0469D6D010070B5054B0D00040097
S214013FC09847010C090429432000024B984770BD0D
S214013FD09D6D0100A56D010070B5054B04000D0037
S214013FE098472D0481B229432000024B984770BDA3
S214013FF09D6D0100A56D010010B5024B984780B27A
S21401400010BDC0464962010010B5024B9847000C2E
S21401401010BDC0464962010070B5054B0D00040095
S2140140209847010C090429432000024B984770BDAC
S214014030496201004D62010070B5054B04000D0098
S21401404098472D0481B229432000024B984770BD42
S214014050496201004D620100002210B5094BD100F2
S214014060CC58002C05D10122C85052425B185A6028
S21401407010BD01320A2AF2D1034A136801331360D4
S214014080F6E7C046CC0300201C040020F7B5012744
S214014090154C236801932368144DDB005859061EFE
S2140140A016D0134B98472368DB00EA1851688842FC
S2140140B000D25060E8580F4B9847FF222368024011
S2140140C0DB00ED186B680321EA200B4DA8473E0084
S2140140D023680A21581C094B98472160002E02D1FB
S2140140E0019B8B42D7D1F7BDC8030020CC0300202B
S2140140F0AD6D01009D6D0100ED4C010005910100C3
S21401410010B5054B9847002801D0044B984704206A
S214014110034B9847F5E7C046F14201008D40010088
S2140141203D69010010B5014B984710BDD16D0100E6
S21401413013B50E4B04009847012C0ED10C4B984733
S2140141400C4A1368002B07D1019204220A490092F7
S2140141500A48C4320A4CA04713BD0A48022C02D0B2
S214014160002CEDD00848094B9847E9E701430100C8
S214014170E14F0100C4030020E2C601000141010035
S214014180C16301006EC60100AEC60100A94401006C
S21401419010B5234B09221B6811241900DA65643116
S2140141A001320A704A708A7018000532CA700521F9
S2140141B06830017041708170C170017119007031F1
S2140141C00A704A708A70CA700A714A718A71CA7115
S2140141D00A721A0010217C3211705170917041766A
S2140141E0190013228231C27504760A704A708A70E9
S2140141F01A00002188321180A0315180A0319180AF
S214014200A031D18007491181074951810749918120
S2140142100749D1815F311182064A1A6610BDC04630
S21401422020040020FD02000052030000A20300004B
S21401423001040000BF0400000022174B5A821A80B6
S2140142400A329A825A800A32DA829A800A321A83AB
S214014250DA800F325A831A8105329A835A810532DF
S214014260DA839A8105321A84DA8105325A841A82EF
S214014270383A9A840A32DA840A321A850F325A8513
S21401428005329A850532DA8505321A8605325A864E
S21401429005329A867047C0463C040020034B082826
S2140142A002D8034B8000C358180070477CC3010036
S2140142B058C30100002310B5934200D110BDCC5C59
S2140142C0C454CC5C002CF9D00133F5E710B5064B8D
S2140142D01B68002B01D000221A63044B1B68002BBD
S2140142E000D0984710BDC04620040020E8040020F6
S2140142F0024B1B68181E00D0186B70472004002064
S214014300F8B5484A1368002B00D085E0464B136089
S214014310BD25464B434C1A68454B2D011A600021BA
S2140143202A00444B206898472368434A96219A817D
S21401433005229A730022490099614049DA731D618A
S21401434059659A655A633E4B984720683D4A3E4BED
S2140143500125C250C8220433C2503C4B3C4AC550CA
S2140143605533FF33C2503B4B5022C0183A493B4BA2
S214014370984723683A493B4AF32699500A213A4A14
S214014380F4279954394A49199954394A491999547B
S214014390384A49199954384A643199547221374A2E
S2140143A099547321364A99547421364A9954F12105
S2140143B0354A9954F221354A9954354A9E54354A1C
S2140143C09F54354B9847F2222368DF729E725A72C9
S2140143D0F1221A727422DA7173229A7172225A7158
S2140143E071221A710422DA700323226893702268FC
S2140143F0013B537023681D70284B196800290FD0A4
S2140144002368144A98185022144B98472268244B64
S214014410D550244B984703E01B78012B00D077E753
S214014420F8BDC046200400202437002018E000E034
S214014430F44200200FB50100A11A0000F0F0F0F0E0
S21401444091410100F1F1F1F15C0500006405000005
S214014450F2F2F2F2BC0600006CC80100B54201009F
S214014460F3F3F3F30C070000C40B0000C50B0000C8
S214014470C60B0000C70B0000C80B0000C90B0000EC
S214014480CA0B0000CB0B0000CC0B0000CD0B0000CC
S214014490CE0B0000CF0B000039420100D8040020EB
S2140144A0B4060000CD42010070B50D4C050023682E
S2140144B0002B01D00B4B98470B4B1A68002A0DD1E5
S2140144C020681D60002809D0084B5032C01829000A
S2140144D0074B984701212268064BD15070BDC04654
S2140144E020040020CD420100D8040020BC060000B4
S2140144F0B5420100B406000010B50A4B1B68186BE4
S214014500002808D02C22D869FF32904204D90648E8
S214014510064B9847002010BDE2228000D20080188A
S2140145201818F8E72004002080C80100A9440100FB
S214014530F7B500260190002822D11F481F4B984747
S214014540F7BDE2211E4BC9001C68E369F3189D0004
S21401455062195218127811006731C9B20E2913D8A0
S2140145606832D2B2A169D3188B4208D2E223DB00AB
S214014570ED180132920060190021124B984701365E
S214014580019B9E42DDD3DBE7012AF8D1E222D2006D
S214014590AD18A26901330B4F934204D20822601969
S2140145A00021B847EBE7E223DB000422E0180021F4
S2140145B0B84760190422F3E7E9C60100A9440100DF
S2140145C0200400200FB5010010B50B4B1B681A6BB9
S2140145D0002A10D02C215A69FF3101325A61DA695A
S2140145E00132DA618A4203D901221A620022DA61B3
S2140145F00120024B984710BD2004002031450100E0
S21401460070B5094B05000C009847002809D0012316
S21401461003702300AB431A0A1B0C43804270034B02
S21401462098472000284070BDF9440100C9450100A3
S21401463010B5082904D90E480E4B9847002010BD26
S214014640002807D00C4B1A6853181C0064342478D1
S214014650844201D20948EFE77C331B7801384031A8
S2140146605843490051180B89C01880B2E7E7C04685
S21401467009CE0100A94401002004002046CE010015
S2140146800B0010B501001800044B9847044B1B683B
S214014690181801239C30037010BDC0463146010036
S2140146A02004002070B5050014000800082D03D969
S2140146B00C480D4B984770BD0C4E33685B1964333C
S2140146C01B788B4201D20A48F3E72900094B984729
S2140146D033685D1970352A781B189B189D331C703A
S2140146E0E9E7C046B3C90100A9440100200400203F
S2140146F0FCC901003146010070B504000800082C11
S21401470004D90D480D4B9847002070BD0C4D2B6801
S2140147101B1964331B788B4201D20A48F2E7210049
S214014720094B98472B681C19703422781B189B1864
S2140147309D331878E9E7C046E3C70100A9440100A4
S214014740200400202CC801003146010070B5050088
S21401475014000800082D03D90C480D4B984770BD6E
S2140147600C4E33685B1964331B788B4201D20A48BE
S214014770F3E72900094B984733685D1970352A78A5
S2140147801B189B189C331C70E9E7C04634C901000E
S214014790A94401002004002078C901003146010027
S2140147A010B50B4C236867331B78834203D2094844
S2140147B0094B984710BD094B0321984723681A00F7
S2140147C0733212781B189B1800229C331A70F1E77B
S2140147D0200400203CCA0100A94401003146010022
S2140147E0F7B52A4B1C68002C05D12948294B984758
S2140147F000210800FEBD082801D92748F6E7EFF397
S21401480010830193012383F31088244C4600236808
S21401481001332360224BF25A9F1848373978002912
S2140148200BD10825AC46844465466D00AC469C44D5
S21401483065466D88511C491B3970010010314900CD
S2140148405918898891420BD2164B9847114B9847B5
S21401485000212368013B2360019B83F31088C8E78E
S2140148609918013292B2483109789A5306000836EF
S21401487076009E197688961B0200183252009B1805
S214014880DA889642E5DDF6B2DE80E2E72004002013
S21401489004CF0100A94401009EC70100D0040020F6
S2140148A03C0400209D42010070B50400150008007C
S2140148B0002A03D11348144B984770BD082C01D920
S2140148C01248F8E7002901D11148F4E7114E336880
S2140148D01B1964331B788B4203D220000E4B98477A
S2140148E0E9E70E4B210098470D4B1B68002BE4D1DE
S2140148F033689C301C197034181822782900094B2B
S2140149009847DAE7A7C80100A9440100D9C8010001
S21401491007C90100200400209D4201003146010024
S214014920D8040020B5420100F0B51E4B1B68012BD0
S21401493005D1002802D01C4B1B680360F0BD1B4B41
S2140149401B4A196812680131891A1A4A1A4D1268E7
S2140149502E68D743F74223D5964205D1174C2668D1
S214014960B142B64176429219002810D01F680E4E09
S2140149700137BF08574337601B6801331C00032308
S2140149801C40230053435B189B08DB1933602A60E5
S214014990002802D0044B1B680360084B1960CDE762
S2140149A03200DBE7DC0400203404002014E000E0E1
S2140149B018E000E0E4040020380400203004002061
S2140149C0F0B5002485B006000394FF2808D0344BC8
S2140149D0984205D03348344B9847200005B0F0BDC7
S2140149E0324D2C68636A002B05D1314B18680028BC
S2140149F03BD0800860622F4B03A898472E4A2D684B
S214014A00039B11686F6A5C1A1360002F39D0AB6A7A
S214014A100193BC4232D93900284B20009847EB6AF3
S214014A2039001818E862264B20009847019B591850
S214014A30A962AB6A9F4204D8EA6ADF1B0132EA62C6
S214014A40AF62B4420ED91F4B984700280AD0144BC8
S214014A509E4218D1A9230370230C43800023437080
S214014A60194B984720003040B8E7184B1A68184B86
S214014A701B689A42BFD0174B9847BAE7019B191992
S214014A80D6E7AB62DDE7FF2E05D1A8230370230A24
S214014A904380230EE3E71048034B9847E0E7C04600
S214014AA0FFFF00003EC70100A944010020040020CA
S214014AB0D404002029490100CC040020258E0100E1
S214014AC0318F0100F9440100C945010018E000E0FA
S214014AD0F44200203D8701007BC70100F8B5051EA2
S214014AE00DD0184B1B68002B09D017480F2D04D882
S214014AF0164C2368002B03D01548164B9847F8BD73
S214014B00EFF31086012383F31088236801332360B3
S214014B10114B1B681B6B002B0DD0104B1048984790
S214014B20104B07009847002805D0022347800370E2
S214014B3045700D4B98472368013B236086F3108828
S214014B40DDE7C0465800002015CD0100D004002046
S214014B5054CD0100A944010020040020C1490100F0
S214014B60FFFF0000F9440100C9450100F0B52C4FD4
S214014B7085B03B6802900D00002B4FD0D317D61896
S214014B805E40EFF310830193012383F31088254CD5
S214014B90236801332360002903D0234B19688A1840
S214014BA01A603B681B6B002B32D0204BFF209847C6
S214014BB01F4B03909E4204D9310018001D4B9847A5
S214014BC006001D4B98470090002821D06A46002316
S214014BD0127B037046804270184EB047144B9D42BC
S214014BE004D929001800134B98470500124B984723
S214014BF000280DD0002343706B461B7A45805A1C53
S214014C000270009A1370B047074A3B6812681A652B
S214014C102368013B2360019B83F3108805B0F0BD38
S214014C2020040020D004002028040020C1490100EF
S214014C30FFFF000001460100F9440100C9450100DB
S214014C40F7B5050017001D48FE2D02D8082903D91F
S214014C501B481C4B9847F7BD1B4A1C48136859183C
S214014C6064310B78BB42F4D3194C1A482368002BE5
S214014C70EFD1194B1B78002BEDD0EFF310860123F3
S214014C8083F3108823680133236013681B6B002BA2
S214014C900ED0124B12489847124B019098470028A5
S214014CA006D06B469B880570438047700E4B98472D
S214014CB02368013B236086F31088CCE784CA010091
S214014CC0B9CA0100A944010020040020FECA01005F
S214014CD0D004002044CB010024040020C149010077
S214014CE0FFFF0000F9440100C9450100F7B50600C1
S214014CF000921D002248FE2E10D8224808290DD801
S214014D00214A22481368591864310B7800998B425E
S214014D1004D31F4C2368002B03D01E481E4B984714
S214014D20F7BDEFF31087012383F31088236801335F
S214014D30236013681B6B002B1CD0184B1B78002BB1
S214014D4018D0FF20164B98470190FF2D04D9290053
S214014D50FF20144B98470500134B9847002809D0AD
S214014D606B461B790670C3706B461B788570437063
S214014D700E4B98472368013B236087F31088CFE7E3
S214014D8003CC010043CC01002004002091CC01009B
S214014D90D0040020E0CC0100A94401002404002036
S214014DA0C149010001460100F9440100C94501005D
S214014DB0F7B506000D001C48FE2E04D81B4C2368D0
S214014DC0002B03D01A481B4B9847F7BDEFF310870B
S214014DD0012383F31088236801332360164B1B6875
S214014DE01B6B002B19D0154B1B78002B15D0FF2001
S214014DF0134B984701901348854203D92900124B5B
S214014E0098470500114B9847002806D06B461B793A
S214014E100670437045800E4B98472368013B23601C
S214014E2087F31088D1E7C04679CB0100D004002073
S214014E30CECB0100A9440100200400202404002058
S214014E40C1490100FFFF000001460100F9440100CD
S214014E50C9450100F7B507000F2803D92848294B93
S214014E609847F7BDEFF310830093012383F310886F
S214014E70254D2B6801332B60244B1B78834238D099
S214014E80234E33681B6B002B33D00022214B224864
S214014E901A60224B98471D4B01901F70204B984774
S214014EA0041E26D0194B1878336867331B78834263
S214014EB004D21C48134B984706230DE01A4B0321D6
S214014EC0984733681A00733212781B189B189C3364
S214014ED01B78012BF0D1063323706B469B886770D5
S214014EE063800A4B012219780320104B9847104B18
S214014EF098472B68013B2B60009B83F31088B0E733
S214014F0089CD0100A9440100D0040020240400201A
S214014F10200400202C040020FFFF0000C1490100EE
S214014F20F9440100CECD0100314601004D47010094
S214014F30C9450100F7B51E4E3468002C04D11D4842
S214014F401D4B98472000FEBD206B0128FBD01B4B54
S214014F501B680193002B27D1EFF31087012282F300
S214014F601088174D2B689B182B6033681A63154BF6
S214014F709847154B9847C4B2002C0DD1134B03200C
S214014F80984704000100124A0320124B9847019AE1
S214014F9021000320104B98472000104B98472B68A0
S214014FA0013B2B6087F310883368186BCBE7C0464C
S214014FB02004002084CE0100A9440100D80400206A
S214014FC0D004002025410100993F0100E14701007E
S214014FD0C8CE0100A9480100A5460100554E0100B2
S214014FE010B5014B984710BD354F01000300012253
S214014FF008334360C360036100235242826003604A
S214015000704700230361704743684B609A688A6063
S2140150109A685160996008610368013303607047BC
S21401502003000A6830B50833541C0BD103695A686B
S2140150304A6091608B6059600861036801330360C0
S21401504030BD23005C682568AA42FAD2EFE74268C1
S2140150508168036991608268416851605A6890422C
S21401506001D182685A60002202611A68013A1A6008
S21401507018687047002382B00193064B1B68013302
S21401508001D072B6FEE772B6019B002BFCD002B0CF
S2140150907047C0465C0000200000000000000000D1
S2140150A00B4A13681868203080F30988022080F3C1
S2140150B01488BFF36F8F3FBCAE4608BC04BC62B613
S2140150C01847C046C046C046C046C046C046C04651
S2140150D0D433002010B58024031F64041C60043BF5
S2140150E019600349043B1960143B40381A6010BD2F
S2140150F07550010070470000FF2270B5124B120474
S214015100196800240A431A60FF22196812060A4326
S2140151101A600E4D0E4B2C6020001C600D4B9847FC
S214015120FA210D4B890098470C4B0138186007236C
S2140151302B600B4B1C600B4B98470B4B98470B4B4C
S2140151409847200070BDC04620ED00E010E000E06A
S21401515018E000E03D870100258E010014E000E024
S2140151605C000020A1500100D969010075500100C2
S2140151708022024B52051A607047C04604ED00E0DB
S21401518072B6044A136801331360BFF34F8FBFF33F
S2140151906F8F70475C000020054A1368002B01D111
S2140151A072B6FEE7013B1360002B00D162B6704772
S2140151B05C000020EFF3108072B6704780F3108811
S2140151C07047000000000000000000000000000022
S2140151D0EFF309800E4B1A6820381060F0C0444681
S2140151E04D4656465F46F0C008B572B601F0F4FB70
S2140151F062B60CBC116808681030F0C8A046A94613
S214015200B246BB4680F309882038F0C81847C04626
S214015210D433002010B5074B9847074B0400984736
S214015220002803D08022054B52051A602000044B4B
S214015230984710BDB5510100BD66010004ED00E0C0
S214015240BD510100072370B50400184201D09C43EC
S2140152500834154B984715490B68002B04D10722D3
S214015260134B083393430B601248134D0268134ED9
S214015270A318AB4212D89A4210D20D680360AD183B
S214015280002D0BD0220029009420B0470C4B9847E4
S214015290002D01D10B4B9847280070BD220000213C
S2140152A0E820B0470025F1E7A1660100EC040020E4
S2140152B0F0040020D0330020D72E00006D4B0100F3
S2140152C029680100B98C0100002801D072B6FEE7FA
S2140152D070470000024B03481B68C01A7047C0465F
S2140152E0D0330020D82E000010B50400034B984799
S2140152F0A46B034B98476042604110BD8151010089
S2140153009951010070B51600026C0400856B002AE5
S2140153100AD106681000002E03D16068154B984725
S21401532066600135A56370BD134B002E0CD18068F5
S2140153309847A368226C30009B186268A36093426A
S214015340EFD32368A360ECE7C0689847236CE26854
S2140153505B422168D218E2608A4202D26268D318A0
S214015360E3600020022EDCD12B005A1E9341ED1A79
S214015370D7E7C046016F0100D9B40100F0B5846CCF
S21401538087B005900291002C01D172B6FEE7A26BA0
S214015390E36B9A4201D372B6FEE7A26B00259342F5
S2140153A053D92300453303931B785BB201932B4BF0
S2140153B098472B4B98472B4E2B4D338803421BD0D7
S2140153C02A4B200098473388034215D0029B252696
S2140153D0002B05D12000A847254B1E5C2036F6B2CF
S2140153E02000A847224B1F5C224B2000984739001B
S2140153F0C2B2214B300098472000A8471C4E1D4BD7
S214015400375C20009847C3B220000493A847335C5A
S2140154100022022B02D0A26B0132D2B204993800CC
S214015420164B9847164B029A05A920009847019BF0
S214015430050001330CD1636A002B06D02000114B06
S21401544024309847002800D00125280007B0F0BD79
S214015450019B039A01335BB21370F6E72541010005
S214015460A93F0100540000208D3F010009400100C2
S2140154704C000020F93F0100414C01004D4701005E
S21401548005530100616C0100030010B51A6C080099
S214015490002A0AD0D9685C688918D960A14201D36C
S2140154A01968D960D968014B984710BDD9B4010075
S2140154B0F8B5040026001C4F4536B84735786DB25E
S2140154C0002D0EDCFF233370184EB047B847270077
S2140154D044373D786DB2002D18DCFF233B70B04792
S2140154E0F8BDA36C002B09D000212000104B984773
S2140154F0002801D00F4B9847013DE0E7636A002B77
S214015500E0D020000C4B24309847F1E72369002BAC
S214015510E3D02000084B10309847002801D0054BF7
S2140155209847013DD6E7C0468151010099510100D7
S2140155307D530100916D0100616C010070B504009E
S2140155400D00002801D172B6FEE7164B9847216C74
S214015550E36B22684B43D0185B1AD318E360230031
S2140155606060A2600020FF224433A0631A705A7064
S21401557085420ED12369834207D020000A4B1030A2
S2140155809847002801D0094B9847094B98470120B6
S21401559070BD2000074D1030A84720002430A847D2
S2140155A0F3E7C04681510100616C010071510100B1
S2140155B099510100ED4F0100F7B506000D001700E7
S2140155C0002801D172B6FEE708007043364B54300E
S2140155D09847041E57D0002D51D120600121E66363
S2140155E02564324B20009847230050331F70002358
S2140155F02F4EA3642000B0472E4D2F4B285C9847B2
S2140156002E4B81B2200098472D4B200019882D4B38
S21401561098472000B0472C4B2F5C200098472B4B17
S214015620C1B2380098472A4B98472A4B98472A4FC9
S2140156303B88034216D0294B200098473B880342FB
S21401564010D02000B0472F5C2000B0472B5C200014
S21401565001931D4B98471837FFB2C2B20199380023
S2140156601F4B98472000B047174B2D5C20009847EA
S2140156700022C1B21B4B280098472000FEBD030044
S21401568054330360AAE7124B9847124B9847124BC4
S2140156901B880342F1D0074B2100D85D124B4030E6
S2140156A0C0B29847E9E7C046455201003D550100A2
S2140156B08D3F01004C000020E14701001940010028
S2140156C05200002039400100F93F010081460100E7
S2140156D025410100A93F01005400002009400100B6
S2140156E0414C01004D470100B14D0100F0B587B0B6
S2140156F0041E01910392009301D172B6FEE7019B4D
S214015700002B00D0FDE0036C002B00D1F9E072B64F
S214015710FEE7636A002B00D1E0E02000834B2430D3
S2140157209847DBE0039B002B27D1814B9847814BA1
S2140157309847814B9847814D2B8803421BD0804B5D
S214015740200098472B88034215D0009B7D4F7E4E44
S2140157504D25002B04D12000B847355C4835EDB205
S2140157602000B847794B365C200098473100C2B21A
S214015770774B280098470020B7E0002D02D104A8F7
S214015780744B98476A4B9847734B9847B04722002B
S214015790443213785BB2013301D100231370220027
S2140157A0453213785BB2013301D100231370604B8D
S2140157B0984703A904A8694B9847694F002800D069
S2140157C09AE0B047A66BE56B594B9847AE4200D0BE
S2140157D08DE0584B9847584B9847584D2B880342B5
S2140157E01CD0574B200098472B88034216D0009BAD
S2140157F0544E7525002B05D12000B047524B1D5C39
S2140158007035EDB22000B0474F4B1E5C4F4B200069
S21401581098473100C2B24E4B280098472000514BA2
S2140158200399103098472000B8474F4B98470028F7
S21401583001D14E4B984701254D4EB047A36BE26B05
S214015840934203D3009B022B00D06BE7394B98475A
S214015850394B9847394E3B4D338803421BD0384B62
S214015860200098473388034215D0009B2526002B3D
S21401587005D12000A847344B1E5C2036F6B2200026
S214015880A847314B1F5C314B200098473900C2B204
S2140158902F4B300098472000A8472B4E2B4B375CE8
S2140158A020009847C3B220000293A847335C002229
S2140158B0022B02D0A26B0132D2B2029938002D4BD4
S2140158C098472D4B009A019920009847A36C002B0E
S2140158D000D11EE700992000284B9847002801D0E8
S2140158E0224B9847124B9847012007B0F0BD200085
S2140158F0B8471D4B98479EE72000B8471A4B984774
S21401590015E7009B022B02D1E36B012B0BD11C4B3D
S21401591098470025002800D08EE7039D002D00D172
S2140159208AE772B6FEE772B6FEE7C046616C010012
S2140159309951010025410100A93F010054000020B2
S214015940094001008D3F01004C000020F93F010095
S214015950414C0100096D0100A1660100216D0100A5
S214015960B1540100A16B01002968010071510100C9
S214015970815101004D470100055301007D5301008F
S214015980DD6D010070B5020000210120064B98472D
S214015990041E07D00021054D41600160C1600B0067
S2140159A00A00A847200070BDB9550100ED56010058
S2140159B0F0B585B00400029117000093002801D1CC
S2140159C072B6FEE7029B002B3CD1036C002B39D04C
S2140159D072B6FEE7002F00D188E001253D600398EE
S2140159E0444B9847280005B0F0BD636A002B7DD074
S2140159F02000414B2430984775E0019B4534013324
S214015A005BB2237072E0200098473C4B00251B8850
S214015A100342E4D0009B3A4F3A4E5D35002B04D149
S214015A202000B847355C5835EDB22000B847364BF4
S214015A30365C200098473100C2B2344B28009847A4
S214015A400025CCE7009B022B02D1E36B012B4FD143
S214015A502F4B9847A26BE16B03902E4B8A4202D3E1
S214015A60009A022ACFD1220045321278200052B283
S214015A7001929847214B1B88034216D0009B204E6B
S214015A803525002B05D12000B0471E4B1D5C303557
S214015A90EDB22000B0471B4B1E5C1B4B2000984705
S214015AA03100C2B2194B28009847154B2000984781
S214015AB0144B1D5C144B20009847A26BC1B20132F7
S214015AC0D2B22800144B9847144B009A0299200032
S214015AD09847019B013390D1A36C002B85D0009988
S214015AE020000F4B9847002800D073E7012576E782
S214015AF072B6FEE7BD510100616C01005400002042
S214015B008D3F01004C000020F93F0100414C01008F
S214015B10B5510100094001004D4701000553010040
S214015B207D530100F0B585B004000F0002920028F5
S214015B3001D172B6FEE7036C002B01D072B6FEE708
S214015B400368002B03D14368002B00D082E0424B50
S214015B509847A36BE16B0093009A03903F4B8A42F0
S214015B601ED3200098473E4B00251B8803425DD07C
S214015B70029B3C4F3C4E5D35002B04D12000B847BC
S214015B80355C5835EDB22000B847384B365C2000FE
S214015B9098473100C2B2364B28009847002545E0A9
S214015BA0220045321278200052B2019298472C4BBF
S214015BB01B88034216D0029B2A4E3525002B05D1A1
S214015BC02000B047284B1D5C3035EDB22000B047B1
S214015BD0254B1E5C254B200098473100C2B2244B52
S214015BE0280098471F4B200098471F4B1D5C1F4BF2
S214015BF020009847A26BC1B201321E4BD2B22800D8
S214015C009847009B0133A363019B01331CD1A36C0E
S214015C10002B11D000212000174B9847002801D1F6
S214015C20012503E0002FFBD001253D600398134BAF
S214015C309847280005B0F0BD636A002BF0D020001D
S214015C400F4B24309847E9E7019B453401335BB29B
S214015C502370E5E772B6FEE7B55101000940010081
S214015C60540000208D3F01004C000020F93F010048
S214015C70414C01004D4701007D530100BD5101001B
S214015C80616C010010B50022014B984710BDC0465B
S214015C90255B0100F0B587B0041E0291039201D185
S214015CA072B6FEE7029B002B00D003E1036C002BCB
S214015CB000D1FFE072B6FEE7A26B013AD2B2D6E09F
S214015CC0039B0193002B23D1804B9847804B984729
S214015CD0804B9847804D2B88034217D07F4B20007E
S214015CE098472B88034211D07D4F2000B8477D4E40
S214015CF0355C2000B8477C4B365C20009847503511
S214015D00EDB2C2B231002800784B98470020C3E0BC
S214015D10002D02D104A8764B98476C4B9847754BDB
S214015D209847B0472200443213785BB2013301D161
S214015D30002313702200453213785BB2013301D180
S214015D4000231370614B984703A904A86A4B984730
S214015D506A4D6B4F6B4E002800D0A3E02000A84789
S214015D60002800D19AE05A4B98475A4B98475A4D0B
S214015D702B88034219D0594B200098472B880342A1
S214015D8013D0574B20009847564D2B5C20006833A4
S214015D90DBB20193524B9847534B2D5C200098473A
S214015DA02900C2B2514B019898474D4B20009847A5
S214015DB04C4B1B5C022B0ED0454B9847454B9847E6
S214015DC0454B1B88034206D0414B98474E4B98479C
S214015DD04E4BC0B298472000039924304C4B98474D
S214015DE02000B847B047002801D14A4B9847012503
S214015DF0494EB047A36B0193002B00D160E702998F
S214015E002000464B9847324B9847324B9847324DC5
S214015E10334E2B88034216D0304B200098472B88F0
S214015E20034210D02000B0472E4F3D5C2000B04703
S214015E302D4B3F5C200098472835EDB2C2B23900A1
S214015E4028002A4B98472000B047264D264B2F5C4A
S214015E5020009847C3B220000293B0472B5C022B68
S214015E6000D029E71A4B9847274B9847C2B22C4BCC
S214015E70029938009847019B013BA3632369002BD5
S214015E8007D02000274B10309847002801D0214B1F
S214015E9098470E4B9847012007B0F0BD2000B84741
S214015EA0B047A4E72000B847B0472000A84700281D
S214015EB09DD00BE71C4B98470025002898D1039DE1
S214015EC0002D00D194E772B6FEE7C0469951010055
S214015ED025410100A93F01005400002009400100AE
S214015EE08D3F01004C000020F93F0100414C0100AC
S214015EF0096D0100A1660100216D0100E952010052
S214015F00B154010029680100993F0100A147010031
S214015F10A16B0100715101008151010089540100FA
S214015F204D470100616C0100DD6D0100F0B587B0E1
S214015F30041E039101D172B6FEE7076C002F01D053
S214015F4072B6FEE7A64B9847002803D1039F002FA1
S214015F5000D043E13D00A34B9847A36B0193002B70
S214015F6054D0A14B9847A14B9847A14DA14E2B88E1
S214015F70034216D0A04B200098472B88034210D02E
S214015F802000B0479D4F3D5C2000B0479C4B3F5CD6
S214015F90200098472835EDB2C2B239002800994B47
S214015FA098472000B047954D954B2F5C20009847A9
S214015FB0C3B220000293B0472B5C022B22D18A4B3E
S214015FC09847914B9847C2B2904B02993800984730
S214015FD0019B013BA3632368002B02D18C4B98479E
S214015FE060602369002B07D020008A4B1030984749
S214015FF0002801D0884B9847884B984701273800DE
S21401600007B0F0BDA26B013AD2B2DDE7039B002BCD
S21401601029D1002F01D072B6FEE7804B9847724B0C
S2140160209847724B9847724D2B88034201D100273F
S214016030E5E7714B200098472B880342F7D02000F4
S2140160406C4B98476D4E6B4B355C200098476C4BFC
S214016050365C200098475035EDB2C2B231002800B8
S214016060684B9847CBE7002D02D104A86C4B9847A4
S2140160706A4B98476B4B98475A4B984722004432D5
S21401608013785BB2013301D100231370220045322D
S21401609013785BB2013301D1002313705F4B98472D
S2140160A003A904A8604B9847604D614E002859D15A
S2140160B02000A847002850D04B4B98474B4B984799
S2140160C04B4D2B88034218D04B4B200098472B880A
S2140160D0034212D0474E2000B047484D2B5C2000AB
S2140160E06833DBB20193B047454B2D5C20009847DF
S2140160F02900C2B2434B019898473E4B200098476F
S2140161003E4B1B5C022B0DD0374DA847374B9847AB
S214016110374B1B88034205D0A8473B4B9847454B56
S214016120C0B298472368002B07D12E4B9847424BA5
S21401613060689847394B0700984720000399243038
S2140161403E4B98473E4B20009847394B98470028CE
S21401615001D1314B98470125FDE62000384B984781
S214016160B047F8E72000364B9847B0472000A847CD
S2140161700028F0D0002F0ED01A4B98470021636AF2
S2140161808B4203D0236B05311B68C91A2D4B6068FF
S2140161909847224B9847144B9847144B9847144DF1
S2140161A02B88034200D142E7134B200098472B88E7
S2140161B0034200D13BE70F4F2000B8470F4E355C36
S2140161C02000B8470E4B365C200098475035EDB29C
S2140161D0C2B2310028000B4B984728E772B6FEE79B
S2140161E0DD6D01008151010025410100A93F01003B
S2140161F0540000208D3F0100094001004C000020A2
S214016200F93F0100414C0100993F01004D47010053
S214016210E5700100616C01007151010099510100A6
S214016220096D0100A1660100216D0100E95201001E
S21401623029680100A1470100FD6D0100A16B010065
S214016240B1540100ED6F0100C06C7047C164704726
S214016250503000787047000070B50400114B1600EE
S2140162600D0098472200443213785BB2013301D106
S214016270002313702200453213785BB2013301D13B
S21401628000231370084B9847A36B002B05D1200001
S214016290320029002430054B98472000044B9847CC
S2140162A070BDC0468151010099510100CD6B0100BE
S2140162B0B1540100074A13681968074B002903D136
S2140162C0012252421A6070471268D268D268526838
S2140162D0F8E7C046D833002088340020F8B504001B
S2140162E0134B144D1E682868134B04300F00984753
S2140162F0631C07D1002F05D029681048104B0431C4
S2140163009847F8BD2B6834195C600E4BA64204D939
S2140163100D4A106829680431F2E70C4A10682968AA
S214016320043198470A4B1A689442EAD21C60E8E79F
S214016330D0340020D43300204F500100A834002070
S2140163400950010021500100DC330020D833002021
S2140163508834002070B5114C2368002B06D1104BF1
S2140163601B68012BF7D90F4B9847F4E70E4B98475C
S2140163700E4BDB68DD680E4B281D98470D4A1368E7
S214016380013B13602368013B23600B4B9847286B46
S2140163900A4CA0472800A047DDE7C0464834002045
S2140163A0E03300207151010081510100BC3400200E
S2140163B04F5001004434002099510100C952010098
S2140163C0F0B5950085B00190774C28000F00029338
S2140163D0A047061E00D1D7E05420A047041E00D1D6
S2140163E0CFE006632A00714BA52130009847236B46
S2140163F0043D5D1907239D43002300951A00F95CAF
S2140164003432A154FA5C002A02D00133082BF5D1AC
S214016410230000270A9D3B331F70042D00D9042555
S214016420231D1800E5626564614EA7640393B047B7
S21401643020001830B04705235D1B2300503324612C
S214016440A5616462E764029A1F700199594B00982E
S21401645098470B9B2060002B00D01C60564B98473A
S214016460564B574E1A6801321A603268002A00D01D
S2140164708DE034601B68012B1ED1524D5248A8474F
S21401648051481430A84750482830A8474E483C3059
S214016490A8474D485030A8474C4F3800A8474C48AD
S2140164A0A8474C48A8474C48A8474C48A8474C4BD7
S2140164B0474A1F604B4B1A604B4A0320136801334F
S2140164C01360E363494B9847494B81B220009847D4
S2140164D0484B20001988484B9847484F2000B8473A
S2140164E02200C1B23432464B032098472000B847F9
S2140164F02C23E3181A78C1B2424B03209847424B2B
S2140165009847424B9847424D2B8803420CD03F4B4D
S214016510200098472B88034206D02000B847032165
S214016520C2B23C4B1B20984720003B4B9847374B49
S21401653020009847364B1B88034204D02000B847FA
S214016540364BC0B29847364AE36A11688B4200D987
S2140165501360142058431C4B211D1818314B9847C3
S214016560314B9847314B01251B68002B06D0336809
S214016570DA6AE36A9A4201D22D4B9847280005B0A1
S214016580F0BD30002B4B984701256D42F6E7274BAF
S2140165901B68002B00D08FE73368E26ADB6A934200
S2140165A000D989E7346087E7455201000FB501003D
S2140165B003500100D55001008151010044340020F0
S2140165C0D4330020ED4F0100E03300205C3400207E
S2140165D07034002090340020BC340020A834002001
S2140165E0D8330020DC33002054340020E14701007A
S2140165F0B93F010052000020D93F0100993F010038
S214016600A9480100A546010025410100A93F010056
S21401661054000020414C010059400100DD4A0100B0
S214016620583400200950010099510100A43400207B
S21401663071510100C952010037B500240F4B009477
S2140166400193642223000E490E480F4DA8470128E6
S2140166500FD10E4B984701280BD172B601220C4B75
S21401666052421A600B4B18600B4B1C600B4B984741
S21401667037BD431CFCD172B6FEE7C0468434002009
S21401668047CF010055630100C16301009971010004
S21401669088340020A4340020D0340020F9500100B2
S2140166A0024A1368013313607047C0465034002015
S2140166B0014B18687047C046D0340020F7B5454CEA
S2140166C02368012B03D0444B1B68002B06D1434A99
S2140166D00020136801331360414B98472368002B51
S2140166E005D1404B032019683F4B01319847236879
S2140166F0002B35D13B4B1F6801371F60002F11D18E
S2140167003A4B1A681268002A01D072B6FEE7384A78
S2140167101968106818601160364A136801331360EF
S214016720354B9847354E002533689F4207D32F4B8C
S2140167301A681268002A19D101235B423360304B74
S2140167401B68DA6A142353432E4AD358012B00D907
S21401675001252D4B1B68002B00D001252800FEBD0E
S2140167601D4A0025136801331360F2E71B68DB68D6
S214016770DC6863689F42E1D3231D01931800234B15
S2140167809847A36A002B03D02000204B1830984767
S2140167901F4B200098471F4B1B88034205D01E4BFA
S2140167A0200098471D4BC0B298471D4BE06A1A68F7
S2140167B0904200D9186014235843124B211D181813
S2140167C0184B98470E4BE26A1B68DB6A9A42AED3B7
S2140167D00125ACE7503400204C340020E4040020AE
S2140167E029490100D0340020B14D0100D8330020E2
S2140167F0DC3300208C340020B56201008834002090
S214016800D4330020E0330020D43400204F50010060
S214016810A93F010054000020993F0100DD4A010014
S2140168205834002009500100F8B5314C2368002B7C
S21401683001D172B6FEE72F4B98472368013B2360D0
S2140168402468002C04D000242B4B98472000F8BD68
S2140168502A4B01271B68002BF5D0294B1A68002A02
S2140168601AD1002C01D0274B9847274D2C68002CB5
S2140168700AD00126254B9847002801D0244B1E60DC
S214016880013C002CF6D12C60214B1B68002BDAD082
S214016890204B98470124D7E7DB681F4EDC682000B1
S2140168A0251D1830B0472800B0471C4B20009847DC
S2140168B01B4B1B88034205D01A4B200098471A4BE6
S2140168C0C0B29847194BE06A1A68904200D918601E
S2140168D014235843164B29001818164B9847164B85
S2140168E0E26A1B68DB6A9A42B7D3094B1F60B4E7BA
S2140168F05034002081510100995101004434002098
S21401690090340020B56201004C340020BD660100C1
S214016910D4340020715101004F500100A93F0100FD
S21401692054000020993F0100DD4A01005834002040
S214016930E033002009500100D4330020F8B5041ECE
S21401694002D1194B9847F8BD184B1B68002B01D094
S21401695072B6FEE7164B9847164F174E3868B04783
S214016960164D2B88034209D021008920144B9847E5
S214016970144B38689847144BC0B29847134FB84722
S214016980B0472B88034205D0B8470E4B98470E4BAD
S214016990C0B298470E4B0021200098470D4B9847F0
S2140169A00028D0D1CDE7C0467151010050340020F7
S2140169B0A1660100D4330020A93F01005400002045
S2140169C0B14D0100993F0100A14701002541010099
S2140169D0DD6201002968010070B5244B1A68244B5A
S2140169E0002A02D001221A6070BD224C1A60226869
S2140169F0236812681B6B9A4204D8206821681E4BD4
S214016A003431984714261D481D4902683300534304
S214016A105D58002D24D0CD186E6808337668CB18E3
S214016A206E609E4201D173686B6014235343C9188C
S214016A304B68144DDB6823600123134C026023600E
S214016A40A847124B9847124B1B88034205D0A8470C
S214016A50104B9847104BC0B2984702232360C3E7F8
S214016A60002A01D172B6FEE7013ACFE75034002082
S214016A70D4340020D4330020CD8C010058340020BB
S214016A80E033002025410100E0040020A93F010079
S214016A9054000020993F0100554E0100F8B52E4BD9
S214016AA0040098472D4D002C00D12C682C4B98479C
S214016AB02C4FB8472C4E338803420CD02000B847E1
S214016AC03388034207D0294B200098470321C2B2DE
S214016AD0274B8A209847254B20009847271D254B92
S214016AE0C0B298473800244EB047A36A002B02D0A4
S214016AF020001830B047214E214B3900300098470E
S214016B00230050331A78012A01D100221A701D4B36
S214016B1098471D4F3B68002B05D00F4B98471B4BE2
S214016B209847184B98472B689C420AD13B68002B24
S214016B3008D0174B1B68002B01D072B6FEE7154B29
S214016B409847F8BD144A31681268914201D12B600A
S214016B50F7E7124B9847F4E781510100D433002040
S214016B6025410100A93F010054000020993F010082
S214016B70414C0100A14701004F500100A8340020FC
S214016B800950010099510100A4340020B5620100AA
S214016B90503400207151010044340020D9690100AD
S214016BA010B50C00002801D172B6FEE7044B196837
S214016BB0044B1831984701212000034B984710BD1C
S214016BC0D433002021500100DD620100F8B50C002D
S214016BD01600002801D172B6FEE7174D174B29683B
S214016BE018319847002E01D0012464422868144FBA
S214016BF0B847144B1B8803420BD0134B88201968E7
S214016C00124B61189847124B28689847114BC0B22F
S214016C109847114DA847B8470A4B1B88034205D031
S214016C20A8470B4B98470B4BC0B298473100200042
S214016C300A4B9847F8BDC046D433002009500100DE
S214016C40A93F010054000020D0340020B14D0100BE
S214016C50993F0100A147010025410100DD620100C5
S214016C60F8B5C368DC68002C01D172B6FEE72600D1
S214016C7018363000184FB847184B194D1B68002BB3
S214016C8026D1261D3000B847164B20009847164BD4
S214016C901B88034205D0154B20009847144BC0B201
S214016CA09847144AE36A11688B4200D9136014208E
S214016CB0310043431048C018A847104BE26A1B68CE
S214016CC00020DB6A9A4202D90D4B01301860F8BDEC
S214016CD031000C48F0E7C0464F5001005034002008
S214016CE009500100A93F010054000020993F01000E
S214016CF0DD4A010058340020E0330020D433002060
S214016D00D434002090340020034B1B680360034BEF
S214016D101B6843607047C0468C340020D034002086
S214016D2070B505000C00002801D172B6FEE70029F7
S214016D3001D172B6FEE7114B9847114B69681A6884
S214016D4023680026581C10D00E482E68006886421C
S214016D5002D001268A4208D2521A9A4209D29B1AB6
S214016D6023602800084B98470026084B98473000B8
S214016D7070BD002301262360F7E7C046815101005C
S214016D80D03400208C340020096D01009951010097
S214016D900122014B1A607047D4340020002800D02D
S214016DA0006C7047002800D001647047002801D1AC
S214016DB0064B1868026B13001978981AA52902D099
S214016DC0800880B270470133F6E7C046D43300200E
S214016DD0014B18687047C046D4330020054B01208C
S214016DE01B68002B04D0044B1868434258414000EE
S214016DF07047C046A434002050340020F7B5040084
S214016E00061E57D0324DC16A2B68DB6A994253D2AF
S214016E108369002B04DB05222B68DB6AD21A8261A8
S214016E2014234B432B4A2C4ED31862692B4F9A429C
S214016E3049D1231D01931800294B98472B68200040
S214016E40DB6AE362B0473B88034205D0254B20004E
S214016E509847254BC0B29847244AE36A11688B428B
S214016E6000D91360142058431A4B211D1818204BC3
S214016E7098472000B0473B88012603421AD0194B99
S214016E8020009847174B070020009847194BC1B2BE
S214016E9003209847FAB2030003218E20164FB84705
S214016EA0104B200098472B68C1B2DA6A0320D2B291
S214016EB0124B98473000FEBD2B68466CDB6A9E423B
S214016EC0B6417642F6E72B68DB6AE362D1E7C04655
S214016ED0D4330020E0330020A93F010054000020F5
S214016EE04F500100993F0100DD4A0100583400204F
S214016EF009500100F9460100ED4C0100A5460100CC
S214016F00F8B5041E01D10020F8BD2C4B1B68984231
S214016F1001D072B6FEE7836C002B01D172B6FEE794
S214016F20C26A416C013B83648A42ECD0002BEAD1F1
S214016F30071D234B38009847224B20009847224BC9
S214016F401B88034218D0214D2000A84706002000C8
S214016F50A8471F4BC1B203209847F2B20300032192
S214016F608F201C4EB0472000A8474423E3181A7808
S214016F70C1B2194B032098470523626C20009B1A67
S214016F80A361E2620F4B98470F4B1B88034205D063
S214016F900E4B20009847114BC0B29847104AE36A3F
S214016FA011688B4200D91360142043430D48390001
S214016FB0C0180D4B98470120A6E7C046D4330020E1
S214016FC04F500100A93F010054000020993F0100E5
S214016FD0F9460100ED4C0100A5460100DD4A01001D
S214016FE058340020E033002009500100F8B5041E93
S214016FF05FD0836C002B01D172B6FEE7456C8D42E3
S21401700000D20D00E26AAA4253D0012B51D1294B7E
S2140170101B689C4201D172B6FEE7274B20009847B9
S214017020264B1B88034218D0254E2000B047070088
S2140170302000B047234BC1B203209847FAB20300A1
S21401704003218F20204FB8472000B0474423E31880
S2140170501A78C1B21D4B03209847A369E16AE5621D
S214017060002B02DB0522551BA56114234B43184E4A
S2140170706269F3189A421CD1251D164B28009847C1
S2140170800D4B200098470D4B1B88034205D00C4B37
S21401709020009847104BC0B29847104AE36A11681F
S2140170A08B4200D9136014205843290030180C4B2A
S2140170B09847F8BDD4330020A93F010054000020B2
S2140170C0993F0100F9460100ED4C0100A54601007B
S2140170D0E03300204F500100DD4A01005834002003
S2140170E009500100044B1A68002A03D019688A6CFB
S2140170F001328A6418687047D4330020F7B50D4B07
S21401710098470D4C23680193002B10D10B4E0C4F62
S2140171103000B8470B4D2800B8470B4B019A1E604C
S2140171200A4B0C211D600520094B98472060094B2E
S2140171309847F7BD815101000C350020E03400204E
S214017140ED4F0100F4340020D8340020DC34002058
S214017150B95501009951010010B541600061914295
S2140171600CD8D21A836901249A4205D2074B011D15
S2140171701868074B98470024200010BD9A4202D297
S21401718001249942F8D2011D024BF1E7DC340020BC
S21401719021500100D83400200A4B13B598470A4BFA
S2140171A01B68002B01D172B6FEE7084B80220193C3
S2140171B002230749009307480023074CA0470028ED
S2140171C0F1D016BDFD7001000C35002010350020F1
S2140171D04CCF0100A5720100C1630100F0B5170094
S2140171E085B006001A00002801D172B6FEE70D4DE3
S2140171F02C68201E0FD001910297039605290CDCFE
S214017200094B9847094C00230A9A022800D01A0015
S214017210286801A9A04705B0F0BD2000002301A9F8
S214017220034CF7E70C350020DD6D0100ED5601003B
S214017230B1590100F7B5164D2B681A68002A04D11A
S214017240144A116813602960F7BDDB68DC681E68A4
S214017250271D114B38009847636A20009847E36959
S214017260012BE8D1A369F3189E4206D2636024611C
S21401727039002868094B9847DDE700212000009176
S2140172800B003200064CA0470028D4D172B6FEE7A8
S214017290D8340020DC3400204F500100215001007A
S2140172A0DD710100F0B5594B89B098470027584B5E
S2140172B01B681A680392BA4201D0DB681F68554BF7
S2140172C09847554B9847554D04002B680026984221
S2140172D002D2534B984701362C60524D002E68D18E
S2140172E0039B002B54D03000A74256D8A847484BE2
S2140172F01B68DB68DD684C4B281D9847EB69012B42
S21401730013D1AB692200F91828003B00474CA0476F
S21401731000280AD0009633003A0031002800444C79
S214017320A047002801D172B6FEE76B6A280098478D
S2140173308427BF003F4B0022186805A93E4B98479B
S2140173400028B3D0059B002BF4DB079C6369002B58
S21401735002D0201D344B98472F4B98472F4E0500DF
S2140173603368984201D22E4B9847059B3560092B0E
S214017370E0D801229A40160013003E4038D1C722B9
S214017380134218D19B06D5D520002C4B9847D1E740
S2140173902B4B1B681A6850425041264B0200391B82
S2140173A01868284B9847A8470028C1D1264B98470C
S2140173B0BEE7A847BCE7069BA269200099182A00E9
S2140173C01A4D0393A8470028B4D0636A2000984753
S2140173D0E369012BAED1A369069A2000D218009664
S2140173E033003100124CA0470028A3D172B6FEE745
S2140173F00699A161002901D172B6FEE749192B0051
S2140174002A002000094CA04794E7C0469D8B010046
S214017410D8340020A1660100B166010008350020BD
S21401742035720100296801004F50010059710100B1
S214017430DD7101000C350020955C0100C952010088
S214017440DC340020596201007151010070B5037CE3
S2140174500400094D002B04D08368E168581CA84736
S214017460A1606368E168581CA847A3686160591A5F
S2140174704A424A41227470BD318F010070B5064BF5
S214017480050014200C00984700230560C460436083
S2140174908360037470BDC046C5B4010010B50368AF
S2140174A042689954014B984710BDC0464D7401007F
S2140174B00023027C9A4205D1436880681B1A584211
S2140174C04341DBB21800704770B50B4B04000E0049
S2140174D09847051E0CD1A26823689B5C3370A3688D
S2140174E02074E168581C054B98472800A16070BDC0
S2140174F001204042FBE7C046B1740100318F010014
S21401750010B5074B074C18682178074B984701229E
S2140175102100064B06489847064B984710BDC046C3
S214017520AC430020B04300209D740100118101008E
S21401753078430020052C010010B5074B074C18684E
S2140175402100074B9847431C04D00122210005481F
S214017550054B984710BDC046B4470020B1470020F0
S214017560C974010078430020F1800100802130B504
S214017570890091B0364C3748A0478021364B8900A8
S21401758018603648A047364B694618608023FF22AC
S214017590DB05009300230A8101228B72CB72053131
S2140175A0CA7769460631CA776A460732D37702AA8E
S2140175B0D3770BAA13702D226A44137069466A4664
S2140175C001931382D3761376137753760A93059332
S2140175D04B77E1235B020893C4239B0303930123A8
S2140175E013225B420C930D931E4B8A760E931E4B11
S2140175F00F931E4C6A461E4920001E4B98470028D2
S214017600F7D125681C4B280098471F2318401E3BBE
S21401761083401A4A13602368DA69002AFCD10223E0
S214017620296820000B432B601549164DA8472000FA
S21401763001221549A8472200032331321178200080
S2140176400B43137011490122114B984711B030BDFD
S2140176507D740100B1450020AC430020B1430020F9
S214017660B447002003002A0003002B0078430020C3
S21401767000180042857D0100ED7C010000E100E07C
S21401768039750100D980010001750100B043002061
S2140176901181010070B5134B050000249847002D99
S2140176A008D1114B984770BD104B295D1868104BD7
S2140176B09847013428000F4B98478442F4D30E4C68
S2140176C0012120000D4B98470028EAD10C4D074BAD
S2140176D0290018680B4B98470122290020000A4B05
S2140176E09847DEE7A166010029680100B44700203B
S2140176F09D74010089B701007843002031810100A3
S214017700B1470020C9740100F180010010B50400E2
S214017710054B9847054B21001868054B9847040010
S214017720044B9847200010BDA1660100AC43002021
S214017730C9740100296801000EB433B5094B1B78E2
S21401774083420AD8084C06AB0193059A7F21200094
S214017750064DA8472000064B984733BC08BC03B02B
S2140177601847C04614350020F842002039B80100F9
S2140177709576010030B580240021074B64021A6813
S214017780064B013800D230BD002AFAD05A60996003
S2140177901D682542FCD0F4E76400002010E000E0FC
S2140177A030B580240021074B64021A68064B013865
S2140177B000D230BD002AFAD05A6099601D68254271
S2140177C0FCD0F4E76000002010E000E0094B1968E7
S2140177D000290BD1EFF31080074A002805D172B6B5
S2140177E0BFF35F8F05490870012111701A680132D5
S2140177F01A607047183500201C35002068000020EC
S214017800084B1A68013A1A601B68002B09D1064B0F
S2140178101B78002B05D00122044B1A70BFF35F8F33
S21401782062B67047183500201C350020680000201D
S214017830F7B50023012501AC0F4E21001720657016
S214017840A3702570B04780230C4F1B04BB61210039
S21401785014202570B04780235B037B61210015202F
S2140178602570B04780239B037B61002321003720CE
S21401787065702370B047F7BD55790100004400419B
S214017880002370B501250B4C237023780F2B00D9EC
S21401789070BD29009940084A1069084206D0116156
S2140178A0064A9B009B58002B00D09847237801334B
S2140178B02370EAE7B847002000180040BC470020C4
S2140178C0014B5878C009704700180040022310B5D4
