S01A0000436F6D6D50726F746F636F6C735F413038472E737265636A
S1130000902100205D2A0000592A0000592A00008E
S113001000000000000000000000000000000000DC
S1130020000000000000000000000000592A000049
S11300300000000000000000592A0000592A0000B6
S1130040592A0000592A0000592A0000592A0000A0
S1130050592A0000592A0000592A0000592A000090
S1130060592A00008D2100009D210000AD210000CF
S1130070BD210000CD210000DD210000592A00002F
S1130080592A0000592A0000592A0000592A000060
S1130090592A00000000000000000000592A000056
S11300A0592A0000592A0000592A0000592A000040
S11300B00000000010B5064C2378002B07D1054B37
S11300C0002B02D0044800E000BF0123237010BDC0
S11300D00C00002000000000344D0000084B10B557
S11300E0002B03D00749084800E000BF0748036815
S11300F0002B00D110BD064B002BFBD09847F9E72D
S11301000000000010000020344D0000344D0000B9
S11301100000000070B50020084B98470500084C0B
S1130120FA218900A047074B186007492800A04717
S1130130064B18600522064B1A6070BDE9270000C3
S1130140893100000000002040420F00040000201C
S113015010E000E030B5084B1C68084A00258021F7
S11301604902013807D3002CFBD054609560136812
S11301700B42FCD0F5E730BD0000002010E000E0A9
S113018001680722CB691A42FCD17047F0B5D64604
S11301904F464646C0B58AB006000F0014003160D1
S11301A00800A04B9847A04A116A851C0123AB4064
S11301B00B43136209A9237B0B701430C5B22800CA
S11301C09A4B984728009A4B9847207B0021994BDB
S11301D098473B681C209B0705D50AB01CBC904679
S11301E09946A246F0BD3B681738DB07F5D4306862
S11301F08C4B9946984705008F49904B9847AD0022
S11302008F4BEE5000233376737600257383B383CC
S11302102522B554336214333B6033689846180082
S1130220C8478146802308AA137055700123937030
S1130230D570E069276A002800D1AFE008AB1870D8
S1130240022308AA5370000CC0B211007D4B9847DA
S1130250002F00D1A7E008AB1F70022308AA537037
S11302603F0CF8B21100774B9847A38AF380E38AD6
S11302703381237E8022002B04D1734B9B789B0710
S1130280DB0FDA01A16823690B4313432422A25C28
S1130290002A02D08022D2051343A26A13432C22DF
S11302A0A25C002A03D180229204914202D18022CE
S11302B0120513432D22A25C002A02D080221204CC
S11302C013432E22A25C002A02D08022D2031343BD
S11302D04246126813434246136080235B00536016
S11302E048461430C0B2594B98470790FA239B00F4
S11302F022685A43914663689A46554DA847009030
S113030001914B465800A84702900391208EA847BC
S1130310049005914F4F504A504B00980199B847AB
S113032002000B0004980599B8474D4E00224D4B2E
S1130330B047049005914846A84702000B00049872
S11303400599B84702000B00474D00980199A8474A
S1130350029A039BB0470022444BA847029A039B8E
S1130360434DA847434B9847050080239B04A2684C
S11303709A421ED003004020FF2D00D92DE700240F
S11303800020FF251D40240625430004FF231B04F1
S1130390184005434346DD6000201EE70021404627
S11303A0354B98474AE701214046334B98470700AD
S11303B051E7FA26B60053465E43009801990200BD
S11303C00B00274CA047009001913000204B984728
S11303D000222A4BB84702000B0000980199244CD4
S11303E0A0470022214B204CA047224B9847041ED3
S11303F00CD031000798224B98470238001B2B0081
S1130400FF2D0CD8FF28BCD94020E6E67100481E19
S1130410079B9C4660441A4B98470138EFE74020FD
S1130420DBE6C0468D1100000004004001290000F5
S113043075280000C90F0000E90600002121000012
S113044068000020F9290000002000411D29000057
S1130450114B00007D3F000095D626E80B2E113E7F
S1130460F5320000000024407D4400000000F03F0D
S113047015390000A94A00001510000000000840CA
S11304808931000003681A7E920707D502221A7682
S11304905B8B9B074120DB17184070475A8B520730
S11304A006D55968C02292020A435A601820F4E71C
S11304B00020F2E730B50268002301240225117EF2
S11304C021420BD1117E294206D101339BB201890D
S11304D09942F4D8122002E0002000E0002030BD50
S11304E010B5046862688023DB02134363606162B1
S11304F0024B98470123237610BDC046B504000083
S1130500F0B5DE4657464E464546E0B583B0060094
S11305100F0005684C88324B98477B7A002B1DD11D
S11305206B68304A13406B603B7A002B1BD03B88CE
S11305305B007A7A920313438022120213436B62A4
S11305403000294B98470190002813D0019803B03C
S11305503CBC90469946A246AB46F0BDB97A300001
S1130560224B9847DCE73B885B007A7A920313437B
S11305706B62E5E730001E4B9847031E0190E5D1FE
S1130580A046002420339946154B9B46164B9A46A9
S1130590444515D06B8B4A4613421DD03000D847D2
S11305A07B681A5D2823EA543000D047002806D11E
S11305B06B8B01345B07EBD51E23019300E00190A4
S11305C0B37A002BC2D03000054B98476A68C02329
S11305D09B0213436B60B9E741230193B6E7C0461E
S11305E081010000FFFFFBFFB5040000E1040000EF
S11305F08504000010B5838B9BB20522002B01D02B
S1130600100010BD01338372C372024B984702007D
S1130610F6E7C0460105000001680722CB691A42CB
S1130620FCD1704770B5040006683268458B838B33
S1130630ED1AADB2838B013B9BB2838313011DD5AD
S1130640C37A002B03D0838B9BB2012B10D0A38BD6
S11306509BB2002B02D1A37A002B1CD12000124B99
S11306609847236A5D192823F35CDBB22B7070BDB5
S113067072688023DB0213437360E8E7C37A002BBC
S1130680E5D0838B9BB2002BE1D172688023DB021F
S113069013437360DBE72000034B98477268C02361
S11306A09B0213437360D9E71906000070B5040078
S11306B005686B8B5B0703D51E222523C25470BDCE
S11306C0468B838BF61AB6B2838B013B9BB2838332
S11306D0044B9847236A9E193378DBB22822AB5423
S11306E0EDE7C0461906000070B58000754BC4588C
S11306F025682B681B01DA0F637E267E1E40638B00
S11307009BB2002B03D1A38B9BB2002B23D1638B11
S11307109BB2002B08D0A38B9BB2002B04D12533B2
S1130720E35C052B00D16DE0638B9BB2002B24D0DE
S1130730A38B9BB2002B20D06B8B9B0600D581E052
S1130740002A04D0A38B9BB2012B00D17AE0412272
S11307502523E25411E02B7EDB0707D501232B76FA
S11307606B8B9B072ED541222523E254A38B9BB28E
S113077063832523E35C052B38D0638B9BB2002B6A
S113078007D0A38B9BB2002B03D12533E35C052B4D
S113079064D02523E35C052B13D02523E35C002BD5
S11307A00FD003232B7500236383A3832533E35CDA
S11307B0412B03D0A37A002B00D075E0730700D53A
S11307C07BE070BD6B8B5B07D0D518222523E254E8
S11307D00023A383A37A002BC8D020003A4B984768
S11307E06A68C0239B0213436B60BFE71F33E35C5B
S11307F0002B03D02000354B9847BEE72000344B34
S11308009847BAE71F33E35C002B00D08CE703332F
S11308102B750023638325330022E254A37A002B33
S113082007D101232B76F307A7D5E3682000984767
S1130830A3E72000244B98476A68C0239B02134314
S11308406B60F0E72423E35C002B03D12000204BF2
S1130850984792E720001D4B98478EE71F33E35CCF
S1130860012B96D12B7E9B0701D502232B760323E4
S11308702B750023638325330022E254B30703D589
S11308802423E35C012B0BD0F30700D481E724235A
S1130890E35C002B00D07CE7E3682000984778E70E
S11308A023692000984774E72000074B98476A683B
S11308B0E023DB0213436B6080E763692000984701
S11308C07FE7C046680000201906000025060000E6
S11308D0AD06000001680322CB691A42FCD17047BF
S11308E070B502680023042401250226117E2142EA
S11308F00ED1117E29420DD1117E314206D1013330
S11309009BB2C1889942F1D8122002E0002000E095
S1130910002070BD0020FCE7F0B5CE46474680B508
S113092083B005000C00160029600B681C209B078F
S113093004D503B00CBC90469946F0BD0B6817383B
S1130940DB07F6D408004D4B994698474C4A116A88
S1130950831C0127B8469F403B000B43136201A947
S1130960737E0B701430C3B21F001800454B9847B8
S11309703800454B9847707E0021444B98472868BF
S1130980C84707004249434B9847BF00424BFD50BC
S113099000232422AB540132AB54EB84337E6B72BC
S11309A0102323602C683389EB80337C2B728023E3
S11309B06A461370002353706B4642469A700023B4
S11309C06A46D370F069356A00284BD06B461870BC
S11309D002236A465370000CC0B269462F4B9847F5
S11309E0002D44D06B461D7002236A4653702D0CB3
S11309F0E8B26946294B9847B37E8022002B04D184
S1130A00274B9B789B07DB0FDA012523F35C002B34
S1130A1004D180239B047169994202D180231B0570
S1130A201A432068736871690B432421715C890738
S1130A300B432621715CC9050B4303431343236015
S1130A40728980235B0013436360B3895B00F2897E
S1130A5052041343727C1343327CD2031343636204
S1130A60002066E7002120000E4B9847AEE70121E5
S1130A7020000C4B98470500B4E7C0468D110000D8
S1130A80000400400129000075280000C90F00007F
S1130A90D10B00002121000068000020F92900008A
S1130AA00020004115100000F8B5DE4657464E46BA
S1130AB04546E0B507000E000D881724002D06D129
S1130AC020003CBC90469946A246AB46F8BD038D37
S1130AD0123C002BF4D1036898469B7D9B07EFD40E
S1130AE0384B9847041EEBD143461B7E1C349B07AE
S1130AF0E6D543465A8B43230C3C1A42E0D1434685
S1130B005B8B1B070ED543465A688023DB021343D5
S1130B10424653605268C0239B02134342465360CB
S1130B200A34CDE743465B68274A13404246536084
S1130B305268C0239B02134342465360013DADB249
S1130B406B1C994600251F4B9B4601239A4638008F
S1130B50D847041EB4D143461B7E524613422BD1C0
S1130B6043461B7E9B0727D43800184B98472823FD
S1130B704246D35C7268535501354D45E7D1380080
S1130B80104B984743461B7E5B070CD543465A6877
S1130B908023DB02134342465360526880239B0246
S1130BA013434246536043461B7EDB0700D487E76A
S1130BB001234246137683E7012342461376042435
S1130BC07EE7C046E1080000FFFFFBFFD5080000F8
S1130BD070B580009B4BC45825682523E35C242210
S1130BE0A65C1E402B7E9B0700D495E0E38C9BB251
S1130BF0228D93420DD03023E35C002B09D13122A6
S1130C00A354E3842385B3070BD5236920009847B5
S1130C1007E0E38C9BB29A4203D03023E35C012BC0
S1130C2022D06A8B43231A4204D01022123BE2548E
S1130C30B30624D4637A002B25D16B8B1B074AD5CA
S1130C4001223023E254730738D4E38C9BB2002B87
S1130C5038D125687C4B984700236B838023DB02C3
S1130C606B607A4B984718E000233122A354E38445
S1130C702385F307D5D5E36820009847D1E7236A95
S1130C8020009847D6E725686F4B984700236B836D
S1130C908023DB026B606D4B984723681A7ED20772
S1130CA001D501221A7602221A762468664B9847E7
S1130CB0002363836360654B984770BD63692000BC
S1130CC09847C2E72568604B984700236B836B60A5
S1130CD05E4B9847E1E700223023E25433070ED4F9
S1130CE0E38C9BB2002B0ED12568574B9847002309
S1130CF06B838023DB026B60544B9847CDE7A36979
S1130D0020009847ECE725684F4B984700236B83F6
S1130D106B604E4B9847C0E72B7EDB072ED5012333
S1130D202B7604332B752033E35C5B0705D4252332
S1130D30E35C1B0701D402232B753123E35C1E2BD8
S1130D40BBD03123E35C102BB7D000233122A35452
S1130D50E3842385B30703D53023E35C002B09D058
S1130D60F307AAD53023E35C012BA6D1E368200066
S1130D709847A2E72369200098479EE72B7E5B07EC
S1130D809BD5238D002B1ED03022A25C012A13D0C8
S1130D90E38C9BB2002B00D18FE73023E35C002B64
S1130DA044D0E36A5A1CE2621B78DBB22822AB54BB
S1130DB0238D013B238580E7E28C92B29342E7D2F4
S1130DC06B8B5B07E4D500232385E3843033E35C3A
S1130DD0002B17D11C4B984700236B838023DB0225
S1130DE06B601A4B98476A6880239B0213436B60BD
S1130DF01E223123E254F30600D45EE7E3692000A7
S1130E0098475AE7104B984700236B838023DB02F3
S1130E106B600E4B98476A6880239B0213436B6098
S1130E2031230022E2542D3B2B7546E7E26A531C22
S1130E30E3622823EB5CDBB21370238D013B238533
S1130E403BE7C04668000020ED2100002D22000091
S1130E50F0B5DE4657464E464546E0B587B0804677
S1130E60049116001F000022002300218B463F241A
S1130E7001202100009601975C46039444460594A2
S1130E8013E02024641A0500E540A84614E0009C01
S1130E90019D121BAB415C464D462C43A346039C6B
S1130EA045462C430394013925D3202464420C196C
S1130EB0E7D40500A540A84604008C40A14692183A
S1130EC05B4114001D00059E4F463E40B446049EFF
S1130ED047463E40B246664657463E4303D0060068
S1130EE0264332002B00009C019D9D42DBD8CED1CD
S1130EF09442D8D8CBE7039B5846190007B03CBCB2
S1130F0090469946A246AB46F0BD10B54908402329
S1130F100024814202D2180010BD1C00091A631C6F
S1130F209BB28842F9D94023FF2CF4D814800023C3
S1130F30F1E70000F0B583B00F00160008AA11789D
S1130F4004004C434022BC4202D9100003B0F0BD5F
S1130F50002B14D1020008000021194CA047010005
S1130F603A0000230020174CA04700220123121A44
S1130F708B41120C1B041A4332800022E5E7002245
S1130F80012BF9D10A00002300210D4CA0470200D7
S1130F900B0000920193380000210A4CA047050081
S1130FA080239B0140229842CFD8790FF800009A01
S1130FB0019BA047EA00821AD2B252032A43DBE71C
S1130FC0A1320000510E000010B582B004000E4B97
S1130FD01B78002B07D0002905D10B4B5B7883428B
S1130FE010D01D200CE001A90C701320074B98476A
S1130FF01320074B9847044B5C7001221A700020A1
S113100002B010BD0020FBE72800002001290000E9
S113101075280000404B984231D00AD93F4B984282
S11310204DD03F4B98425AD03E4B984237D0002087
S113103070473D4B98420CD03C4B9842F7D1012964
S113104017D000295DD0022915D0032915D000201E
S1131050EEE7012907D0002951D0022905D0032940
S113106005D00020E4E73248E2E73248E0E73248BE
S1131070DEE73248DCE73248DAE73248D8E70129CC
S113108007D000293FD0022905D0032905D000202C
S1131090CEE72D48CCE72D48CAE72D48C8E70129FB
S11310A007D0002931D0022905D0032905D000201A
S11310B0BEE72848BCE72848BAE72848B8E701292A
S11310C007D0002923D0022905D0032905D0002008
S11310D0AEE72348ACE72348AAE72348A8E7012959
S11310E007D0002915D0022905D0032905D00020F6
S11310F09EE71E489CE71E489AE71E4898E71E484C
S113110096E7032094E71D4892E71D4890E71D48A1
S11311108EE71D488CE7C0460010004200180042CC
S1131120001C00420014004200080042000C00426F
S1131130030005000300060003000700030001008C
S113114003001E0003001F000300090003000A003F
S113115003000B000300110003001200030013003E
S113116003000D0003000E0003000F00030017002E
S11311700300180003001900030004000300080022
S11311800300100003000C000300160030B587B004
S11311900B4B6A4632CB32C232CB32C2009B834203
S11311A00BD001239A0069465258824206D001337B
S11311B0062BF7D1002007B030BD0023D8B2FAE7E0
S11311C0284C000070B50500046820000E4B9847B9
S11311D01F2318401E3B834080220C498B502A68F1
S11311E0D369002BFCD18F33237523762368022225
S11311F0934323602A68D369002BFCD1236801221E
S11312001343236070BDC0465D21000000E100E08F
S1131210F0B58BB005000C00160029600B681C208B
S11312209B0701D50BB0F0BD0B681738DB07F9D469
S113123008006F4B98476F4A116A871C0123BB4013
S11312400B43136209A92427F35D0B701430C3B256
S113125001931800684B98470198684B9847F05DD4
S11312600021674B98473378012B3FD03378002B0C
S113127003D123680822134323602B000C33290075
S11312802831002204C38B42FCD10023EB62AB6201
S11312900024AB862B863633EC540133EC540133F3
S11312A0EC54353B6B722C712868514B98470700FE
S11312B05449554B9847BF00544BFD502F6804AB1D
S11312C080221A705C707F3A9A70DC703378002B3D
S11312D002D1002204AB9A70B36A0593F36A0693B1
S11312E0336B0793736B089300240BE023680C2281
S11312F013432360BAE73800454B98470AE00134AA
S1131300042C10D0E1B2A30002AA0C201218D05869
S11313100028F0D0431CF2D004A90870000CC0B21D
S11313203C4B9847EBE733786B71337CAB71B37C00
S1131330EB71337D2B72002202ABDA803378012B00
S113134012D03378002B26D1B069B28B7B6AF17F3F
S11313500904B47F2143194379622023F35C002BF1
S11313601BD040231A4318E02868214B98471430B7
S1131370C0B2294B9847010002AB9A1DB069274BB4
S1131380984703001720002B00D04BE702AB06332D
S11313901B783B73D5E7002200207368B1680B43C8
S11313A0F1680B430343317C0A43717C002903D168
S11313B01B498978890701D580210B43B17C002919
S11313C002D0802189020A43F17C002902D08021C5
S11313D089000A43317D002902D0802189010A4312
S11313E039680B433B607B681A437A60002019E735
S11313F08D11000000040040012900007528000040
S1131400C90F0000451800002121000068000020D9
S113141015100000F92900001D2900000B0F000021
S113142000200041F0B5D6464F4680B583B08C46C7
S11314303825465D333D052E75D01235002A72D00D
S1131440C4790535002C6ED04479002C03D104688E
S1131450257EA9070AD4013A94B200260422022167
S113146089460127DB05DB0D9A4637E00225257600
S1131470F1E701680B7E3B42FCD00B7E3B4209D076
S113148053468B622DE00B7E4D462B4238D10B7EAA
S1131490134245D001680B7E1342FCD00B7E1342ED
S11314A040D04B8B00250195134202D04A831E2362
S11314B001938379012B27D08B6ADBB20199002930
S11314C037D1751CADB261468B55817901291FD086
S11314D02E00013CA4B2184B9C421FD04379012B2F
S11314E0C7D04379002BD5D101680B7E1342CAD1F2
S11314F0124B0D7E1542C6D1013B002BF9D1C2E738
S113150002230B7604250EE08B6ADB05DB0DD5E7A1
S11315100236B6B21B0A61464B55DAE7019D02E07A
S1131520122500E01025280003B00CBC91469A4611
S1131530F0BD019DF7E7C046FFFF00001027000043
S113154010B544791523012C01D0180010BD047A7C
S11315500023002CF9D1002A58D04B78002B44D01A
S113156003681B7EDB0710D40A78D1090023002905
S113157004D15309DB012E498C4663441F211140D9
S113158001228A409A610523DFE70A78D4090023FF
S1131590002C04D15309DB01254CA44663441F24C9
S11315A014400122A2405A6103681A7ED20701D571
S11315B08A789A62C2790023002AC6D1026804217B
S11315C0137E0B42FCD0117E00234907BDD5538BFB
S11315D05B0701D5042353838379012B02D0936ADB
S11315E00023B2E7936A0023AFE70A78D109002306
S11315F0002904D15309DB010D498C4663441F21A2
S1131600114001228A405A6100239EE70A78D109D9
S11316100023002904D15309DB0105498C466344A6
S11316201F21114001228A409A6100238DE7C046A0
S113163000440041F0B5DE4657464E464546E0B507
S113164083B03823C45C333B052C02D01233002A08
S113165007D1180003B03CBC90469946A246AB465D
S1131660F0BD4379002B03D103681C7EA4070AD480
S11316709346002401230225AC460235A846013ACC
S113168092B28A4623E002241C76F1E7357E614655
S11316900D422ED1357E1D4200D1C2E00668357E52
S11316A01D42FCD0671CBFB251460D5D81790129F2
S11316B023D0ADB23C00377E1F4202D0ED05ED0DC4
S11316C0B562551EADB2C679002E1DD12A005A4D01
S11316D0AA4270D04579002DE0D10668357E1D42BE
S11316E0D4D1564D377E1F42D0D1013D002DF9D1C2
S11316F0CCE7022333760233ABE70234A4B251467B
S1131700CF5D3F023D43D6E751464579002D37D1A1
S11317104B4D019112E00234A4B24946019F795C19
S11317200902009F0F431BE0013A92B20668377E1C
S113173041460F421BD1013D002D18D0002AF5D09F
S11317400668377E1F42F1D0671CB9B289460199F9
S1131750095D009181790129DDD069460F884C46E5
S1131760317E1942E0D0FF05FF0DB762DCE7019935
S1131770357E67463D4218D1357E4646354252D0C5
S11317800668357E47463D42FBD0357E3D4207D054
S1131790758B3D4200D077838579012D09D0B56AD8
S11317A05D46013DADB2AB4669E7022333760233B1
S11317B04FE7B56AF4E74379012B0BD0002B34D102
S11317C0C279002A00D144E704245B465D46002B1D
S11317D019D13EE7016802220B7E1342FCD000239C
S11317E037E70B7E234222D00B7E234207D04B8B5C
S11317F0234200D04C838379012B10D08B6A013DA6
S1131800ADB2002D15D001680B7E2342E9D10B4BFC
S11318100A7E2242E5D1013B002BF9D1E1E78B6A34
S1131820EDE7122315E7122313E7002311E7122330
S11318300FE700230DE7C046FFFF0000102700005C
S113184011270000F8B58000854BC458266837235B
S1131850E35C3622A75C1F40337EB57D1D40EB0759
S11318602ED56379012B25D0002B29D1637A002B47
S113187026D02168E26A1378DBB2501CE062A079BA
S1131880012800D169E09BB2DB05DB0D8B62A38EDE
S1131890013B9BB2A386A38E9BB2002B10D10133D4
S11318A03375637A012B0BD1E379002B08D1023312
S11318B0B37505E0637A002B3ED0637A002BD8D150
S11318C06B0711D5738B5B0751D5637A012B08D055
S11318D01E223823E254353B6372023333753B07CF
S11318E041D4B36A04237383AB0715D56379002B02
S11318F00ED107333375053B33760133637200230E
S1131900A386238638330022E254FB0600D57FE009
S11319106379012B00D17FE02B0708D56379002B75
S113192005D1083333753376BB0600D58AE06DB232
S1131930002D00DA8AE0F8BD4A4B1B88B362638E3F
S1131940013B9BB26386638E9BB2002B01D10133B2
S113195033756379012BB0D086E7507800020343D6
S11319600232E26290E72000A3699847B9E7637AFC
S1131970012B27D023689B6ADB05DB0DDAB2A16A51
S11319800A70A26A511CA162A179012933D0238E65
S1131990013B9BB22386238E9BB2002BA4D1002251
S11319A03833E254343B3375637A022B29D0637A9B
S11319B0002B00D098E7BB0700D495E720002369EB
S11319C0984791E723689B6A638E013B9BB26386C9
S11319D0638E9BB2002B00D086E70433337500225C
S11319E03433E254353B6372FB0700D47CE72000B8
S11319F0E368984778E71B0A5370A36A0133A3622C
S1131A00C5E77B0700D46FE72000636998476BE75D
S1131A102000E36998477BE7637A012B00D086E7CF
S1131A20E379002B00D082E702333375013363720C
S1131A3000223533E254FB0700D46DE72000E3684D
S1131A40984769E72000236A984770E78023337535
S1131A5033767B0600D46EE7636A200098476AE712
S1131A606800002064000020F0B5DE4657464E466C
S1131A704546E0B591B005000C0016002960080049
S1131A80BA4B9847020023680520DB0706D511B03E
S1131A903CBC90469946A246AB46F0BD236817303D
S1131AA09B07F4D4B249086A971C0123BB40034343
S1131AB00B620FA92D27F35D0B701432D3B202937E
S1131AC01800AC4B98470298AB4B9847F05D002147
S1131AD0AA4B9847F37A6B712423F35CAB712523EB
S1131AE0F35CEB71F37E2B72337F6B722B68984639
S1131AF018009E4B9847143000220E2306A98C46EA
S1131B0063441A80328A02928023DB019A4200D114
S1131B109AE00FD9C023DB01029A9A4200D18EE0E9
S1131B2080231B029A4200D01BE103230693002367
S1131B30079308E080239B019A4200D011E110230F
S1131B4006930F3B079333680593F3689B467369C9
S1131B500393337E04932623F35C9A467368994671
S1131B60002B00D19CE080235B05994500D180E0E7
S1131B70737E002B02D0B37E424693730E2306AAD3
S1131B80944663441B8842469381059B5A461343FB
S1131B90039A13434A461343029F1F43049B1B02A9
S1131BA01F4353465B071F432723F35C002B01D1DC
S1131BB004331F43737E9B02327F52021343727FAE
S1131BC0120213432422B25C520413432522B25C52
S1131BD012041343B17AF27A114319433389FF2B68
S1131BE000D181E080225204174319432C23F35C73
S1131BF0002B03D1624B9B789B0701D580231F43A5
S1131C002A68D369002BFCD1434659602A68D369FA
S1131C10002BFCD143461F600EAB80221A700022B9
S1131C205A70DA709A70336B0A93736B0B93B36BBD
S1131C300C93F36B02930D9300270AAE63E0082321
S1131C400693073B07937EE733680593F3689B4647
S1131C5073690393337E04932623F35C9A46736873
S1131C609946002B18D080235B05994501D00020AC
S1131C7025E02723F35C002B00D079E7336A1F00AB
S1131C80C0B2404B984701000E2206AB9C4662440A
S1131C9038003D4B984712E008230693002307932E
S1131CA02723F35C002B0ED0069B0093079B0E2288
S1131CB006A98C466244B16A306A344FB84700289A
S1131CC000D0E4E654E7336A1F00C0B22D4B9847B6
S1131CD00100069B0093079B0E2206A884466244DB
S1131CE038002A4FB847EAE7F37E002B00D17DE79E
S1131CF08023DB041F4379E72000254B984707E046
S1131D000137042F0DD0F9B2BB0098590028F3D045
S1131D10431CF5D00EA90870000CC0B21D4B9847A7
S1131D20EEE70023EB602B616B61AB61EB612B622F
S1131D30AB626B620022EB85AB853033EA5401332E
S1131D40EA540133EA540133EA542868074B9847AC
S1131D5004001149114B9847A400114BE550002091
S1131D6095E61023069300230793ECE68D110000FB
S1131D70000400400129000075280000C90F00007C
S1131D80002000411D2900000B0F0000350F00004A
S1131D9015100000F9290000891F0000212100000E
S1131DA068000020C2791C23002A01D11800704762
S1131DB0C28D92B2173B002AF8D102681185022124
S1131DC0137E0B42FCD00023F0E782791C23002A07
S1131DD001D118007047828D92B2173B002AF8D1C6
S1131DE00268107E4007F4D5538BDBB298061DD0F1
S1131DF0980703D5022353831833EAE7580703D51A
S1131E00042353831A33E4E7D80703D50123538308
S1131E101233DEE7D80603D5102353833233D8E7D1
S1131E209B0603D5202353832133D2E7138D0B80E4
S1131E300023CEE7F0B5CE46474680B583B0050013
S1131E4001911720002A04D103B00CBC9046994696
S1131E50F0BDEB790530002BF6D02C68013A93B233
S1131E60994600260127204B984611E0731C9BB22B
S1131E70019A915D6A79012A17D089B21E0028005F
S1131E801A4B98474B46013B9BB29946434513D0A6
S1131E90237E3B42EAD1144B227E3A42E6D1012B07
S1131EA019D0013B002BF7D1E0E70236B6B2019A14
S1131EB0D35C1B021943E2E7237E9B070DD40A4B34
S1131EC00221227E0A420AD1012B0AD0013B002BB7
S1131ED0F7D10020B8E71220B6E70020B4E70020CD
S1131EE0B2E71220B0E7C046FFFF0000A51D0000C6
S1131EF0F0B5D64600B584B0040001911720002A3D
S1131F0003D104B004BC9246F0BDA3790530002B84
S1131F10F7D02668013A93B29A460025042719E0BF
S1131F20002302AAD380911D2000154B9847002856
S1131F30E7D1691C89B202ABDB88019A53556279F7
S1131F40012A14D00D005346013B9BB29A460D4B17
S1131F509A45D6D0337E3B42E2D10A4B327E3A4296
S1131F60DED1012B09D0013B002BF7D1D8E7023594
S1131F70ADB21B0A019A5354E5E71220C1E7C046EB
S1131F80CB1D0000FFFF0000F8B58000624BC55870
S1131F902C68E369002BFCD1237EA67D1E403023F0
S1131FA0EB5C3122AF5C1F40F30722D5EB8D9BB273
S1131FB0002B1CD0AA6A1378DBB2511CA962697980
S1131FC001290ED09BB2DB05DB0D2385EB8D013B94
S1131FD09BB2EB85002B0CD1013323750133A37520
S1131FE007E0517809020B430232AA62EBE70123AE
S1131FF02375B30706D50223237500223133EA542F
S1132000FB071AD4730765D5AB8D9BB2002B5FD049
S1132010638BDBB21A0714D43F221340002B34D055
S11320209A0711D51A223223EA54303B63837B0783
S113203050D528006B6998474CE02800EB68984716
S1132040E0E737221340E9E75A0705D51E22322379
S1132050EA542E3B6383EAE7DA0705D513223223D9
S1132060EA54313B6383E2E7DA0605D542223223A0
S1132070EA54223B6383DAE720221A42D7D0213282
S11320803223EA54123B6383D1E7238DDB05DB0D56
S1132090DAB2696A0A706A6A511C6962697901294B
S11320A010D0AB8D013B9BB2AB85002B12D1043316
S11320B0237500222E33EA54BB070BD528002B6965
S11320C0984707E01B0A53706B6A01336B62E8E7B9
S11320D004232375F30604D5102323752376FB0606
S11320E00ED4B30604D52023237523763B070BD4E3
S11320F0330704D5082323752376BB0608D4F8BD1B
S11321002800EB699847ECE72800AB699847EFE7AC
S11321102B6A28009847F2E7680000207047000007
S1132120F0B50A4B1B78002B0CD1094F094E0A4D10
S11321300024DE515A1914600433182BF9D10122FA
S1132140024B1A708000024BC150F0BD2A000020DF
S11321502C0000201D2100006800002000B583B081
S113216009236A46137001335370013393700133AA
S1132170D3700133137101335371034B98476B468A
S1132180185603B000BDC0468D11000010B5024BB7
S11321901B680020984710BD2C00002010B5024B8E
S11321A05B680120984710BD2C00002010B5024B3D
S11321B09B680220984710BD2C00002010B5024BEC
S11321C0DB680320984710BD2C00002010B5024B9B
S11321D01B690420984710BD2C00002010B5024B49
S11321E05B690520984710BD2C0000200C4B1B6830
S11321F0002B06D1EFF31083002B07D00022094BEC
S11322001A70074A136801331360704772B6BFF33C
S11322105F8F0022044B1A700132024B1A70F0E7F0
S1132220440000204800002008000020084B1A68E1
S1132230013A1A601B68002B09D1064B1B78002B4E
S113224005D00122044B1A70BFF35F8F62B670474A
S1132250440000204800002008000020F0B583B0AE
S113226001AC012565700027A77025702100172097
S1132270064EB04780221204054B9A6127706570A0
S113228021003720B04703B0F0BDC04695220000BE
S11322900044004100B583B001AB80221A700A7873
S11322A05A704A789A708A78DA701900014B984704
S11322B003B000BDF929000010B5082803D8800038
S11322C01C4B1B589F46002032E01B4B18692FE023
S11322D01A4B1B6A9B059B0F1948D84028E0164BE4
S11322E0586925E0144B1B6800209B0720D513492F
S11322F01022CB681A42FCD00F4B1A6824231340D7
S1132300042B01D00F4813E000200F4B98470A4BD1
S11323109B681B041B0C58430AE05023074AD35CF8
S113232000205B0704D5044BD86801E0802000023C
S113233010BDC046404C00004C0000200008004086
S113234000127A00006CDC021D29000070B50C49F3
S11323500B6A047885784078012210408001402679
S1132360B34303432A40D20180208343134303220F
S1132370224012020348034013430B6270BDC0465F
S113238000080040FFFCFFFFF0B5DE4657464E460E
S11323904546E0B50100264B9B469B8A457800786C
S11323A04242424191468878CA7894460A799046D6
S11323B04E7B0F7B8C7B8A681E494A6101214A4609
S11323C092009146042293434A46134342460A40EC
S11323D0D2009046082293434246134362460A4081
S11323E0120194461022934362461343084040016D
S11323F02022934303430F40BF01402083433B43C8
S11324000E40F601403083433343793805402D02B2
S1132410094803402B4321400903084803400B4368
S11324205A4693823CBC90469946A246AB46F0BDC0
S1132430000800404C000020FFF8FFFFFFEFFFFF03
S113244010B5037A9B061B0C42899205920D134327
S113245018494B608379C2791343428884882243A4
S113246013434278D20113430B600378042B11D039
S1132470202B0ED1037B9B06028A1343C2891204CC
S11324800D490A4013430B4A936011680B4B0B43ED
S1132490136010BD037B9B06028A1343C289120496
S11324A005490A401343034A9360136804210B430C
S11324B01360EEE74C0000200000FF03240400003A
S11324C0082803D88000254B1B589F46172044E05A
S11324D0234A136A02210B43136200203DE0204A81
S11324E0936902210B439361002036E01C4A138A4E
S11324F002210B43138200202FE0194A938A022100
S11325000B439382002028E016490B6802221343F0
S11325100B60134B9A8419000E32CB681A42FCD01C
S1132520104A91680E4BD96252689A6200229A84CA
S113253019001032CB681A42FCD00A4B1B689BB2BC
S1132540074A9384002008E0054944228B5C02205A
S113255003438B54002000E000207047644C0000CB
S1132560000800404C000020F0B58FB0C222D20019
S1132570474B9A60474A53681E218B431A390B43D1
S11325805360022201AB1A700024434DE0B201A94A
S1132590A8470134252CF9D10AA8002303708370BD
S11325A0802212028260C37001220271037383735A
S11325B0023242704373394B98470520384B984791
S11325C033490222CB681A42FCD0314A938A8021D3
S11325D00B43938205AB00210022598099809A71A4
S11325E0DA713F3159813B3919705A702D4B1B6890
S11325F09B0E3F2B4AD005A803722B4B0382072363
S113260003733833C381294B984704A800254570C8
S1132610012686700570264B98470620204FB84740
S1132620244B984701AC02966570257265720523A8
S1132630237021000120204B984701201F4B98470D
S1132640267021000020144B984700201C4B98470B
S11326500720B8470E49D022CB681340D02BFBD1BA
S1132660184A0023137253729372D37201A9012280
S11326704A604B700B724B7207330B7000200E4B89
S1132680984700200D4B98470FB0F0BD203BB2E7B0
S11326900008004000400041012900008923000097
S11326A0C124000024608000B9050000412400001A
S11326B04D230000C9260000ED260000A5270000D8
S11326C07528000000040040064A936908210B4362
S11326D093610122044B1A7019000B781342FCD148
S11326E07047C04600040040000C004070B506006E
S11326F004000D782D0205434B78002B02D0802373
S1132700DB021D434B7A002B02D080231B031D43A5
S11327104868012810D9431E184234D1022830D900
S11327200223002201325B009842FBD8120232439A
S1132730140080235B031D430B7A002B02D08023FB
S11327409B031D43134A53785BB2002BFBDB124BF4
S11327509847124B1E700F4A53785BB2002BFBDB79
S11327600C4B9C601A0053785BB2002BFBDB094ACC
S11327705368802149020B401D435560084B98471C
S113278070BD0022D2E70402344380239B021D4320
S1132790D2E7C046000C0040ED210000080C0040C8
S11327A02D22000010B504000B4A53785BB2002BB5
S11327B0FBDB0A4B98470A4B1C70074A53785BB201
S11327C0002BFBDB044A516880235B020B435360FC
S11327D0044B984710BDC046000C0040ED2100009A
S11327E0040C00402D22000070B504001A4A5378EE
S11327F05BB2002BFBDB194B9847194B1C70164A34
S113280053785BB2002BFBDB134E7068C004C00E20
S1132810144B98470500124B1C707668F602F60FAD
S1132820114B1C700C4A53785BB2002BFBDB0A4B38
S11328309C682402240C0D4B9847002E07D1012CD0
S113284007D9210028000A4B9847050001E001340C
S1132850E540280070BDC046000C0040ED2100009A
S1132860040C0040B9220000080C00402D22000096
S11328708931000010B50400064B9847064B1C70C4
S1132880064A53888021C9010B435380044B98475F
S113289010BDC046ED210000020C0040000C0040B9
S11328A02D22000010B504000F4B98470F4B1C70ED
S11328B00F4A53881B05180F53880E490B40538049
S11328C053880D490B40538011008022D2014B885C
S11328D01342FCD106494A880302064802401343C6
S11328E04B80064B984710BDED210000020C0040C0
S11328F0000C0040FFF0FFFFFFBFFFFF2D22000090
S113290010B50C7824020443024B9847A4B2024B3E
S11329105C8010BDA5280000000C004010B5040028
S1132920064B9847064B1C70064B5C882405240F05
S1132930054B98472000054B984710BDED2100003A
S1132940020C0040000C00402D220000E92700008A
S113295030B5D378002B35D11378802B29D01B06C2
S113296080246402234354780225AC4306D194782E
S1132970002C20D18024A402234341605478013CDC
S1132980012C1CD90D042D0CA024E4052C431C435C
S113299084620D0CD02424062C431C438462D47816
S11329A0002C22D15B031CD59378012B1ED04161EE
S11329B017E00023D7E7C024E4022343DDE70D4CEE
S11329C02340DFE741600C04240CA023DB052343F0
S11329D083620C0CD0231B0623438362D378002B21
S11329E003D15378013B012B02D930BD8161F8E753
S11329F08160FAE7FFFFFBFF10B50A00C10900235D
S1132A00002904D14309DB0105498C4663441F2492
S1132A102040012181401800024B984710BDC04658
S1132A2000440041512900007047000010B5054BD7
S1132A309847054B9847054B9847054B9847054BD6
S1132A40984710BD692500005D220000292A000076
S1132A50292A0000292A0000FEE70000F8B52A4AC6
S1132A602A4B9A4211D01A00294B9A420DD2294A74
S1132A7003339B1A9B0801339B00002223482249FD
S1132A808C58845004329A42FAD1234A234B9A42F6
S1132A900AD2D34321495B1803218B4304339B1887
S1132AA0002102C29342FCD11D4AFF211D4B8B43DE
S1132AB09360FD3990235B001B4AD1501B4AD378A5
S1132AC00325AB4302242343D370D3780C27BB43A1
S1132AD008263343D370164B987B30229043202230
S1132AE010439873997BB943314399739A7BAA43F2
S1132AF022439A730F4A536880210B4353600E4B51
S1132B0098470E4B9847FEE7344D00000000002024
S1132B100C000020040000200C0000208C01002088
S1132B2000ED00E000000000007000410050004192
S1132B300048004100400041BD4B000075300000DA
S1132B4070B590B001A900250D7001264E708D70EE
S1132B5011201C4B984702AC6560A5602574657410
S1132B60A674E67425752423E5540C22002108A8D4
S1132B70154B984725702023E654A56180235B02FA
S1132B80E360124BA3621123E362114B2363114BE5
S1132B906363114D220011492800114B98472C689A
S1132BA02000104B98471F23184086400E4B1E6090
S1132BB02A68D369002BFCD12368022213432360C3
S1132BC010B070BD95220000054C000002001000FA
S1132BD0020012000200130080000020000C0042DA
S1132BE0111200005D21000000E100E0F0B591B099
S1132BF0294C1123237000236370A37001A90122BF
S1132C004A708B700A701120244B98472378D90995
S1132C100022002904D15A09D20121498C46624478
S1132C201F263340012529009940916102AC25708B
S1132C3000230393049323746374A574E5742375C8
S1132C402422A354183A002108A8164B9847164B7F
S1132C50A36180235B02E360144BA3621123E3624C
S1132C60134B2363134B6363134F22001349380040
S1132C70134B98473C682000124B98470640B540D8
S1132C80114B1D603A68D369002BFCD123680222E2
S1132C901343236011B0F0BD5401002095220000BD
S1132CA000440041054C0000A08601000200100011
S1132CB0020012000200130018010020000C004260
S1132CC0111200005D21000000E100E030B58BB07E
S1132CD000226B461A7080239B03019300236946EC
S1132CE04A81CA810B744B7405920B764B768B76B2
S1132CF024228B5401328B5401328B5430236A4684
S1132D008B81104B0793104B0893FA239B000B8184
S1132D100E4D0F4928000F4B98472C6820000E4B8E
S1132D2098471F2318401E3B83400C4A13602968B0
S1132D300322CB691A42FCD1236802221343236085
S1132D400BB030BD02000800020009005801002049
S1132D5000080042190900005D21000000E100E0C4
S1132D6030B58FB001AA64230193214B5360002333
S1132D709360137313768021890311610121494201
S1132D809182253153549362083153540131535481
S1132D9001315354D7331386164BD382164BD36168
S1132DA0164B1362164C17492000174B984724689A
S1132DB00722E3691A42FCD12368022213432360E9
S1132DC00F4D2868114B98471F2318401E3B834022
S1132DD00F4A1360E88800231021628B0A4204D151
S1132DE001338342F9D3102363830FB030BDC0464F
S1132DF0480D00001027000002000800020009002E
S1132E00F0000020000800428D0100005D21000058
S1132E1000E100E070B5054C80252D046561FA20C1
S1132E208000034B9847A56170BDC0460044004133
S1132E3055010000F0B585B00D0001280ED0002822
S1132E4006D0022857D00C2249484A4B984703E041
S1132E500C224748474B984705B0F0BD01AB3022E0
S1132E601A8001265E80029100221A725A729A72A6
S1132E70414D2C6807232375237620003F4B984748
S1132E801F231840864061333D4AD65029680322E7
S1132E90CB691A42FCD12368022293432360394B45
S1132EA098473324384E394D01A93000A8470028EB
S1132EB002D0013C002CF7D1FA204000344B984753
S1132EC0314D2C6820002D4B98471F2318401E3B82
S1132ED0834080222A498B502968793ACB691A4267
S1132EE0FCD1832323752376236802229343236032
S1132EF0284B9847B0E7284E346820001F4B98476A
S1132F001F2318401E3B834080221D498B5032688A
S1132F10D369002BFCD18F332375237623680222D7
S1132F20934323601D4B984701221D491D481E4BA6
S1132F30984733241B4E1D4F012229003000B84707
S1132F40002802D0013C002CF6D1164E0022144970
S1132F503000154B9847FA256D0028000C4CA0470B
S1132F603000134B98472800A047124B984773E74B
S1132F70BC000020351E0000580100205D21000027
S1132F8000E100E0612D0000F0000020F5050000E4
S1132F9055010000CD2C000080000020ED2B000026
S1132FA054010020180100204115000035160000CE
S1132FB0C5110000412B000070B586B00C0003ABB6
S1132FC0234A190060CA60C10022059202AB1A703C
S1132FD001281BD0002808D0022829D00C2203A9DC
S1132FE01C481D4B984706B070BD0C2203A9194814
S1132FF0194B98470500210003A8184B984700284F
S1133000F1D1002DEFD1164B9847ECE701236A4626
S1133010138002AD019569461248134B98472A78EC
S113302023789A42DFD10028DDD10D4B9847DAE7A7
S113303002AD0023012229000C480D4EB0472A7826
S113304023789A42CFD10028CDD1054B9847CAE7BF
S1133050884C0000BC000020F11E0000154C00004C
S1133060152E000058010020A90A0000800000204D
S11330702514000070B592B0344B9847344B9847F0
S113308001AB8022D205019200225A60FF211981EE
S113309000219A72DA729620800118620120242499
S11330A018550134185525301A5401301A549A62AF
S11330B005301A5401301A545A611A82DA76197694
S11330C01977597613229A76597780225203DA6057
S11330D0204A1A63204A5A63012252429A63DA63ED
S11330E01E4D1F4C01AA1F492800A0470028F9D1F2
S11330F01A4D2C6820001C4B98471F2318401E3B78
S113310083401A4A13602B68DA69002AFCD12368C9
S1133110023213432360164B9847164B9847AA2252
S113312011AB1A70144C134E144D03E0B04711A99F
S11331300220A847236A1B02F8D411A90220104BCD
S11331409847C8200F4B9847F4E7C0462D2A000043
S1133150150100000300220003002300BC0000202E
S1133160691A0000001C00425D21000000E100E03B
S1133170CD2C0000412B000080440041B92F0000F9
S1133180352E000055010000002243088B4274D301
S113319003098B425FD3030A8B4244D3030B8B4254
S11331A028D3030C8B420DD3FF22090212BA030C5D
S11331B08B4202D31212090265D0030B8B4219D33E
S11331C000E0090AC30B8B4201D3CB03C01A52415E
S11331D0830B8B4201D38B03C01A5241430B8B42A6
S11331E001D34B03C01A5241030B8B4201D30B038F
S11331F0C01A5241C30A8B4201D3CB02C01A5241B6
S1133200830A8B4201D38B02C01A5241430A8B4278
S113321001D34B02C01A5241030A8B4201D30B0261
S1133220C01A5241CDD2C3098B4201D3CB01C01A7B
S1133230524183098B4201D38B01C01A5241430985
S11332408B4201D34B01C01A524103098B4201D373
S11332500B01C01A5241C3088B4201D3CB00C01AE0
S1133260524183088B4201D38B00C01A5241430858
S11332708B4201D34B00C01A5241411A00D201467D
S1133280524110467047FFE701B5002000F006F8F0
S113329002BDC0460029F7D076E770477047C046A4
S11332A0F0B5CE46474615042D0C2E0080B5070414
S11332B0140C3F0C9946030C7E435D436743634300
S11332C07F19340CE4199C46A54203D980235B0280
S11332D09846C4444B46514343433604360C250CAC
S11332E024046544A4195918491920000CBC9046BB
S11332F09946F0BDF8B54546DE4657464E460C03A2
S1133300E0B54E00C90F88460D00610A440F0C4316
S1133310C70019035800DB0F9B464B0A510F0B43A0
S1133320760D400D1900D200D84500D1AEE0351A13
S1133330002D00DCF6E000280FD1134300D1DBE0C0
S11333406B1E002B00D037E1BA1A9742BF41641AB2
S11333507F42E41B0126170024E0C64B9E424DD059
S113336080231B041943382D00DD07E11F2D00DDE8
S113337038E12020431B9A460B005046834099466F
S113338013004846EB401843030050468240501E49
S11333908241E9401A43BA1A611A9742A4411700BC
S11333A064420C1B230262D56402650A002D00D11D
S11333B0DFE0280001F0E4FB0300083B1F2B00DDE5
S11333C0D2E020223C00D21A9D40D4409F402543A5
S11333D09E4200DDC4E09E1B731C1F2B00DDF1E048
S11333E0202238002900D21AD840914097402C005E
S11333F00143781E8741DC4000260F437B0709D038
S11334000F233B40042B05D03B1DBB42BF417F42F1
S1133410E4191F0023022CD5964B01369E4200D19D
S11334209AE04546944BFF081C4060077605640209
S11334300743240B760D00212403230B0C0D8F4A24
S113344024051C431440330523435B00ED075B084C
S11334502B43380019003CBC90469946A246AB4623
S1133460F8BD6446044300D111E2040067467B07BB
S1133470C6D145466007FF080743E4087D4B9E42DA
S113348030D024037605240B760DD4E7331A9A46FC
S1133490002B78DD002831D076488642AED08020DB
S11334A0000401435346382B00DCE9E00A43511E73
S11334B08A410021D219BA42BF4109197C4217003E
S11334C00C192302D3D56B4B01369E4200D13AE14D
S11334D00120694B1C407B0807401F43E00707435A
S11334E064088BE723003B4300D1CBE18022120325
S11334F014432403240B9EE72E007FE708001043A7
S113350000D1B4E0581E002800D0DEE0BA18BA4258
S11335109B4164185B42E418170001262302A6D5D8
S11335200226D5E7002D6ED1701C4005400D012800
S113353000DCF9E0B81A844687428041E51A40422B
S11335402D1A280200D489E0D71BBA4292411C1BD1
S11335505242A51AD84629E74546002400276AE7BF
S1133560454CF61A2C4049E73D0028388540002791
S11335702EE7380001F004FB20301DE70A43511EFA
S11335808A41002107E7002B00D0F3E0701C4305BB
S11335905B0D012B00DCADE0364B984200D1D1E04D
S11335A0BA18BA42BF4164187F42E419E7075208C7
S11335B017436408060021E72E48854200D193E0B2
S11335C01D00D0E629001F3EF140202B00D18DE0E4
S11335D04022D31A9D402F437D1EAF4100240F4348
S11335E0002644E72B000800203BD8400300202D90
S11335F000D17DE04020451BA9400A43511E8A4169
S113360000211A43C7E6002E50D01A4EB04257D0BC
S113361080266B429946360434434B46382B00DDF2
S1133620D6E01F2B00DD35E12026F51A2600AE403A
S1133630B2463E00DE40AC46350056462E43654653
S1133640AF407D1EAF41DC403743D71BBA429241A5
S11336500C1B5242A41A0600D846A3E664466746E9
S11336602C4300D0A2E600250026002706E71E0012
S1133670C4E6C046FF070000FFFF7FFFFFFF0F8087
S11336801F2B63DC2020C31A080098409C46834605
S113369053461000D84003005846184363469A40E6
S11336A0531E9A4153460243D94003E726003E4342
S11336B006D0EB439946002BC7D0944EB042ACD110
S11336C00C0017000600D84698E6904B9A450BD09C
S11336D08246E7E6002800D09EE01800104300D19F
S11336E0E9E01C001700D846884E87E6002572E7FB
S11336F0002182E723003B43002E00D0ABE0002BE7
S113370000D1E7E00B00134300D177E6BA18BA42C0
S1133710BF4164187F42E419230200D4F2E07C4BD9
S113372017001C40060069E620003843002ED1D162
S113373000285BD11C00144300D1A8E01C00170032
S1133740D8465BE606000024002797E650460B00A7
S11337502038C34099465346202B00D195E040239E
S113376050461B1A99400A43511E8A414B46002178
S11337701A439FE6002E30D126003E4367D0DB4338
S11337809A46002B1CD0614EB04260D05346382B71
S113379000DD96E01F2B00DD9FE02026F31A2600B3
S11337A09E409C46B34653463E00DE4033005E4690
S11337B01E4363469F407B1E9F415346DC40374374
S11337C0BF189742924164185242A418060078E642
S11337D027437C1EA741002437E74C4EB04236D025
S11337E080265B4236049A463443CFE718001043E0
S11337F000D103E6B81A84466745AD41E01A6D422C
S1133800401B050200D42CE6D71BBA4292411C1B74
S11338105242A41AD846F1E51800104300D163E7D8
S1133820F808670707438020E4080003044208D02F
S1133830DD08054205D1D208590711430F002C00B9
S1133840D8467B0FE4001C43FF00304ED6E50C0045
S113385017000600D2E5002B38D00B00134300D12B
S113386042E7F808670707438020E408000304429E
S1133870E7D0CB080342E4D1D208490711430F0033
S11338801C00DEE700270024D5E500216BE70025B6
S11338900027F3E54E462500203EF5404B462E001A
S11338A0202B2DD04025ED1AAC4027437C1EA74188
S11338B000243743C9E6802400252403134E00273F
S11338C0DCE527437C1EA741002479E70C001700A0
S11338D00E4E93E50C00170090E556462300203E5B
S11338E0F34099465346202B0ED0402356469B1B4B
S11338F09C4027437C1EA7414B4600241F435FE79F
S11339000024D2E71700B2E50024F2E7FF07000025
S1133910FFFF7FFFF0B557464546DE464E46E0B50D
S11339204C000E0387B0834692461D008046360B3A
S1133930640DCF0F002C4FD06F4B9C4235D08023A9
S1133940420F1B04F600134333439946C3009846C1
S11339506A4B00269C460023644403932B031B0BF1
S11339609B466B00ED0F50465B0D01955ED0624A9D
S1133970934253D05A46D1008022400F120402438E
S11339800A4393465246D1005C4A9446002263445B
S11339903800684084460290E41A16430F2E00D97A
S11339A0B4E0574BB6009B599F46030033439946F6
S11339B06CD100239846023308260393CEE7CB4606
S11339C04146039A0197022A65D1019B4A4C9C46C1
S11339D00023002298466BE00300334399464ED0FF
S11339E0002E00D1BCE1300001F0CAF803000B3B0B
S11339F01C2B00DDACE11D22D31A5A460100DA402B
S1133A0008398E401300334399465B468B409846F1
S1133A1000233C4C0026241A03939FE751465A4640
S1133A20114329D1002293460232B1E7594601439A
S1133A301ED05B46002B00D19EE1584601F0A0F851
S1133A4003000B3B1C2B00DD8FE102005946083AB2
S1133A5091408B461D21CB1A5146D9400B00594643
S1133A600B4351469B469140264B00221B1A8FE77D
S1133A70002301229B468BE75146032288E700235B
S1133A809846013304260024039367E70323B146D1
S1133A9003930C2662E7032A00D15CE2019B012A0E
S1133AA000D0E4E113409C46002300240022984601
S1133AB000211203130B0A0D12051A432305124C9D
S1133AC040462240134362465B00D2075B0813431F
S1133AD0190007B03CBC90469946A246AB46F0BDDF
S1133AE0002380229C4612039846034CE0E70023FF
S1133AF0014C00229846DBE7FF07000001FCFFFFB2
S1133B00944C00000DFCFFFFFFFF0F80D94500D946
S1133B1039E100D134E1002346464D469A46013C42
S1133B205B460A0E1B021A430B02170C0393130481
S1133B301B0C3900280090460193FFF725FB020077
S1133B40019B83465A43280039009146FFF7A2FBA4
S1133B50350C09040D43A9450DD95B464544013B89
S1133B60A84500D93AE1A94500D837E102235B42D0
S1133B709C464544E3444B46EB1A39001800049331
S1133B80FFF702FB019B0500434339000498994663
S1133B90FFF780FB330409041B0C0B43994509D937
S1133BA043446A1E984500D91AE1994500D817E1A3
S1133BB0023D43444A469B1A5A4612042A43039937
S1133BC09346100C0A0C914609045A46090C4E46B9
S1133BD00D001204120C4543059151437243704386
S1133BE052190E0CB218954203D980256D02AC46C9
S1133BF06044150C09041204090C28185218834255
S1133C0000D2CEE000D1C8E01D1A53469E1AB24538
S1133C1092415242AB1A9A46984500D117E13900B5
S1133C201800FFF7B1FA019B0500434339005046E1
S1133C300493FFF72FFB04980B04310C19438842BB
S1133C4009D941446B1E884500D907E1884200D850
S1133C5004E1023D4144049BCB1A1800390004934B
S1133C60FFF792FA019B824643433900049801937B
S1133C70FFF710FB01980B043104090C1943884227
S1133C800DD953464144013B884500D9E8E08842B8
S1133C9000D8E5E002235B429C464144E244019B98
S1133CA02D04CE1A51462943059D4F462A000B0484
S1133CB0080C1B0C5A4345437B4378435B19170C90
S1133CC0FB189D4203D980256D02AC4660441D0C4F
S1133CD012041B04120C28189B18864200D293E08D
S1133CE000D18EE001231943A04BE318002B00DC24
S1133CF099E04A0700D09EE05A46D20106D55A46BA
S1133D009B4B1A4080239346DB00E318994A934265
S1133D1068DD0123029A984C1A4000239446984681
S1133D200022C5E680224B46120313420AD05B46AA
S1133D30134206D11A431203120BAC4688468E4C2A
S1133D40B6E64B461A431203120BBC468A4CAFE646
S1133D5003005A46283B9A4000239146984657E66A
S1133D60584600F00DFF203040E603005246283B41
S1133D709A400021934677E600F002FF20305FE688
S1133D80884500D2C7E64B46DE075D0843465B081C
S1133D901E434346DB079A46C2E60025924500D3FC
S1133DA033E7039E5946B446E244B245AD416D4201
S1133DB04544EB180139984507D2984200D97FE071
S1133DC000D1BCE01D1A8B461FE79845FAD1039D2C
S1133DD05545F2D943468B461D1A16E79B46CAE65B
S1133DE01500E7E65A46C90852070A435B059046A0
S1133DF05C0D5A460123029952021940120B8C465B
S1133E0056E6002B00D16FE746444A1EB04529D937
S1133E101100864200D065E7039A934200D061E71F
S1133E2062E7012149420120C21A382A21DD029B9E
S1133E3003409C4638E60F220A40042A00D15BE77F
S1133E400A00111D914292415242934454E7474B58
S1133E50E318002BE5DD01225242F2E71D00FAE6E9
S1133E609A461CE7B04239D86ED011003AE7029363
S1133E703AE71F2A3CDC20239B1A0C005846994041
S1133E8098404B1E99415B46D440D340204308439D
S1133E901A00430709D00F230340042B05D0010067
S1133EA0081D88429B415B42D21813023AD5012374
S1133EB0029A01241A400023944698460022F7E50A
S1133EC0022149428C46039DE344AC46E244AA45A0
S1133ED0AD416D424544ED182D1A96E68A1E0399AC
S1133EE04D008D42894149424144761803958FE73C
S1133EF01F204042C31A5846D8400300202A28D025
S1133F0040205D46821A954029434A1E9141194337
S1133F10072300220B4009D00F2300220B40080086
S1133F20042BBDD1010053075202120BC9081943D7
S1133F30012388460299002419408C46B8E552456D
S1133F40BED88B46002560E6039D9D42C6D3110072
S1133F5062E70025D8E780225B4612031A43019BDF
S1133F601203120B9C468846034CA1E5FF03000094
S1133F70FFFFFFFEFE070000FF070000F0B55746F5
S1133F804546DE464E46E0B50C0398464E00230BEC
S1133F9087B0070092469B46760DCD0F002E6BD05E
S1133FA06D4B9E4235D080245B46420F2404DB00D7
S1133FB014431C43C3009946684BA3469C46002304
S1133FC000276644029343461C035A00DB0F504605
S1133FD0240B520D984600D176E05F4B9A426DD087
S1133FE08023410F1B040B435C49E4008C461C43B3
S1133FF0C300002062444146B6186940721C019116
S1134000944607430F2F00D9B0E0554ABF00D25958
S113401097465B460343994600D087E000239B46BE
S1134020023308270293CEE742460192022867D062
S1134030032800D10EE2012800D062E1002300240D
S11340400022994601990140CDB2002112030B0DC3
S1134050120B1B051343434A240513401C436400FD
S1134060ED0764082C434846210007B03CBC904649
S11340709946A246AB46F0BD034399464FD05B46F2
S1134080002B00D189E1584600F07AFD03000B3B78
S11340901C2B00DD7AE11D22D31A3A0001005C4694
S11340A0DA4008398C4013008F4023439B46B946BD
S11340B000232D4E0027361A029384E753462343E8
S11340C02AD10024022096E75346234320D0002C13
S11340D000D157E1200000F053FD03000B3B1C2BE3
S11340E000DD49E11D21CB1A51460200D940534657
S11340F0083A944093400C431B4A121A00207AE772
S11341000125019B144C1D400023002299469CE785
S11341100024002201206EE7534603206BE70023AE
S11341209B4601330427002602934CE70323814670
S11341300C27029347E780220023002512039946A7
S1134140054C82E75C464B4602986FE75C464B465B
S1134150019502986AE7C046FF07000001FCFFFFD3
S1134160D44C0000FFFF0F800DFCFFFF4A46494678
S1134170170C1A0C1B041B0C08041900000C4143F7
S11341801500884619007D43794303958946290023
S1134190150045434D44029545462D0CAA46029D03
S11341A05544A94506D98A46802149028946CA440C
S11341B051460391290C0491414609042D04090C2C
S11341C088462900250C24044144240C059121002F
S11341D041438846210079438A4668434146504416
S11341E08146080C48446F43824503D98021490223
S11341F089464F44010C894639004944029141469D
S11342000F0404993F0C88460004C01980444146B9
S1134210049159460F0C0904090C884659438A46EF
S113422039005143894641464A435146090C8B465D
S11342307B43D2185A44934203D980235B029B46A2
S1134240D94451460904090C8A46414661437C43DA
S1134250130C12044B445244A1468A463C00414686
S11342606C434D4351464D440F0C7D19A94503D968
S11342708021490288464444049F0399B846414436
S11342808B468345804141428846514608042F04A9
S1134290000C3F18584602991018894690429241E2
S11342A04F44BA46524299469346C244D144CB4401
S11342B08F42BF41C245894199459B4193459241F3
S11342C07F4249422D0C52420F435B4213437F19F4
S11342D0FF185B463C19DB0D059A64021C4343023C
S11342E013435D1EAB415A46C00D034352021343B0
S11342F0E20156D501205A0803401343E207134351
S113430064085A48604400284DDD5A0709D00F223A
S11343101A40042A05D01A1D9A429B415B42E418B4
S11343201300E20104D58020514AC00014406044C7
S1134330504A904200DDE3E60125DB0862071A4398
S11343406402019B9146220B4405640D1D407CE6EA
S1134350802259461203114208D0144206D1224346
S11343601203120B45469946434C6EE65B461A43CC
S11343701203120B404C68E603005446283B9C4051
S11343800023B9E600F0FCFB2030A6E60300283B3E
S11343909F400023BB4699468AE600F0F1FB20309B
S11343A074E6B446ADE701252A1A382A06DD019BD6
S11343B000241D4000230022994646E61F2A21DCE2
S11343C020252000AD1A1E00AB40A840D6405D1E3B
S11343D0AB4130431843D440430709D00F23034073
S11343E0042B05D00300181D98429B415B42E4183E
S11343F0230221D50125019B01241D400023002215
S1134400994622E61F2521006D42281AC140080062
S1134410202A1DD05F35AA1A944023435C1EA34171
S1134420072503431D400022002D09D00F2200243C
S11344301A401800042AD6D1030065076402220B2F
S1134440DB082B4301259946019B00241D40FCE514
S11344500024E2E78022012512032243019912037A
S1134460120B0D409946044CEFE5C046FF030000D3
S1134470FFFFFFFEFE070000FF070000F0B5464601
S1134480D6464F460C03C0B5CD0F4E00610A440F0B
S11344900C43C1005800400D84468A460F0019039E
S11344A0500F490A0143C648760DA846DB0FD200D7
S11344B0844500D1D8E001204340AB4200D1A6E0BE
S11344C06046351A002D00DC05E1002810D10B00F0
S11344D0134300D1D7E06B1E002B00D04BE15346B1
S11344E09F1ABA458041641A4042241A01261EE0EC
S11344F0B34B9E4248D080231B041943382D00DD62
S113450019E11F2D00DD4CE120230F005B1B10007F
S11345109A409F40E840531E9A41E940074317439D
S11345205346DF1B611ABA45A44164420C1B2302A3
S113453000D4C5E06402650A002D00D1F6E028002D
S113454000F01EFB0300083B1F2B00DDE9E02022E6
S11345503C00D21A9D40D4409F4025439E4200DD3A
S1134560DBE09E1B731C1F2B00DD0AE120223800B8
S1134570D21A290097402C009140D8407A1E9741C6
S1134580DC40002601430F437B0709D00F233B4047
S1134590042B05D03B1DBB42BF417F42E4191F00E1
S11345A0230225D5864B01369E4200D1AFE0854BD0
S11345B001251C4043466207FF0864027605174341
S11345C0240B760D1D4000212403230B0C0D7E4A81
S11345D024051C431440330523435B00ED075B08AB
S11345E02B43380019001CBC90469946A246F0BDE6
S11345F0012543466207FF081743E4081D40704B3A
S11346009E4236D024037605240B760DDBE7634601
S1134610F31A002B00DC94E06046002835D068488B
S11346208642B1D080273F043943382B00DCFDE0BB
S11346300A43170000217A1E974157445745804189
S1134640091944420C1923023AD55D4B01369E42A6
S113465000D14BE101225B4B1C407B0817401F43F8
S1134660E207174364088FE70800104300D024E7EB
S113467021E723003B4300D1B9E180221203144314
S11346802403240B9FE72E007EE70800104300D18B
S1134690CAE0581E8446002800D0E7E05244524540
S11346A0804164184042241817000126230207D5CC
S11346B00226CFE764462C4300D1B3E12C006746C1
S11346C07B0700D062E76307FF081F4301254346C9
S11346D0E4081D4093E7002D78D1751C6D056D0D20
S11346E0012D00DCF2E05046801A8245BF41651A74
S11346F07F42ED1B8446280200D48CE05046171AF2
S1134700BA4292410C1B5542651B984614E7012599
S1134710434600241D40002755E72A4CF61A2C4036
S113472032E73D0028388540002717E7380000F0BD
S113473027FA203006E70A43170000217A1E974122
S1134740EEE6002B00D0E5E0731C9C465B055B0D98
S1134750012B00DC9FE01A4B9C4500D1C5E052447C
S113476052458041641840422418E7075208174311
S11347706408664608E71248854200D185E01D00BA
S1134780BCE629001F3EF140202B00D17FE04022EF
S1134790D31A9D402F437D1EAF4100240F430026B2
S11347A08EE72B000F00203BDF40202D71D04023EB
S11347B05D1BA9400A43511E8A4100211743AFE6FD
S11347C0FF070000FFFF7FFFFFFF0F80002E3ED09A
S11347D0B34EB44545D0802636046D423443382D5B
S11347E000DDA8E01F2D00DD1FE120262700504634
S11347F0761BB740E84007435046B040461EB041E0
S1134800EC403843171ABA4292410C1B5242A41A84
S1134810664698468BE6644667462C4300D08BE692
S1134820002500260027EAE61E00ADE61F2B60DC0B
S11348302027F81A0F00844687401000D840074309
S113484060468240501E8241D9401743F5E6260057
S11348505046064305D0ED43002DD3D0904EB445C9
S1134860BDD10C001700664698468DE68C488342FD
S11348700BD06346D9E6002D00D096E00800104323
S113488000D1E2E00C0017009846854E7CE6002536
S113489080E700218EE7230050460343002E00D01A
S11348A0A8E0002B00D1DEE00B00134300D16BE63F
S11348B05244524580416418404224181700230290
S11348C000D4FDE6774B66461C405DE62500504665
S11348D00543002ECFD1002D4FD10C00144300D13D
S11348E0A0E00C00170098464EE666460024002718
S11348F085E61F000800203FF8400700202B00D168
S11349008EE04020C31A99400A43511E8A41002177
S1134910174392E6002E14D126005046064362D077
S1134920DB43002B5CD187189742924164185242B2
S1134930A418664687E650462043441EA04100243E
S113494060E7574EB4454ED0802636045B4234436C
S1134950382B00DD7FE01F2B00DD8BE020262700B5
S11349605046F61AB740D84007435046B040461E5A
S1134970B0410743DC40BF18D6E70D00154300D112
S113498002E65046801A8245BF41651A7F42ED1BFC
S11349908446280200D48DE65046171ABA42924142
S11349A00C1B5242A41A9846EEE50D00154300D1A3
S11349B06BE750466707C00807438020E4080003FC
S11349C0044207D0CD08054204D12C009846D708EC
S11349D049070F437B0FE4001C43FF00304ED3E52F
S11349E02F4EB445B4D10C0017006646CCE5002721
S11349F00024E8E5002B39D00B00134300D144E731
S1134A00C008670707438020E40800030442E1D09C
S1134A10CB080342DED1D70849070F431C00D9E76E
S1134A20002171E700250027E9E52E002700203E3C
S1134A30F740202D2FD04026751BAC405046204314
S1134A40441EA04100243843DCE6802400252403CE
S1134A50134E0027D3E5504620430700781E8741B4
S1134A600024BF1860E70C0017008DE50C00170048
S1134A700B4E89E51E002700203EF740202B0CD06A
S1134A804026F31A9C4050462043441EA04107434D
S1134A900024BF1848E70024D0E70024F3E7C04609
S1134AA0FF070000FFFF7FFF30B5134D0A034B00E3
S1134AB0120B5B0DC90F0024AB4210DD0F4CA34257
S1134AC00FDC80240E4D64032243ED1A1F2D0BDDF1
S1134AD00C48C31ADA405442002900D114002000C3
S1134AE030BD094BCC18FAE7084CE840A4466344AF
S1134AF09A400243EFE7C046FE0300001D04000095
S1134B003304000013040000FFFFFF7FEDFBFFFFF1
S1134B1010B5041E28D000F033F8154B154A1B1AA3
S1134B20D21A1F2A15DD144AD21A944000222403F3
S1134B305B05240B5B0D0021100024030A0D240BDC
S1134B40120522430D4C1B05224013435B005908F8
S1134B5010BD210091400A000B21081AC4405B05D6
S1134B602403240B5B0DE6E7002300240022E2E784
S1134B701E0400003304000013040000FFFF0F8034
S1134B801C2101231B04984201D3000C10391B0A79
S1134B90984201D3000A08391B09984201D300093D
S1134BA0043902A2105C40187047C0460403020294
S1134BB001010101000000000000000070B50026A2
S1134BC00C4D0D4C641BA410A64209D1002600F024
S1134BD0A1F80A4D0A4C641BA410A64205D170BD6D
S1134BE0B300EB5898470136EEE7B300EB5898470B
S1134BF00136F2E7204D0000204D0000204D00005A
S1134C00244D000003008218934200D170471970AC
S1134C100133F9E702780B78002A03D0013001311F
S1134C209A42F7D0D01A704700080042000C0042A4
S1134C30001000420014004200180042001C004210
S1134C40CA220000C6220000C62200002C23000055
S1134C502C230000DE220000D0220000E422000009
S1134C601A230000EC240000CC240000CC24000013
S1134C7058250000DE240000FA240000D02400009F
S1134C8008250000482500004E6F7468696E6700AF
S1134C90000000000C3B0000EE3A0000A83A0000BF
S1134CA0C6390000A83A0000E03A0000A83A000023
S1134CB0C6390000EE3A0000EE3A0000E03A000087
S1134CC0C6390000BE390000BE390000BE390000FC
S1134CD0243D00006C4100002C4000002C400000EA
S1134CE028400000444100004441000036410000D7
S1134CF028400000444100003641000044410000C7
S1134D00284000004C4100004C4100004C41000090
S1134D1050430000F8B5C046F8BC08BC9E46704736
S1134D20DD000000F8B5C046F8BC08BC9E467047DC
S1074D30B5000000C6
S10F4D34401F0000080000000100000007
S9032A5D75
