S01300004170706C69636174696F6E2E737265639D
S21400000078760020FD7D0100F57E0100F57E01007A
S21400001000000000000000000000000000000000DB
S214000020000000000000000000000000916F0000CB
S2140000300000000000000000B1700000F970000031
S214000040F57E0100F57E0100F57E01004D3F0100C2
S21400005079340100F57E010061040000F57E0100A0
S214000060A5050000F14501000946010021460100F2
S214000070394601005146010069460100457D0100F0
S214000080597D01006D7D01007D4C0000914C000003
S214000090A54C00000000000000000000E90200007F
S2140000A0F57E010025040000F57E0100F57E0100C6
S2140000B00000000010B5064C2378002B07D1054B36
S2140000C0002B02D0044800E000BF0123237010BDBF
S2140000D0F002002000000000706D0200084B10B512
S2140000E0002B03D00749084800E000BF0748036814
S2140000F0002B00D110BD064B002BFBD09847F9E72C
S21400010000000000F4020020706D0200706D020016
S2140001100000000080B584B000AF78607B681B6884
S214000120FB60FB685B7EDBB25BB2002B01DA01236F
S21400013000E000231800BD4604B080BD80B584B042
S21400014000AF78607B681B68FB60C0467B68180061
S2140001500B4B9847031EF9D1FB681B7BDBB20222D0
S2140001601343DAB2FB681A73C0467B681800044B68
S2140001709847031EF9D1C046BD4604B080BDC046B0
S2140001801501000080B584B000AF78600A00FB1C43
S2140001901A707B681B68FB60FB68FA1C12789A75FD
S2140001A0C046BD4604B080BD80B584B000AF020036
S2140001B0FB1D1A70FB1D1A78474B9200D358FB6044
S2140001C0FB681B681B7EDAB2FB681B68DB7DDBB254
S2140001D01340DBB2BB60BB680122134045D0FB680E
S2140001E01B6801221A76C046FB6818003B4B9847EE
S2140001F0031EF9D1FB685B69991CFA685161FA68BD
S2140002001268528B92B21A80FB681B8B9BB2013B22
S2140002109BB2FA68191C1183002B08D0FB685B7F21
S214000220002B22D0FB6818002D4B98471DE0FB687A
S214000230012118002B4B9847FB681B7FDBB2052B70
S21400024013D1FB6800221A77FB68DB7E1A000123B5
S21400025013400AD0FB689B7E1A000123134004D08B
S214000260FB689B68FA6810009847BB680422134036
S21400027014D0FB681B6804221A76FB68DB7E1A0023
S214000280022313400AD0FB689B7E1A000223134009
S21400029004D0FB68DB68FA6810009847BB68022247
S2140002A0134014D0FB681B6802221A76FB68DB7EBC
S2140002B01A00042313400AD0FB689B7E1A0004230E
S2140002C0134004D0FB681B69FA6810009847C046C4
S2140002D0BD4604B080BDC046A44100201501000004
S2140002E03D0100008501000080B500AF0020024BF4
S2140002F09847C046BD4680BDA901000080B582B0C3
S21400030000AF0200FB1D1A70074AFB1D1B78190080
S2140003101F230B40012199400B0019008023D15068
S214000320C046BD4602B080BD00E100E080B584B0A6
S21400033000AF0200FB1D1A70FB1D1A78374B9200A7
S214000340D358FB60FB681B68BB60BB689B79DBB25D
S2140003501A00012313400ED0BB6801229A71FB6875
S2140003601433002B07D0FB685B7C002B03D0FB68A4
S2140003709B6900209847BB689B79DBB21A00022372
S214000380134047D0BB6802229A71FB689B899BB2D8
S214000390002B33D0FB689A68FB68DB899BB2591C3C
S2140003A088B2F968C8815B00D3181B889AB2BB680C
S2140003B09A81FB689B899BB2013B9AB2FB689A8143
S2140003C0FB689B899BB2002B18D1FB68202200217A
S2140003D09954BB6802221A71BB6802229A711920CE
S2140003E00F4B9847FB681433002B07D0FB689B7CA9
S2140003F0002B03D0FB68DB6900209847FB681433AA
S214000400002B07D0FB681B7C002B03D0FB685B69C6
S21400041000209847C046BD4604B080BDA8410020D5
S214000420FD02000080B500AF0020024B9847C04692
S214000430BD4680BD2D03000080B500AF024B984737
S214000440C046BD4680BDC046D930010080B500AF6D
S214000450024B9847C046BD4680BDC0462D310100C0
S21400046080B586B000AF494B9847494B1B8C9BB272
S214000470DAB21723FB180F210A401A701723FB184D
S2140004801A78444B9200D3583B61414A3B691B782B
S2140004900F210B40D9B23F23D1543D490F23FB18FF
S2140004A04E228A5C1A703B691B783B4A1B01D318A4
S2140004B002331B889BB2BB603B691B78374A1B0123
S2140004C0D31802331B889BB27B60BA687B68D21A4B
S2140004D03B695A610F23FB181B780122134016D084
S2140004E02B4A4E230121D1543B6910225A743B6992
S2140004F01B7C1A000123134042D03B695B68002B2B
S2140005003ED03B695B683A691000984738E00F2395
S214000510FB181B780222134016D01D4A4E230221D8
S214000520D1543B6900225A743B691B7C1A00022393
S214000530134025D03B699B68002B21D03B699B6804
S2140005403A69100098471BE00F23FB181B7804221B
S214000550134015D00E4A4E230421D1543B6906227F
S2140005605A743B691B7C1A000423134008D03B696D
S214000570DB68002B04D03B69DB683A6910009847BB
S214000580074B9847C046BD4606B080BD39040000FC
S2140005900048004160030020B04100201003002006
S2140005A04D04000080B582B000AF154B1B697B6020
S2140005B0144B9B693B60124B9A683B681A43104B7E
S2140005C09A60104B104A9A6108E07B685A687B680C
S2140005D01B68180090477B689B687B607B68002BD5
S2140005E0F3D1074BDB683B60054B9B683A68D24308
S2140005F01A40034B9A60C046BD4602B080BDC04656
S2140006000000002000040042FFFF0F0F80B582B0FC
S21400061000AF02003960FB1D1A70FB1D1B78012B12
S2140006200AD0022B0FD0002B14D10E4B0D4A916925
S2140006303A680A439A610FE00A4B0A4AD1693A6857
S2140006400A43DA6108E0074B064A116A3A680A4329
S2140006501A6201E0172300E000231800BD4602B02E
S21400066080BDC0460004004080B500AF02210220D5
S214000670074B9847074B01221A70C046054B1B785C
S214000680DBB21A0001231340F8D1C046BD4680BD38
S2140006900D0600000004004280B584B000AF78600C
S2140006A07B681B68FB60FB68DB69072213405A1EE9
S2140006B09341DBB21800BD4604B080BD80B582B061
S2140006C000AF7860C0467B681800044B9847031E4E
S2140006D0F9D1C046BD4602B080BDC04699060000AE
S2140006E080B584B000AF78607B681B68FB60FB68F1
S2140006F01B681B01DB0FDBB21A000B23FB18511E15
S2140007008A411A700823FB187A68528B1A807B6815
S2140007109B8B9AB20823FB180821791809888A1A35
S2140007201A807B689B8B9BB2013B9AB27B689A834C
S2140007300B23FB181B78002B10D07B68DB7A002B72
S2140007401CD07B689B8B9BB2012B17D1FB685B6828
S2140007508022D2021A43FB685A600FE07B68DB7A7D
S214000760002B0BD07B689B8B9BB2002B06D1FB68C3
S2140007705B688022D2021A43FB685A607B689B8BB8
S2140007809BB2002B0ED17B689B7A002B0AD07B682D
S21400079018000E4B9847FB685B68C02292021A430B
S2140007A0FB685A607B681800084B98477B681A6A93
S2140007B00823FB181B88D318FA682821525CD2B28B
S2140007C01A70C046BD4604B080BDC046BD060000D7
S2140007D080B584B000AF78607B681B68FB60FB6800
S2140007E05B8B9BB21A000423134004D07B6825223F
S2140007F01E21995424E00A23FB187A68528B1A802B
S2140008007B689B8B9AB20A23FB180A217918098801
S2140008108A1A1A807B689B8B9BB2013B9AB27B68D4
S2140008209A837B681800084B98477B681A6A0A23E5
S214000830FB181B88D3181B78D9B2FB68282299545A
S214000840BD4604B080BDC046BD06000080B584B07D
S21400085000AF78607B681B68FB60FB681B7EDBB2C2
S2140008601A00012313402BD0FB6801221A76FB687E
S2140008705B8B9BB21A000223134004D07B682522B0
S214000880412199541CE0FB685B8B9BB21A00042341
S214000890134015D07B682522182199547B680022C6
S2140008A09A837B689B7A002B0AD07B681800134BD0
S2140008B09847FB685B68C02292021A43FB685A603E
S2140008C07B689B8B9AB27B685A837B6825229B5CED
S2140008D0DBB2052B0ED17B6824229B5CDBB2002B9F
S2140008E004D17B681800064B984703E07B68180025
S2140008F0044B9847C046BD4604B080BDBD06000008
S214000900D1070000E106000080B584B000AFF860B3
S214000910B960FB1D1A70FB1D1B78FA6802339B003A
S214000920D3180433BA681A60FB681B7EDBB25AB26F
S214000930FB1D1B78012199400B005BB213435BB291
S214000940DAB2FB681A76C046BD4604B080BD000029
S21400095090B587B000AF786039607B681B683B61F4
S2140009603B685A687B681A623B685A887B689A8339
S2140009707B682422012199547B68252205219954FD
S2140009803B691B681B01DB0FDBB21A000F23FB1849
S214000990511E8A411A703B685B7A002B06D03B6872
S2140009A09A7A7B68110018003B4B98470F23FB1878
S2140009B01B78002B0BD03B685B88012B07D13B696B
S2140009C05B688022D2021A433B695A6005E03B69A5
S2140009D05B68324A1A403B695A603B681B7A002BB8
S2140009E045D03B681B885A003B685B7A9B031343E1
S2140009F01A0080231B021A433B695A621723FC180D
S214000A007B681800264B9847030023703B695B6899
S214000A10224A1A403B695A601723FB181B78002BA2
S214000A2007D11723FC187B6818001E4B9847030055
S214000A3023701723FB181B78002B14D13B69032265
S214000A409A753B681B881B0A9BB2782213439BB29D
S214000A505A003B685B7A9B031343012213431A0038
S214000A603B695A6212E01723FB181B780FE03B69BC
S214000A7003229A753B681B885B0001221A433B6879
S214000A805B7A9B0313431A003B695A6200231800E3
S214000A90BD4607B090BDC046294C0000FFFFFBFFD7
S214000AA0CB4B00006D4B000080B582B000AF786085
S214000AB039607B689B8B9BB2002B01D005230CE032
S214000AC07B6801229A727B680122DA723A687B6838
S214000AD011001800034B984703001800BD4602B0EB
S214000AE080BDC0465109000080B584B000AF786074
S214000AF039607B681B68FB603B685B7A002B06D01E
S214000B003B689A7A7B68110018001E4B9847FB6872
S214000B105B681D4A1A40FB685A603B685A687B68E7
S214000B201A623B685A887B689A837B682422002175
S214000B3099547B68252205219954FB6803229A75EF
S214000B403B681B7A002B0DD03B681B885A003B681D
S214000B505B7A9B0313431A0080231B021A43FB682D
S214000B605A6209E03B681B885A003B685B7A9B0325
S214000B7013431A00FB685A6200231800BD4604B0EF
S214000B8080BDC046294C0000FFFFFBFF80B582B049
S214000B9000AF786039607B689B8B9BB2002B01D0DE
S214000BA005230CE07B6801229A727B680122DA72C8
S214000BB03A687B6811001800034B9847030018003A
S214000BC0BD4602B080BDC046E90A000080B586B0CA
S214000BD000AF0200FB1D1A70FB1D1A78934B9200A3
S214000BE0D3587B617B691B683B613B691B681B01B3
S214000BF0DB0FDBB21A000F23FB18511E8A411A7056
S214000C000E23FB187A69527E1A707B691B7EDAB255
S214000C100E23FB180E21791809780A401A707B6992
S214000C205B8B9BB2002B09D17B699B8B9BB2002B05
S214000C3004D07B6918007E4B984770E07B695B8B1D
S214000C409BB2002B39D07B699B8B9BB2002B34D197
S214000C507B6925229B5CDBB2052B2ED17B69242287
S214000C609B5CDBB2002B28D13B6903221A757B699B
S214000C7000225A837B692522002199547B699B7A3E
S214000C80002B0BD07B6918006A4B98473B695B6862
S214000C90C02292021A433B695A6002E03B69012275
S214000CA01A760E23FB181B780122134037D07B6977
S214000CB0DB687A691000984731E07B695B8B9BB2F2
S214000CC0002B2CD07B699B8B9BB2002B27D03B69DB
S214000CD05B8B9BB21A002023134011D10F23FB1805
S214000CE01B7801225340DBB2002B04D17B699B8B1F
S214000CF09BB2012B04D07B692522412199540EE03A
S214000D007B6924229B5CDBB2002B04D17B69180034
S214000D10494B984703E07B691800484B98477B6926
S214000D205B8B9BB2002B47D07B699B8B9BB2002BC7
S214000D3042D17B6925229B5CDBB2052B3CD17B69CB
S214000D4024229B5CDBB2012B36D13B691B7EDBB2D7
S214000D501A000223134002D03B6902221A763B692E
S214000D6003221A757B6900225A837B69252200219B
S214000D7099540E23FB181B78022213400BD07B6974
S214000D8024229B5CDBB2012B05D17B691B697A6947
S214000D901000984710E00E23FB181B780122134022
S214000DA00AD07B6924229B5CDBB2002B04D17B69D2
S214000DB0DB687A69100098477B6925229B5CDBB26A
S214000DC0052B2ED07B6925229B5CDBB2002B28D01E
S214000DD03B6903221A757B6900225A837B690022CD
S214000DE09A837B6925229B5CDBB2412B0ED07B6904
S214000DF09B7A002B0AD07B6918000E4B98473B69FC
S214000E005B68E022D2021A433B695A600E23FB1845
S214000E101B780422134004D07B695B697A69100052
S214000E209847C046BD4606B080BDC046E85500207F
S214000E304D080000BD060000D1070000E1060000D6
S214000E4080B500AFBFF34F8F024B034ADA60BFF3A3
S214000E504F8FFEE700ED00E00400FA0580B500AF16
S214000E60024B9847C046BD4680BDC046410E0000B6
S214000E7080B586B000AF78609A4B18009A4B9847BA
S214000E809A4B1800984B9847994B1800964B9847E2
S214000E90984B1800944B9847974B1800924B9847DE
S214000EA0964B1800904B9847954B18008E4B9847DA
S214000EB01723FB1800221A70924B1800924B984783
S214000EC0032200210120914B98470200904B1A60A4
S214000ED08F4B1B68002B07D18E4B190003208E4BBF
S214000EE0984700208D4B98470C23FB1818008C4B16
S214000EF098470C23FB181B780A2B04D00C23FB18EE
S214000F001B780D2B37D1874B18007F4B9847864BA5
S214000F1000221A70854B00221A708549854B3122B3
S214000F201800854B9847834B3122002199548349FA
S214000F307F4B64221800824B984703003B617F4B2F
S214000F406322002199547D4B18006F4B98473B69EC
S214000F50002BECD11723FB1800221A70744B322298
S214000F6000211800774B9847744B64220021180024
S214000F70744B9847B5E06C4B1B78002B59D06B4BE5
S214000F801B78032B0CD8694B1B785A1CD1B2674AC6
S214000F9011701A000C23FB1819786B4B995405E056
S214000FA0614B00221A70614B00221A705F4B1B784F
S214000FB0012B99D9654A644B11001800644B984779
S214000FC0031E2FD063495A4B1B221800624B9847CA
S214000FD0574B18004C4B98471723FB1800221A70E3
S214000FE0534B322200211800564B98475149504B1C
S214000FF031221800504B98474D4B1800574B9847D6
S2140010000300302B06D84B4B1800544B9847030070
S214001010DAB200E031221723FB181A70444B18008E
S214001020394B9847404B00221A70404B00221A70EA
S2140010305AE70C23FB181B780D2B00D154E70C2322
S214001040FB181B78082B04D00C23FB181B787F2B6F
S2140010501CD10823FB18424A12681A600823FB18A2
S2140010601800294B98471723FB181B78002B37D0FE
S2140010701723FB181A781723FB18013A1A70172340
S214001080FB181B782A4A0021D15429E00C23FB18B0
S2140010901B781B2B06D1244B01221A70234B0022EF
S2140010A01A7021E71723FB181B78312B0ED817234D
S2140010B0FB181B780C22BA1811781D4AD154172336
S2140010C0FB181A781723FB1801321A700C23FB182A
S2140010D000225A700C23FB1818000B4B984703E7A6
S2140010E0C04601E75C2E0200714D0000BC2E0200D7
S2140010F06C2E02007C2E02008C2E02009C2E02001B
S214001100AC2E0200F82B020099AC000039730000E8
S21400111000420020882D020085AD000025910000C9
S21400112065110000A82D020084030020850300201E
S214001130BC03002088030020031C0200F0030020EC
S214001140E14D00001B18020054040020AC2D0200E4
S2140011501D1B0200B02D0200D91A0200D31B02008C
S214001160B82D020080B584B000AF78607B681800A8
S2140011700D4B98470300FB600FE00C4B1A680123E9
S2140011805B42190010000A4B9847031E05D07B6887
S2140011901800054B98470300FB60FB680133ECD052
S2140011A0C046BD4604B080BD35AD000000420020FC
S2140011B0F182000080B500AF0A4B00221A600A4B8D
S2140011C01B68084A11001800084B9847054B1B6817
S2140011D0002B03D0064B802252051A60C046BD463F
S2140011E080BDC0465804002000420020697C0000F4
S2140011F004ED00E090B587B000AFF860B9607A60A3
S2140012001723FB181B221A701723FB181B78084A93
S21400121008480F21084CA047064AB968FB68180022
S214001220054B984700231800BD4607B090BDC04642
S214001230BC2D020074030020751A020080B584B02D
S21400124000AFF860B9607A600220034B984700232D
S2140012501800BD4604B080BDD943000080B584B0F8
S21400126000AFF860B9607A60034B98470023180017
S214001270BD4604B080BDC0465D0E000090B585B08A
S21400128000AFF860B9607A60054B064AB968F8683E
S214001290054CA04700231800BD4605B090BDC046CB
S2140012A0C42D0200CC2D0200751A020090B587B03E
S2140012B000AFF860B9607A60074B984703007B611F
S2140012C07B69064AB968F868054CA04700231800F1
S2140012D0BD4607B090BDC0468D940000E42D0200C8
S2140012E0751A020090B58FB000AFF860B9607A60EA
S2140012F01823FB1800221A701823FB1800225A70B5
S2140013001823FB1800221A701823FB1800225A70A4
S2140013101C23FB1800221A701C23FB181422BA1870
S2140013209A601C23FB180122DA811C23FB18182262
S214001330BA185A601C23FB1801229A812C4B1800FD
S2140013402C4B984700237B6346E07B6B2A4A2B484E
S2140013500F212B4CA047294B1800264B98470023FB
S2140013603B632FE07B6BDAB23B6BDBB2D318DBB2AE
S214001370DB18DAB21C23FB181A701C23FB18642136
S2140013801800204B98470300FB62FB6A002B0CD129
S2140013901C23FB181B78184A18480F21184CA04726
S2140013A0164B1800134B984709E0144B164A118841
S2140013B0198092789A70114B18000E4B98473B6B29
S2140013C001333B633B6B0F2BCCDD104B1800094BF6
S2140013D098477B6B10337B637B6B7F2BB5DD0B4BAA
S2140013E01800044B984700231800BD460FB090BD68
S2140013F0002E020099AC0000342E02007403002078
S214001400751A0200ED1A00003C2E0200A82D0200FC
S214001410B0B588B002AFF860B9607A602C4B9847D8
S21400142003007B611323FB1800221A701323FA189B
S2140014307B6911001800274B98471323FB181B786D
S214001440002B40D0244B062200211800234B98473F
S214001450214A7B6911001800214B98471E4B002239
S2140014609B5E18001F4B9847021C1F4B1A601A4BB6
S21400147002229B5E18001B4B9847021C1A4B5A60B0
S214001480154B04229B5E1800164B9847021C164B01
S2140014909A60154B1A68154B101C98470500124B9E
S2140014A05A68124B101C984704000F4B9A680F4B53
S2140014B0101C984703000E4AB968F8680193009418
S2140014C02B000C4CA04700231800BD4606B0B0BD4C
S2140014D0FD2A0000D92400005C0400201B1802002E
S2140014E015250000691D000064040020C1FD0100F0
S2140014F0402E0200751A020080B582B000AF0200CE
S214001500FB1D1A70064BFA1D127811001F220A40A6
S214001510012191400A001A60C046BD4602B080BD57
S21400152000E100E080B584B000AF78607B681B689F
S214001530FB60FB68DB69072213405A1E9341DBB24F
S2140015401800BD4604B080BD80B582B000AF78609C
S214001550C0467B681800044B9847031EF9D1C04666
S214001560BD4602B080BDC0462515000080B582B0DD
S21400157000AF78607B6864221A607B681B4A5A60FA
S2140015807B6800229A607B6800221A737B680022C0
S2140015901A767B68802292031A617B680122524287
S2140015A0DA827B68012252429A827B680022DA61E4
S2140015B07B6800221A627B682422002199547B688B
S2140015C000229A627B682C22002199547B682D2287
S2140015D0002199547B682E22002199547B68D722DB
S2140015E01A86C046BD4602B080BDC046480D000003
S2140015F080B584B000AF78607B681B68BB60002352
S214001600FB607B681800144B9847BB681B68022277
S2140016101A43BB681A607B681B6818000F4B984714
S214001620030018000E4B98470CE0FB680133FB6084
S2140016307B68DB881A00FB689A4203D8BB681022D6
S2140016405A8306E0BB685B8B9BB21A0010231340DC
S214001650EBD0BD4604B080BD49150000AD45010085
S214001660F914000080B582B000AF78600A00FB1C59
S2140016701A707B685B7EDBB25AB2FB1C1B780121BA
S21400168099400B005BB213435BB2DAB27B685A76C2
S214001690C046BD4602B080BD90B591B000AF0023F5
S2140016A0FB633A23FB1800221A703B1D1800214BDF
S2140016B098473B1D204ADA613B1D204A1A623B1DB3
S2140016C0FA229200DA823B23FB1803221A701EE0ED
S2140016D03A23FC183A1D1A491A4B18001A4B984719
S2140016E0030023703A23FB181B78002B04D13A23FF
S2140016F0FB181B78FB630FE0124B1800134B984740
S2140017003B23FB181A783B23FB18013A1A703B233D
S214001710FB181B78002BDBD1FB6B002B04D1094B8D
S21400172018000B4B984700E0C046FB6B1800BD4600
S21400173011B090BD6D1500000200080002000900FF
S2140017400008004208420020D1490000054B000076
S214001750F115000080B584B000AF78600E4B002213
S2140017601A700D4B01229A600023FB600B4B1B681E
S2140017700C22BA1811001800094B9847094B002292
S2140017801A70FB68002B03D0074B802252051A60A4
S214001790C046BD4604B080BD740400203042002020
S2140017A0697C00007004002004ED00E080B584B081
S2140017B000AF78600E4B00221A700D4B01229A6023
S2140017C00023FB600B4B1B680C22BA181100180094
S2140017D0094B9847094B00221A70FB68002B03D070
S2140017E0074B802252051A60C046BD4604B080BD35
S2140017F07404002030420020697C00007004002041
S21400180004ED00E080B584B000AF78600E4B002297
S2140018101A700D4B01225A600023FB600B4B1B68AD
S2140018200C22BA1811001800094B9847094B0122E0
S2140018301A70FB68002B03D0074B802252051A60F3
S214001840C046BD4604B080BD74040020304200206F
S214001850697C00007004002004ED00E080B500AF55
S2140018601149124B00221800114B98470F4B0021CC
S2140018701800104B984710490C4B012218000C4BCF
S21400188098470A4B012118000A4B98470B49074B0B
S21400189002221800064B9847044B02211800054BFD
S2140018A09847C046BD4680BD551700000842002038
S2140018B00909000065160000AD17000005180000B5
S2140018C080B582B000AF00237B60144B98470300BE
S2140018D07B607B68002B1AD1114B98470120114B77
S2140018E098470200104B1A600322002101200F4B7C
S2140018F0984702000E4B1A600B4B1B68002B03D058
S2140019000B4B1B68002B03D106237B6000E0C04610
S2140019107B681800BD4602B080BDC0469916000020
S2140019205D180000A1750000044200203973000015
S2140019303042002090B585B000AF78600023FB6091
S2140019407B68002B03D07B685B68002B03D10823E1
S2140019505B42FB601FE07B681B789AB2104B1A80D4
S2140019607B685A680E4B5A607B68DA890C4B5A8043
S2140019700B23FC180A4A0B4B110018000A4B984719
S214001980030023700B23FB181B78002B03D00623C1
S2140019905B42FB60C046FB681800BD4605B090BDC4
S2140019A034420020084200208D0B000090B585B020
S2140019B000AF78600023FB607B68002B03D07B6859
S2140019C05B68002B03D108235B42FB601FE07B684B
S2140019D01B789AB2104B1A807B689A680E4B5A6036
S2140019E07B689A890C4B5A800B23FC180A4A0B4BCF
S2140019F0110018000A4B9847030023700B23FB18AE
S214001A001B78002B03D006235B42FB60C046FB68B6
S214001A101800BD4605B090BD3442002008420020A4
S214001A20A90A000090B583B000AF00237B60094B85
S214001A301868002300220021074CA0470300012B52
S214001A4002D014235B427B607B681800BD4603B05F
S214001A5090BDC04604420020E175000080B584B009
S214001A6000AF78600023FB60084B1B687A681100A3
S214001A701800074B98470300012B02D01D235B423A
S214001A80FB60FB681800BD4604B080BD0442002021
S214001A90F182000080B584B000AF78600023FB6060
S214001AA0044B1A687B681A60FB681800BD4604B0D1
S214001AB080BDC0463042002080B500AF024B1B7888
S214001AC01800BD4680BDC0467004002080B582B0B8
S214001AD000AF0200FB1D1A70034BFA1D12781A7035
S214001AE0C046BD4602B080BD7004002080B584B0FC
S214001AF000AF786039600023FB600023BB6096234C
S214001B005B001800284B98470300FB60FB68002B1F
S214001B1038D10823FB181800244B98470300FB60B5
S214001B20FB68002B30D17B681800214B98470300D8
S214001B30FB60FB68002B2AD1BB683A6811001800CE
S214001B401C4B98470300012B11D11B4B9847031ED3
S214001B5011D00020194B9847FB68002B03D0212397
S214001B605B42FB6014E003235B42FB6010E0032350
S214001B705B42FB600CE0124B98470200FB68134385
S214001B80FB6002E0C04600E0C046FB6807E0C046D7
S214001B900B4B98470200FB681343FB60FB6818007A
S214001BA0BD4604B080BDC0465D1A0000951A000010
S214001BB035190000F1820000B91A0000CD1A0000A5
S214001BC0251A000080B586B000AFF860B9607A606C
S214001BD000237B6100233B6196235B001800364B95
S214001BE0984703007B617B69002B55D11023FB18B7
S214001BF01800324B984703007B617B69002B4DD160
S214001C00FB6818002E4B984703007B617B69002B0E
S214001C1047D13B697A68110018002A4B98470300A1
S214001C20012B18D1284B9847031E06D00020274BBF
S214001C30984703235B427B6134E0BB681800244B63
S214001C409847FB681800234B984703007B617B6925
S214001C50002B04D026E003235B427B6122E03B6935
S214001C607A6811001800174B98470300012B0AD119
S214001C70154B9847031E0AD00020144B98470323A1
S214001C805B427B610EE003235B427B610AE0124B02
S214001C90984703007B6102E0C04600E0C0467B69CF
S214001CA005E0C0460C4B984703007B617B69180033
S214001CB0BD4606B080BDC0465D1A0000951A0000FD
S214001CC035190000F1820000B91A0000CD1A000094
S214001CD045900000AD190000251A0000B0B586B08A
S214001CE000AFF86008007A6019000B23FB18021C8E
S214001CF01A700823FB180A1C1A80FB685C68FB68CD
S214001D0098680823FB181D887A680B23FB18197837
S214001D102B00A04703007B617B691800BD4606B018
S214001D20B0BDB0B586B000AFF86008007A601900A4
S214001D300B23FB18021C1A700823FB180A1C1A80B7
S214001D40FB681C68FB6898680823FB181D887A687F
S214001D500B23FB1819782B00A04703007B617B69D7
S214001D601800BD4606B0B0BD80B582B000AF020018
S214001D70BB1D1A80BB1D00229A5E064B10009847BA
S214001D80021C054B0549101C9847031C181CBD4631
S214001D9002B080BD01FE010081FB010023DB793D1E
S214001DA090B585B000AF78600A00FB1C1A70082357
S214001DB0FA18786801231021124CA0470300FB6034
S214001DC0FB68002B19D1FB1C1B7803221340DAB2E8
S214001DD00823FB1803210A4090001A780C218A4336
S214001DE0111C021C0A431A700823FA18786801238B
S214001DF01021054CA0470300FB60FB681800BD4699
S214001E0005B090BDDD1C0000231D000090B587B016
S214001E1000AF78600A00FB1C1A701723FB18FA1C28
S214001E2012781A700C23FA187B6811001800A44B5D
S214001E30984703003B613B69002B00D013E10C235D
S214001E40FB181B78DB07DB0FDAB20C23FB181B78BA
S214001E509B07DB0FDBB21343DAB20C23FB181B78AD
S214001E605B07DB0FDBB21343DAB20C23FB181B78DD
S214001E701B07DB0FDBB21343DAB20C23FB181B780D
S214001E80DB06DB0FDBB21343DAB20C23FB181B783E
S214001E909B06DB0FDBB21343DAB20C23FB181B786E
S214001EA05B06DB0FDBB21343DAB20C23FB181B789E
S214001EB01B06DB0FDBB21343DAB20C23FB185B788E
S214001EC0DB07DB0FDBB21343DAB20C23FB185B78BD
S214001ED09B07DB0FDBB21343DAB20C23FB185B78ED
S214001EE05B07DB0FDBB21343DAB20C23FB185B781D
S214001EF01B07DB0FDBB21343DAB20C23FB185B784D
S214001F00DB06DB0FDBB21343DAB20C23FB185B787D
S214001F109B06DB0FDBB21343DAB20C23FB185B78AD
S214001F205B06DB0FDBB21343DAB20C23FB185B78DD
S214001F301B06DB0FDBB21343DBB2012B00D092E0B3
S214001F400B23FA187B68110018005E4B98470300B5
S214001F503B613B69002B00D085E00B23FB181B7808
S214001F60012B17D002DC002B05D076E0022B29D0FF
S214001F70032B48D071E0FB1C1B78002B04D11723E1
S214001F80FB1801221A706EE01723FB18FA1C127851
S214001F901A7068E0FB1C1B78002B04D11723FB1873
S214001FA002221A705FE0FB1C1B78012B04D117235A
S214001FB0FB1802221A7056E01723FB18FA1C127838
S214001FC01A7050E0FB1C1B78002B04D11723FB185B
S214001FD003221A7047E0FB1C1B78012B04D1172341
S214001FE0FB1803221A703EE0FB1C1B78022B04D160
S214001FF01723FB1803221A7035E01723FB18FA1C68
S21400200012781A702FE0FB1C1B78002B04D11723C4
S214002010FB1804221A7026E0FB1C1B78012B04D147
S2140020201723FB1804221A701DE0FB1C1B78022BDA
S21400203004D11723FB1804221A7014E0FB1C1B782B
S214002040032B04D11723FB1804221A700BE0172366
S214002050FB18FA1C12781A7005E01723FB18FA1CF6
S21400206012781A70C0463B69002B08D10823FA186C
S214002070786801231021144CA04703003B613B699C
S214002080002B18D11723FB181B780F221340DAB247
S2140020900823FB1810011A780F210A40111C021C95
S2140020A00A431A700823FA18786801231021074C8F
S2140020B0A04703003B613B691800BD4607B090BDD2
S2140020C0E92800003D290000DD1C0000231D00005B
S2140020D090B585B000AF78600A00FB1C1A70082324
S2140020E0FA18786801231121124CA0470300FB6000
S2140020F0FB68002B19D1FB1C1B7807221340DAB2B1
S2140021000823FB1807210A4090181A780E218A43E4
S214002110111C021C0A431A700823FA187868012357
S2140021201121054CA0470300FB60FB681800BD4664
S21400213005B090BDDD1C0000231D000090B587B0E3
S21400214000AF78600A00FB1C1A701723FB18FA1CF5
S21400215012781A700C23FA187B6811001800A44B2A
S214002160984703003B613B69002B00D013E10C232A
S214002170FB181B78DB07DB0FDAB20C23FB181B7887
S2140021809B07DB0FDBB21343DAB20C23FB181B787A
S2140021905B07DB0FDBB21343DAB20C23FB181B78AA
S2140021A01B07DB0FDBB21343DAB20C23FB181B78DA
S2140021B0DB06DB0FDBB21343DAB20C23FB181B780B
S2140021C09B06DB0FDBB21343DAB20C23FB181B783B
S2140021D05B06DB0FDBB21343DAB20C23FB181B786B
S2140021E01B06DB0FDBB21343DAB20C23FB185B785B
S2140021F0DB07DB0FDBB21343DAB20C23FB185B788A
S2140022009B07DB0FDBB21343DAB20C23FB185B78B9
S2140022105B07DB0FDBB21343DAB20C23FB185B78E9
S2140022201B07DB0FDBB21343DAB20C23FB185B7819
S214002230DB06DB0FDBB21343DAB20C23FB185B784A
S2140022409B06DB0FDBB21343DAB20C23FB185B787A
S2140022505B06DB0FDBB21343DAB20C23FB185B78AA
S2140022601B06DB0FDBB21343DBB2012B00D092E080
S2140022700B23FA187B68110018005E4B9847030082
S2140022803B613B69002B00D085E00B23FB181B78D5
S214002290012B17D002DC002B05D076E0022B29D0CC
S2140022A0032B48D071E0FB1C1B78002B04D11723AE
S2140022B0FB1801221A706EE01723FB18FA1C12781E
S2140022C01A7068E0FB1C1B78002B04D11723FB1840
S2140022D002221A705FE0FB1C1B78012B04D1172327
S2140022E0FB1802221A7056E01723FB18FA1C127805
S2140022F01A7050E0FB1C1B78002B04D11723FB1828
S21400230003221A7047E0FB1C1B78012B04D117230D
S214002310FB1803221A703EE0FB1C1B78022B04D12C
S2140023201723FB1803221A7035E01723FB18FA1C34
S21400233012781A702FE0FB1C1B78002B04D1172391
S214002340FB1804221A7026E0FB1C1B78012B04D114
S2140023501723FB1804221A701DE0FB1C1B78022BA7
S21400236004D11723FB1804221A7014E0FB1C1B78F8
S214002370032B04D11723FB1804221A700BE0172333
S214002380FB18FA1C12781A7005E01723FB18FA1CC3
S21400239012781A70C0463B69002B08D10823FA1839
S2140023A0786801231121144CA04703003B613B6968
S2140023B0002B18D11723FB181B780F221340DAB214
S2140023C00823FB1810011A780F210A40111C021C62
S2140023D00A431A700823FA18786801231121074C5B
S2140023E0A04703003B613B691800BD4607B090BD9F
S2140023F0E92800003D290000DD1C0000231D000028
S21400240090B585B000AF78600A00FB1C1A700823F0
S214002410FA18786801231221124CA0470300FB60CB
S214002420FB68002B19D1FB1C1B7801221340DAB283
S2140024300823FB1801210A4090011A7840218A439C
S214002440111C021C0A431A700823FA187868012324
S2140024501221054CA0470300FB60FB681800BD4630
S21400246005B090BDDD1C0000231D000090B585B0B2
S21400247000AF78600A00FB1C1A700823FA18786808
S21400248001231521124CA0470300FB60FB68002BBC
S21400249019D1FB1C1B7801221340DAB20823FB1863
S2140024A001210A40D0001A7808218A43111C021C18
S2140024B00A431A700823FA18786801231521054C78
S2140024C0A0470300FB60FB681800BD4605B090BD42
S2140024D0DD1C0000231D000090B585B000AF7860BD
S2140024E039600823FA18786801231E21084CA04793
S2140024F00300FB600823FB181B78DB07DB0FDBB24F
S2140025001A003B681A70FB681800BD4605B090BDFF
S214002510DD1C000090B587B000AF786039600C23F2
S214002520FA18786806232821264CA04703007B610A
S2140025300C23FB185B781AB23B681A803B680022B3
S2140025409B5E9BB21B029AB20C23FB181B789BB2B5
S214002550D3189BB21AB23B681A803B6802330C222F
S214002560BA18D27812B21A803B6802333A6802323E
S2140025700021525E92B2120291B20C22BA189278E0
S21400258092B28A1892B212B21A803B6804330C22B6
S214002590BA18527912B21A803B6804333A68043289
S2140025A00021525E92B2120291B20C22BA1812792F
S2140025B092B28A1892B212B21A807B691800BD468F
S2140025C007B090BDDD1C000090B585B000AF786008
S2140025D00A00FB1C1A700823FA18786801230121E8
S2140025E0114CA0470300FB60FB68002B17D1FB1CB7
S2140025F01B7803221340DAB20823FB1890011A78DE
S2140026003F210A40111C021C0A431A700823FA18BC
S214002610786801230121054CA0470300FB60FB6896
S2140026201800BD4605B090BDDD1C0000231D00004F
S21400263090B585B000AF786039603A687868012355
S2140026400F21044CA0470300FB60FB681800BD4642
S21400265005B090BDDD1C000090B585B000AF786079
S2140026600A00FB1C1A700823FA1878680123122146
S214002670124CA0470300FB60FB68002B19D1FB1C23
S2140026801B7801221340DAB20823FB1801210A4006
S21400269010001A7801218A43111C021C0A431A7082
S2140026A00823FA18786801231221054CA047030076
S2140026B0FB60FB681800BD4605B090BDDD1C000041
S2140026C0231D000090B585B000AF78603960082300
S2140026D0FA18786801231221084CA0470300FB6013
S2140026E00823FB181B78DB07DB0FDBB21A003B68FE
S2140026F01A70FB681800BD4605B090BDDD1C0000D2
S21400270090B585B000AF78600A00FB1C1A700823ED
S214002710FA18786801231021124CA0470300FB60CA
S214002720FB68002B19D1FB1C1B7801221340DAB280
S2140027300823FB1801210A4090181A7802218A43C0
S214002740111C021C0A431A700823FA187868012321
S2140027501021054CA0470300FB60FB681800BD462F
S21400276005B090BDDD1C0000231D000090B585B0AF
S21400277000AF78600A00FB1C1A700823FA18786805
S21400278001231721254CA0470300FB60FB68002BA4
S2140027903FD1FB1C1B781B09DBB21A1C012313401C
S2140027A0DAB20823FB1801210A4090001A780421A7
S2140027B08A43111C021C0A431A70FB1C1B785B0917
S2140027C0DBB21A1C01231340DAB20823FB180121DE
S2140027D00A4010011A7810218A43111C021C0A4371
S2140027E01A70FB1C1B7807221340DAB20823FB186A
S2140027F050011A781F210A40111C021C0A431A7045
S2140028000823FA18786801231721054CA04703000F
S214002810FB60FB681800BD4605B090BDDD1C0000DF
S214002820231D000090B587B000AF78600A00FB1C3F
S2140028301A700C23FA18786801231821284CA04730
S21400284003007B617B69002B1CD1FB1C1B78DB091A
S214002850DBB21A1C01231340DAB20C23FB18012149
S2140028600A4090181A7802218A43111C021C0A4357
S2140028701A700C23FA18786801231821194CA047FF
S21400288003007B617B69002B08D11023FA18786857
S21400289001236221124CA04703007B617B69002B59
S2140028A019D1FB1C1B7803221340DAB21023FB1845
S2140028B003210A40D0001A7818218A43111C021CF2
S2140028C00A431A701023FA18786801236221054C0F
S2140028D0A04703007B617B691800BD4607B090BD2A
S2140028E0DD1C0000231D000090B585B000AF7860A9
S2140028F039607B68022118000E4B98470300FB6086
S214002900FB68002B07D13A687868022346210A4CF8
S214002910A0470300FB60FB68002B06D17B68002104
S2140029201800044B98470300FB60FB681800BD4680
S21400293005B090BDC9250000DD1C000090B585B02F
S21400294000AF786039607B6802211800214B9847F9
S2140029500300FB60FB68002B08D10823FA18786890
S21400296001235F211C4CA0470300FB60FB68002B83
S2140029702BD10823FB181B78DB069B0FDBB2012B41
S2140029800CD002DC002B05D014E0022B0AD0032B5F
S2140029900CD00FE03B6800221A700FE03B68012263
S2140029A01A700BE03B6802221A7007E03B680322AD
S2140029B01A7003E03B6800221A70C0467B6800214C
S2140029C01800044B98470300FB60FB681800BD46E0
S2140029D005B090BDC9250000DD1C000080B586B09E
S2140029E000AFF86008007A6019000B23FB18021C81
S2140029F01A700823FB180A1C1A80224B0B22BA18DE
S214002A0012781A701623FB1800221A8012E016237A
S214002A10FB181B8801331622BA18128879688A18A0
S214002A201178184AD1541623FB181A881623FB1857
S214002A3001321A801623FA180823FB1812881B88FE
S214002A409A42E4D3104B6B221A700F4B0D4A5A6011
S214002A500823FB181B8801339AB20B4BDA810A4B0A
S214002A600822BA1812889A81074B7A689A60064B31
S214002A7064211800054B984703001800BD4606B0B1
S214002A8080BDC0464042002080420020ED1A000073
S214002A9080B584B000AFF86008007A6019000B2398
S214002AA0FB18021C1A700823FB180A1C1A80104B0D
S214002AB00B22BA1812781A700E4B6B221A700D4B36
S214002AC07A689A600B4B0822BA1812889A81094BCA
S214002AD00122DA81074B064A5A60064B64226421BB
S214002AE01800054B984703001800BD4604B080BD8B
S214002AF04042002080420020C51B000080B500AF89
S214002B00014B1800BD4680BD1400002080B582B081
S214002B1000AF00237B60234B01211800224B98470F
S214002B2003007B60FA1C1F4B110018001F4B9847D0
S214002B3002007B6813437B60FB1C1B78002BF1D1E3
S214002B40184B802118001A4B9847164B0121180085
S214002B50184B9847134B00211800174B9847114BFA
S214002B6001211800154B98470E4B01211800144BF5
S214002B7098470C4B00211800124B9847094B06212A
S214002B801800114B9847074B042118000F4B984725
S214002B90044B012118000E4B98477B681800BD4671
S214002BA002B080BD1400002059260000C526000093
S214002BB025280000012400006D2400000D1E0000E2
S214002BC03D210000A11D0000D12000006D2700005F
S214002BD00127000080B584B000AF0200FB1D1A700C
S214002BE00F23FB18FA1D1278D2091A700E23FB1851
S214002BF0FA1D127852091A700D4BBB600F23FB1892
S214002C001B78002B0FD10F23FB181B789B0010227C
S214002C109446BC446344083B1A680E23FB181B7892
S214002C20DB01D31800E000231800BD4604B080BDC9
S214002C300044004180B582B000AF0200FB1D1A7050
S214002C40FB1D1B781800034B984703001800BD4671
S214002C5002B080BDD52B000080B584B000AF020066
S214002C60FB1D1A70BB1D0A1C1A70FB1D1B78180072
S214002C700D4B98470300FB60FB1D1B781F2213407B
S214002C8001229A401300BB60BB1D1B78002B03D0AB
S214002C90FB68BA689A6102E0FB68BA685A61C04687
S214002CA0BD4604B080BDC046352C000080B500AFE0
S214002CB0024B00221A70C046BD4680BD9D0400200F
S214002CC080B582B000AF0200FB1D1A70FB1D1B789A
S214002CD05BB2DB435BB2064A127852B213405BB279
S214002CE0DAB2034B1A70C046BD4602B080BDC0467D
S214002CF09D04002080B582B000AF0200FB1D1A7054
S214002D00054B1A78FB1D1B781343DAB2024B1A7078
S214002D10C046BD4602B080BD9D04002080B582B08E
S214002D2000AF0200FB1D1A70064B1B78FA1D1278C6
S214002D301340DBB25A1E9341DBB21800BD4602B008
S214002D4080BDC0469D04002090B585B000AF786079
S214002D5039607B68002B02D03B68002B01D1002332
S214002D6013E00F23FC1839680A4B002218000A4BA0
S214002D70984703002370074B1800084B98470F230B
S214002D80FB181B785A425341DBB21800BD4605B00B
S214002D9090BDC046D006002031A8010031B2010027
S214002DA080B59EB000AFF860B960FB1D1A70762340
S214002DB0FB1801221A807423FB1800221A806E2347
S214002DC0FB1800221A807223FB1800221A80242384
S214002DD0FB18180041231A000021924B984718232D
S214002DE0FB18180009231A0000218E4B984714235D
S214002DF0FB1800221A600023BB667123FB18002212
S214002E001A70BB68002B01D1002306E1BA68FB6884
S214002E1011001800844B984703001A000123534002
S214002E20DBB2002B01D00123F7E0BB6818007F4B14
S214002E3098470300402B01D90023EEE0BB682E2103
S214002E4018007B4B98470300BB66BB6E002B52D026
S214002E50BB6E1800754B984702006E23FB181A804D
S214002E606E23FB181B88072B37D87123FB1801220B
S214002E701A70BA6E1823FB18110018006D4B98478D
S214002E80BB681800694B984702006E23FB181B8826
S214002E90D31A3C2B11D97423FB186E22BA18128849
S214002EA03C218A1A1A807423FB181A88B9682423CE
S214002EB0FB181800604B98472AE0BA6EBB68D21A17
S214002EC07423FB181A807423FB181A88B968242305
S214002ED0FB181800584B98471AE07423FB183C223E
S214002EE01A807423FB181A88B9682423FB18180064
S214002EF0514B98470CE07423FB183C221A8074232D
S214002F00FB181A88B9682423FB1818004A4B984700
S214002F107423FB181B887422BA18591C11801A00D7
S214002F202423FB182D2199547623FB1800221A809F
S214002F307223FB1801221A8010E07223FA187223FB
S214002F40FB181B88191C8900CB18DB181380762306
S214002F50FB181A887623FB1801321A807623FB1892
S214002F601B88022BE9D97623FB1801221A804BE036
S214002F707623FB181A8831491423FB181800304BA7
S214002F8098477423FB181B882422BA18D3181422D7
S214002F90B91803221800284B98477123FB181B7892
S214002FA0002B0CD07423FB181B8803332422BA187A
S214002FB0D3181822BA18110018001E4B984724235D
S214002FC0FA18FB6811001800174B984703001A0000
S214002FD001235340DBB2002B0FD0FB1D1A78BB68D1
S214002FE0002118000F4B98472423FA18BB681100DD
S214002FF01800104B984701230FE07623FB181A8819
S2140030007623FB1801321A807623FA187223FB18EF
S21400301012881B889A42ABD300231800BD461EB008
S21400302080BDC0461B180200492D0000D31B0200BD
S2140030302D1C0200871B0200031C0200E02E02006B
S214003040D91A020090B585B002AF0120234B9847ED
S21400305003001A0001235340DBB2002B05D0204B9F
S214003060190001201F4B984734E002201B4B98475D
S21400307003001A0001235340DBB2002B05D01A4B85
S21400308019000120174B984724E00420134B98475B
S214003090031E05D0154B19000120124B984719E066
S2140030A008200E4B9847031E05D0114B190001202F
S2140030B00C4B98470EE00F4B19000120094B984720
S2140030C00D490E4800230093002301220C4CA04714
S2140030D003007B60BD4603B090BDC0461D2D0000BA
S2140030E0E82E020085AD0000142F0200402F0200DB
S2140030F06C2F0200982F0200C42F0200E842002026
S21400310085DE0100B0B586B000AF786039607B68B8
S214003110002B02D03B68002B05D1584B190001202C
S214003120574B9847A6E00820564B984703001A00CE
S21400313001235340DBB2002B55D000237B61524B5A
S21400314030221A70504B3A225A70504B7B6102E084
S2140031507B69013B7B617B691B782F2BF8D17B69F0
S21400316018004B4B98470300012B24D97B69013389
S2140031707B617A69474B11001800474B98474249D4
S214003180464B40221800464B98473F4A454B19008D
S21400319001203B4B98471323FC183B493F4B0A2220
S2140031A01800414B9847030023701323FB181B7825
S2140031B0002B12D008E03D4B19000120304B9847F9
S2140031C020203B4B984755E01323FB181A78394BC1
S2140031D0190001202A4B98474CE0374B00221A6012
S2140031E00820334B98477B68002B43D00023FB60B6
S2140031F01323FC180C23FB183A68796827482F4DD0
S214003200A847030023701323FB181B78002B0CD051
S214003210224B18002A4B98472020254B9847294BCD
S21400322019000120164B984724E0234B1A68FB68C8
S214003230D218214B1A60204B1A68234B1B6823496F
S21400324001200F4CA0471C4B1A681F4B1B689A4264
S21400325010D3124B18001A4B98471D4B190001202B
S214003260074B9847002117201A4B98471020104B01
S2140032709847C046BD4606B0B0BDC046E42F020023
S21400328085AD00001D2D0000A4000020E12F0200E7
S214003290D31B0200A6000020871B0200D0060020D9
S2140032A0A12D00004830020031A8010008300200BD
S2140032B0F52C000070300200F806002061AD010019
S2140032C031B20100A4300200F4060020E030020013
S2140032D014310200592C000090B585B000AFF8609C
S2140032E0B9607A60BB68042B00D977E0BB689A00A7
S2140032F03C4BD3181B689F463B4B190001203B4BA9
S21400330098476BE03A4B19000120384B9847042049
S214003310384B984762E07B681B881A007B685B68BE
S21400332035490120314CA0477B681B88C82B0DD13E
S2140033307B685A68314B1A60314B00221A607B68F2
S2140033405A6880239B009A4243D803E02020294BEA
S214003350984743E07B689A687B685B6819001000B2
S214003360284B98471020234B984732E07B685A68D2
S2140033707B681B6819001000224B98477B681B7AF5
S214003380002B28D010201B4B984724E07B681A6837
S2140033901D4B19000120154B98477B681B680B33A3
S2140033A01BD10820194B9847031E06D0184B18004F
S2140033B0184B98470820184B98470420134B9847FB
S2140033C0031E02D00420144B9847144B9847C0465F
S2140033D003E0C04602E0C04600E0C046BD4605B079
S2140033E090BDC046543802004831020085AD00004A
S2140033F080310200F52C0000AC310200F4060020FB
S214003400F806002005310000E83102001D2D0000FE
S214003410D006002031B20100C12C0000453000006B
S21400342080B582B000AF3A60FB1D021C1A70BB1D4F
S2140034300A1C1A703A68BB1D1978FB1D1B785BB214
S2140034401800034B9847C046BD4602B080BDC04634
S21400345095DB0100B0B586B004AF786039603B6894
S214003460FF2213401C003B681B0A1A00FF23134070
S2140034703A68120C1100FF220A403968090E0D0046
S2140034807868094902950192009323000200012002
S214003490064CA0473A687B6811001800044B984712
S2140034A0C046BD4602B0B0BD1832020085AD000071
S2140034B0F9DC010090B587B002AF02003960FB1D51
S2140034C01A70FB1D1B782C2B02D0322B3DD06FE0E0
S2140034D03B68FB60FB681B78012B07D1364B190055
S2140034E00120364B9847364B98475EE0FB681B78C2
S2140034F0002B5AD1334B19000120304B984702203D
S214003500314B98470820314B9847031E06D0304B66
S2140035101800304B984708202B4B984704202B4B1D
S2140035209847031E02D00420274B98472A4B0121B8
S21400353018002A4B98472A4A2A48FF23009313006C
S21400354002221121284CA0472FE03B68BB60BB68D5
S2140035501B781800BB6801331B781C00BB6802335D
S2140035601B781A00BB6803331B782049019300922E
S214003570230002000120114CA04702201C4B984754
S2140035801C4B1B78012B02D11B4B98470FE01B4AA4
S214003590114B110018001A4B9847031E07D0194B01
S2140035A019000120054B984701E0C04600E0C046E0
S2140035B0C046BD4605B090BD4832020085AD00004D
S2140035C065F3000068320200C12C00001D2D0000CB
S2140035D0D006002031B20100FC06002041C80100E0
S2140035E08C3202009C32020091EE0000B0320200E3
S2140035F0F52C00009C04002045300000CC2E020074
S2140036000DC70100D832020090B583B000AF294B39
S2140036109847294B19000120284B9847FC1D00208D
S214003620274B984703002370FB1D1B78012B10D1F6
S214003630244B19000120214B9847234B19000120E9
S2140036401E4B9847C0460020204B98470300022B8D
S214003650F9D1FB1D1B78002BE0D11D4B1900012072
S214003660164B98478C239A001A4B002118001A4BC9
S2140036709847BC1D174B19000020184B98470300AD
S2140036802370BB1D1B780B2B07D1BB1D1A78144B60
S21400369019000120094B984708E0124B1900012039
S2140036A0064B98470120104B9847C046BD4603B0CE
S2140036B090BDC0469DBB0000FC32020085AD0000F8
S2140036C079C00000343302005C330200EDBB00001A
S2140036D090330200A00400201B180200D9A70100A6
S2140036E0B4330200E4330200F52C000080B582B04B
S2140036F000AF3B1D1800084B98473A1D074B1100BA
S2140037001800074B9847054B1800064B9847C046CD
S214003710BD4602B080BDC04629F30100904200209D
S2140037204DF3010039F4010080B588B000AF3B00CE
S2140037301800164B98473B00802292001A613B0007
S214003740134A5A603B00BC22FF321A803B0001221B
S2140037509A703A000F4B110018000F4B9847030061
S214003760FB61FB69002B06DAFA690C4B1900012095
S2140037700B4B9847FEE70B4A064B110018000A4B06
S2140037809847C046BD4608B080BDC046BDD90100BA
S21400379090420020E842002009DA010008340200C6
S2140037A085AD0000D9320000F5DA010080B582B0A0
S2140037B000AF3A60FB1D021C1A70BB1D0A1C1A7073
S2140037C03A68BB1D1978FB1D1B785BB21800034BCB
S2140037D09847C046BD4602B080BDC046B5C601008B
S2140037E080B582B000AF786039603A687B681100B7
S2140037F01800034B9847C046BD4602B080BDC04681
S214003800E9C6010090B589B002AF78601023FB18B6
S21400381000221A701023FB1800225A701023FB187F
S21400382000229A707B685B685A687B685B689B6856
S21400383024490120244CA0477B681B689B682349C9
S21400384004221800224B9847031E37D17B681B685A
S2140038509B680433FB6000237B6115E07C69631C76
S2140038607B61FB680C22B9180A221800194B98478E
S2140038700300DAB21023FB181A55FB681B782C2BB2
S2140038800AD1FB680133FB607B69022B05DCFB6811
S2140038901B78002BE2D100E0C0461023FB181B78F3
S2140038A01A001023FB185B7818001023FB189B786F
S2140038B00949009303000120034CA047C046BD46BB
S2140038C007B090BD5034020085AD000058340200A9
S2140038D0E11B02008D1D02006034020090B58BB023
S2140038E000AF78600C23FB181422FF211800414B10
S2140038F098477B681B689B683F49092218003F4B26
S2140039009847031E59D13E4B190001203D4B98475E
S2140039107B685B685A687B685B689B683A490120ED
S214003920384CA0477B681B68DA687B681B689B6816
S21400393036490120334CA04700237B627B681B6816
S2140039409B680933BB6015E07C6A631C7B62BB68BE
S2140039500822B9180A2218002D4B98470300DAB23D
S2140039600C23FB181A55BB681B782C2B0AD1BB6896
S2140039700133BB607B6A132B05DCBB681B78002B0E
S214003980E2D100E0C046234B190001201D4B9847AA
S21400399000233B620DE00C23FA183B6AD3181B7811
S2140039A01A001D4B19000120164B98473B6A01333D
S2140039B03B623B6A132BEEDD18E0184B1900012022
S2140039C0104B98477B685B685A687B685B689B68A7
S2140039D00D4901200B4CA0477B681B68DA687B68A2
S2140039E01B689B6809490120064CA047C046BD4697
S2140039F00BB090BD1B18020074340200E11B0200DD
S214003A008034020085AD0000503402009C34020071
S214003A108D1D0200A4340200B8340200BC3402003B
S214003A2090B583B000AF7860094B19000120094BB0
S214003A3098477B685B685A687B685B689B68064942
S214003A400120044CA047C046BD4603B090BDC0460A
S214003A50EC34020085AD00005034020090B58BB007
S214003A6006AFF860B9607A60BB68012B3BD0052BC7
S214003A705ED0002B00D061E07B681B68002B25DB46
S214003A80304B19000120304B98473049304AF868CF
S214003A90002305930023049300230393002302933B
S214003AA0002301932A4B00930B000121294CA047C9
S214003AB0031E05D0284B19000120234B98473DE0F4
S214003AC0264B19000120204B984737E0244A254B07
S214003AD0190001201C4B9847214AFB68110018006A
S214003AE0214B98472AE07B681B78002B17D11F4B89
S214003AF01F49F86802221F4CA0471F4B1F49F86851
S214003B0002221C4CA0471E4B1E49F8680222194C84
S214003B10A0471D4B190001200B4B98470EE07B6811
S214003B201B781A00194B19000120074B984705E02F
S214003B30174B19000120044B9847C046C046BD46A7
S214003B4005B090BD5035020085AD00006C35020012
S214003B507C35020055C7010088350200B0350200EA
S214003B60CC2E0200CC3502000DC70100DD38000067
S214003B7004360200F5C80100053800002C350200A6
S214003B80213A0000183602002C36020040360200A9
S214003B907436020080B588B000AF3B1D18001F4B7E
S214003BA098473B1D1E4A9A603B1D80229200DA60B1
S214003BB03B1D1C4A1A613B1D802292005A613B1D28
S214003BC0194A1A803B1D194A9A803A1D184B110053
S214003BD01800184B98470300FB61FB69002B06DAB8
S214003BE0FA69154B19000120144B9847FEE7144A52
S214003BF00F4B11001800134B98470300FB61FB693D
S214003C00002B06DAFA69104B190001200B4B984777
S214003C10FEE7C046BD4608B080BDC0464DC60100A2
S214003C2034070020340900205B07000070170000EE
S214003C30FC0600209DC501008836020085AD000008
S214003C405D3A00008DC60100BC36020080B584B027
S214003C5000AF3B1D18000B4B98473B1D37221A60E0
S214003C603B1D00225A603B1D01221A723B1D022298
S214003C70DA723B1D19000720034B9847C046BD4625
S214003C8004B080BD85370100B937010080B500AFAC
S214003C90064B002207211800054B984700210720F5
S214003CA0044B9847C046BD4680BDC046B93C0000A0
S214003CB085330100E9330100B0B500AF0C4B1B683B
S214003CC05A1C0B4B1A600A4B1B68282B02D9084B50
S214003CD001221A60064B1B68064A07483F21074C1C
S214003CE0A047074B01221A70C046BD46B0BDC0466D
S214003CF0A0000020F036020060000020751A0200C6
S214003D00340B002080B500AF154A164B1100180082
S214003D10154B9847031E08D0144B19000120144B6E
S214003D20984702E00020134B98470E4B34229B5CCA
S214003D30002BF7D1104B9847104B01221A70104AEF
S214003D40104B11001800104B9847104B9847104B1B
S214003D509847104B03221A70C046BD4680BDC04629
S214003D60CC2E0200FC06002041C80100D83202001A
S214003D7085AD000075EE0000312401009C04002093
S214003D80553400002134000079240100E1230100AD
S214003D90453000008804002090B585B000AF09E0EB
S214003DA000202A4B98472A4B18002A4B9847052094
S214003DB0294B98471020294B984703001A000123E7
S214003DC05340DBB2002B09D02020244B9847030039
S214003DD01A0001235340DBB2002BE1D1204B984759
S214003DE0FA239B0018001C4B98471E4B00221A70A3
S214003DF03B001D4A13CA13C33B0030221A700F2320
S214003E00FC183900194B0A221800194B9847030072
S214003E1023700F23FB181B78002B08D00F23FB18EA
S214003E201A78144B19000020134B984703E0134BE5
S214003E301800134B98470D4B1800124B9847124B1F
S214003E4000221A70C046BD4605B090BD75EE000053
S214003E509042002069F50100459000001D2D0000ED
S214003E60312401009C04002028370200D0060020E0
S214003E7031A801000437020085AD000014370200A7
S214003E8099AC000031B201008804002080B500AF74
S214003E90184B9847184B9847184A194B11001800AA
S214003EA0184B9847184B9847184B34229B5C0122B6
S214003EB05340DBB2002B0CD0154A144B11001800EF
S214003EC0144B9847031E04D0134B19000120134BC4
S214003ED098470E4B34229B5C002B04D0104B1900E5
S214003EE001200E4B98470F4B01221A70C046BD4664
S214003EF080BDC04631240100953B0000E13700003C
S214003F00AD37000079240100E1230100FC06002003
S214003F10CC2E02000DC70100D832020085AD00008D
S214003F20343702008804002080B500AF00200B4B19
S214003F3098470B4B18000B4B98470B4B98470B4B6F
S214003F4098470B4B34229B5C002B04D0084B642113
S214003F501800084B9847C046BD4680BD75EE000069
S214003F609042002069F5010005400000793F0000FE
S214003F70FC0600203DC9010090B585B002AF184B85
S214003F801B68390000221800164B98470300012BC7
S214003F9021D13B0000229B5E1C003B0002229B5E60
S214003FA019003B0004229B5E0F4A104801930091C3
S214003FB023003F210E4CA0470C4B18000D4B984792
S214003FC004000A4A0C490D4800230193012300937C
S214003FD023000B4CA047C046BD4603B090BDC0466C
S214003FE094040020997E0000503702002000002034
S214003FF0751A0200D31B020018360200FC060020C9
S21400400089C8010090B58BB002AF394B1B680822F7
S214004010B91800221800374B98470300012B63D1CC
S214004020354B364A03CA03C312881A800023FB6145
S2140040302DE00823FA18FB69D3181B78FF2B2AD02B
S2140040400823FA18FB69D3181B782D4A3800032179
S2140040502C4CA0473A00284B110018002A4B9847D2
S214004060FB6901330822BA18D35CFF2B0CD0FB691E
S2140040700133132B08DC3B002C221A803A001E4B1F
S21400408011001800204B9847FB690133FB61FB6960
S214004090132BCEDD00E0C046174B18001B4B98478D
S2140040A003001A00144BD218194B100019000323F2
S2140040B01A00184B9847104B19000120164B9847CA
S2140040C0164B19000120144B98470B4B18000F4B4A
S2140040D098470400084A1249124800230193012316
S2140040E000932300104CA047C046BD4609B090BDC3
S2140040F090040020997E0000200000207434020006
S21400410074370200751A0200591B0200D31B020006
S21400411078370200E517020085AD00007C37020004
S21400412080370200FC06002089C8010090B58DB0DB
S21400413002AF78606420794B9847794B9847002205
S21400414004210520774B98470200774B1A6000221F
S21400415006210520734B98470200744B1A60002214
S214004160142102206F4B98470200714B1A60002200
S214004170022105206B4B984702006E4B1A606A4B73
S2140041801B68002B0BD0694B1B68002B07D0684BB5
S2140041901B68002B03D0674B1B68002B03D1664BB4
S2140041A01800664B9847664B1800644B9847654B5B
S2140041B09847654B9847654B9847654B9847654BBE
S2140041C09847654B98470C23FB18182200211800C7
S2140041D0624B9847624B98470C23FB18614A1A605B
S2140041E02723FC180C23FB1818005F4B9847030086
S2140041F023702723FB181B785BB2002B09D02723DC
S214004200FB1800229A56594B19000120584B984724
S214004210FEE7584A584B19000120554B9847574B14
S2140042209847574A574B11001800574B9847574A1C
S2140042305048FF230093130002221121544CA0473C
S21400424006E00020534B9847534B1800534B9847B3
S2140042500220534B984703001A0001235340DBB259
S214004260002BEED1FA239B0018002C4B98474D4BA1
S21400427001221A704B4B1B785BB2012B0BD002DC71
S214004280002B05D010E0022B08D0032B09D00BE042
S214004290454B98470CE0454B984709E0444B9847F8
S2140042A006E0444B984703E03E4B00221A70C04697
S2140042B00B23FB1800221A701B4B1B680B22B91825
S2140042C0002218003C4B98470300012B05D10B2316
S2140042D0FB181B785AB2334B1A70384B1B78DBB27C
S2140042E0002B17D0364B1800364B98470400344A3C
S2140042F03549364800230193012300932300344CAC
S214004300A0472F4A334B19000120194B98472B4BD7
S21400431000221A706420014B9847ABE745900000D6
S214004320AD2C0000397300008C040020940400209B
S21400433090040020980400209437020099AC0000F6
S214004340BC370200ED36000029370000953B000020
S214004350093600004D3C00008D3C00001B18020092
S214004360A9D10000B534000081EC0000D837020067
S21400437085AD00009C32020004380200E1230100F3
S214004380E1370000AD370000792401008C320200CE
S21400439091EE000075EE00009042002069F50100E5
S2140043A01D2D0000880400208D3E0000293F0000DF
S2140043B0053D0000993D0000997E0000340B00206A
S2140043C060000020D31B020028380200FC060020F4
S2140043D089C801004438020090B583B000AF0200DF
S2140043E0FB1D1A70FB1D1B78032B06D8054B18689F
S2140043F0F91D00230A22044CA047C046BD4603B060
S21400440090BDC0468C040020E175000080B582B0E7
S21400441000AF78607B6800221A70C046BD4602B0C6
S21400442080BD000080B582B000AF02003960FB1D81
S2140044301A70FB1D1B78012B0AD0022B0FD0002B05
S21400444014D10E4B0D4A91693A680A439A610FE0FF
S2140044500A4B0A4AD1693A680A43DA6108E0074B10
S214004460064A116A3A680A431A6201E0172300E016
S21400447000231800BD4602B080BDC04600040040C0
S21400448080B582B000AF78607B6880221A707B6847
S21400449000225A707B6801229A707B680022DA70CC
S2140044A0C046BD4602B080BD80B500AF054B9B78C8
S2140044B0DBB21A00022313405A1E9341DBB21800E7
S2140044C0BD4680BD0020004180B500AF024B984736
S2140044D0C046BD4680BDC046D930010080B500AF9D
S2140044E0024B9847C046BD4680BDC0462D310100F0
S2140044F080B582B000AF0200FB1D1A70074AFB1D94
S2140045001B7819001F230B40012199400B0019004E
S2140045108023D150C046BD4602B080BD00E100E019
S21400452080B584B000AF78607B681B68FB60FB6872
S214004530DB69072213405A1E9341DBB21800BD46C2
S21400454004B080BD80B582B000AF7860C0467B689E
S2140045501800044B9847031EF9D1C046BD4602B06A
S21400456080BDC0462145000080B584B000AF7860AD
S2140045707B681B68FB607B681B6818000D4B9847C0
S214004580030018000C4B98477B6818000B4B9847A5
S214004590FB6883221A75FB6883221A76FB681B6801
S2140045A0022293431A00FB681A60C046BD4604B058
S2140045B080BDC046AD450100F14400004545000001
S2140045C0F0B597B000AF786139610023FB63002334
S2140045D03B650023FB643B2310229446BC446344A3
S2140045E000221A707B691B68BB637B691B687B6350
S2140045F023231022BA18D4187B6B1800C04B984798
S214004600030023700C2310229446BC446344180015
S214004610BC4B98473B69DB697B643B691B6A3B6420
S2140046207B6C002B06D17B6B00211800B64B98479D
S21400463003007B647B6CDAB20C2310218C46BC44EE
S21400464063441A700C2310229446BC44634402222E
S2140046505A707B6C1B0CDBB20C2210218C46BC44BF
S214004660624411001800A94B98473B6C002B06D1FA
S2140046707B6B01211800A44B984703003B643B6CFE
S214004680DAB20C2310218C46BC4463441A700C2307
S21400469010229446BC44634402225A703B6C1B0CA6
S2140046A0DBB20C2210218C46BC4462441100180078
S2140046B0964B98473B699A8A7B69DA803B69DA8A27
S2140046C07B691A813B691B7E002B03D1904B984770
S2140046D0031E02D080237B6501E000237B653B69D7
S2140046E01B69002B04D03B691B697A6D13437B65FD
S2140046F03B699B687A6D13437B653B6924229B5C10
S214004700002B04D07B6D8022D20513437B653B696A
S2140047109B6A002B04D03B699B6A7A6D13437B65CA
S2140047203B692C229B5C002B05D13B699A68802351
S2140047309B049A4204D17B6D8022120513437B654D
S2140047403B692D229B5C002B04D07B6D80221204DB
S21400475013437B653B692E229B5C002B04D07B6D4C
S2140047608022D20313437B65BB6B1A687B6D1A43AA
S214004770BB6B1A60BB6B802252005A602323102248
S2140047809446BC4463441B781433DBB21800614B78
S21400479098470300FB623B691B68FA22920053436A
S2140047A0BB623B695B68FA22920053437B623B69BB
S2140047B01B8E3B62584BF86A984705000E00564B16
S2140047C0B86A9847B860F960534BF86A9847534CF4
S2140047D0534A544BA04703000C003B607C604E4B92
S2140047E0386A984702000B004C4C38687968A04736
S2140047F003000C00180021004B4C00224B4BA04736
S21400480003000C001A002300444CB868F968A0475F
S21400481003000C001A002300454C28003100A04776
S21400482003000C001D002600BB6A5A003A4B10001D
S214004830984702000B003C4C28003100A0470300BC
S2140048400C00180021003A4C00223A4BA047030007
S2140048500C001D002600BB6A5A002F4B100098471C
S21400486002000B00344C28003100A04703000C0067
S21400487019002200314B0800110098470300FB6323
S2140048803B699A6880239B049A426AD1224BF86A55
S2140048909847254C02000B00A04703000C001D00A3
S2140048A026001D4B786A98471C4C0022244BA047D4
S2140048B003000C001A0023001F4C28003100A047FC
S2140048C003000C0018002100194C0022194BA047C9
S2140048D003000C0019002200184B0800110098472E
S2140048E00300FB64FB6C002B2ED0164B796AF86A2B
S2140048F0984703009A1EFB6CD31A3B6531E0C0460E
S214004900DD4401008144000021430100CD70010018
S214004910A9440000916E0100BD160200290B02009A
S21400492095D626E80B2E113EA1FE0100000024407D
S214004930291002000000F03FC104020055160200D4
S2140049400000084041F801007B6A5A00FB6AD31851
S2140049505A1E7B6A59001D4B100098470300013B06
S2140049603B65FB6BFF2B08DCFB6B002B05DB3B6D15
S214004970FF2B02DC3B6D002B06DA3B23102294460D
S214004980BC44634440221A703B2310229446BC4425
S21400499063441B78402B0ED0FB6BFF221A403B6D06
S2140049A01B041900FF231B040B401343FA6C12066A
S2140049B01A43BB6BDA603B2310229446BC44634424
S2140049C01B781800BD4617B0F0BDC04641F8010080
S2140049D090B58BB000AFF860B9607A60FB68BA68D3
S2140049E01A60FB681B687B62FB681B6818003B4B01
S2140049F0984703003B623B6A0233FB613B6A143311
S214004A00BB610122FB699A40130019000220344B57
S214004A1098471423FB181800324B98477B681A7B7C
S214004A201423FB181A70BB69DBB21422BA181100E3
S214004A3018002D4B9847BB69DBB218002B4B9847E4
S214004A407B681B7B00211800294B98477B6A1B68F4
S214004A500222134001D01C233BE07B6A1B68012224
S214004A60134001D0052334E0FB681B681722BC18EE
S214004A7018001A4B9847030023701E4A1723FB188A
S214004A801B78110018001C4B98471723FB181A7840
S214004A901A4B9200F968D150FB6800221A76FB6820
S214004AA000225A76FB6800225A83FB6800229A830B
S214004AB0FB68252200219954FB6800221A627B6A53
S214004AC014221A607A68FB68110018000C4B98478D
S214004AD003001800BD460BB090BDC046DD44010083
S214004AE0254400000D4400006D6D0100B16D01000D
S214004AF095420100CD0B000041450100E85500201D
S214004B00C145000080B584B000AF78607B681B6844
S214004B10FB607B6818000F4B98477B6818000E4BAD
S214004B2098470E4B98477B681B6818000C4B9847B5
S214004B30030018000B4B98470B4B98477B681800F0
S214004B40044B9847FB6801221A60C046BD4604B075
S214004B5080BDC0464545000069450000C9440000C8
S214004B60AD450100E96E0100DD44000080B584B06B
S214004B7000AF78607B681B68FB60FB681B7EDBB25F
S214004B801A00022313400BD0FB6802221A76FB6839
S214004B905B8B9BB21A000223134011D0412310E016
S214004BA0FB685B8B9BB21A000423134008D0FB689B
S214004BB05B68C02292021A43FB685A60182300E022
S214004BC000231800BD4604B080BD80B584B000AF99
S214004BD078607B681B68BB600E23FB1800221A8077
S214004BE00FE00E23FB180E22BA18128801321A8024
S214004BF07B681B890E22BA1812889A4201D31223A8
S214004C000EE0BB681B7EDBB21A000123134006D100
S214004C10BB681B7EDBB21A0002231340E1D00023E0
S214004C201800BD4604B080BD90B585B000AF786072
S214004C300A00FB1C1A707B681B68FB60FB685B68DD
S214004C408022D2021A43FB685A60FB1C1A78FB6863
S214004C505A620B23FC187B681800074B9847030022
S214004C602370FB6801221A760B23FB181B781800AA
S214004C70BD4605B090BDC046CB4B000080B500AF2A
S214004C800020024B9847C046BD4680BDB94C000088
S214004C9080B500AF0120024B9847C046BD4680BD98
S214004CA0B94C000080B500AF0220024B9847C046C2
S214004CB0BD4680BDB94C000080B584B000AF020090
S214004CC0FB1D1A70FB1D1A78284B9200D358FB6008
S214004CD0FB681B689B7BDBB2FA68127E1340DAB275
S214004CE0FB68597E0B23FB180A401A700B23FB182F
S214004CF01B780122134008D0FB689B68FA681000F6
S214004D009847FB681B6801229A730B23FB181B78D5
S214004D100222134008D0FB68DB68FA681000984748
S214004D20FB681B6802229A730B23FB181B78102261
S214004D30134008D0FB681B69FA6810009847FB68A8
S214004D401B6810229A730B23FB181B782022134033
S214004D5008D0FB685B69FA6810009847FB681B6818
S214004D6020229A73C046BD4604B080BDD0430020C2
S214004D7080B584B000AF78600023FB607B68002BB2
S214004D8001D172B6FEE70820114B98470300BB60BE
S214004D90BB68002B01D172B6FEE7BB68002B12D0B1
S214004DA00C4B9847BB687A681A60BB6800225A604A
S214004DB0094B1B68BA685A60074BBA681A60074BFB
S214004DC098470123FB60FB681800BD4604B080BD11
S214004DD08171000049700000F00000206D70000036
S214004DE080B588B000AFF860B9607A600123FB61D7
S214004DF03D4B1B68002B44D13B4B3C4A1A603AE0C3
S214004E00394B1B681B681B68BB61BB691800384BB5
S214004E10984703007B61FA687B69D3181B78202BC0
S214004E2005D0FA687B69D3181B78002B1ED17A69E7
S214004E30B969FB6818002F4B9847031E16D12A4BFA
S214004E401B681B681B7B5BB2002B19DBFB6818001A
S214004E50294B984703001A00234B1B681B681B7BD3
S214004E605BB29A420CD00023FB6109E01E4B1B6824
S214004E705A681D4B1A601C4B1B68002BC0D100E003
S214004E80C046194B1B68002B0CD0FB69002B09D1C0
S214004E907A681A49BB681800194B9847124B0022CB
S214004EA01A601CE0104B1B68002B10D00E4B1B68C2
S214004EB01B689B68FA687968B86898470300FB61C6
S214004EC0FB69002B0BD1084B00221A6007E07A68BA
S214004ED00C49BB6818000A4B98470023FB61FB6926
S214004EE01800BD4608B080BD380B0020E800002042
S214004EF0D31B0200E11B0200694F0000A03802002D
S214004F00031C0200F838020080B586B000AFF860D7
S214004F10B9607A60114B1B68002B02D10F4B104A08
S214004F201A600E4B1B681B685968BA68FB68180045
S214004F300C4B9847094B1B685A68084B1A60074B7E
S214004F401B68002B02D100237B6101E001237B61FB
S214004F507B691800BD4606B080BDC0463C0B0020ED
S214004F60E8000020031C020080B584B000AF786023
S214004F700F23FB1800221A700023BB6018E07B6822
S214004F801B78202B0FD1BB68012B0ED00F23FB18EC
S214004F901B785BB2DBB20133DAB20F23FB181A7050
S214004FA00123BB6001E00023BB607B6801337B60AC
S214004FB07B681B78002BE2D1BB68012B09D10F233D
S214004FC0FB181B785BB2DBB2013BDAB20F23FB188F
S214004FD01A700F23FB181B785BB21800BD4604B08E
S214004FE080BD000080B582B000AF78607B68180096
S214004FF0034B984703001800BD4602B080BDC0466C
S214005000A987000080B582B000AF78607B68180082
S214005010034B984703001800BD4602B080BDC0464B
S214005020D587000080B582B000AF78607B68180036
S214005030034B984703009BB21800BD4602B080BDE4
S214005040059B000080B582B000AF78607B681800D2
S214005050044B984703001B0C9BB21800BD4602B0D9
S21400506080BDC046059B000080B582B000AF78606A
S2140050700A00BB1C1A807B681800084B9847030080
S2140050801B0C1A04BB1C1B881A437B6811001800F3
S214005090034B9847C046BD4602B080BD059B000046
S2140050A02D9B000080B582B000AF78600A00BB1C64
S2140050B01A807B681800094B984703001B041A0CDB
S2140050C0BB1C1B881B041A437B6811001800044B8A
S2140050D09847C046BD4602B080BDC046059B00004E
S2140050E02D9B000080B582B000AF78607B6818000A
S2140050F0034B984703009BB21800BD4602B080BD24
S214005100E54F000080B582B000AF78607B6818007D
S214005110044B984703001B0C9BB21800BD4602B018
S21400512080BDC046E54F000080B582B000AF786015
S2140051300A00BB1C1A807B681800084B98470300BF
S2140051401B0C1A04BB1C1B881A437B681100180032
S214005150034B9847C046BD4602B080BDE54F0000F1
S214005160BD87000080B582B000AF78600A00BB1C27
S2140051701A807B681800094B984703001B041A0C1A
S214005180BB1C1B881B041A437B6811001800044BC9
S2140051909847C046BD4602B080BDC046E54F0000F9
S2140051A0BD87000080B584B000AF78600023FB6048
S2140051B00023BB6018E0144BBA68D200D358002B0B
S2140051C00FD1114BBA68D2007968D1500E4ABB682D
S2140051D0DB00D3180433012252421A600123FB601D
S2140051E005E0BB680133BB60BB68092BE3DDFB68E9
S2140051F0002B04D1054B1B685A1C044B1A60C04692
S214005200BD4604B080BDC046440B0020940B002071
S21400521090B585B000AF0023FB602B4B1B68BB60CE
S214005220294B1A68294BD200D358002B35D0264B71
S2140052301A68264BD200D3581800254B984703000F
S2140052407B60214B1B68214ADB00D31804331A68A5
S2140052507B689A4207D91C4B1B681C4ADB00D31894
S21400526004337A681A60184B1A68184BD200D35861
S2140052701800184B98470300DBB21900124B1B6846
S214005280124ADB00D31804331B680A000321EA2005
S214005290114CA047FB680133FB600B4B1B685A1C84
S2140052A00E4B0A21100098470B001A00064B1A6096
S2140052B0FB68002B04DC044B1A68BB689A42AFD12B
S2140052C0C046BD4605B090BD980B0020440B00209C
S2140052D0A59C0000255000006D5B000021FB01002E
S2140052E080B500AF024B984703001800BD4680BD4E
S2140052F0519D000090B585B002AF7860144B98477A
S2140053007B68012B02D1134B98470EE07B68022B7B
S21400531004D1114B1800114B984706E07B68002B10
S21400532003D00F4B18000D4B98470E4B1B68002BF5
S21400533009D10D490D480B4B01930423009300231C
S214005340C8220B4CA047C046BD4603B090BDC04621
S214005350396200009157000058390200E1680000E9
S21400536098390200400B0020CC390200755300002B
S214005370A98C000080B582B000AF7860044B9847D7
S214005380031E01D0034B98470420034B9847F5E7CC
S214005390D5570000115200004590000080B500AFC0
S2140053A0604B1B680922DA655E4B1B6864220A2183
S2140053B099545C4B1B6865220A219954594B1B680B
S2140053C066220A219954574B1B6867220F2199546D
S2140053D0544B1B68682205219954524B1B6869225E
S2140053E0052199544F4B1B686A22052199544D4B51
S2140053F01B686B22052199544A4B1B686C220521B9
S2140054009954484B1B6870220F219954454B1B68D2
S21400541071220F219954434B1B6872220F21995415
S214005420404B1B6873220F2199543E4B1B68742215
S2140054300F2199543B4B1B6875220F219954394B09
S2140054401B6876220F219954364B1B6877220F2152
S2140054509954344B1B6878220F219954314B1B68A2
S2140054607C22102199542F4B1B687D2210219954C1
S2140054702C4B1B687E22102199542A4B1B687F22D6
S21400548013219954274B1B68802211219954254BD0
S2140054901B68812210219954224B1B6882221321FB
S2140054A09954204B1B688322132199541D4B1B686B
S2140054B08422132199541B4B1B6888220021995281
S2140054C0184B1B688A22A0219952164B1B688C2207
S2140054D0A02149009952134B1B688E22F0214900E7
S2140054E09952104B1B6890220F4999520D4B1B681E
S2140054F092220E4999520B4B1B6894220C499952E2
S214005500084B1B6896220B499952064B1B6898223B
S2140055108C21C9009952034B1B68074A1A66C0467D
S214005520BD4680BD580C0020FD020000520300005E
S214005530A203000001040000BF04000080B500AF15
S2140055402E4B00225A822D4B5A8A2C4B1A802B4BFC
S2140055500A229A82294B9A8A284B5A80274B142271
S214005560DA82264BDA8A254B9A80244B1E221A832F
S214005570224B1A8B214BDA80204B2D225A831F4B4D
S2140055805A8B1E4B1A811D4B32229A831B4B9A8BC9
S2140055901A4B5A81194B3722DA83184BDA8B174B82
S2140055A09A81164B3C221A84144B1A8C134BDA81C0
S2140055B0124B41225A84114B5A8C104B1A820F4BB5
S2140055C009229A840D4B1322DA840C4B1D221A856D
S2140055D00A4B2C225A85094B31229A85074B3622D4
S2140055E0DA85064B3B221A86044B40225A86034B2A
S2140055F045229A86C046BD4680BDC046C80B0020E0
S21400560080B582B000AF0200FB1D1A70FB1D1B7830
S214005610082B16D89A000D4BD3181B689F460C4BC8
S21400562010E00C4B0EE00C4B0CE00C4B0AE00C4B65
S21400563008E00C4B06E00C4B04E00C4B02E00C4B75
S21400564000E00C4B1800BD4602B080BDD43C020002
S214005650D43902001C3A0200643A0200B83A02004A
S214005660043B0200503B02009C3B0200F03B020061
S214005670483C0200A43C020090B587B000AF172358
S214005680FB1800221A70364B1B68002B0BD1344BCC
S2140056901B68002B05D1334B1800334B984700236B
S2140056A059E0002357E02E4B1B681B6B012B01D1E2
S2140056B0012350E02D4B1B68002B49D1EFF31083DC
S2140056C0BB60BB683B610123FB60FB6883F310880B
S2140056D0274B1B685A1C264B1A60214B1B6801225D
S2140056E01A63244B984703001800234B984703007F
S2140056F01A001723FB181A701723FB181B78002BA9
S21400570016D11723FC1803201C4B98470300237060
S2140057101B4A1723FB181B7819000320194B9847C0
S2140057201723FB181B78002219000320164B9847F6
S2140057301723FB181B781800144B98470C4B1B6854
S2140057405A1E0B4B1A603B697B607B6883F310889C
S214005750034B1B681B6B1800BD4607B090BDC046C8
S214005760580C0020F83C0200E1680000B80B00204E
S214005770B00B0020E152000025500000C565000077
S2140057803C3D0200F5670000595F0000415E0000E6
S21400579080B500AF024B9847C046BD4680BDC046A8
S2140057A07956000080B500AF084B1B68002B03D06D
S2140057B0064B1B6800221A63054B1B68002B02D0A1
S2140057C0034B1B689847C046BD4680BD580C00205A
S2140057D0C00B002080B500AF054B1B68002B03D024
S2140057E0034B1B681B6B00E000231800BD4680BD02
S2140057F0580C002090B589B000AF0200FB1D1A704F
S214005800FB1D1B78002B57D02E4B1B68002B55D04A
S214005810FB1D1B780F2B04D92B4B18002B4B9847DE
S2140058204DE02B4B1B68002B04D02A4B1800274B4F
S214005830984744E0EFF31083FB60FB68FB610123AD
S2140058403B613B6983F31088214B1B685A1C204B35
S2140058501A60214B1B681B6B002B22D01A23FC18E6
S2140058601E4B18001E4B9847030023801923FB1875
S214005870FA1D12781A701B4B984703007B617B69F0
S214005880002B0ED07B6902221A707B691A22BA1886
S21400589012885A807B691922BA1812785A70124BED
S2140058A098470B4B1B685A1E094B1A60FB69BB6076
S2140058B0BB6883F3108802E0C04600E0C046BD46E1
S2140058C009B090BDFC000020A4400200E168000082
