:020000021000EC
:102000003877002011970200099802000998020011
:1020100000000000000000000000000000000000C0
:102020000000000000000000000000000D8801001A
:1020300000000000000000003189010079890100E2
:1020400009980200099802000998020061580200EC
:102050008D4D0200099802006124010009980200D8
:10206000A5250100055F02001D5F0200355F02002B
:102070004D5F0200655F02007D5F0200599602001D
:102080006D96020081960200F96401000D65010061
:10209000216501000000000000000000E9220100AD
:1020A00009980200252401000998020009980200FD
:1020B0000000000010B5064C2378002B07D1054B1B
:1020C000002B02D0044800E000BF0123237010BDA4
:1020D000100300200000000090860300084B10B59C
:1020E000002B03D00749084800E000BF07480368F9
:1020F000002B00D110BD064B002BFBD09847F9E711
:102100000000000014030020908603009086030066
:102110000000000080B584B000AF78607B681B6869
:10212000FB60FB685B7EDBB25BB2002B01DA012354
:1021300000E000231800BD4604B080BD80B584B027
:1021400000AF78607B681B68FB60C0467B68180046
:102150000B4B9847031EF9D1FB681B7BDBB20222B5
:102160001343DAB2FB681A73C0467B681800044B4D
:102170009847031EF9D1C046BD4604B080BDC04695
:102180001521010080B584B000AF78600A00FB1C07
:102190001A707B681B68FB60FB68FA1C12789A75E2
:1021A000C046BD4604B080BD80B584B000AF02001B
:1021B000FB1D1A70FB1D1A78474B9200D358FB6029
:1021C000FB681B681B7EDAB2FB681B68DB7DDBB239
:1021D0001340DBB2BB60BB680122134045D0FB68F3
:1021E0001B6801221A76C046FB6818003B4B9847D3
:1021F000031EF9D1FB685B69991CFA685161FA68A2
:102200001268528B92B21A80FB681B8B9BB2013B07
:102210009BB2FA68191C1183002B08D0FB685B7F06
:10222000002B22D0FB6818002D4B98471DE0FB685F
:10223000012118002B4B9847FB681B7FDBB2052B55
:1022400013D1FB6800221A77FB68DB7E1A0001239A
:1022500013400AD0FB689B7E1A000123134004D070
:10226000FB689B68FA6810009847BB68042213401B
:1022700014D0FB681B6804221A76FB68DB7E1A0008
:10228000022313400AD0FB689B7E1A0002231340EE
:1022900004D0FB68DB68FA6810009847BB6802222C
:1022A000134014D0FB681B6802221A76FB68DB7EA1
:1022B0001A00042313400AD0FB689B7E1A000423F3
:1022C000134004D0FB681B69FA6810009847C046A9
:1022D000BD4604B080BDC046C441002015210100A8
:1022E0003D2101008521010080B500AF0020024B97
:1022F0009847C046BD4680BDA921010080B582B087
:1023000000AF0200FB1D1A70074AFB1D1B78190065
:102310001F230B40012199400B0019008023D1504D
:10232000C046BD4602B080BD00E100E080B584B08B
:1023300000AF0200FB1D1A70FB1D1A78374B92008C
:10234000D358FB60FB681B68BB60BB689B79DBB242
:102350001A00012313400ED0BB6801229A71FB685A
:102360001433002B07D0FB685B7C002B03D0FB6889
:102370009B6900209847BB689B79DBB21A00022357
:10238000134047D0BB6802229A71FB689B899BB2BD
:10239000002B33D0FB689A68FB68DB899BB2591C21
:1023A00088B2F968C8815B00D3181B889AB2BB68F1
:1023B0009A81FB689B899BB2013B9AB2FB689A8128
:1023C000FB689B899BB2002B18D1FB68202200215F
:1023D0009954BB6802221A71BB6802229A711920B3
:1023E0000F4B9847FB681433002B07D0FB689B7C8E
:1023F000002B03D0FB68DB6900209847FB6814338F
:10240000002B07D0FB681B7C002B03D0FB685B69AB
:1024100000209847C046BD4604B080BDC84100209A
:10242000FD22010080B500AF0020024B9847C04656
:10243000BD4680BD2D23010080B500AF024B9847FB
:10244000C046BD4680BDC046ED49020080B500AF24
:10245000024B9847C046BD4680BDC046414A020077
:1024600080B586B000AF494B9847494B1B8C9BB257
:10247000DAB21723FB180F210A401A701723FB1832
:102480001A78444B9200D3583B61414A3B691B7810
:102490000F210B40D9B23F23D1543D490F23FB18E4
:1024A0004E228A5C1A703B691B783B4A1B01D31889
:1024B00002331B889BB2BB603B691B78374A1B0108
:1024C000D31802331B889BB27B60BA687B68D21A30
:1024D0003B695A610F23FB181B780122134016D069
:1024E0002B4A4E230121D1543B6910225A743B6977
:1024F0001B7C1A000123134042D03B695B68002B10
:102500003ED03B695B683A691000984738E00F237A
:10251000FB181B780222134016D01D4A4E230221BD
:10252000D1543B6900225A743B691B7C1A00022378
:10253000134025D03B699B68002B21D03B699B68E9
:102540003A69100098471BE00F23FB181B78042200
:10255000134015D00E4A4E230421D1543B69062264
:102560005A743B691B7C1A000423134008D03B6952
:10257000DB68002B04D03B69DB683A6910009847A0
:10258000074B9847C046BD4606B080BD39240100C0
:102590000048004180030020D0410020300300208B
:1025A0004D24010080B582B000AF154B1B697B60E4
:1025B000144B9B693B60124B9A683B681A43104B63
:1025C0009A60104B104A9A6108E07B685A687B68F1
:1025D0001B68180090477B689B687B607B68002BBA
:1025E000F3D1074BDB683B60054B9B683A68D243ED
:1025F0001A40034B9A60C046BD4602B080BDC0463B
:102600000000002000040042FFFF0F0F80B582B0E1
:1026100000AF02003960FB1D1A70FB1D1B78012BF7
:102620000AD0022B0FD0002B14D10E4B0D4A91690A
:102630003A680A439A610FE00A4B0A4AD1693A683C
:102640000A43DA6108E0074B064A116A3A680A430E
:102650001A6201E0172300E000231800BD4602B013
:1026600080BDC0460004004080B500AF02210220BA
:10267000074B9847074B01221A70C046054B1B7841
:10268000DBB21A0001231340F8D1C046BD4680BD1D
:102690000D2601000004004280B584B000AF7860D0
:1026A0007B681B68FB60FB68DB69072213405A1ECE
:1026B0009341DBB21800BD4604B080BD80B582B046
:1026C00000AF7860C0467B681800044B9847031E33
:1026D000F9D1C046BD4602B080BDC0469926010072
:1026E00080B584B000AF78607B681B68FB60FB68D6
:1026F0001B681B01DB0FDBB21A000B23FB18511EFA
:102700008A411A700823FB187A68528B1A807B68FA
:102710009B8B9AB20823FB180821791809888A1A1A
:102720001A807B689B8B9BB2013B9AB27B689A8331
:102730000B23FB181B78002B10D07B68DB7A002B57
:102740001CD07B689B8B9BB2012B17D1FB685B680D
:102750008022D2021A43FB685A600FE07B68DB7A62
:10276000002B0BD07B689B8B9BB2002B06D1FB68A8
:102770005B688022D2021A43FB685A607B689B8B9D
:102780009BB2002B0ED17B689B7A002B0AD07B6812
:1027900018000E4B9847FB685B68C02292021A43F0
:1027A000FB685A607B681800084B98477B681A6A78
:1027B0000823FB181B88D318FA682821525CD2B270
:1027C0001A70C046BD4604B080BDC046BD2601009B
:1027D00080B584B000AF78607B681B68FB60FB68E5
:1027E0005B8B9BB21A000423134004D07B68252224
:1027F0001E21995424E00A23FB187A68528B1A8010
:102800007B689B8B9AB20A23FB180A2179180988E6
:102810008A1A1A807B689B8B9BB2013B9AB27B68B9
:102820009A837B681800084B98477B681A6A0A23CA
:10283000FB181B88D3181B78D9B2FB68282299543F
:10284000BD4604B080BDC046BD26010080B584B041
:1028500000AF78607B681B68FB60FB681B7EDBB2A7
:102860001A00012313402BD0FB6801221A76FB6863
:102870005B8B9BB21A000223134004D07B68252295
:10288000412199541CE0FB685B8B9BB21A00042326
:10289000134015D07B682522182199547B680022AB
:1028A0009A837B689B7A002B0AD07B681800134BB5
:1028B0009847FB685B68C02292021A43FB685A6023
:1028C0007B689B8B9AB27B685A837B6825229B5CD2
:1028D000DBB2052B0ED17B6824229B5CDBB2002B84
:1028E00004D17B681800064B984703E07B6818000A
:1028F000044B9847C046BD4604B080BDBD260100CC
:10290000D1270100E126010080B584B000AFF86056
:10291000B960FB1D1A70FB1D1B78FA6802339B001F
:10292000D3180433BA681A60FB681B7EDBB25AB254
:10293000FB1D1B78012199400B005BB213435BB276
:10294000DAB2FB681A76C046BD4604B080BD00000E
:1029500090B587B000AF786039607B681B683B61D9
:102960003B685A687B681A623B685A887B689A831E
:102970007B682422012199547B68252205219954E2
:102980003B691B681B01DB0FDBB21A000F23FB182E
:10299000511E8A411A703B685B7A002B06D03B6857
:1029A0009A7A7B68110018003B4B98470F23FB185D
:1029B0001B78002B0BD03B685B88012B07D13B6950
:1029C0005B688022D2021A433B695A6005E03B698A
:1029D0005B68324A1A403B695A603B681B7A002B9D
:1029E00045D03B681B885A003B685B7A9B031343C6
:1029F0001A0080231B021A433B695A621723FC18F2
:102A00007B681800264B9847030023703B695B687E
:102A1000224A1A403B695A601723FB181B78002B87
:102A200007D11723FC187B6818001E4B984703003A
:102A300023701723FB181B78002B14D13B6903224A
:102A40009A753B681B881B0A9BB2782213439BB282
:102A50005A003B685B7A9B031343012213431A001D
:102A60003B695A6212E01723FB181B780FE03B69A1
:102A700003229A753B681B885B0001221A433B685E
:102A80005B7A9B0313431A003B695A6200231800C8
:102A9000BD4607B090BDC046A5640100FFFFFBFF27
:102AA00047640100E963010080B582B000AF78603F
:102AB00039607B689B8B9BB2002B01D005230CE017
:102AC0007B6801229A727B680122DA723A687B681D
:102AD00011001800034B984703001800BD4602B0D0
:102AE00080BDC0465129010080B584B000AF786038
:102AF00039607B681B68FB603B685B7A002B06D003
:102B00003B689A7A7B68110018001E4B9847FB6857
:102B10005B681D4A1A40FB685A603B685A687B68CC
:102B20001A623B685A887B689A837B68242200215A
:102B300099547B68252205219954FB6803229A75D4
:102B40003B681B7A002B0DD03B681B885A003B6802
:102B50005B7A9B0313431A0080231B021A43FB6812
:102B60005A6209E03B681B885A003B685B7A9B030A
:102B700013431A00FB685A6200231800BD4604B0D4
:102B800080BDC046A5640100FFFFFBFF80B582B099
:102B900000AF786039607B689B8B9BB2002B01D0C3
:102BA00005230CE07B6801229A727B680122DA72AD
:102BB0003A687B6811001800034B9847030018001F
:102BC000BD4602B080BDC046E92A010080B586B08E
:102BD00000AF0200FB1D1A70FB1D1A78934B920088
:102BE000D3587B617B691B683B613B691B681B0198
:102BF000DB0FDBB21A000F23FB18511E8A411A703B
:102C00000E23FB187A69527E1A707B691B7EDAB23A
:102C10000E23FB180E21791809780A401A707B6977
:102C20005B8B9BB2002B09D17B699B8B9BB2002BEA
:102C300004D07B6918007E4B984770E07B695B8B02
:102C40009BB2002B39D07B699B8B9BB2002B34D17C
:102C50007B6925229B5CDBB2052B2ED17B6924226C
:102C60009B5CDBB2002B28D13B6903221A757B6980
:102C700000225A837B692522002199547B699B7A23
:102C8000002B0BD07B6918006A4B98473B695B6847
:102C9000C02292021A433B695A6002E03B6901225A
:102CA0001A760E23FB181B780122134037D07B695C
:102CB000DB687A691000984731E07B695B8B9BB2D7
:102CC000002B2CD07B699B8B9BB2002B27D03B69C0
:102CD0005B8B9BB21A002023134011D10F23FB18EA
:102CE0001B7801225340DBB2002B04D17B699B8B04
:102CF0009BB2012B04D07B692522412199540EE01F
:102D00007B6924229B5CDBB2002B04D17B69180019
:102D1000494B984703E07B691800484B98477B690B
:102D20005B8B9BB2002B47D07B699B8B9BB2002BAC
:102D300042D17B6925229B5CDBB2052B3CD17B69B0
:102D400024229B5CDBB2012B36D13B691B7EDBB2BC
:102D50001A000223134002D03B6902221A763B6913
:102D600003221A757B6900225A837B692522002180
:102D700099540E23FB181B78022213400BD07B6959
:102D800024229B5CDBB2012B05D17B691B697A692C
:102D90001000984710E00E23FB181B780122134007
:102DA0000AD07B6924229B5CDBB2002B04D17B69B7
:102DB000DB687A69100098477B6925229B5CDBB24F
:102DC000052B2ED07B6925229B5CDBB2002B28D003
:102DD0003B6903221A757B6900225A837B690022B2
:102DE0009A837B6925229B5CDBB2412B0ED07B69E9
:102DF0009B7A002B0AD07B6918000E4B98473B69E1
:102E00005B68E022D2021A433B695A600E23FB182A
:102E10001B780422134004D07B695B697A69100037
:102E20009847C046BD4606B080BDC046A8560020A3
:102E30004D280100BD260100D1270100E126010037
:102E400080B500AFBFF34F8F024B034ADA60BFF388
:102E50004F8FFEE700ED00E00400FA0580B500AFFB
:102E6000024B9847C046BD4680BDC046412E01007A
:102E700080B586B000AF78609E4B18009E4B984797
:102E80009E4B18009C4B98479D4B18009A4B9847B7
:102E90009C4B1800984B98479B4B1800964B9847B3
:102EA0009A4B1800944B9847994B1800924B9847AF
:102EB000984B1800904B9847974B18008E4B9847AB
:102EC0001723FB1800221A70944B1800944B984754
:102ED000032200210120934B98470200924B1A6075
:102EE000914B1B68002B07D1904B19000320904B8E
:102EF000984700208F4B98470C23FB1818008E4BE7
:102F000098470C23FB181B780A2B04D00C23FB18C2
:102F10001B780D2B37D1894B1800814B9847884B74
:102F200000221A70874B00221A708749874B312282
:102F30001800874B9847854B3122002199548549C9
:102F4000814B64221800844B984703003B61814BFE
:102F50006322002199547F4B1800714B98473B69BD
:102F6000002BECD11723FB1800221A70764B32226B
:102F700000211800794B9847764B642200211800F5
:102F8000764B9847B5E06E4B1B78002B59D06D4BB4
:102F90001B78032B0CD86B4B1B785A1CD1B2694A97
:102FA00011701A000C23FB1819786D4B995405E029
:102FB000634B00221A70634B00221A70614B1B781E
:102FC000012B99D9674A664B11001800664B984748
:102FD000031E2FD065495C4B1B221800644B984799
:102FE000594B18004E4B98471723FB1800221A70B4
:102FF000554B322200211800584B98475349524BE9
:1030000031221800524B98474F4B1800594B9847A4
:103010000300302B06D84D4B1800564B9847030041
:10302000DAB200E031221723FB181A70464B180061
:103030003B4B9847424B00221A70424B00221A70B9
:103040005AE70C23FB181B780D2B00D154E70C23F7
:10305000FB181B78082B04D00C23FB181B787F2B44
:103060001CD10823FB18444A12681A600823FB1875
:1030700018002B4B98471723FB181B78002B37D0D1
:103080001723FB181A781723FB18013A1A70172315
:10309000FB181B782C4A0021D15429E00C23FB1883
:1030A0001B781B2B06D1264B01221A70254B0022C0
:1030B0001A7021E71723FB181B78312B0ED8172322
:1030C000FB181B780C22BA1811781F4AD154172309
:1030D000FB181A781723FB1801321A700C23FB18FF
:1030E00000225A700C23FB1818000D4B984703E779
:1030F000C04601E7C4470300ED65010044480300F2
:10310000D4470300E4470300F447030004480300E6
:10311000144803002448030034480300F444030027
:1031200019C50100B98B010020420020C8460300E8
:1031300005C60100A5A901007D310100E846030094
:10314000A4030020A5030020DC030020A803002026
:10315000FF340300100400205D66010017310300F6
:1031600074040020EC46030019340300F046030009
:10317000D5330300CF340300F846030080B584B094
:1031800000AF78607B6818000D4B98470300FB6028
:103190000FE00C4B1A6801235B42190010000A4B28
:1031A0009847031E05D07B681800054B984703001D
:1031B000FB60FB680133ECD0C046BD4604B080BD67
:1031C000B5C5010020420020719B010080B500AF11
:1031D0000A4B00221A600A4B1B68084A11001800AB
:1031E000084B9847054B1B68002B03D0064B8022E9
:1031F00052051A60C046BD4680BDC0467804002016
:1032000020420020E994010004ED00E090B587B071
:1032100000AFF860B9607A601723FB181B221A70A0
:103220001723FB181B78084A08480F21084CA047B1
:10323000064AB968FB681800054B98470023180038
:10324000BD4607B090BDC046FC4603009403002075
:103250007133030080B584B000AFF860B9607A6064
:103260000220064B9847064B1800064B9847064B22
:10327000984700231800BD4604B080BD555C01008E
:1032800010270000C5A801005D2E010080B584B0A4
:1032900000AFF860B9607A60034B984700231800CC
:1032A000BD4604B080BDC0465D2E010090B585B01E
:1032B00000AFF860B9607A60054B064AB968F868F3
:1032C000054CA04700231800BD4605B090BDC04680
:1032D000044703000C4703007133030090B587B027
:1032E00000AFF860B9607A60074B984703007B61D4
:1032F0007B69064AB968F868054CA04700231800A6
:10330000BD4607B090BDC0460DAD01002447030087
:103310007133030090B58FB000AFF860B9607A6088
:103320001823FB1800221A701823FB1800225A7069
:103330001823FB1800221A701823FB1800225A7059
:103340001C23FB1800221A701C23FB181422BA1825
:103350009A601C23FB180122DA811C23FB18182217
:10336000BA185A601C23FB1801229A812C4B1800B2
:103370002C4B984700237B6346E07B6B2A4A2B4803
:103380000F212B4CA047294B1800264B98470023B0
:103390003B632FE07B6BDAB23B6BDBB2D318DBB263
:1033A000DB18DAB21C23FB181A701C23FB186421EB
:1033B0001800204B98470300FB62FB6A002B0CD1DE
:1033C0001C23FB181B78184A18480F21184CA047DB
:1033D000164B1800134B984709E0144B164A1188F6
:1033E000198092789A70114B18000E4B98473B6BDE
:1033F00001333B633B6B0F2BCCDD104B1800094BAB
:1034000098477B6B10337B637B6B7F2BB5DD0B4B5E
:103410001800044B984700231800BD460FB090BD1C
:103420004047030019C501007447030094030020BE
:1034300071330300753D01007C470300E84603003B
:10344000B0B588B002AFF860B9607A602C4B98478D
:1034500003007B611323FB1800221A701323FA1850
:103460007B6911001800274B98471323FB181B7822
:10347000002B40D0244B062200211800234B9847F4
:10348000214A7B6911001800214B98471E4B0022EE
:103490009B5E18001F4B9847021C1F4B1A601A4B6B
:1034A00002229B5E18001B4B9847021C1A4B5A6065
:1034B000154B04229B5E1800164B9847021C164BB6
:1034C0009A60154B1A68154B101C98470500124B53
:1034D0005A68124B101C984704000F4B9A680F4B08
:1034E000101C984703000E4AB968F86801930094CD
:1034F0002B000C4CA04700231800BD4606B0B0BD01
:1035000031420100F13F01007C040020173103002B
:103510002D400100B93F010084040020BD160300C6
:10352000804703007133030080B586B000AFF860B8
:10353000B9607A60094B984703007B617B6918008A
:10354000074B9847074AB968FB681800064B98472D
:1035500000231800BD4606B080BDC046713701008B
:10356000DD3501009C4703007133030090B587B03F
:1035700000AFF860B9607A60114B984703007B6137
:103580007B69052118000F4B9847786900230022BA
:10359000FF210D4CA047FA23DB0018000B4B984786
:1035A0007B6918000A4B98470A4AB968FB681800FB
:1035B000094B984700231800BD4607B090BDC04690
:1035C00099440100A542010041420100C5A8010043
:1035D000F1420100B04703007133030090B585B09C
:1035E00000AF78600F23FB1801221A700F23FA181E
:1035F000786801230C21034CA047C046BD4605B0A6
:1036000090BDC04609360100B0B586B000AFF86085
:1036100008007A6019000B23FB18021C1A7008239B
:10362000FB180A1C1A80FB681C68FB689868082352
:10363000FB181D887A680B23FB1819782B00A0470C
:1036400003007B617B691800BD4606B0B0BD000079
:1036500080B586B000AFF86008007A6019000B23CF
:10366000FB18021C1A700823FB180A1C1A80224B34
:103670000B22BA1812781A701623FB1800221A802F
:1036800012E01623FB181B8801331622BA18128881
:1036900079688A181178184AD1541623FB181A88A9
:1036A0001623FB1801321A801623FA180823FB1878
:1036B00012881B889A42E4D3104B5A221A700F4B7F
:1036C0000D4A5A600823FB181B8801339AB20B4B32
:1036D000DA810A4B0822BA1812889A81074B7A6855
:1036E0009A60064B64211800054B984703001800A8
:1036F000BD4606B080BDC0463442002024420020B2
:10370000753D010080B584B000AFF86008007A60B4
:1037100019000B23FB18021C1A700823FB180A1C43
:103720001A80104B0B22BA1812781A700E4B5A22BC
:103730001A700D4B7A689A600B4B0822BA181288DF
:103740009A81094B0122DA81074B064A5A60064BDF
:10375000642264211800054B984703001800BD46F9
:1037600004B080BD34420020244200204D3E0100C0
:1037700080B500AF014B1800BD4680BD140000208D
:1037800080B582B000AF0200FB1D1A70064BFA1D17
:10379000127811001F220A40012191400A001A608C
:1037A000C046BD4602B080BD00E100E080B584B0F7
:1037B00000AF78607B681B68FB60FB68DB690722F1
:1037C00013405A1E9341DBB21800BD4604B080BDC1
:1037D00080B582B000AF7860C0467B681800044BAB
:1037E0009847031EF9D1C046BD4602B080BDC04611
:1037F000AD37010080B582B000AF78607B6864228D
:103800001A607B681B4A5A607B6800229A607B685A
:1038100000221A737B6800221A767B68802292034A
:103820001A617B6801225242DA827B68012252428D
:103830009A827B680022DA617B6800221A627B68C8
:103840002422002199547B6800229A627B682C22F2
:10385000002199547B682D22002199547B682E22E7
:10386000002199547B68D7221A86C046BD4602B013
:1038700080BDC046480D000080B584B000AF7860C0
:103880007B681B68BB600023FB607B681800144BDF
:103890009847BB681B6802221A43BB681A607B68A2
:1038A0001B6818000F4B9847030018000E4B9847F1
:1038B0000CE0FB680133FB607B68DB881A00FB6867
:1038C0009A4203D8BB6810225A8306E0BB685B8B20
:1038D0009BB21A0010231340EBD0BD4604B080BD4C
:1038E000D1370100C15E02008137010080B582B08E
:1038F00000AF78600A00FB1C1A707B685B7EDBB24D
:103900005AB2FB1C1B78012199400B005BB2134398
:103910005BB2DAB27B685A76C046BD4602B080BD63
:1039200090B591B000AF0023FB633A23FB1800224F
:103930001A703B1D1800214B98473B1D204ADA6145
:103940003B1D204A1A623B1DFA229200DA823B2379
:10395000FB1803221A701EE03A23FC183A1D1A497C
:103960001A4B18001A4B9847030023703A23FB1890
:103970001B78002B04D13A23FB181B78FB630FE064
:10398000124B1800134B98473B23FB181A783B2324
:10399000FB18013A1A703B23FB181B78002BDBD174
:1039A000FB6B002B04D1094B18000B4B984700E030
:1039B000C046FB6B1800BD4611B090BDF537010045
:1039C00002000800020009000008004278420020BE
:1039D0004D620100816301007938010080B584B037
:1039E00000AF78600E4B00221A700D4B01229A60D6
:1039F0000023FB600B4B1B680C22BA181100180047
:103A0000094B9847094B00221A70FB68002B03D022
:103A1000074B802252051A60C046BD4604B080BDE7
:103A200094040020A0420020E994010090040020AA
:103A300004ED00E080B584B000AF78600E4B00224A
:103A40001A700D4B01229A600023FB600B4B1B6820
:103A50000C22BA1811001800094B9847094B002294
:103A60001A70FB68002B03D0074B802252051A60A6
:103A7000C046BD4604B080BD94040020A042002092
:103A8000E99401009004002004ED00E080B584B0CA
:103A900000AF78600E4B00221A700D4B01225A6065
:103AA0000023FB600B4B1B680C22BA181100180096
:103AB000094B9847094B01221A70FB68002B03D071
:103AC000074B802252051A60C046BD4604B080BD37
:103AD00094040020A0420020E994010090040020FA
:103AE00004ED00E080B500AF1149124B0022180030
:103AF000114B98470F4B00211800104B9847104965
:103B00000C4B012218000C4B98470A4B012118005E
:103B10000A4B98470B49074B02221800064B98475F
:103B2000044B02211800054B9847C046BD4680BD96
:103B3000DD3901007842002009290100ED3801003B
:103B4000353A01008D3A010080B582B000AF002304
:103B50007B60144B984703007B607B68002B1AD175
:103B6000114B98470120114B98470200104B1A60E7
:103B70000322002101200F4B984702000E4B1A60D0
:103B80000B4B1B68002B03D00B4B1B68002B03D186
:103B900006237B6000E0C0467B681800BD4602B08B
:103BA00080BDC04621390100E53A0100218E0100A7
:103BB00074420020B98B0100A042002090B585B06E
:103BC00000AF78600023FB607B68002B03D07B682C
:103BD0005B68002B03D108235B42FB601FE07B681E
:103BE0001B789AB2104B1A807B685A680E4B5A6049
:103BF0007B68DA890C4B5A800B23FC180A4A0B4B62
:103C0000110018000A4B9847030023700B23FB1880
:103C10001B78002B03D006235B42FB60C046FB6889
:103C20001800BD4605B090BDA44200207842002097
:103C30008D2B010090B585B000AF78600023FB604C
:103C40007B68002B03D07B685B68002B03D10823C3
:103C50005B42FB601FE07B681B789AB2104B1A80B6
:103C60007B689A680E4B5A607B689A890C4B5A8025
:103C70000B23FC180A4A0B4B110018000A4B9847FB
:103C8000030023700B23FB181B78002B03D00623A3
:103C90005B42FB60C046FB681800BD4605B090BDA6
:103CA000A442002078420020A92A010090B583B0E8
:103CB00000AF00237B60094B18680023002200211D
:103CC000074CA0470300012B02D014235B427B600A
:103CD0007B681800BD4603B090BDC046744200200A
:103CE000618E010080B584B000AF78600023FB6076
:103CF000084B1B687A6811001800074B98470300AF
:103D0000012B02D01D235B42FB60FB681800BD46FF
:103D100004B080BD74420020719B010080B584B066
:103D200000AF78600023FB60044B1A687B681A6060
:103D3000FB681800BD4604B080BDC046A04200200C
:103D400080B500AF024B1B781800BD4680BDC04651
:103D50009004002080B582B000AF0200FB1D1A70F5
:103D6000034BFA1D12781A70C046BD4602B080BDE2
:103D70009004002080B584B000AF786039600023E3
:103D8000FB600023BB6096235B001800284B98471C
:103D90000300FB60FB68002B38D10823FB181800D8
:103DA000244B98470300FB60FB68002B30D17B68F5
:103DB0001800214B98470300FB60FB68002B2AD1B9
:103DC000BB683A68110018001C4B98470300012B90
:103DD00011D11B4B9847031E11D00020194B984757
:103DE000FB68002B03D021235B42FB6014E003231C
:103DF0005B42FB6010E003235B42FB600CE0124B74
:103E000098470200FB681343FB6002E0C04600E0F5
:103E1000C046FB6807E0C0460B4B98470200FB68B2
:103E20001343FB60FB681800BD4604B080BDC0466C
:103E3000E53C01001D3D0100BD3B0100719B0100FF
:103E4000413D0100553D0100AD3C010080B586B00B
:103E500000AFF860B9607A6000237B6100233B61AA
:103E600096235B001800364B984703007B617B6903
:103E7000002B55D11023FB181800324B9847030034
:103E80007B617B69002B4DD1FB6818002E4B984756
:103E900003007B617B69002B47D13B697A68110085
:103EA00018002A4B98470300012B18D1284B98473C
:103EB000031E06D00020274B984703235B427B61FB
:103EC00034E0BB681800244B9847FB681800234B6C
:103ED000984703007B617B69002B04D026E0032315
:103EE0005B427B6122E03B697A6811001800174B46
:103EF00098470300012B0AD1154B9847031E0AD09F
:103F00000020144B984703235B427B610EE00323A0
:103F10005B427B610AE0124B984703007B6102E041
:103F2000C04600E0C0467B6905E0C0460C4B9847A0
:103F300003007B617B691800BD4606B080BDC046AA
:103F4000E53C01001D3D0100BD3B0100719B0100EE
:103F5000413D0100553D0100C5A80100353C01006F
:103F6000AD3C0100B0B586B000AFF86008007A60E3
:103F700019000B23FB18021C1A700823FB180A1CDB
:103F80001A80FB68002B02D101235B420FE0FB6823
:103F90005C68FB68D8680823FB181D887A680B23C7
:103FA000FB1819782B00A04703007B617B69180080
:103FB000BD4606B0B0BD000080B582B000AF0200C3
:103FC000BB1D1A80BB1D00229A5E074B100098474C
:103FD000021C064B8321C905101C9847031C181CA2
:103FE000BD4602B080BDC046FD1603002D1403007F
:103FF00090B585B000AF786039600823FA1878680A
:1040000001232721084CA0470300FB600823FB186D
:104010001B781B07DB0FDBB21A003B681A70FB68CA
:104020001800BD4605B090BD653F010090B587B052
:1040300000AF786039600C23FA18786806232821CD
:10404000264CA04703007B610C23FB185B781AB257
:104050003B681A803B6800229B5E9BB21B029AB2AF
:104060000C23FB181B789BB2D3189BB21AB23B6887
:104070001A803B6802330C22BA18D27812B21A8026
:104080003B6802333A6802320021525E92B2120259
:1040900091B20C22BA18927892B28A1892B212B2E5
:1040A0001A803B6804330C22BA18527912B21A8073
:1040B0003B6804333A6804320021525E92B2120225
:1040C00091B20C22BA18127992B28A1892B212B234
:1040D0001A807B691800BD4607B090BD653F01009E
:1040E00080B586B000AFF86008007A6019000B2335
:1040F000FB18021C1A700823FB180A1C1A80224B9A
:104100000B22BA1812781A701623FB1800221A8094
:1041100012E01623FB181B8801331622BA181288E6
:1041200079688A181178184AD1541623FB181A880E
:104130001623FB1801321A801623FA180823FB18DD
:1041400012881B889A42E4D3104B19221A700F4B25
:104150000D4A5A600823FB181B8801339AB20B4B97
:10416000DA810A4B0822BA1812889A81074B7A68BA
:104170009A60064B64211800054B9847030018000D
:10418000BD4606B080BDC046B0420020F0420020CF
:10419000753D010080B584B000AFF86008007A601A
:1041A00019000B23FB18021C1A700823FB180A1CA9
:1041B0001A80104B0B22BA1812781A700E4B192263
:1041C0001A700D4B7A689A600B4B0822BA18128845
:1041D0009A81094B0122DA81074B064A5A60064B45
:1041E000642264211800054B984703001800BD465F
:1041F00004B080BDB0420020F04200204D3E0100DE
:1042000080B582B000AF78607B68002B04D07B68FB
:104210001800054B984702E00120044B9847C04620
:10422000BD4602B080BDC04601E90100D1E80100F1
:1042300080B500AF014B1800BD4680BD20000020B6
:1042400090B585B000AF78600C0010001900FB1C21
:10425000221C1A70BB1C021C1A707B1C0A1C1A70D0
:104260000023FB600823FB18FA1C12781A7008233D
:10427000FB18BA1C12785A700823FB187A1C1278A3
:104280009A700823FA18786803237221044CA04717
:104290000300FB60FB681800BD4605B090BDC0463A
:1042A0002543010090B585B000AF78600A00FB1C83
:1042B0001A700B23FB18FA1C12781A700023FB608B
:1042C000FB1C1B781F2B02D9FB1C1F221A700B230F
:1042D000FA18786801237721044CA0470300FB609B
:1042E000FB681800BD4605B090BDC04625430100DF
:1042F00090B585B000AF78600B23FB1800221A70D0
:104300000023FB600B23FA18786800237821044C03
:10431000A0470300FB60FB681800BD4605B090BDD8
:1043200025430100B0B586B000AFF86008007A60A0
:1043300019000B23FB18021C1A700823FB180A1C17
:104340001A80FB681C68FB6898680823FB181D88A6
:104350007A680B23FB1819782B00A04703007B61B8
:104360007B691800BD4606B0B0BD000080B586B0C0
:1043700000AFF86008007A6019000B23FB18021CDC
:104380001A700823FB180A1C1A80224B0B22BA1839
:1043900012781A701623FB1800221A8012E01623D6
:1043A000FB181B8801331622BA18128879688A18FC
:1043B0001178184AD1541623FB181A881623FB18B3
:1043C00001321A801623FA180823FB1812881B885A
:1043D0009A42E4D3104B1A78104B1A700F4B0D4AC7
:1043E0005A600823FB181B8801339AB20B4BDA8101
:1043F0000A4B0822BA1812889A81084B7A689A6088
:10440000064B64211800064B984703001800BD4670
:1044100006B080BD10430020300000200043002083
:10442000753D010080B584B000AFF86008007A6087
:1044300019000B23FB18021C1A700823FB180A1C16
:104440001A80114B0B22BA1812781A700F4B1A7877
:104450000F4B1A700E4B7A689A600D4B0822BA18EF
:1044600012889A810A4B0122DA81094B064A5A6066
:10447000074B642264211800064B9847030018007C
:10448000BD4604B080BDC04610430020300000206F
:10449000004300204D3E010080B500AF014B1800E5
:1044A000BD4680BD3400002080B584B000AF02005E
:1044B000FB1D1A700F23FB18FA1D1278D2091A700F
:1044C0000E23FB18FA1D127852091A700D4BBB60AF
:1044D0000F23FB181B78002B0FD10F23FB181B7821
:1044E0009B0010229446BC446344083B1A680E2388
:1044F000FB181B78DB01D31800E000231800BD4631
:1045000004B080BD0044004180B582B000AF02001D
:10451000FB1D1A70FB1D1B781800034B9847030006
:104520001800BD4602B080BDA944010080B584B02A
:1045300000AF0200FB1D1A70BB1D0A1C1A70FB1D88
:104540001B7818000D4B98470300FB60FB1D1B7880
:104550001F22134001229A401300BB60BB1D1B7831
:10456000002B03D0FB68BA689A6102E0FB68BA6866
:104570005A61C046BD4604B080BDC0460945010031
:1045800080B584B000AF0200FB1D1A70FB1D1B78C4
:104590001800094B98470300FB60FB1D1B781F2286
:1045A000134001229A401300BB60FB68BA68DA61CD
:1045B000C046BD4604B080BD0945010080B500AFCE
:1045C000024B00221A70C046BD4680BDBD040020CB
:1045D00080B582B000AF0200FB1D1A70FB1D1B7876
:1045E0005BB2DB435BB2064A127852B213405BB255
:1045F000DAB2034B1A70C046BD4602B080BDC04659
:10460000BD04002080B582B000AF0200FB1D1A700F
:10461000054B1A78FB1D1B781343DAB2024B1A7054
:10462000C046BD4602B080BDBD04002080B582B04A
:1046300000AF0200FB1D1A70064B1B78FA1D1278A2
:104640001340DBB25A1E9341DBB21800BD4602B0E4
:1046500080BDC046BD04002090B585B000AF786035
:1046600039607B68002B02D03B68002B01D100230E
:1046700013E00F23FC1839680A4B002218000A4B7C
:10468000984703002370074B1800084B98470F23E7
:10469000FB181B785A425341DBB21800BD4605B0E7
:1046A00090BDC046F006002045C1020045CB020087
:1046B00080B59EB000AFF860B960FB1D1A7076231C
:1046C000FB1801221A807423FB1800221A806E2323
:1046D000FB1800221A807223FB1800221A80242360
:1046E000FB18180041231A000021924B9847182309
:1046F000FB18180009231A0000218E4B9847142339
:10470000FB1800221A600023BB667123FB180022ED
:104710001A70BB68002B01D1002306E1BA68FB6860
:1047200011001800844B984703001A0001235340DE
:10473000DBB2002B01D00123F7E0BB6818007F4BF0
:1047400098470300402B01D90023EEE0BB682E21DF
:1047500018007B4B98470300BB66BB6E002B52D002
:10476000BB6E1800754B984702006E23FB181A8029
:104770006E23FB181B88072B37D87123FB180122E7
:104780001A70BA6E1823FB18110018006D4B984769
:10479000BB681800694B984702006E23FB181B8802
:1047A000D31A3C2B11D97423FB186E22BA18128825
:1047B0003C218A1A1A807423FB181A88B9682423AA
:1047C000FB181800604B98472AE0BA6EBB68D21AF3
:1047D0007423FB181A807423FB181A88B9682423E1
:1047E000FB181800584B98471AE07423FB183C221A
:1047F0001A807423FB181A88B9682423FB18180040
:10480000514B98470CE07423FB183C221A80742308
:10481000FB181A88B9682423FB1818004A4B9847DC
:104820007423FB181B887422BA18591C11801A00B3
:104830002423FB182D2199547623FB1800221A807B
:104840007223FB1801221A8010E07223FA187223D7
:10485000FB181B88191C8900CB18DB1813807623E2
:10486000FB181A887623FB1801321A807623FB186E
:104870001B88022BE9D97623FB1801221A804BE012
:104880007623FB181A8831491423FB181800304B83
:1048900098477423FB181B882422BA18D3181422B3
:1048A000B91803221800284B98477123FB181B786E
:1048B000002B0CD07423FB181B8803332422BA1856
:1048C000D3181822BA18110018001E4B9847242339
:1048D000FA18FB6811001800174B984703001A00DC
:1048E00001235340DBB2002B0FD0FB1D1A78BB68AD
:1048F000002118000F4B98472423FA18BB681100B9
:104900001800104B984701230FE07623FB181A88F4
:104910007623FB1801321A807623FA187223FB18CB
:1049200012881B889A42ABD300231800BD461EB0E4
:1049300080BDC0461731030059460100CF34030043
:104940002935030083340300FF3403006448030067
:10495000D533030090B585B002AF0120234B9847B3
:1049600003001A0001235340DBB2002B05D0204B7B
:10497000190001201F4B984734E002201B4B984739
:1049800003001A0001235340DBB2002B05D01A4B61
:1049900019000120174B984724E00420134B984737
:1049A000031E05D0154B19000120124B984719E042
:1049B00008200E4B9847031E05D0114B190001200B
:1049C0000C4B98470EE00F4B19000120094B9847FC
:1049D0000D490E4800230093002301220C4CA047F0
:1049E00003007B60BD4603B090BDC0462D4601006C
:1049F0006C48030005C6010098480300C448030042
:104A0000F04803001C49030048490300A843002064
:104A100099F70200B0B586B000AF786039607B6866
:104A2000002B02D03B68002B05D1584B1900012008
:104A3000574B9847A6E00820564B984703001A00AA
:104A400001235340DBB2002B55D000237B61524B36
:104A500030221A70504B3A225A70504B7B6102E060
:104A60007B69013B7B617B691B782F2BF8D17B69CC
:104A700018004B4B98470300012B24D97B69013365
:104A80007B617A69474B11001800474B98474249B0
:104A9000464B40221800464B98473F4A454B190069
:104AA00001203B4B98471323FC183B493F4B0A22FC
:104AB0001800414B9847030023701323FB181B7801
:104AC000002B12D008E03D4B19000120304B9847D5
:104AD00020203B4B984755E01323FB181A78394B9D
:104AE000190001202A4B98474CE0374B00221A60EE
:104AF0000820334B98477B68002B43D00023FB6092
:104B00001323FC180C23FB183A68796827482F4DAB
:104B1000A847030023701323FB181B78002B0CD02D
:104B2000224B18002A4B98472020254B9847294BA9
:104B300019000120164B984724E0234B1A68FB68A4
:104B4000D218214B1A60204B1A68234B1B6823494B
:104B500001200F4CA0471C4B1A681F4B1B689A4240
:104B600010D3124B18001A4B98471D4B1900012007
:104B7000074B9847002117201A4B98471020104BDD
:104B80009847C046BD4606B0B0BDC0466849030060
:104B900005C601002D460100C40000206549030040
:104BA000CF340300C600002083340300F006002049
:104BB000B1460100CC49030045C102008C49030005
:104BC00005460100F44903001807002075C60200DD
:104BD00045CB0200284A030014070020644A030062
:104BE000984A03002D45010090B585B000AFF860EC
:104BF000B9607A60BB68042B00D977E0BB689A0083
:104C00003C4BD3181B689F463B4B190001203B4B84
:104C100098476BE03A4B19000120384B9847042025
:104C2000384B984762E07B681B881A007B685B689A
:104C300035490120314CA0477B681B88C82B0DD11A
:104C40007B685A68314B1A60314B00221A607B68CE
:104C50005A6880239B009A4243D803E02020294BC6
:104C6000984743E07B689A687B685B68190010008E
:104C7000284B98471020234B984732E07B685A68AE
:104C80007B681B6819001000224B98477B681B7AD1
:104C9000002B28D010201B4B984724E07B681A6813
:104CA0001D4B19000120154B98477B681B680B337F
:104CB0001BD10820194B9847031E06D0184B18002B
:104CC000184B98470820184B98470420134B9847D7
:104CD000031E02D00420144B9847144B9847C0463B
:104CE00003E0C04602E0C04600E0C046BD4605B055
:104CF00090BDC04698510300CC4A030005C6010090
:104D0000044B030005460100304B0300140700204C
:104D100018070020154A01006C4B03002D460100C6
:104D2000F006002045CB0200D145010055490100A5
:104D300080B582B000AF3A60FB1D021C1A70BB1D2B
:104D40000A1C1A703A68BB1D1978FB1D1B785BB2F0
:104D50001800034B9847C046BD4602B080BDC04610
:104D6000A9F40200B0B586B004AF786039603B6842
:104D7000FF2213401C003B681B0A1A00FF2313404C
:104D80003A68120C1100FF220A403968090E0D0022
:104D900078680949029501920093230002000120DE
:104DA000064CA0473A687B6811001800044B9847EE
:104DB000C046BD4602B0B0BD9C4B030005C6010015
:104DC0000DF6020090B587B002AF02003960FB1DFE
:104DD0001A70FB1D1B782C2B02D0322B3DD06FE0BC
:104DE0003B68FB60FB681B78012B07D1364B190031
:104DF0000120364B9847364B98475EE0FB681B789E
:104E0000002B5AD1334B19000120304B9847022018
:104E1000314B98470820314B9847031E06D0304B42
:104E20001800304B984708202B4B984704202B4BF9
:104E30009847031E02D00420274B98472A4B012194
:104E400018002A4B98472A4A2A48FF230093130048
:104E500002220821284CA0472FE03B68BB60BB68BA
:104E60001B781800BB6801331B781C00BB68023339
:104E70001B781A00BB6803331B782049019300920A
:104E8000230002000120114CA04702201C4B984730
:104E90001C4B1B78012B02D11B4B98470FE01B4A80
:104EA000114B110018001A4B9847031E07D0194BDD
:104EB00019000120054B984701E0C04600E0C046BC
:104EC000C046BD4605B090BDCC4B030005C60100F1
:104ED000790C0200EC4B0300D14501002D46010086
:104EE000F006002045CB02001C07002055E102001F
:104EF000104C03001C4C0300A5070200244C0300C7
:104F000005460100BC040020554901005448030037
:104F100021E002004C4C030090B583B000AF294B58
:104F20009847294B19000120284B9847FC1D002069
:104F3000274B984703002370FB1D1B78012B10D1D2
:104F4000244B19000120214B9847234B19000120C5
:104F50001E4B9847C0460020204B98470300022B69
:104F6000F9D1FB1D1B78002BE0D11D4B190001204E
:104F7000164B98478C239A001A4B002118001A4BA5
:104F80009847BC1D174B19000020184B9847030089
:104F90002370BB1D1B780B2B07D1BB1D1A78144B3C
:104FA00019000120094B984708E0124B1900012015
:104FB000064B98470120104B9847C046BD4603B0AA
:104FC00090BDC0461DD40100704C030005C6010011
:104FD000F9D80100A84C0300D04C03006DD40100A7
:104FE000044D0300C004002017310300EDC002008F
:104FF000284D0300584D03000546010080B582B0DE
:1050000000AF3B1D1800084B98473A1D074B110095
:105010001800074B9847054B1800064B9847C046A9
:10502000BD4602B080BDC0463D0C03005043002089
:10503000610C03004D0D030080B588B000AF3B004C
:105040001800154B98473B00802292001A613B00E4
:10505000124A5A603B0050221A803B0000229A708C
:105060003A000F4B110018000E4B98470300FB61EC
:10507000FB69002B06DAFA690B4B190001200B4B78
:105080009847FEE70A4A064B11001800094B98475B
:10509000C046BD4608B080BDD1F20200504300209A
:1050A000A84300201DF302007C4D030005C601004B
:1050B000E94B010009F4020080B582B000AF3A600C
:1050C000FB1D021C1A70BB1D0A1C1A703A68BB1D1E
:1050D0001978FB1D1B785BB21800034B9847C0463C
:1050E000BD4602B080BDC046C9DF020080B582B0B7
:1050F00000AF786039603A687B6811001800034B94
:105100009847C046BD4602B080BDC046FDDF0200E4
:1051100080B582B000AF78601720034B9847C04637
:10512000BD4602B080BDC0468145010090B58BB040
:1051300000AF78600C23FB181422FF211800414BAC
:1051400098477B681B689B683F49092218003F4BC2
:105150009847031E59D13E4B190001203D4B9847FB
:105160007B685B685A687B685B689B683A4901208A
:10517000384CA0477B681B68DA687B681B689B68B3
:1051800036490120334CA04700237B627B681B68B3
:105190009B680933BB6015E07C6A631C7B62BB685B
:1051A0000822B9180A2218002D4B98470300DAB2DA
:1051B0000C23FB181A55BB681B782C2B0AD1BB6833
:1051C0000133BB607B6A132B05DCBB681B78002BAB
:1051D000E2D100E0C046234B190001201D4B984747
:1051E00000233B620DE00C23FA183B6AD3181B78AE
:1051F0001A001D4B19000120164B98473B6A0133DA
:105200003B623B6A132BEEDD18E0184B19000120BE
:10521000104B98477B685B685A687B685B689B6843
:105220000D4901200B4CA0477B681B68DA687B683E
:105230001B689B6809490120064CA047C046BD4633
:105240000BB090BD17310300C44D0300DD340300E3
:10525000D04D030005C60100EC4D0300F44D0300E2
:1052600089360300FC4D0300104E0300144E03006A
:1052700090B583B000AF7860094B19000120094B4D
:1052800098477B685B685A687B685B689B680649DF
:105290000120044CA047C046BD4603B090BDC046A7
:1052A000444E030005C60100EC4D030090B58BB0E1
:1052B00006AFF860B9607A60BB68012B3BD0052B64
:1052C0005ED0002B00D061E07B681B68002B25DBE3
:1052D000304B19000120304B98473049304AF8686C
:1052E00000230593002304930023039300230293D8
:1052F000002301932A4B00930B000121294CA04766
:10530000031E05D0284B19000120234B98473DE090
:10531000264B19000120204B984737E0244A254BA3
:10532000190001201C4B9847214AFB681100180006
:10533000214B98472AE07B681B78002B17D11F4B25
:105340001F49F86802221F4CA0471F4B1F49F868ED
:1053500002221C4CA0471E4B1E49F8680222194C21
:10536000A0471D4B190001200B4B98470EE07B68AE
:105370001B781A00194B19000120074B984705E0CC
:10538000174B19000120044B9847C046C046BD4644
:1053900005B090BDA84E030005C60100C44E030031
:1053A000D44E030069E00200E04E0300084F030002
:1053B00054480300244F030021E002002D51010056
:1053C0005C4F030009E2020011510100844E03000A
:1053D00071520100704F0300844F0300984F030087
:1053E000CC4F030080B588B000AF3B1D18001F4BA9
:1053F00098473B1D1E4A9A603B1D80229200DA604E
:105400003B1D1C4A1A613B1D802292005A613B1DC4
:10541000194A1A803B1D194A9A803A1D184B1100EF
:105420001800184B98470300FB61FB69002B06DA54
:10543000FA69154B19000120144B9847FEE7144AEE
:105440000F4B11001800134B98470300FB61FB69D9
:10545000002B06DAFA69104B190001200B4B984714
:10546000FEE7C046BD4608B080BDC04661DF020011
:1054700054070020540900205B070000701700004B
:105480001C070020B1DE0200E04F030005C601004A
:10549000AD520100A1DF02001450030080B584B0BA
:1054A00000AF3B1D18000B4B98473B1D37221A607D
:1054B0003B1D00225A603B1D01221A723B1D022235
:1054C000DA723B1D19000720034B9847C046BD46C2
:1054D00004B080BD99500200CD50020080B500AFED
:1054E000064B002207211800054B98470021072092
:1054F000044B9847C046BD4680BDC04609550100D3
:10550000994C0200FD4C0200B0B500AF164B1B7861
:10551000DBB2002B09D0154B01221A60144A154842
:1055200001233F21144CA04708E0104B00221A60D1
:105530000F4A104800233F210F4CA0470A4B1B780D
:10554000DBB25A1E9341DBB201225340DBB21A1C7C
:1055500001231340DAB2044B1A70084B01221A706F
:10556000C046BD46B0BDC046A8040020C000002013
:10557000485003008000002071330300540B0020CA
:1055800080B500AF154A164B11001800154B98470F
:10559000031E08D0144B19000120144B984702E059
:1055A0000020134B98470E4B34229B5C002BF7D105
:1055B000104B9847104B01221A70104A104B1100E3
:1055C0001800104B9847104B9847104B9847104BBA
:1055D00003221A70C046BD4680BDC0465448030031
:1055E0001C07002055E102004C4C030005C60100D9
:1055F00089070200453D0200BC040020654D010002
:10560000314D01008D3D0200F53C0200554901007D
:10561000A904002090B585B000AF09E000202A4B16
:1056200098472A4B18002A4B98470520294B984742
:105630001020294B984703001A0001235340DBB286
:10564000002B09D02020244B984703001A00012387
:105650005340DBB2002BE1D1204B9847FA239B004B
:1056600018001C4B98471E4B00221A703B001D4A25
:1056700013CA13C33B0030221A700F23FC183900E1
:10568000194B0A221800194B9847030023700F2367
:10569000FB181B78002B08D00F23FB181A78144B2B
:1056A00019000020134B984703E0134B1800134BCD
:1056B00098470D4B1800124B9847124B00221A7056
:1056C000C046BD4605B090BD89070200504300208A
:1056D0007D0E0300C5A801002D460100453D0200D6
:1056E000BC04002070500300F006002045C10200F9
:1056F0004C50030005C601005C50030019C50100B1
:1057000045CB0200A904002080B500AF184B984794
:10571000184B9847184A194B11001800184B984716
:10572000184B9847184B34229B5C01225340DBB244
:10573000002B0CD0154A144B11001800144B98473D
:10574000031E04D0134B19000120134B98470E4B36
:1057500034229B5C002B04D0104B190001200E4B0F
:1057600098470F4B01221A70C046BD4680BDC04607
:10577000453D0200E5530100ED500100B950010024
:105780008D3D0200F53C02001C0700205448030038
:1057900021E002004C4C030005C601007C500300D0
:1057A000A904002080B500AF00200B4B98470B4B9D
:1057B00018000B4B98470B4B98470B4B98470B4BDC
:1057C00034229B5C002B04D0084B64211800084B4A
:1057D0009847C046BD4680BD89070200504300205F
:1057E0007D0E030081580100F55701001C070020C1
:1057F00051E2020090B585B002AF184B1B6839002A
:1058000000221800164B98470300012B21D13B00C2
:1058100000229B5E1C003B0002229B5E19003B00A5
:1058200004229B5E0F4A10480193009123003F2100
:105830000E4CA0470C4B18000D4B984704000A4A29
:105840000C490D48002301930123009323000B4CC6
:10585000A047C046BD4603B090BDC046B40400207A
:105860001997010098500300400000207133030095
:10587000CF340300704F03001C0700209DE102009D
:1058800090B58BB002AF394B1B680822B9180022C3
:105890001800374B98470300012B63D1354B364A2C
:1058A00003CA03C312881A800023FB612DE008237A
:1058B000FA18FB69D3181B78FF2B2AD00823FA1893
:1058C000FB69D3181B782D4A380003212C4CA047C4
:1058D0003A00284B110018002A4B9847FB69013306
:1058E0000822BA18D35CFF2B0CD0FB690133132BB1
:1058F00008DC3B002C221A803A001E4B11001800D5
:10590000204B9847FB690133FB61FB69132BCEDD0C
:1059100000E0C046174B18001B4B984703001A00C5
:10592000144BD218194B1000190003231A00184BFE
:105930009847104B19000120164B9847164B190039
:105940000120144B98470B4B18000F4B984704004D
:10595000084A1249124800230193012300932300AF
:10596000104CA047C046BD4609B090BDB004002011
:105970001997010040000020C44D03004850030067
:105980007133030055340300CF340300BC500300CF
:10599000E130030005C60100C0500300C4500300FD
:1059A0001C0700209DE1020090B58DB002AF786029
:1059B0006420794B9847794B9847002204210520B1
:1059C000774B98470200774B1A600022062105208A
:1059D000734B98470200744B1A6000221421022076
:1059E0006F4B98470200714B1A600022022105207C
:1059F0006B4B984702006E4B1A606A4B1B68002B7A
:105A00000BD0694B1B68002B07D0684B1B68002B21
:105A100003D0674B1B68002B03D1664B1800664B05
:105A20009847664B1800644B9847654B9847654B01
:105A30009847654B9847654B9847654B9847654B2A
:105A400098470C23FB18182200211800624B984736
:105A5000624B98470C23FB18614A1A602723FC18F5
:105A60000C23FB1818005F4B984703002370272373
:105A7000FB181B785BB2002B09D02723FB180022F0
:105A80009A56594B19000120584B9847FEE7584A3F
:105A9000584B19000120554B9847574B9847574A88
:105AA000574B11001800574B9847574A5048FF234F
:105AB0000093130002220821544CA04706E0002066
:105AC000534B9847534B1800534B98470220534B66
:105AD000984703001A0001235340DBB2002BEED19C
:105AE000FA239B0018002C4B98474D4B01221A704B
:105AF0004B4B1B785BB2012B0BD002DC002B05D08B
:105B000010E0022B08D0032B09D00BE0454B98473F
:105B10000CE0454B984709E0444B984706E0444B5E
:105B2000984703E03E4B00221A70C0460B23FB1837
:105B300000221A701B4B1B680B22B9180022180098
:105B40003C4B98470300012B05D10B23FB181B7816
:105B50005AB2334B1A70384B1B78DBB2002B17D07C
:105B6000364B1800364B98470400344A35493648BE
:105B700000230193012300932300344CA0472F4AB4
:105B8000334B19000120194B98472B4B00221A70F8
:105B90006420014B9847ABE7C5A80100BD45010053
:105BA000B98B0100AC040020B4040020B004002034
:105BB000B8040020D850030019C5010000510300AB
:105BC000FD4F010039500100E5530100194F01005C
:105BD0009D540100DD54010017310300BDEA0100AE
:105BE000C54D0100950502001C51030005C60100CA
:105BF0001C4C030048510300F53C0200ED5001002D
:105C0000B95001008D3D0200104C0300A5070200B1
:105C100089070200504300207D0E03002D4601003D
:105C2000A904002009570100A55701008155010072
:105C30001556010019970100540B00208000002028
:105C4000CF3403006C5103001C0700209DE10200CB
:105C50008851030090B583B000AF0200FB1D1A709D
:105C6000FB1D1B78032B06D8054B1868F91D002374
:105C70000A22044CA047C046BD4603B090BDC046B2
:105C8000AC040020618E010080B582B000AF786066
:105C90007B6800221A70C046BD4602B080BD00007D
:105CA00080B582B000AF02003960FB1D1A70FB1D89
:105CB0001B78012B0AD0022B0FD0002B14D10E4BD6
:105CC0000D4A91693A680A439A610FE00A4B0A4A01
:105CD000D1693A680A43DA6108E0074B064A116A5B
:105CE0003A680A431A6201E0172300E00023180013
:105CF000BD4602B080BDC0460004004080B582B001
:105D000000AF78607B6880221A707B6800225A702E
:105D10007B6801229A707B680022DA70C046BD461B
:105D200002B080BD80B500AF054B9B78DBB21A0096
:105D3000022313405A1E9341DBB21800BD4680BDBA
:105D40000020004180B500AF024B9847C046BD46D9
:105D500080BDC046ED49020080B500AF024B9847B8
:105D6000C046BD4680BDC046414A020080B582B0F3
:105D700000AF0200FB1D1A70074AFB1D1B781900BB
:105D80001F230B40012199400B0019008023D150A3
:105D9000C046BD4602B080BD00E100E080B584B0E1
:105DA00000AF78607B681B68FB60FB68DB690722DB
:105DB00013405A1E9341DBB21800BD4604B080BDAB
:105DC00080B582B000AF7860C0467B681800044B95
:105DD0009847031EF9D1C046BD4602B080BDC046FB
:105DE0009D5D010080B584B000AF78607B681B6862
:105DF000FB607B681B6818000D4B98470300180078
:105E00000C4B98477B6818000B4B9847FB68832224
:105E10001A75FB6883221A76FB681B68022293437B
:105E20001A00FB681A60C046BD4604B080BDC0467B
:105E3000C15E02006D5D0100C15D0100F0B597B06B
:105E400000AF786139610023FB6300233B650023C9
:105E5000FB643B2310229446BC44634400221A7026
:105E60007B691B68BB637B691B687B6323231022F0
:105E7000BA18D4187B6B1800C04B984703002370E6
:105E80000C2310229446BC4463441800BC4B984732
:105E90003B69DB697B643B691B6A3B647B6C002B61
:105EA00006D17B6B00211800B64B984703007B643A
:105EB0007B6CDAB20C2310218C46BC4463441A700C
:105EC0000C2310229446BC44634402225A707B6C1B
:105ED0001B0CDBB20C2210218C46BC446244110026
:105EE0001800A94B98473B6C002B06D17B6B012116
:105EF0001800A44B984703003B643B6CDAB20C23B8
:105F000010218C46BC4463441A700C231022944622
:105F1000BC44634402225A703B6C1B0CDBB20C2263
:105F200010218C46BC44624411001800964B9847DF
:105F30003B699A8A7B69DA803B69DA8A7B691A81D4
:105F40003B691B7E002B03D1904B9847031E02D068
:105F500080237B6501E000237B653B691B69002B87
:105F600004D03B691B697A6D13437B653B699B6871
:105F70007A6D13437B653B6924229B5C002B04D024
:105F80007B6D8022D20513437B653B699B6A002BA6
:105F900004D03B699B6A7A6D13437B653B692C2275
:105FA0009B5C002B05D13B699A6880239B049A4235
:105FB00004D17B6D8022120513437B653B692D2242
:105FC0009B5C002B04D07B6D8022120413437B6505
:105FD0003B692E229B5C002B04D07B6D8022D20378
:105FE00013437B65BB6B1A687B6D1A43BB6B1A60EE
:105FF000BB6B802252005A60232310229446BC447B
:1060000063441B781433DBB21800614B98470300DC
:10601000FB623B691B68FA2292005343BB623B69F7
:106020005B68FA22920053437B623B691B8E3B62A2
:10603000584BF86A984705000E00564BB86A9847C7
:10604000B860F960534BF86A9847534C534A544B25
:10605000A04703000C003B607C604E4B386A9847B9
:1060600002000B004C4C38687968A04703000C0014
:10607000180021004B4C00224B4BA04703000C00A2
:106080001A002300444CB868F968A04703000C00CC
:106090001A002300454C28003100A04703000C00E3
:1060A0001D002600BB6A5A003A4B100098470200B8
:1060B0000B003C4C28003100A04703000C001800E6
:1060C00021003A4C00223A4BA04703000C001D006F
:1060D0002600BB6A5A002F4B1000984702000B00A5
:1060E000344C28003100A04703000C0019002200A6
:1060F000314B0800110098470300FB633B699A6825
:1061000080239B049A426AD1224BF86A9847254C17
:1061100002000B00A04703000C001D0026001D4BD1
:10612000786A98471C4C0022244BA04703000C00BF
:106130001A0023001F4C28003100A04703000C0068
:1061400018002100194C0022194BA04703000C0035
:1061500019002200184B0800110098470300FB6447
:10616000FB6C002B2ED0164B796AF86A9847030017
:106170009A1EFB6CD31A3B6531E0C046F15D02000C
:10618000FD5C0100355C0200E1890200255D010033
:10619000A5870200B92F03002524030095D626E821
:1061A0000B2E113E9D1703000000244025290300FB
:1061B0000000F03FBD1D0300512F03000000084008
:1061C000ED1003007B6A5A00FB6AD3185A1E7B6AE3
:1061D00059001D4B100098470300013B3B65FB6BCA
:1061E000FF2B08DCFB6B002B05DB3B6DFF2B02DC80
:1061F0003B6D002B06DA3B2310229446BC446344DB
:1062000040221A703B2310229446BC4463441B78FE
:10621000402B0ED0FB6BFF221A403B6D1B04190074
:10622000FF231B040B401343FA6C12061A43BB6B8B
:10623000DA603B2310229446BC4463441B78180068
:10624000BD4617B0F0BDC046ED10030090B58BB051
:1062500000AFF860B9607A60FB68BA681A60FB68E2
:106260001B687B62FB681B6818003B4B9847030068
:106270003B623B6A0233FB613B6A1433BB61012220
:10628000FB699A40130019000220344B98471423ED
:10629000FB181800324B98477B681A7B1423FB18B5
:1062A0001A70BB69DBB21422BA18110018002D4B0A
:1062B0009847BB69DBB218002B4B98477B681B7B68
:1062C00000211800294B98477B6A1B680222134063
:1062D00001D01C233BE07B6A1B680122134001D0E4
:1062E000052334E0FB681B681722BC1818001A4B02
:1062F0009847030023701E4A1723FB181B781100D0
:1063000018001C4B98471723FB181A781A4B920059
:10631000F968D150FB6800221A76FB6800225A7691
:10632000FB6800225A83FB6800229A83FB682522BF
:1063300000219954FB6800221A627B6A14221A60B9
:106340007A68FB68110018000C4B9847030018008E
:10635000BD460BB090BDC046F15D0200A15C0100DE
:10636000895C010081860200C5860200A95B0200EB
:10637000CD2B0100555E0200A85600203D5E0100B5
:1063800080B584B000AF78607B681B68FB607B6879
:1063900018000F4B98477B6818000E4B98470E4B20
:1063A00098477B681B6818000C4B9847030018003F
:1063B0000B4B98470B4B98477B681800044B98474A
:1063C000FB6801221A60C046BD4604B080BDC046CD
:1063D000C15D0100E55D0100455D0100C15E020097
:1063E000FD870200595D010080B584B000AF786080
:1063F0007B681B68FB60FB681B7EDBB21A00022314
:1064000013400BD0FB6802221A76FB685B8B9BB2B1
:106410001A000223134011D0412310E0FB685B8B6C
:106420009BB21A000423134008D0FB685B68C022AB
:1064300092021A43FB685A60182300E000231800F8
:10644000BD4604B080BD80B584B000AF78607B6885
:106450001B68BB600E23FB1800221A800FE00E237E
:10646000FB180E22BA18128801321A807B681B8929
:106470000E22BA1812889A4201D312230EE0BB688A
:106480001B7EDBB21A000123134006D1BB681B7EC2
:10649000DBB21A0002231340E1D000231800BD46EE
:1064A00004B080BD90B585B000AF78600A00FB1CD9
:1064B0001A707B681B68FB60FB685B688022D202F5
:1064C0001A43FB685A60FB1C1A78FB685A620B235C
:1064D000FC187B681800074B984703002370FB6883
:1064E00001221A760B23FB181B781800BD4605B055
:1064F00090BDC0464764010080B500AF0020024B4C
:106500009847C046BD4680BD3565010080B500AFE7
:106510000120024B9847C046BD4680BD356501004D
:1065200080B500AF0220024B9847C046BD4680BDF3
:106530003565010080B584B000AF0200FB1D1A7004
:10654000FB1D1A78284B9200D358FB60FB681B6830
:106550009B7BDBB2FA68127E1340DAB2FB68597E8D
:106560000B23FB180A401A700B23FB181B7801221F
:10657000134008D0FB689B68FA6810009847FB68D6
:106580001B6801229A730B23FB181B78022213400D
:1065900008D0FB68DB68FA6810009847FB681B6846
:1065A00002229A730B23FB181B781022134008D089
:1065B000FB681B69FA6810009847FB681B6810228B
:1065C0009A730B23FB181B782022134008D0FB681A
:1065D0005B69FA6810009847FB681B6820229A7371
:1065E000C046BD4604B080BD9044002080B584B054
:1065F00000AF78600023FB607B68002B01D172B68E
:10660000FEE70820114B98470300BB60BB68002BD6
:1066100001D172B6FEE7BB68002B12D00C4B984735
:10662000BB687A681A60BB6800225A60094B1B6815
:10663000BA685A60074BBA681A60074B984701233B
:10664000FB60FB681800BD4604B080BD018A0100F4
:10665000C988010010010020ED88010080B588B0D4
:1066600000AFF860B9607A600123FB613D4B1B68A5
:10667000002B44D13B4B3C4A1A603AE0394B1B6833
:106680001B681B68BB61BB691800384B9847030047
:106690007B61FA687B69D3181B78202B05D0FA68D8
:1066A0007B69D3181B78002B1ED17A69B969FB6806
:1066B00018002F4B9847031E16D12A4B1B681B68E6
:1066C0001B7B5BB2002B19DBFB681800294B98473A
:1066D00003001A00234B1B681B681B7B5BB29A42AA
:1066E0000CD00023FB6109E01E4B1B685A681D4B50
:1066F0001A601C4B1B68002BC0D100E0C046194B30
:106700001B68002B0CD0FB69002B09D17A681A4951
:10671000BB681800194B9847124B00221A601CE006
:10672000104B1B68002B10D00E4B1B681B689B681E
:10673000FA687968B86898470300FB61FB69002B29
:106740000BD1084B00221A6007E07A680C49BB683D
:1067500018000A4B98470023FB61FB691800BD46EF
:1067600008B080BD580B002008010020CF34030082
:10677000DD340300E5670100E4510300FF3403004A
:106780003C52030080B586B000AFF860B9607A6013
:10679000114B1B68002B02D10F4B104A1A600E4B95
:1067A0001B681B685968BA68FB6818000C4B98474F
:1067B000094B1B685A68084B1A60074B1B68002B73
:1067C00002D100237B6101E001237B617B6918001A
:1067D000BD4606B080BDC0465C0B0020080100200D
:1067E000FF34030080B584B000AF78600F23FB183E
:1067F00000221A700023BB6018E07B681B78202BF6
:106800000FD1BB68012B0ED00F23FB181B785BB296
:10681000DBB20133DAB20F23FB181A700123BB601D
:1068200001E00023BB607B6801337B607B681B78E1
:10683000002BE2D1BB68012B09D10F23FB181B7879
:106840005BB2DBB2013BDAB20F23FB181A700F23E5
:10685000FB181B785BB21800BD4604B080BD000079
:1068600080B582B000AF78607B681800034B984712
:1068700003001800BD4602B080BDC04629A001003B
:1068800080B582B000AF78607B681800034B9847F2
:1068900003001800BD4602B080BDC04655A00100EF
:1068A00080B582B000AF78607B681800034B9847D2
:1068B00003009BB21800BD4602B080BD85B3010045
:1068C00080B582B000AF78607B681800044B9847B1
:1068D00003001B0C9BB21800BD4602B080BDC04631
:1068E00085B3010080B582B000AF78600A00BB1CA0
:1068F0001A807B681800084B984703001B0C1A0489
:10690000BB1C1B881A437B6811001800034B984777
:10691000C046BD4602B080BD85B30100ADB30100E5
:1069200080B582B000AF78600A00BB1C1A807B681B
:106930001800094B984703001B041A0CBB1C1B884A
:106940001B041A437B6811001800044B9847C0468B
:10695000BD4602B080BDC04685B30100ADB30100A5
:1069600080B582B000AF78607B681800034B984711
:1069700003009BB21800BD4602B080BD61680100F3
:1069800080B582B000AF78607B681800044B9847F0
:1069900003001B0C9BB21800BD4602B080BDC04670
:1069A0006168010080B582B000AF78600A00BB1C4E
:1069B0001A807B681800084B984703001B0C1A04C8
:1069C000BB1C1B881A437B6811001800034B9847B7
:1069D000C046BD4602B080BD616801003DA0010017
:1069E00080B582B000AF78600A00BB1C1A807B685B
:1069F0001800094B984703001B041A0CBB1C1B888A
:106A00001B041A437B6811001800044B9847C046CA
:106A1000BD4602B080BDC046616801003DA00100D6
:106A200080B584B000AF78600023FB600023BB60BA
:106A300018E0144BBA68D200D358002B0FD1114B79
:106A4000BA68D2007968D1500E4ABB68DB00D3180F
:106A50000433012252421A600123FB6005E0BB6847
:106A60000133BB60BB68092BE3DDFB68002B04D15D
:106A7000054B1B685A1C044B1A60C046BD4604B047
:106A800080BDC046640B0020B40B002090B585B0DB
:106A900000AF0023FB602B4B1B68BB60294B1A68BF
:106AA000294BD200D358002B35D0264B1A68264BE1
:106AB000D200D3581800254B984703007B60214B28
:106AC0001B68214ADB00D31804331A687B689A429A
:106AD00007D91C4B1B681C4ADB00D31804337A68A7
:106AE0001A60184B1A68184BD200D3581800184B6C
:106AF00098470300DBB21900124B1B68124ADB00F7
:106B0000D31804331B680A000321EA20114CA04764
:106B1000FB680133FB600B4B1B685A1C0E4B0A21B0
:106B2000100098470B001A00064B1A60FB68002BF8
:106B300004DC044B1A68BB689A42AFD1C046BD461C
:106B400005B090BDB80B0020640B002025B50100F6
:106B5000A1680100E9730100CD13030080B500AF07
:106B6000024B984703001800BD4680BDD1B5010017
:106B700090B585B002AF7860144B98477B68012BC5
:106B800002D1134B98470EE07B68022B04D1114BC6
:106B90001800114B984706E07B68002B03D00F4B81
:106BA00018000D4B98470E4B1B68002B09D10D495F
:106BB0000D480B4B0193042300930023C8220B4C78
:106BC000A047C046BD4603B090BDC046B57A01009F
:106BD0000D7001009C5203005D810100DC52030036
:106BE000600B002010530300F16B010029A5010088
:106BF00080B582B000AF7860044B9847031E01D087
:106C0000034B98470420034B9847F5E75170010068
:106C10008D6A0100C5A8010080B500AF604B1B68FC
:106C20000922DA655E4B1B6864220A2199545C4B89
:106C30001B6865220A219954594B1B6866220A2158
:106C40009954574B1B6867220F219954544B1B686A
:106C5000682205219954524B1B68692205219954D9
:106C60004F4B1B686A22052199544D4B1B686B22C0
:106C7000052199544A4B1B686C2205219954484BB5
:106C80001B6870220F219954454B1B6871220F21FC
:106C90009954434B1B6872220F219954404B1B6837
:106CA00073220F2199543E4B1B6874220F21995473
:106CB0003B4B1B6875220F219954394B1B68762278
:106CC0000F219954364B1B6877220F219954344B6E
:106CD0001B6878220F219954314B1B687C221021AC
:106CE00099542F4B1B687D22102199542C4B1B6803
:106CF0007E22102199542A4B1B687F22132199541C
:106D0000274B1B68802211219954254B1B68812237
:106D100010219954224B1B68822213219954204B35
:106D20001B688322132199541D4B1B688422132155
:106D300099541B4B1B68882200219952184B1B68E1
:106D40008A22A0219952164B1B688C22A02149004F
:106D50009952134B1B688E22F02149009952104B17
:106D60001B6890220F4999520D4B1B6892220E49C5
:106D700099520B4B1B6894220C499952084B1B6883
:106D800096220B499952064B1B6898228C21C90008
:106D90009952034B1B68074A1A66C046BD4680BD20
:106DA000780C0020FD02000052030000A203000046
:106DB00001040000BF04000080B500AF2E4B00228C
:106DC0005A822D4B5A8A2C4B1A802B4B0A229A82BC
:106DD000294B9A8A284B5A80274B1422DA82264B59
:106DE000DA8A254B9A80244B1E221A83224B1A8B57
:106DF000214BDA80204B2D225A831F4B5A8B1E4B7E
:106E00001A811D4B32229A831B4B9A8B1A4B5A8143
:106E1000194B3722DA83184BDA8B174B9A81164BB2
:106E20003C221A84144B1A8C134BDA81124B4122E8
:106E30005A84114B5A8C104B1A820F4B09229A8498
:106E40000D4B1322DA840C4B1D221A850A4B2C227F
:106E50005A85094B31229A85074B3622DA85064B33
:106E60003B221A86044B40225A86034B45229A86BF
:106E7000C046BD4680BDC046E80B002080B582B04C
:106E800000AF0200FB1D1A70FB1D1B78082B16D8E3
:106E90009A000D4BD3181B689F460C4B10E00C4B0F
:106EA0000EE00C4B0CE00C4B0AE00C4B08E00C4BDA
:106EB00006E00C4B04E00C4B02E00C4B00E00C4BEA
:106EC0001800BD4602B080BD1856030018530300D9
:106ED00060530300A8530300FC530300485403000D
:106EE00094540300E0540300345503008C55030010
:106EF000E855030090B587B000AF1723FB180022B8
:106F00001A70364B1B68002B0BD1344B1B68002BBF
:106F100005D1334B1800334B9847002359E0002329
:106F200057E02E4B1B681B6B012B01D1012350E056
:106F30002D4B1B68002B49D1EFF31083BB60BB685E
:106F40003B610123FB60FB6883F31088274B1B68C0
:106F50005A1C264B1A60214B1B6801221A63244BD2
:106F6000984703001800234B984703001A00172383
:106F7000FB181A701723FB181B78002B16D1172348
:106F8000FC1803201C4B9847030023701B4A17234F
:106F9000FB181B7819000320194B98471723FB187F
:106FA0001B78002219000320164B98471723FB1863
:106FB0001B781800144B98470C4B1B685A1E0B4B40
:106FC0001A603B697B607B6883F31088034B1B6806
:106FD0001B6B1800BD4607B090BDC046780C002062
:106FE0003C5603005D810100D80B0020D00B00202F
:106FF0005D6B0100A1680100417E01008056030025
:1070000071800100D5770100BD76010080B500AF29
:10701000024B9847C046BD4680BDC046F56E010094
:1070200080B500AF084B1B68002B03D0064B1B68D4
:1070300000221A63054B1B68002B02D0034B1B6810
:107040009847C046BD4680BD780C0020E00B00206C
:1070500080B500AF054B1B68002B03D0034B1B68AA
:107060001B6B00E000231800BD4680BD780C00209B
:1070700090B589B000AF0200FB1D1A70FB1D1B7894
:10708000002B57D02E4B1B68002B55D0FB1D1B78B7
:107090000F2B04D92B4B18002B4B98474DE02B4B53
:1070A0001B68002B04D02A4B1800274B984744E05C
:1070B000EFF31083FB60FB68FB6101233B613B69DD
:1070C00083F31088214B1B685A1C204B1A60214BFC
:1070D0001B681B6B002B22D01A23FC181E4B1800B8
:1070E0001E4B9847030023801923FB18FA1D1278C2
:1070F0001A701B4B984703007B617B69002B0ED0F5
:107100007B6902221A707B691A22BA1812885A8087
:107110007B691922BA1812785A70124B98470B4B98
:107120001B685A1E094B1A60FB69BB60BB6883F37E
:10713000108802E0C04600E0C046BD4609B090BDE0
:107140001C010020E85903005D810100D00B0020E4
:10715000285A0300780C0020FFFF00007183010013
:10716000157D01001983010080B58EB000AFF86075
:10717000B9607A60484B1B68002B00D188E07B68BF
:10718000002B03DA7B685B427B6301E07B687B63F7
:10719000EFF31083BB61BB693B630123FB61FB69B8
:1071A00083F310883D4B1B685A1C3C4B1A60BB682C
:1071B000002B05D03A4B1A687B68D218384B1A60FE
:1071C000354B1B681B6B002B57D0FF20354B984766
:1071D00003001A002F23FB181A707B6B324A190028
:1071E0001000324B984702002C23FB181A80304BBA
:1071F00098470300BB62BB6A002B3ED0BB6A2F22BC
:10720000BA1812785A70BB6A00221A70BB6A2C2214
:10721000BA1812885A80274B9847BB68224A19002F
:107220001000224B984702002623FB181A802523C2
:10723000FB1800221A701E4B984703003B623B6A02
:10724000002B1AD03B6A2622BA1812885A803B6A51
:107250002522BA1812785A70FB68DBB20133DAB211
:107260003B6A1A70FB68DAB2BB6A1A70114B984716
:10727000094B1B680A4A12681A65084B1B685A1E9C
:10728000064B1A603B6B7B617B6983F3108800E0DF
:10729000C046BD460EB080BD780C0020D00B00204B
:1072A000E40B002071830100FFFF00003575010031
:1072B000157D01001983010090B58BB000AFF86017
:1072C0007A600B23FB180A1C1A70FB68FE2B04D98A
:1072D000394B1800394B98476BE00B23FB181B7890
:1072E000082B04D9364B1800344B984761E0354BD6
:1072F0001A680B23FB181B786421D3185B181B78C2
:107300001A007B689A4204D22F4B18002B4B9847E7
:107310004FE02E4B1B68002B04D02D4B1800274B41
:10732000984746E02B4B1B78002B41D0EFF310839E
:107330007B617B697B620123BB61BB6983F310883E
:10734000224B1B685A1C214B1A601E4B1B681B6B7F
:10735000002B22D02223FC181F4B18001F4B9847EC
:10736000030023802123FB187A681A701C4B98476E
:107370000300FB61FB69002B0FD0FB692222BA18C6
:1073800012885A80FB68DAB2FB691A70FB69212205
:10739000BA1812785A70134B98470C4B1B685A1E38
:1073A0000A4B1A607B6A3B613B6983F3108800E0FB
:1073B000C046BD460BB090BD985A03005D810100E8
:1073C000D05A0300780C0020185B0300D00B00207B
:1073D000605B0300DC0B0020FFFF000071830100F5
:1073E000157D01001983010080B58AB000AFF860F7
:1073F0007A603B600B23FB180A1C1A70FB68FE2B9B
:1074000004D9404B1800404B984777E00B23FB18FA
:107410001B78082B04D93D4B18003B4B98476DE077
:107420003B4B1A680B23FB181B786421D3185B189D
:107430001B781A007B689A4204D2364B1800324BF4
:1074400098475BE0344B1B68002B04D0334B18008B
:107450002D4B984752E0EFF310837B617B697B6291
:107460000123BB61BB6983F310882B4B1B685A1C3B
:10747000294B1A60264B1B681B6B002B34D0284B02
:107480001B78002B30D0FF20264B984703001A00B2
:107490002323FB181A703B681900FF20224B9847E2
:1074A00002002223FB181A702123FB187A681A7035
:1074B0001E4B98470300FB61FB69002B14D0FB694E
:1074C0002322BA181278DA70FB68DAB2FB691A70F4
:1074D000FB692122BA1812785A70FB692222BA1865
:1074E00012789A70124B98470B4B1B685A1E0A4B26
:1074F0001A607B6A3B613B6983F31088BD460AB022
:1075000080BDC046985B03005D810100D85B03002D
:10751000780C0020285C0300D00B0020785C03006E
:10752000DC0B00207183010035750100157D010021
:107530001983010080B584B000AF786039607B6842
:10754000FF2B09D07B68194A934205D0184B1800CD
:10755000184B98473B6824E03A687B689A4201D808
:107560003B681EE0144B98470300FB60FB68002B50
:1075700014D0FB6801221A707B68DB433A68134021
:107580001B0ADAB2FB685A707B68DB433A68134027
:107590001B0C9AB2FB685A80084B98473B687A6884
:1075A00013401800BD4604B080BDC046FFFF000078
:1075B000B05C03005D810100157D010019830100AD
:1075C00080B58AB000AF786039602623FB180022AE
:1075D0001A807B68FE2B04D92D4B18002D4B984741
:1075E00053E02D4B1B68002B04D02C4B1800294B6B
:1075F00098474AE0EFF310833B613B693B6201230C
:107600007B617B6983F31088234B1B685A1C224BD8
:107610001A60234B1B681B6B002B2CD0214B1B7853
:10762000002B28D0FF20204B984703001A001F236F
:10763000FB181A703B681D4A190010001C4B984734
:1076400002002623FB181A801A4B98470300BB61DF
:10765000BB69002B0FD0BB691F22BA1812785A7071
:107660007B68DAB2BB691A70BB692622BA18128825
:107670005A80114B9847084B1B685A1E064B1A60DC
:107680003B6AFB60FB6883F31088BD460AB080BD8F
:10769000EC5C03005D810100D00B0020445D030021
:1076A000780C0020DC0B002071830100FFFF00003C
:1076B00035750100157D01001983010090B589B071
:1076C00000AF0200FB1D1A70FB1D1B780F2B04D9A5
:1076D000344B1800344B984761E0EFF31083FB60A4
:1076E000FB68FB6101233B613B6983F310882F4BEF
:1076F0001B685A1C2D4B1A602D4B1B78FA1D1278F3
:107700009A4242D02B4B1B681B6B002B3DD02A4B5F
:1077100000221A601A23FC18284B1800284B98479F
:1077200003002380224BFA1D12781A701923FB18CC
:107730001F4A12781A70234B984703007B617B69BC
:10774000002B22D01A4B1B78190003201E4B9847A0
:107750000300012B03D17B6907221A7002E07B69C9
:1077600006221A707B691A22BA1812885A807B691D
:107770001922BA1812785A700D4B1B780122190081
:107780000320124B9847124B9847084B1B685A1E10
:10779000064B1A60FB69BB60BB6883F31088BD466B
:1077A00009B090BD7C5D03005D810100D00B00201D
:1077B000DC0B0020780C0020BC0B0020FFFF000039
:1077C00071830100157D0100B9790100157901006F
:1077D0001983010090B583B000AF040008001100C8
:1077E000FB1D221C1A70BB1D021C1A707B1D0A1C7B
:1077F0001A70FB1D1B78082B04D91A4B18001A4B62
:1078000098472CE0194B1A68FB1D1B786421D3188C
:107810005B181B78BA1D12789A4204D9144B1800D1
:10782000114B98471BE0114B1C68FB1D1A78BB1DC0
:107830001B78110018000F4B9847030018000B4BE2
:107840001A68FB1D1B787021D3185B181B78C318AE
:1078500001339C22E3189B187A1D12781A70BD46DA
:1078600003B090BD105F03005D810100780C002023
:107870005C5F0300697D010090B583B000AF02003A
:10788000FB1D1A70BB1D0A1C1A70FB1D1B78082BF0
:1078900005D91B4B18001B4B984700232BE01A4BB4
:1078A0001A68FB1D1B786421D3185B181B78BA1D5E
:1078B00012789A4205D9154B1800124B98470023AD
:1078C00019E0114B1C68FB1D1A78BB1D1B781100B9
:1078D00018000F4B9847030018000B4B1A68FB1D4C
:1078E0001B787021D3185B181B78C31801339C22B6
:1078F000E3189B181B781800BD4603B090BDC04626
:107900009C5F03005D810100780C0020E85F0300AC
:10791000697D010090B583B000AF0400080011003C
:10792000FB1D221C1A70BB1D021C1A707B1D0A1C39
:107930001A70FB1D1B78082B04D91A4B18001A4B20
:1079400098472BE0194B1A68FB1D1B786421D3184C
:107950005B181B78BA1D12789A4204D9144B180090
:10796000114B98471AE0114B1C68FB1D1A78BB1D80
:107970001B78110018000F4B9847030018000B4BA1
:107980001A68FB1D1B787021D3185B181B78C3186D
:107990009C22E3189B187A1D12781A70BD4603B01A
:1079A00090BDC046286003005D810100780C002076
:1079B0006C600300697D010090B583B000AF0200E8
:1079C000FB1D1A70BB1D0A1C1A70FB1D1B78082BAF
:1079D00005D91A4B18001A4B984700232AE0194B77
:1079E0001A68FB1D1B786421D3185B181B78BA1D1D
:1079F00012789A4205D9144B1800114B984700236E
:107A000018E0104B1C68FB1D1A78BB1D1B78110079
:107A100018000E4B9847030018000A4B1A68FB1D0C
:107A20001B787021D3185B181B78C3189C22E318AD
:107A30009B181B781800BD4603B090BDA8600300DA
:107A40005D810100780C0020EC600300697D01007D
:107A500090B583B000AF0200FB1D1A70114B1B687C
:107A600067229B5CFA1D12789A4204D90E4B1800CB
:107A70000E4B984713E00B4B1C68FB1D1B78032132
:107A800018000B4B984703001900064B1B68732224
:107A90009B5CCB189C22E3189B1800221A70BD46F1
:107AA00003B090BD780C0020286103005D810100C7
:107AB000697D010080B500AF754B1B68002B03D1B9
:107AC000734B744A1A6006E0714B1B681B78DBB27B
:107AD000012B00D1D8E0704B1A68704B1A606C4BC8
