S01300004170706C69636174696F6E2E737265639D
S214000000D87600200D750100057601000576010002
S21400001000000000000000000000000000000000DB
S214000020000000000000000000000000A5660000C0
S2140000300000000000000000C16700000968000022
S2140000400576010005760100057601005D360100A3
S214000050892B010005760100610400000576010089
S214000060A5050000013D0100193D0100313D0100DC
S214000070493D0100613D0100793D010055740100D4
S214000080697401007D74010091430000A5430000DF
S214000090B94300000000000000000000E902000074
S2140000A005760100250400000576010005760100AE
S2140000B00000000010B5064C2378002B07D1054B36
S2140000C0002B02D0044800E000BF0123237010BDBF
S2140000D00003002000000000A0640200084B10B5DA
S2140000E0002B03D00749084800E000BF0748036814
S2140000F0002B00D110BD064B002BFBD09847F9E72C
S2140001000000000004030020A0640200A0640200B7
S2140001100000000080B584B000AF78607B681B6884
S214000120FB60FB685B7EDBB25BB2002B01DA01236F
S21400013000E000231800BD4604B080BD80B584B042
S21400014000AF78607B681B68FB60C0467B68180061
S2140001500B4B9847031EF9D1FB681B7BDBB20222D0
S2140001601343DAB2FB681A73C0467B681800044B68
S2140001709847031EF9D1C046BD4604B080BDC046B0
S2140001801501000080B584B000AF78600A00FB1C43
S2140001901A707B681B68FB60FB68FA1C12789A75FD
S2140001A0C046BD4604B080BD80B584B000AF020036
S2140001B0FB1D1A70FB1D1A78474B9200D358FB6044
S2140001C0FB681B681B7EDAB2FB681B68DB7DDBB254
S2140001D01340DBB2BB60BB680122134045D0FB680E
S2140001E01B6801221A76C046FB6818003B4B9847EE
S2140001F0031EF9D1FB685B69991CFA685161FA68BD
S2140002001268528B92B21A80FB681B8B9BB2013B22
S2140002109BB2FA68191C1183002B08D0FB685B7F21
S214000220002B22D0FB6818002D4B98471DE0FB687A
S214000230012118002B4B9847FB681B7FDBB2052B70
S21400024013D1FB6800221A77FB68DB7E1A000123B5
S21400025013400AD0FB689B7E1A000123134004D08B
S214000260FB689B68FA6810009847BB680422134036
S21400027014D0FB681B6804221A76FB68DB7E1A0023
S214000280022313400AD0FB689B7E1A000223134009
S21400029004D0FB68DB68FA6810009847BB68022247
S2140002A0134014D0FB681B6802221A76FB68DB7EBC
S2140002B01A00042313400AD0FB689B7E1A0004230E
S2140002C0134004D0FB681B69FA6810009847C046C4
S2140002D0BD4604B080BDC046B441002015010000F4
S2140002E03D0100008501000080B500AF0020024BF4
S2140002F09847C046BD4680BDA901000080B582B0C3
S21400030000AF0200FB1D1A70074AFB1D1B78190080
S2140003101F230B40012199400B0019008023D15068
S214000320C046BD4602B080BD00E100E080B584B0A6
S21400033000AF0200FB1D1A70FB1D1A78374B9200A7
S214000340D358FB60FB681B68BB60BB689B79DBB25D
S2140003501A00012313400ED0BB6801229A71FB6875
S2140003601433002B07D0FB685B7C002B03D0FB68A4
S2140003709B6900209847BB689B79DBB21A00022372
S214000380134047D0BB6802229A71FB689B899BB2D8
S214000390002B33D0FB689A68FB68DB899BB2591C3C
S2140003A088B2F968C8815B00D3181B889AB2BB680C
S2140003B09A81FB689B899BB2013B9AB2FB689A8143
S2140003C0FB689B899BB2002B18D1FB68202200217A
S2140003D09954BB6802221A71BB6802229A711920CE
S2140003E00F4B9847FB681433002B07D0FB689B7CA9
S2140003F0002B03D0FB68DB6900209847FB681433AA
S214000400002B07D0FB681B7C002B03D0FB685B69C6
S21400041000209847C046BD4604B080BDB8410020C5
S214000420FD02000080B500AF0020024B9847C04692
S214000430BD4680BD2D03000080B500AF024B984737
S214000440C046BD4680BDC046E927010080B500AF66
S214000450024B9847C046BD4680BDC0463D280100B9
S21400046080B586B000AF494B9847494B1B8C9BB272
S214000470DAB21723FB180F210A401A701723FB184D
S2140004801A78444B9200D3583B61414A3B691B782B
S2140004900F210B40D9B23F23D1543D490F23FB18FF
S2140004A04E228A5C1A703B691B783B4A1B01D318A4
S2140004B002331B889BB2BB603B691B78374A1B0123
S2140004C0D31802331B889BB27B60BA687B68D21A4B
S2140004D03B695A610F23FB181B780122134016D084
S2140004E02B4A4E230121D1543B6910225A743B6992
S2140004F01B7C1A000123134042D03B695B68002B2B
S2140005003ED03B695B683A691000984738E00F2395
S214000510FB181B780222134016D01D4A4E230221D8
S214000520D1543B6900225A743B691B7C1A00022393
S214000530134025D03B699B68002B21D03B699B6804
S2140005403A69100098471BE00F23FB181B7804221B
S214000550134015D00E4A4E230421D1543B6906227F
S2140005605A743B691B7C1A000423134008D03B696D
S214000570DB68002B04D03B69DB683A6910009847BB
S214000580074B9847C046BD4606B080BD39040000FC
S2140005900048004170030020C041002020030020D6
S2140005A04D04000080B582B000AF154B1B697B6020
S2140005B0144B9B693B60124B9A683B681A43104B7E
S2140005C09A60104B104A9A6108E07B685A687B680C
S2140005D01B68180090477B689B687B607B68002BD5
S2140005E0F3D1074BDB683B60054B9B683A68D24308
S2140005F01A40034B9A60C046BD4602B080BDC04656
S2140006000000002000040042FFFF0F0F80B582B0FC
S21400061000AF02003960FB1D1A70FB1D1B78012B12
S2140006200AD0022B0FD0002B14D10E4B0D4A916925
S2140006303A680A439A610FE00A4B0A4AD1693A6857
S2140006400A43DA6108E0074B064A116A3A680A4329
S2140006501A6201E0172300E000231800BD4602B02E
S21400066080BDC0460004004080B500AF02210220D5
S214000670074B9847074B01221A70C046054B1B785C
S214000680DBB21A0001231340F8D1C046BD4680BD38
S2140006900D0600000004004280B584B000AF78600C
S2140006A07B681B68FB60FB68DB69072213405A1EE9
S2140006B09341DBB21800BD4604B080BD80B582B061
S2140006C000AF7860C0467B681800044B9847031E4E
S2140006D0F9D1C046BD4602B080BDC04699060000AE
S2140006E080B584B000AF78607B681B68FB60FB68F1
S2140006F01B681B01DB0FDBB21A000B23FB18511E15
S2140007008A411A700823FB187A68528B1A807B6815
S2140007109B8B9AB20823FB180821791809888A1A35
S2140007201A807B689B8B9BB2013B9AB27B689A834C
S2140007300B23FB181B78002B10D07B68DB7A002B72
S2140007401CD07B689B8B9BB2012B17D1FB685B6828
S2140007508022D2021A43FB685A600FE07B68DB7A7D
S214000760002B0BD07B689B8B9BB2002B06D1FB68C3
S2140007705B688022D2021A43FB685A607B689B8BB8
S2140007809BB2002B0ED17B689B7A002B0AD07B682D
S21400079018000E4B9847FB685B68C02292021A430B
S2140007A0FB685A607B681800084B98477B681A6A93
S2140007B00823FB181B88D318FA682821525CD2B28B
S2140007C01A70C046BD4604B080BDC046BD060000D7
S2140007D080B584B000AF78607B681B68FB60FB6800
S2140007E05B8B9BB21A000423134004D07B6825223F
S2140007F01E21995424E00A23FB187A68528B1A802B
S2140008007B689B8B9AB20A23FB180A217918098801
S2140008108A1A1A807B689B8B9BB2013B9AB27B68D4
S2140008209A837B681800084B98477B681A6A0A23E5
S214000830FB181B88D3181B78D9B2FB68282299545A
S214000840BD4604B080BDC046BD06000080B584B07D
S21400085000AF78607B681B68FB60FB681B7EDBB2C2
S2140008601A00012313402BD0FB6801221A76FB687E
S2140008705B8B9BB21A000223134004D07B682522B0
S214000880412199541CE0FB685B8B9BB21A00042341
S214000890134015D07B682522182199547B680022C6
S2140008A09A837B689B7A002B0AD07B681800134BD0
S2140008B09847FB685B68C02292021A43FB685A603E
S2140008C07B689B8B9AB27B685A837B6825229B5CED
S2140008D0DBB2052B0ED17B6824229B5CDBB2002B9F
S2140008E004D17B681800064B984703E07B68180025
S2140008F0044B9847C046BD4604B080BDBD06000008
S214000900D1070000E106000080B584B000AFF860B3
S214000910B960FB1D1A70FB1D1B78FA6802339B003A
S214000920D3180433BA681A60FB681B7EDBB25AB26F
S214000930FB1D1B78012199400B005BB213435BB291
S214000940DAB2FB681A76C046BD4604B080BD000029
S21400095090B587B000AF786039607B681B683B61F4
S2140009603B685A687B681A623B685A887B689A8339
S2140009707B682422012199547B68252205219954FD
S2140009803B691B681B01DB0FDBB21A000F23FB1849
S214000990511E8A411A703B685B7A002B06D03B6872
S2140009A09A7A7B68110018003B4B98470F23FB1878
S2140009B01B78002B0BD03B685B88012B07D13B696B
S2140009C05B688022D2021A433B695A6005E03B69A5
S2140009D05B68324A1A403B695A603B681B7A002BB8
S2140009E045D03B681B885A003B685B7A9B031343E1
S2140009F01A0080231B021A433B695A621723FC180D
S214000A007B681800264B9847030023703B695B6899
S214000A10224A1A403B695A601723FB181B78002BA2
S214000A2007D11723FC187B6818001E4B9847030055
S214000A3023701723FB181B78002B14D13B69032265
S214000A409A753B681B881B0A9BB2782213439BB29D
S214000A505A003B685B7A9B031343012213431A0038
S214000A603B695A6212E01723FB181B780FE03B69BC
S214000A7003229A753B681B885B0001221A433B6879
S214000A805B7A9B0313431A003B695A6200231800E3
S214000A90BD4607B090BDC0463D430000FFFFFBFFCC
S214000AA0DF4200008142000080B582B000AF78606F
S214000AB039607B689B8B9BB2002B01D005230CE032
S214000AC07B6801229A727B680122DA723A687B6838
S214000AD011001800034B984703001800BD4602B0EB
S214000AE080BDC0465109000080B584B000AF786074
S214000AF039607B681B68FB603B685B7A002B06D01E
S214000B003B689A7A7B68110018001E4B9847FB6872
S214000B105B681D4A1A40FB685A603B685A687B68E7
S214000B201A623B685A887B689A837B682422002175
S214000B3099547B68252205219954FB6803229A75EF
S214000B403B681B7A002B0DD03B681B885A003B681D
S214000B505B7A9B0313431A0080231B021A43FB682D
S214000B605A6209E03B681B885A003B685B7A9B0325
S214000B7013431A00FB685A6200231800BD4604B0EF
S214000B8080BDC0463D430000FFFFFBFF80B582B03E
S214000B9000AF786039607B689B8B9BB2002B01D0DE
S214000BA005230CE07B6801229A727B680122DA72C8
S214000BB03A687B6811001800034B9847030018003A
S214000BC0BD4602B080BDC046E90A000080B586B0CA
S214000BD000AF0200FB1D1A70FB1D1A78934B9200A3
S214000BE0D3587B617B691B683B613B691B681B01B3
S214000BF0DB0FDBB21A000F23FB18511E8A411A7056
S214000C000E23FB187A69527E1A707B691B7EDAB255
S214000C100E23FB180E21791809780A401A707B6992
S214000C205B8B9BB2002B09D17B699B8B9BB2002B05
S214000C3004D07B6918007E4B984770E07B695B8B1D
S214000C409BB2002B39D07B699B8B9BB2002B34D197
S214000C507B6925229B5CDBB2052B2ED17B69242287
S214000C609B5CDBB2002B28D13B6903221A757B699B
S214000C7000225A837B692522002199547B699B7A3E
S214000C80002B0BD07B6918006A4B98473B695B6862
S214000C90C02292021A433B695A6002E03B69012275
S214000CA01A760E23FB181B780122134037D07B6977
S214000CB0DB687A691000984731E07B695B8B9BB2F2
S214000CC0002B2CD07B699B8B9BB2002B27D03B69DB
S214000CD05B8B9BB21A002023134011D10F23FB1805
S214000CE01B7801225340DBB2002B04D17B699B8B1F
S214000CF09BB2012B04D07B692522412199540EE03A
S214000D007B6924229B5CDBB2002B04D17B69180034
S214000D10494B984703E07B691800484B98477B6926
S214000D205B8B9BB2002B47D07B699B8B9BB2002BC7
S214000D3042D17B6925229B5CDBB2052B3CD17B69CB
S214000D4024229B5CDBB2012B36D13B691B7EDBB2D7
S214000D501A000223134002D03B6902221A763B692E
S214000D6003221A757B6900225A837B69252200219B
S214000D7099540E23FB181B78022213400BD07B6974
S214000D8024229B5CDBB2012B05D17B691B697A6947
S214000D901000984710E00E23FB181B780122134022
S214000DA00AD07B6924229B5CDBB2002B04D17B69D2
S214000DB0DB687A69100098477B6925229B5CDBB26A
S214000DC0052B2ED07B6925229B5CDBB2002B28D01E
S214000DD03B6903221A757B6900225A837B690022CD
S214000DE09A837B6925229B5CDBB2412B0ED07B6904
S214000DF09B7A002B0AD07B6918000E4B98473B69FC
S214000E005B68E022D2021A433B695A600E23FB1845
S214000E101B780422134004D07B695B697A69100052
S214000E209847C046BD4606B080BDC046485600201E
S214000E304D080000BD060000D1070000E1060000D6
S214000E4080B500AFBFF34F8F024B034ADA60BFF3A3
S214000E504F8FFEE700ED00E00400FA0580B500AF16
S214000E60024B9847C046BD4680BDC046410E0000B6
S214000E7080B586B000AF78609C4B18009C4B9847B6
S214000E809C4B18009A4B98479B4B1800984B9847DA
S214000E909A4B1800964B9847994B1800944B9847D6
S214000EA0984B1800924B9847974B1800904B9847D2
S214000EB0964B18008E4B98471723FB1800221A7083
S214000EC0934B1800934B9847032200210120924B26
S214000ED098470200914B1A60904B1B68002B07D175
S214000EE08F4B190003208F4B984700208E4B984756
S214000EF00C23FB1818008D4B98470C23FB181B7807
S214000F000A2B04D00C23FB181B780D2B37D1884BEB
S214000F101800804B9847874B00221A70864B002299
S214000F201A708649864B31221800864B9847844BA8
S214000F303122002199548449804B64221800834B47
S214000F40984703003B61804B6322002199547E4BF7
S214000F501800704B98473B69002BECD11723FB1801
S214000F6000221A70754B322200211800784B9847E1
S214000F70754B642200211800754B9847B5E06D4B01
S214000F801B78002B59D06C4B1B78032B0CD86A4B64
S214000F901B785A1CD1B2684A11701A000C23FB1831
S214000FA019786C4B995405E0624B00221A70624B1C
S214000FB000221A70604B1B78012B99D9664A654B44
S214000FC011001800654B9847031E2FD064495B4BF1
S214000FD01B221800634B9847584B18004D4B9847F8
S214000FE01723FB1800221A70544B322200211800D7
S214000FF0574B98475249514B31221800514B98474E
S2140010004E4B1800584B98470300302B06D84C4BD5
S2140010101800554B98470300DAB200E03122172338
S214001020FB181A70454B18003A4B9847414B002264
S2140010301A70414B00221A705AE70C23FB181B78D3
S2140010400D2B00D154E70C23FB181B78082B04D07B
S2140010500C23FB181B787F2B1CD10823FB18434A54
S21400106012681A600823FB1818002A4B98471723A3
S214001070FB181B78002B37D01723FB181A7817237A
S214001080FB18013A1A701723FB181B782B4A00210D
S214001090D15429E00C23FB181B781B2B06D1254BBB
S2140010A001221A70244B00221A7021E71723FB181E
S2140010B01B78312B0ED81723FB181B780C22BA1876
S2140010C011781E4AD1541723FB181A781723FB18D9
S2140010D001321A700C23FB1800225A700C23FB18DE
S2140010E018000C4B984703E7C04601E79825020016
S2140010F08544000008260200A8250200B825020044
S214001100C8250200D8250200E8250200F8250200BE
S214001110FC220200A9A30000496A00001042002039
S214001120B024020095A4000035880000711100006C
S214001130D02402009403002095030020CC03002056
S214001140980300200713020000040020F544000066
S2140011501F0F020064040020D424020021120200A3
S214001160D8240200DD110200D7120200E02402009B
S21400117080B584B000AF78607B6818000D4B984748
S2140011800300FB600FE00C4B1A6801235B4219005A
S21400119010000A4B9847031E05D07B681800054BC5
S2140011A098470300FB60FB680133ECD0C046BD46A1
S2140011B004B080BD45A4000010420020017A000063
S2140011C080B500AF0A4B00221A600A4B1B68084A1B
S2140011D011001800084B9847054B1B68002B03D0DE
S2140011E0064B802252051A60C046BD4680BDC046EA
S2140011F068040020104200207973000004ED00E02F
S21400120090B587B000AFF860B9607A601723FB1816
S2140012101B221A701723FB181B78084A08480F2150
S214001220084CA047064AB968FB681800054B984763
S21400123000231800BD4607B090BDC046E424020057
S214001240840300207911020080B584B000AFF860F6
S214001250B9607A600220034B984700231800BD4609
S21400126004B080BDED3A000080B584B000AFF860F1
S214001270B9607A60034B984700231800BD4604B057
S21400128080BDC0465D0E000090B585B000AFF8602A
S214001290B9607A60054B064AB968F868054CA047FD
S2140012A000231800BD4605B090BDC046EC240200E1
S2140012B0F42402007911020090B587B000AFF86000
S2140012C0B9607A60074B984703007B617B69064AE2
S2140012D0B968F868054CA04700231800BD4607B05B
S2140012E090BDC0469D8B00000C25020079110200BF
S2140012F090B58FB000AFF860B9607A601823FB181D
S21400130000221A701823FB1800225A701823FB18A4
S21400131000221A701823FB1800225A701C23FB1890
S21400132000221A701C23FB181422BA189A601C2379
S214001330FB180122DA811C23FB181822BA185A60FF
S2140013401C23FB1801229A812C4B18002C4B984723
S21400135000237B6346E07B6B2A4A2B480F212B4CED
S214001360A047294B1800264B984700233B632FE0E5
S2140013707B6BDAB23B6BDBB2D318DBB2DB18DAB2CC
S2140013801C23FB181A701C23FB1864211800204B22
S21400139098470300FB62FB6A002B0CD11C23FB184A
S2140013A01B78184A18480F21184CA047164B1800EF
S2140013B0134B984709E0144B164A11881980927807
S2140013C09A70114B18000E4B98473B6B01333B63EA
S2140013D03B6B0F2BCCDD104B1800094B98477B6BF3
S2140013E010337B637B6B7F2BB5DD0B4B1800044BF8
S2140013F0984700231800BD460FB090BD2825020070
S214001400A9A300005C2502008403002079110200D5
S214001410591E000064250200D0240200B0B588B032
S21400142002AFF860B9607A602C4B984703007B6186
S2140014301323FB1800221A701323FA187B69110075
S2140014401800274B98471323FB181B78002B40D017
S214001450244B062200211800234B9847214A7B691B
S21400146011001800214B98471E4B00229B5E180067
S2140014701F4B9847021C1F4B1A601A4B02229B5E9A
S21400148018001B4B9847021C1A4B5A60154B042237
S2140014909B5E1800164B9847021C164B9A60154B1D
S2140014A01A68154B101C98470500124B5A68124BC9
S2140014B0101C984704000F4B9A680F4B101C984757
S2140014C003000E4AB968F868019300942B000C4C90
S2140014D0A04700231800BD4606B0B0BDD9220000C4
S2140014E0C92000006C0400201F0F02000521000028
S2140014F09120000074040020C5F401006825020055
S2140015007911020080B586B000AFF860B9607A60E5
S214001510094B984703007B617B691800074B984787
S214001520074AB968FB681800064B9847002318005E
S214001530BD4606B080BDC046F9170000ED15000098
S214001540842502007911020090B585B000AF78605E
S2140015500B23FA18786801230021054CA0470300E6
S214001560FB600B23FB181B781800BD4605B090BD2A
S2140015709316000090B585B000AF786008001100A3
S214001580FB1C021C1A70BB1C0A1C1A700F23FB18CB
S214001590BA1C12781A70FB1C1B780433D9B20F23BE
S2140015A0FA1878680123034CA047C046BD4605B02C
S2140015B090BDC0464D16000090B585B000AF78606F
S2140015C00A00FB1C1A700F23FB18FA1C12781A70FC
S2140015D00F23FA18786801230321034CA047C0465E
S2140015E0BD4605B090BDC0464D16000090B585B00E
S2140015F000AF78600F23FB1801221A700F23FA1829
S214001600786801230C21034CA047C046BD4605B0B0
S21400161090BDC0464D16000090B585B000AF78600E
S2140016200A00FB1C1A700F23FB18FA1C12781A709B
S2140016300F23FA18786801230121034CA047C046FF
S214001640BD4605B090BDC0464D160000B0B586B08C
S21400165000AFF86008007A6019000B23FB18021C24
S2140016601A700823FB180A1C1A80FB681C68FB68A3
S21400167098680823FB181D887A680B23FB181978CE
S2140016802B00A04703007B617B691800BD4606B0AF
S214001690B0BDB0B586B000AFF86008007A6019003B
S2140016A00B23FB18021C1A700823FB180A1C1A804E
S2140016B0FB685C68FB6898680823FB181D887A68D6
S2140016C00B23FB1819782B00A04703007B617B696E
S2140016D01800BD4606B0B0BD80B586B000AFF86055
S2140016E008007A6019000B23FB18021C1A700823E6
S2140016F0FB180A1C1A80224B0B22BA1812781A7092
S2140017001623FB1800221A8012E01623FB181B88EB
S21400171001331622BA18128879688A181178184A7E
S214001720D1541623FB181A881623FB1801321A8088
S2140017301623FA180823FB1812881B889A42E4D34B
S214001740104B5A221A700F4B0D4A5A600823FB188A
S2140017501B8801339AB20B4BDA810A4B0822BA185F
S21400176012889A81074B7A689A60064B64211800A3
S214001770054B984703001800BD4606B080BDC0461E
S2140017802442002014420020591E000080B584B078
S21400179000AFF86008007A6019000B23FB18021CE3
S2140017A01A700823FB180A1C1A80104B0B22BA1852
S2140017B012781A700E4B5A221A700D4B7A689A607D
S2140017C00B4B0822BA1812889A81094B0122DA813B
S2140017D0074B064A5A60064B642264211800054BE4
S2140017E0984703001800BD4604B080BD2442002080
S2140017F014420020311F000080B500AF014B1800D6
S214001800BD4680BD1400002080B582B000AF002326
S2140018107B600F4B012118000E4B98470C4B0021A4
S21400182018000D4B98470A4B0122002118000B4B5D
S2140018309847074B002201211800084B9847044B95
S2140018401800074B98477B681800BD4602B080BD5D
S21400185014000020B91500001916000075150000C8
S214001860ED15000080B582B000AF0200FB1D1A70B7
S214001870064BFA1D127811001F220A4001219140E2
S2140018800A001A60C046BD4602B080BD00E100E016
S21400189080B584B000AF78607B681B68FB60FB682F
S2140018A0DB69072213405A1E9341DBB21800BD467F
S2140018B004B080BD80B582B000AF7860C0467B685B
S2140018C01800044B9847031EF9D1C046BD4602B027
S2140018D080BDC0469118000080B582B000AF786029
S2140018E07B6864221A607B681B4A5A607B68002209
S2140018F09A607B6800221A737B6800221A767B68DF
S214001900802292031A617B6801225242DA827B6847
S214001910012252429A827B680022DA617B680022AA
S2140019201A627B682422002199547B6800229A62FE
S2140019307B682C22002199547B682D220021995423
S2140019407B682E22002199547B68D7221A86C046CF
S214001950BD4602B080BDC046480D000080B584B0CC
S21400196000AF78607B681B68BB600023FB607B6809
S2140019701800144B9847BB681B6802221A43BB68C2
S2140019801A607B681B6818000F4B98470300180006
S2140019900E4B98470CE0FB680133FB607B68DB88E6
S2140019A01A00FB689A4203D8BB6810225A8306E0E6
S2140019B0BB685B8B9BB21A0010231340EBD0BD466E
S2140019C004B080BDB5180000BD3C010065180000DD
S2140019D080B582B000AF78600A00FB1C1A707B6886
S2140019E05B7EDBB25AB2FB1C1B78012199400B00D0
S2140019F05BB213435BB2DAB27B685A76C046BD462A
S214001A0002B080BD90B591B000AF0023FB633A23CF
S214001A10FB1800221A703B1D1800214B98473B1DEF
S214001A20204ADA613B1D204A1A623B1DFA229200C8
S214001A30DA823B23FB1803221A701EE03A23FC18B6
S214001A403A1D1A491A4B18001A4B98470300237080
S214001A503A23FB181B78002B04D13A23FB181B787B
S214001A60FB630FE0124B1800134B98473B23FB1801
S214001A701A783B23FB18013A1A703B23FB181B7895
S214001A80002BDBD1FB6B002B04D1094B18000B4B52
S214001A90984700E0C046FB6B1800BD4611B090BDED
S214001AA0D9180000020008000200090000080042E1
S214001AB068420020E5400000194200005D19000061
S214001AC080B584B000AF78600E4B00221A700D4BC4
S214001AD001229A600023FB600B4B1B680C22BA188D
S214001AE011001800094B9847094B00221A70FB6832
S214001AF0002B03D0074B802252051A60C046BD4615
S214001B0004B080BD84040020904200207973000059
S214001B108004002004ED00E080B584B000AF78605B
S214001B200E4B00221A700D4B01229A600023FB60B8
S214001B300B4B1B680C22BA1811001800094B98476B
S214001B40094B00221A70FB68002B03D0074B80223B
S214001B5052051A60C046BD4604B080BD840400200D
S214001B6090420020797300008004002004ED00E01D
S214001B7080B584B000AF78600E4B00221A700D4B13
S214001B8001225A600023FB600B4B1B680C22BA181C
S214001B9011001800094B9847094B01221A70FB6880
S214001BA0002B03D0074B802252051A60C046BD4664
S214001BB004B080BD840400209042002079730000A9
S214001BC08004002004ED00E080B500AF1149124B00
S214001BD000221800114B98470F4B00211800104B9D
S214001BE0984710490C4B012218000C4B98470A4B9B
S214001BF0012118000A4B98470B49074B0222180090
S214001C00064B9847044B02211800054B9847C046E0
S214001C10BD4680BDC11A00006842002009090000C8
S214001C20D1190000191B0000711B000080B582B09E
S214001C3000AF00237B60144B984703007B607B68F3
S214001C40002B1AD1114B98470120114B98470200E0
S214001C50104B1A600322002101200F4B9847020008
S214001C600E4B1A600B4B1B68002B03D00B4B1B68EC
S214001C70002B03D106237B6000E0C0467B6818007B
S214001C80BD4602B080BDC046051A0000C91B000054
S214001C90B16C000064420020496A000090420020B7
S214001CA090B585B000AF78600023FB607B68002BA2
S214001CB003D07B685B68002B03D108235B42FB6084
S214001CC01FE07B681B789AB2104B1A807B685A68B4
S214001CD00E4B5A607B68DA890C4B5A800B23FC1833
S214001CE00A4A0B4B110018000A4B98470300237052
S214001CF00B23FB181B78002B03D006235B42FB60EC
S214001D00C046FB681800BD4605B090BD9442002052
S214001D10684200208D0B000090B585B000AF78605B
S214001D200023FB607B68002B03D07B685B68002B7E
S214001D3003D108235B42FB601FE07B681B789AB2E6
S214001D40104B1A807B689A680E4B5A607B689A899B
S214001D500C4B5A800B23FC180A4A0B4B1100180038
S214001D600A4B9847030023700B23FB181B78002BA5
S214001D7003D006235B42FB60C046FB681800BD46E6
S214001D8005B090BD9442002068420020A90A0000D9
S214001D9090B583B000AF00237B60094B1868002322
S214001DA000220021074CA0470300012B02D0142379
S214001DB05B427B607B681800BD4603B090BDC046A2
S214001DC064420020F16C000080B584B000AF7860FB
S214001DD00023FB60084B1B687A6811001800074B4D
S214001DE098470300012B02D01D235B42FB60FB6873
S214001DF01800BD4604B080BD64420020017A000091
S214001E0080B584B000AF78600023FB60044B1A688E
S214001E107B681A60FB681800BD4604B080BDC046EB
S214001E209042002080B500AF024B1B781800BD46DC
S214001E3080BDC0468004002080B582B000AF02009E
S214001E40FB1D1A70034BFA1D12781A70C046BD4669
S214001E5002B080BD8004002080B584B000AF7860FA
S214001E6039600023FB600023BB6096235B001800EC
S214001E70284B98470300FB60FB68002B38D10823EB
S214001E80FB181800244B98470300FB60FB68002BE8
S214001E9030D17B681800214B98470300FB60FB6835
S214001EA0002B2AD1BB683A68110018001C4B9847D3
S214001EB00300012B11D11B4B9847031E11D00020A5
S214001EC0194B9847FB68002B03D021235B42FB602D
S214001ED014E003235B42FB6010E003235B42FB60DD
S214001EE00CE0124B98470200FB681343FB6002E0CD
S214001EF0C04600E0C046FB6807E0C0460B4B98476C
S214001F000200FB681343FB60FB681800BD4604B084
S214001F1080BDC046C91D0000011E0000A11C0000B7
S214001F20017A0000251E0000391E0000911D0000E9
S214001F3080B586B000AFF860B9607A6000237B6138
S214001F4000233B6196235B001800364B984703003E
S214001F507B617B69002B55D11023FB181800324B90
S214001F60984703007B617B69002B4DD1FB68180006
S214001F702E4B984703007B617B69002B47D13B695A
S214001F807A68110018002A4B98470300012B18D1D5
S214001F90284B9847031E06D00020274B984703235C
S214001FA05B427B6134E0BB681800244B9847FB68B3
S214001FB01800234B984703007B617B69002B04D0F5
S214001FC026E003235B427B6122E03B697A681100CE
S214001FD01800174B98470300012B0AD1154B98475A
S214001FE0031E0AD00020144B984703235B427B61F4
S214001FF00EE003235B427B610AE0124B9847030026
S2140020007B6102E0C04600E0C0467B6905E0C04652
S2140020100C4B984703007B617B691800BD4606B0F1
S21400202080BDC046C91D0000011E0000A11C0000A6
S214002030017A0000251E0000391E000055870000AA
S214002040191D0000911D0000B0B586B000AFF86005
S21400205008007A6019000B23FB18021C1A7008236C
S214002060FB180A1C1A80FB685C68FB6898680823E3
S214002070FB181D887A680B23FB1819782B00A047DD
S21400208003007B617B691800BD4606B0B0BD00004A
S21400209080B582B000AF0200BB1D1A80BB1D0022B7
S2140020A09A5E064B10009847021C054B0549101C0B
S2140020B09847031C181CBD4602B080BD05F50100FC
S2140020C085F2010023DB793D90B585B000AF7860DE
S2140020D039600823FA18786801231E21084CA047A7
S2140020E00300FB600823FB181B78DB07DB0FDBB263
S2140020F01A003B681A70FB681800BD4605B090BD14
S2140021004920000090B587B000AF786039600C2396
S214002110FA18786806232821264CA04703007B611E
S2140021200C23FB185B781AB23B681A803B680022C7
S2140021309B5E9BB21B029AB20C23FB181B789BB2C9
S214002140D3189BB21AB23B681A803B6802330C2243
S214002150BA18D27812B21A803B6802333A68023252
S2140021600021525E92B2120291B20C22BA189278F4
S21400217092B28A1892B212B21A803B6804330C22CA
S214002180BA18527912B21A803B6804333A6804329D
S2140021900021525E92B2120291B20C22BA18127943
S2140021A092B28A1892B212B21A807B691800BD46A3
S2140021B007B090BD4920000080B586B000AFF8603B
S2140021C008007A6019000B23FB18021C1A700823FB
S2140021D0FB180A1C1A80224B0B22BA1812781A70A7
S2140021E01623FB1800221A8012E01623FB181B8801
S2140021F001331622BA18128879688A181178184A94
S214002200D1541623FB181A881623FB1801321A809D
S2140022101623FA180823FB1812881B889A42E4D360
S214002220104B6B221A700F4B0D4A5A600823FB188E
S2140022301B8801339AB20B4BDA810A4B0822BA1874
S21400224012889A81074B7A689A60064B64211800B8
S214002250054B984703001800BD4606B080BDC04633
S214002260A0420020E0420020591E000080B584B045
S21400227000AFF86008007A6019000B23FB18021CF8
S2140022801A700823FB180A1C1A80104B0B22BA1867
S21400229012781A700E4B6B221A700D4B7A689A6081
S2140022A00B4B0822BA1812889A81094B0122DA8150
S2140022B0074B064A5A60064B642264211800054BF9
S2140022C0984703001800BD4604B080BDA042002019
S2140022D0E0420020311F000080B500AF014B18001F
S2140022E0BD4680BD2000002080B584B000AF02004F
S2140022F0FB1D1A700F23FB18FA1D1278D2091A70EC
S2140023000E23FB18FA1D127852091A700D4BBB608B
S2140023100F23FB181B78002B0FD10F23FB181B78FD
S2140023209B0010229446BC446344083B1A680E2364
S214002330FB181B78DB01D31800E000231800BD460D
S21400234004B080BD0044004180B582B000AF0200FA
S214002350FB1D1A70FB1D1B781800034B98470300E3
S2140023601800BD4602B080BDE922000080B584B0EA
S21400237000AF0200FB1D1A70BB1D0A1C1A70FB1D65
S2140023801B7818000D4B98470300FB60FB1D1B785D
S2140023901F22134001229A401300BB60BB1D1B780E
S2140023A0002B03D0FB68BA689A6102E0FB68BA6843
S2140023B05A61C046BD4604B080BDC04649230000F1
S2140023C080B500AF024B00221A70C046BD4680BDE5
S2140023D0AD04002080B582B000AF0200FB1D1A706D
S2140023E0FB1D1B785BB2DB435BB2064A127852B227
S2140023F013405BB2DAB2034B1A70C046BD4602B059
S21400240080BDC046AD04002080B582B000AF02009B
S214002410FB1D1A70054B1A78FB1D1B781343DAB2A6
S214002420024B1A70C046BD4602B080BDAD04002007
S21400243080B582B000AF0200FB1D1A70064B1B78F9
S214002440FA1D12781340DBB25A1E9341DBB2180015
S214002450BD4602B080BDC046AD04002090B585B034
S21400246000AF786039607B68002B02D03B68002B99
S21400247001D1002313E00F23FC1839680A4B002211
S21400248018000A4B984703002370074B1800084BA8
S21400249098470F23FB181B785A425341DBB21800AB
S2140024A0BD4605B090BDC046E0060020419F010035
S2140024B041A9010080B59EB000AFF860B960FB1D71
S2140024C01A707623FB1801221A807423FB18002248
S2140024D01A806E23FB1800221A807223FB18002233
S2140024E01A802423FB18180041231A000021924B5F
S2140024F098471823FB18180009231A0000218E4B52
S21400250098471423FB1800221A600023BB66712329
S214002510FB1800221A70BB68002B01D1002306E1CD
S214002520BA68FB6811001800844B984703001A002D
S21400253001235340DBB2002B01D00123F7E0BB6838
S21400254018007F4B98470300402B01D90023EEE08C
S214002550BB682E2118007B4B98470300BB66BB6EFA
S214002560002B52D0BB6E1800754B984702006E23A6
S214002570FB181A806E23FB181B88072B37D871238D
S214002580FB1801221A70BA6E1823FB1811001800E7
S2140025906D4B9847BB681800694B984702006E233E
S2140025A0FB181B88D31A3C2B11D97423FB186E22F8
S2140025B0BA1812883C218A1A1A807423FB181A88C3
S2140025C0B9682423FB181800604B98472AE0BA6EB7
S2140025D0BB68D21A7423FB181A807423FB181A8857
S2140025E0B9682423FB181800584B98471AE0742340
S2140025F0FB183C221A807423FB181A88B968242317
S214002600FB181800514B98470CE07423FB183C222B
S2140026101A807423FB181A88B9682423FB1818003C
S2140026204A4B98477423FB181B887422BA18591C07
S21400263011801A002423FB182D2199547623FB18A9
S21400264000221A807223FB1801221A8010E07223DF
S214002650FA187223FB181B88191C8900CB18DB1884
S21400266013807623FB181A887623FB1801321A800B
S2140026707623FB181B88022BE9D97623FB18012248
S2140026801A804BE07623FB181A8831491423FB186E
S2140026901800304B98477423FB181B882422BA185E
S2140026A0D3181422B91803221800284B9847712310
S2140026B0FB181B78002B0CD07423FB181B880333E5
S2140026C02422BA18D3181822BA18110018001E4B64
S2140026D098472423FA18FB6811001800174B9847F0
S2140026E003001A0001235340DBB2002B0FD0FB1D62
S2140026F01A78BB68002118000F4B98472423FA1855
S214002700BB6811001800104B984701230FE0762392
S214002710FB181A887623FB1801321A807623FA18DB
S2140027207223FB1812881B889A42ABD3002318002A
S214002730BD461EB080BDC0461F0F02005D240000CF
S214002740D7120200311302008B1202000713020098
S2140027502C260200DD11020090B585B002AF0120E4
S214002760234B984703001A0001235340DBB2002B8B
S21400277005D0204B190001201F4B984734E002205B
S2140027801B4B984703001A0001235340DBB2002B73
S21400279005D01A4B19000120174B984724E0042057
S2140027A0134B9847031E05D0154B19000120124BFA
S2140027B0984719E008200E4B9847031E05D0114B8A
S2140027C0190001200C4B98470EE00F4B1900012012
S2140027D0094B98470D490E48002300930023012219
S2140027E00C4CA04703007B60BD4603B090BDC046BE
S2140027F0312400003426020095A400006026020062
S2140028008C260200B8260200E426020010270200EA
S2140028104843002095D50100B0B586B000AF78607B
S21400282039607B68002B02D03B68002B05D1584BE3
S21400283019000120574B9847A6E00820564B9847AA
S21400284003001A0001235340DBB2002B55D00023AF
S2140028507B61524B30221A70504B3A225A70504BC2
S2140028607B6102E07B69013B7B617B691B782F2BD8
S214002870F8D17B6918004B4B98470300012B24D9ED
S2140028807B6901337B617A69474B11001800474B1F
S21400289098474249464B40221800464B98473F4AC5
S2140028A0454B190001203B4B98471323FC183B4926
S2140028B03F4B0A221800414B98470300237013230E
S2140028C0FB181B78002B12D008E03D4B19000120A6
S2140028D0304B984720203B4B984755E01323FB1876
S2140028E01A78394B190001202A4B98474CE0374B91
S2140028F000221A600820334B98477B68002B43D091
S2140029000023FB601323FC180C23FB183A68796835
S21400291027482F4DA847030023701323FB181B7866
S214002920002B0CD0224B18002A4B98472020254B12
S2140029309847294B19000120164B984724E0234B53
S2140029401A68FB68D218214B1A60204B1A68234B72
S2140029501B68234901200F4CA0471C4B1A681F4BCD
S2140029601B689A4210D3124B18001A4B98471D4BFF
S21400297019000120074B9847002117201A4B98474B
S2140029801020104B9847C046BD4606B0B0BDC046A6
S2140029903027020095A4000031240000B00000207B
S2140029A02D270200D7120200B20000208B12020070
S2140029B0E0060020B524000094270200419F010095
S2140029C05427020009240000BC2702000807002044
S2140029D071A4010041A90100F027020004070020AD
S2140029E02C280200602802006D23000090B585B0F8
S2140029F000AFF860B9607A60BB68042B00D977E056
S214002A00BB689A003C4BD3181B689F463B4B19008B
S214002A1001203B4B98476BE03A4B19000120384B9E
S214002A2098470420384B984762E07B681B881A005A
S214002A307B685B6835490120314CA0477B681B8862
S214002A40C82B0DD17B685A68314B1A60314B002277
S214002A501A607B685A6880239B009A4243D803E03A
S214002A602020294B984743E07B689A687B685B6820
S214002A7019001000284B98471020234B984732E047
S214002A807B685A687B681B6819001000224B9847C1
S214002A907B681B7A002B28D010201B4B984724E01D
S214002AA07B681A681D4B19000120154B98477B68F8
S214002AB01B680B331BD10820194B9847031E06D002
S214002AC0184B1800184B98470820184B98470420B6
S214002AD0134B9847031E02D00420144B9847144B00
S214002AE09847C04603E0C04602E0C04600E0C04645
S214002AF0BD4605B090BDC046A02F02009428020037
S214002B0095A40000CC28020009240000F828020042
S214002B1004070020080700201928000034290200B6
S214002B2031240000E006002041A90100D523000062
S214002B305927000080B582B000AF3A60FB1D021C2A
S214002B401A70BB1D0A1C1A703A68BB1D1978FB1D4B
S214002B501B785BB21800034B9847C046BD4602B0D0
S214002B6080BDC046A5D20100B0B586B004AF78607F
S214002B7039603B68FF2213401C003B681B0A1A00A2
S214002B80FF2313403A68120C1100FF220A403968EE
S214002B90090E0D00786809490295019200932300FA
S214002BA002000120064CA0473A687B681100180016
S214002BB0044B9847C046BD4602B0B0BD642902002B
S214002BC095A4000009D4010090B587B002AF0200BA
S214002BD03960FB1D1A70FB1D1B782C2B02D0322B84
S214002BE03DD06FE03B68FB60FB681B78012B07D18C
S214002BF0364B19000120364B9847364B98475EE017
S214002C00FB681B78002B5AD1334B19000120304B40
S214002C1098470220314B98470820314B9847031EAF
S214002C2006D0304B1800304B984708202B4B98475F
S214002C3004202B4B9847031E02D00420274B9847AE
S214002C402A4B012118002A4B98472A4A2A48FF2374
S214002C500093130002221121284CA0472FE03B6866
S214002C60BB60BB681B781800BB6801331B781C0070
S214002C70BB6802331B781A00BB6803331B782049F5
S214002C8001930092230002000120114CA04702206D
S214002C901C4B98471C4B1B78012B02D11B4B9847AB
S214002CA00FE01B4A114B110018001A4B9847031EE1
S214002CB007D0194B19000120054B984701E0C04684
S214002CC000E0C046C046BD4605B090BD942902004F
S214002CD095A4000075EA0000B4290200D523000080
S214002CE031240000E006002041A901000C07002066
S214002CF051BF0100D8290200E8290200A1E5000022
S214002D00FC29020009240000AC040020592700001A
S214002D10182602001DBE0100242A020090B583B0CA
S214002D2000AF294B9847294B19000120284B98479C
S214002D30FC1D0020274B984703002370FB1D1B78C3
S214002D40012B10D1244B19000120214B9847234B0F
S214002D50190001201E4B9847C0460020204B98477C
S214002D600300022BF9D1FB1D1B78002BE0D11D4B75
S214002D7019000120164B98478C239A001A4B002105
S214002D8018001A4B9847BC1D174B19000020184B0B
S214002D90984703002370BB1D1B780B2B07D1BB1D68
S214002DA01A78144B19000120094B984708E0124B7B
S214002DB019000120064B98470120104B9847C04643
S214002DC0BD4603B090BDC046ADB20000482A020022
S214002DD095A4000089B70000802A0200A82A0200F5
S214002DE0FDB20000DC2A0200B00400201F0F020023
S214002DF0E99E0100002B0200302B0200092400008F
S214002E0080B582B000AF3B1D1800084B98473A1DAE
S214002E10074B11001800074B9847054B1800064B48
S214002E209847C046BD4602B080BDC04639EA01009C
S214002E30F04200205DEA010049EB010080B588B051
S214002E4000AF3B001800164B98473B0080229200CC
S214002E501A613B00134A5A603B00BC22FF321A80BC
S214002E603B0001229A703A000F4B110018000F4BDE
S214002E7098470300FB61FB69002B06DAFA690C4BE6
S214002E80190001200B4B9847FEE70B4A064B110032
S214002E9018000A4B9847C046BD4608B080BDC046DD
S214002EA0CDD00100F04200204843002019D1010097
S214002EB0542B020095A40000ED29000005D2010065
S214002EC080B582B000AF3A60FB1D021C1A70BB1DB5
S214002ED00A1C1A703A68BB1D1978FB1D1B785BB27A
S214002EE01800034B9847C046BD4602B080BDC0469A
S214002EF0C5BD010080B582B000AF786039603A6821
S214002F007B6811001800034B9847C046BD4602B0C8
S214002F1080BDC046F9BD010090B589B002AF7860AB
S214002F201023FB1800221A701023FB1800225A7078
S214002F301023FB1800229A707B685B685A687B68CF
S214002F405B689B6824490120244CA0477B681B686B
S214002F509B68234904221800224B9847031E37D14A
S214002F607B681B689B680433FB6000237B6115E06D
S214002F707C69631C7B61FB680C22B9180A22180066
S214002F80194B98470300DAB21023FB181A55FB6852
S214002F901B782C2B0AD1FB680133FB607B69022B64
S214002FA005DCFB681B78002BE2D100E0C04610234E
S214002FB0FB181B781A001023FB185B7818001023E8
S214002FC0FB189B780949009303000120034CA04797
S214002FD0C046BD4607B090BD9C2B020095A40000DD
S214002FE0A42B0200E512020091140200AC2B020092
S214002FF090B58BB000AF78600C23FB181422FF212D
S2140030001800414B98477B681B689B683F4909221C
S21400301018003F4B9847031E59D13E4B190001201C
S2140030203D4B98477B685B685A687B685B689B6823
S2140030303A490120384CA0477B681B68DA687B68F1
S2140030401B689B6836490120334CA04700237B62EF
S2140030507B681B689B680933BB6015E07C6A631C51
S2140030607B62BB680822B9180A2218002D4B9847C5
S2140030700300DAB20C23FB181A55BB681B782C2BFE
S2140030800AD1BB680133BB607B6A132B05DCBB68C7
S2140030901B78002BE2D100E0C046234B190001202C
S2140030A01D4B984700233B620DE00C23FA183B6A41
S2140030B0D3181B781A001D4B19000120164B984791
S2140030C03B6A01333B623B6A132BEEDD18E0184B7C
S2140030D019000120104B98477B685B685A687B682C
S2140030E05B689B680D4901200B4CA0477B681B68FA
S2140030F0DA687B681B689B6809490120064CA04774
S214003100C046BD460BB090BD1F0F0200C02B02008C
S214003110E5120200CC2B020095A400009C2B0200B6
S214003120E82B020091140200F02B0200042C02008F
S214003130082C020090B583B000AF7860094B1900E8
S2140031400120094B98477B685B685A687B685B6818
S2140031509B6806490120044CA047C046BD4603B004
S21400316090BDC046382C020095A400009C2B02009F
S21400317090B58BB006AFF860B9607A60BB68012B7B
S2140031803BD0052B5ED0002B00D061E07B681B682F
S214003190002B25DB304B19000120304B9847304977
S2140031A0304AF86800230593002304930023039312
S2140031B000230293002301932A4B00930B00012166
S2140031C0294CA047031E05D0284B19000120234B8D
S2140031D098473DE0264B19000120204B984737E0E2
S2140031E0244A254B190001201C4B9847214AFB68AE
S2140031F011001800214B98472AE07B681B78002BAB
S21400320017D11F4B1F49F86802221F4CA0471F4BBF
S2140032101F49F86802221C4CA0471E4B1E49F8683E
S2140032200222194CA0471D4B190001200B4B984752
S2140032300EE07B681B781A00194B19000120074B1B
S214003240984705E0174B19000120044B9847C046E5
S214003250C046BD4605B090BD9C2C020095A400005B
S214003260B82C0200C82C020065BE0100D42C020057
S214003270FC2C020018260200182D02001DBE0100BC
S214003280F12F0000502D020005C00100192F00008C
S214003290782C020035310000642D0200782D0200E3
S2140032A08C2D0200C02D020080B588B000AF3B1DFB
S2140032B018001F4B98473B1D1E4A9A603B1D8022F4
S2140032C09200DA603B1D1C4A1A613B1D8022920068
S2140032D05A613B1D194A1A803B1D194A9A803A1DAD
S2140032E0184B11001800184B98470300FB61FB6948
S2140032F0002B06DAFA69154B19000120144B984783
S214003300FEE7144A0F4B11001800134B98470300B2
S214003310FB61FB69002B06DAFA69104B19000120E5
S2140033200B4B9847FEE7C046BD4608B080BDC0467A
S2140033305DBD010044070020440900205B07000033
S214003340701700000C070020ADBC0100D42D020051
S21400335095A40000713100009DBD0100082E0200FA
S21400336080B584B000AF3B1D18000B4B98473B1D43
S21400337037221A603B1D00225A603B1D01221A723A
S2140033803B1D0222DA723B1D19000720034B9847AB
S214003390C046BD4604B080BD952E0100C92E010072
S2140033A080B500AF064B002207211800054B984752
S2140033B000210720044B9847C046BD4680BDC04646
S2140033C0CD330000952A0100F92A0100B0B500AF00
S2140033D00C4B1B685A1C0B4B1A600A4B1B68282B9D
S2140033E002D9084B01221A60064B1B68064A07489A
S2140033F03F21074CA047074B01221A70C046BD4626
S214003400B0BDC046AC0000203C2E02006C00002080
S21400341079110200440B002080B500AF154A164B08
S21400342011001800154B9847031E08D0144B1900BE
S2140034300120144B984702E00020134B98470E4B90
S21400344034229B5C002BF7D1104B9847104B01227F
S2140034501A70104A104B11001800104B9847104B6A
S2140034609847104B9847104B03221A70C046BD462B
S21400347080BDC046182602000C07002051BF010080
S214003480242A020095A4000085E50000411B0100E7
S214003490AC040020692B0000352B0000891B0100BE
S2140034A0F11A0100592700009804002090B585B055
S2140034B000AF09E000202A4B98472A4B18002A4BF9
S2140034C098470520294B98471020294B984703001A
S2140034D01A0001235340DBB2002B09D02020244BD6
S2140034E0984703001A0001235340DBB2002BE1D1BA
S2140034F0204B9847FA239B0018001C4B98471E4BFE
S21400350000221A703B001D4A13CA13C33B00302228
S2140035101A700F23FC183900194B0A221800194B91
S2140035209847030023700F23FB181B78002B08D046
S2140035300F23FB181A78144B19000020134B9847DA
S21400354003E0134B1800134B98470D4B1800124B13
S2140035509847124B00221A70C046BD4605B090BD73
S21400356085E50000F042002079EC01005587000058
S21400357031240000411B0100AC040020742E020020
S214003580E0060020419F0100502E020095A4000096
S214003590602E0200A9A3000041A9010098040020A3
S2140035A080B500AF184B9847184B9847184A194BE8
S2140035B011001800184B9847184B9847184B3422A0
S2140035C09B5C01225340DBB2002B0CD0154A144BF7
S2140035D011001800144B9847031E04D0134B190013
S2140035E00120134B98470E4B34229B5C002B04D0D3
S2140035F0104B190001200E4B98470F4B01221A70F2
S214003600C046BD4680BDC046411B0100A932000031
S214003610F52E0000C12E0000891B0100F11A0100E2
S2140036200C070020182602001DBE0100242A0200F6
S21400363095A40000802E02009804002080B500AFFC
S21400364000200B4B98470B4B18000B4B98470B4B27
S21400365098470B4B98470B4B34229B5C002B04D0AF
S214003660084B64211800084B9847C046BD4680BDED
S21400367085E50000F042002079EC010019370000D3
S2140036808D3600000C0700204DC0010090B585B0B7
S21400369002AF184B1B68390000221800164B9847DB
S2140036A00300012B21D13B0000229B5E1C003B0047
S2140036B002229B5E19003B0004229B5E0F4A1048C4
S2140036C00193009123003F210E4CA0470C4B18009D
S2140036D00D4B984704000A4A0C490D4800230193F5
S2140036E00123009323000B4CA047C046BD4603B001
S2140036F090BDC046A4040020A97500009C2E0200C0
S2140037002C00002079110200D7120200642D02005E
S2140037100C07002099BF010090B58BB002AF394B63
S2140037201B680822B91800221800374B9847030078
S214003730012B63D1354B364A03CA03C312881A805D
S2140037400023FB612DE00823FA18FB69D3181B78C9
S214003750FF2B2AD00823FA18FB69D3181B782D4AAA
S214003760380003212C4CA0473A00284B11001800C3
S2140037702A4B9847FB6901330822BA18D35CFF2B03
S2140037800CD0FB690133132B08DC3B002C221A807B
S2140037903A001E4B11001800204B9847FB69013376
S2140037A0FB61FB69132BCEDD00E0C046174B18000B
S2140037B01B4B984703001A00144BD218194B1000E5
S2140037C0190003231A00184B9847104B19000120C4
S2140037D0164B9847164B19000120144B98470B4B75
S2140037E018000F4B98470400084A12491248002355
S2140037F00193012300932300104CA047C046BD460A
S21400380009B090BDA0040020A97500002C0000207F
S214003810C02B0200C02E0200791102005D120200C9
S214003820D7120200C42E0200E90E020095A4000082
S214003830C82E0200CC2E02000C07002099BF010003
S21400384090B58DB002AF78606420794B9847794B7D
S2140038509847002204210520774B98470200774BB3
S2140038601A60002206210520734B98470200744B0D
S2140038701A600022142102206F4B98470200714BF9
S2140038801A600022022105206B4B984702006E4BFF
S2140038901A606A4B1B68002B0BD0694B1B68002B09
S2140038A007D0684B1B68002B03D0674B1B68002BA8
S2140038B003D1664B1800664B9847664B1800644B5E
S2140038C09847654B9847654B9847654B9847654BB7
S2140038D09847654B9847654B98470C23FB1818226A
S2140038E000211800624B9847624B98470C23FB1840
S2140038F0614A1A602723FC180C23FB1818005F4B3C
S2140039009847030023702723FB181B785BB2002B15
S21400391009D02723FB1800229A56594B190001207C
S214003920584B9847FEE7584A584B19000120554B0C
S2140039309847574B9847574A574B11001800574B14
S2140039409847574A5048FF2300931300022211213C
S214003950544CA04706E00020534B9847534B1800A2
S214003960534B98470220534B984703001A000123F5
S2140039705340DBB2002BEED1FA239B0018002C4BF1
S21400398098474D4B01221A704B4B1B785BB2012BAC
S2140039900BD002DC002B05D010E0022B08D0032B46
S2140039A009D00BE0454B98470CE0454B984709E09B
S2140039B0444B984706E0444B984703E03E4B0022B2
S2140039C01A70C0460B23FB1800221A701B4B1B688C
S2140039D00B22B918002218003C4B98470300012B15
S2140039E005D10B23FB181B785AB2334B1A70384B91
S2140039F01B78DBB2002B17D0364B1800364B984797
S214003A000400344A354936480023019301230093C5
S214003A102300344CA0472F4A334B19000120194B82
S214003A2098472B4B00221A706420014B9847ABE74F
S214003A3055870000C1230000496A00009C0400204E
S214003A40A4040020A0040020A8040020E02E020009
S214003A50A9A30000082F0200012E00003D2E000042
S214003A60A93200001D2D000061330000A1330000C4
S214003A701F0F0200B9C80000C92B000091E3000028
S214003A80242F020095A40000E8290200502F02000F
S214003A90F11A0100F52E0000C12E0000891B01005E
S214003AA0D8290200A1E5000085E50000F0420020CC
S214003AB079EC01003124000098040020A1350000B4
S214003AC03D36000019340000AD340000A975000032
S214003AD0440B00206C000020D7120200742F020056
S214003AE00C07002099BF0100902F020090B583B00C
S214003AF000AF0200FB1D1A70FB1D1B78032B06D8B7
S214003B00054B1868F91D00230A22044CA047C0463E
S214003B10BD4603B090BDC0469C040020F16C00007A
S214003B2080B582B000AF78607B6800221A70C0460D
S214003B30BD4602B080BD000080B582B000AF020076
S214003B403960FB1D1A70FB1D1B78012B0AD0022B57
S214003B500FD0002B14D10E4B0D4A91693A680A43D8
S214003B609A610FE00A4B0A4AD1693A680A43DA6159
S214003B7008E0074B064A116A3A680A431A6201E0EF
S214003B80172300E000231800BD4602B080BDC046E3
S214003B900004004080B582B000AF78607B68802269
S214003BA01A707B6800225A707B6801229A707B68C4
S214003BB00022DA70C046BD4602B080BD80B500AFB8
S214003BC0054B9B78DBB21A00022313405A1E934122
S214003BD0DBB21800BD4680BD0020004180B500AFB6
S214003BE0024B9847C046BD4680BDC046E927010047
S214003BF080B500AF024B9847C046BD4680BDC04664
S214003C003D28010080B582B000AF0200FB1D1A708F
S214003C10074AFB1D1B7819001F230B400121994002
S214003C200B0019008023D150C046BD4602B080BDAF
S214003C3000E100E080B584B000AF78607B681B6868
S214003C40FB60FB68DB69072213405A1E9341DBB218
S214003C501800BD4604B080BD80B582B000AF786065
S214003C60C0467B681800044B9847031EF9D1C0462F
S214003C70BD4602B080BDC046353C000080B584B06D
S214003C8000AF78607B681B68FB607B681B68180069
S214003C900D4B9847030018000C4B98477B6818009C
S214003CA00B4B9847FB6883221A75FB6883221A76AB
S214003CB0FB681B68022293431A00FB681A60C04622
S214003CC0BD4604B080BDC046BD3C0100053C0000BA
S214003CD0593C0000F0B597B000AF78613961002319
S214003CE0FB6300233B650023FB643B2310229446C2
S214003CF0BC44634400221A707B691B68BB637B6903
S214003D001B687B6323231022BA18D4187B6B180019
S214003D10C04B9847030023700C2310229446BC44E3
S214003D2063441800BC4B98473B69DB697B643B697E
S214003D301B6A3B647B6C002B06D17B6B0021180052
S214003D40B64B984703007B647B6CDAB20C231021D9
S214003D508C46BC4463441A700C2310229446BC4420
S214003D60634402225A707B6C1B0CDBB20C221021BF
S214003D708C46BC44624411001800A94B98473B6C23
S214003D80002B06D17B6B01211800A44B984703003B
S214003D903B643B6CDAB20C2310218C46BC44634473
S214003DA01A700C2310229446BC44634402225A70B4
S214003DB03B6C1B0CDBB20C2210218C46BC446244CC
S214003DC011001800964B98473B699A8A7B69DA80FF
S214003DD03B69DA8A7B691A813B691B7E002B03D11B
S214003DE0904B9847031E02D080237B6501E000239A
S214003DF07B653B691B69002B04D03B691B697A6DA8
S214003E0013437B653B699B687A6D13437B653B690F
S214003E1024229B5C002B04D07B6D8022D2051343AA
S214003E207B653B699B6A002B04D03B699B6A7A6D75
S214003E3013437B653B692C229B5C002B05D13B69B9
S214003E409A6880239B049A4204D17B6D80221205D7
S214003E5013437B653B692D229B5C002B04D07B6D56
S214003E608022120413437B653B692E229B5C002B49
S214003E7004D07B6D8022D20313437B65BB6B1A682C
S214003E807B6D1A43BB6B1A60BB6B802252005A6074
S214003E90232310229446BC4463441B781433DBB2BD
S214003EA01800614B98470300FB623B691B68FA22C7
S214003EB092005343BB623B695B68FA22920053430D
S214003EC07B623B691B8E3B62584BF86A984705003D
S214003ED00E00564BB86A9847B860F960534BF86ABC
S214003EE09847534C534A544BA04703000C003B6082
S214003EF07C604E4B386A984702000B004C4C386882
S214003F007968A04703000C00180021004B4C0022E3
S214003F104B4BA04703000C001A002300444CB86823
S214003F20F968A04703000C001A002300454C28003F
S214003F303100A04703000C001D002600BB6A5A0093
S214003F403A4B1000984702000B003C4C280031000A
S214003F50A04703000C00180021003A4C00223A4B00
S214003F60A04703000C001D002600BB6A5A002F4B1A
S214003F701000984702000B00344C28003100A04780
S214003F8003000C0019002200314B0800110098476E
S214003F900300FB633B699A6880239B049A426AD1BC
S214003FA0224BF86A9847254C02000B00A0470300F6
S214003FB00C001D0026001D4B786A98471C4C0022FA
S214003FC0244BA04703000C001A0023001F4C2800B7
S214003FD03100A04703000C0018002100194C0022F5
S214003FE0194BA04703000C0019002200184B0800CC
S214003FF0110098470300FB64FB6C002B2ED0164B79
S214004000796AF86A984703009A1EFB6CD31A3B65D8
S21400401031E0C046ED3B0100953B0000313A01001F
S214004020DD670100BD3B0000A1650100C10D020077
S2140040302D02020095D626E80B2E113EA5F50100AE
S214004040000024402D0702000000F03FC5FB0100E1
S214004050590D02000000084045EF01007B6A5A0037
S214004060FB6AD3185A1E7B6A59001D4B10009847EE
S2140040700300013B3B65FB6BFF2B08DCFB6B002B57
S21400408005DB3B6DFF2B02DC3B6D002B06DA3B238A
S21400409010229446BC44634440221A703B231022EC
S2140040A09446BC4463441B78402B0ED0FB6BFF2227
S2140040B01A403B6D1B041900FF231B040B401343DF
S2140040C0FA6C12061A43BB6BDA603B231022944646
S2140040D0BC4463441B781800BD4617B0F0BDC0460C
S2140040E045EF010090B58BB000AFF860B9607A601C
S2140040F0FB68BA681A60FB681B687B62FB681B6813
S21400410018003B4B984703003B623B6A0233FB6157
S2140041103B6A1433BB610122FB699A401300190005
S2140041200220344B98471423FB181800324B98474C
S2140041307B681A7B1423FB181A70BB69DBB2142247
S214004140BA18110018002D4B9847BB69DBB218004F
S2140041502B4B98477B681B7B00211800294B984700
S2140041607B6A1B680222134001D01C233BE07B6A5B
S2140041701B680122134001D0052334E0FB681B684E
S2140041801722BC1818001A4B9847030023701E4AC3
S2140041901723FB181B78110018001C4B9847172391
S2140041A0FB181A781A4B9200F968D150FB68002267
S2140041B01A76FB6800225A76FB6800225A83FB6850
S2140041C000229A83FB68252200219954FB6800226E
S2140041D01A627B6A14221A607A68FB68110018005B
S2140041E00C4B984703001800BD460BB090BDC04668
S2140041F0ED3B0100393B0000213B00007D640100DF
S214004200C1640100A5390100CD0B0000513C01003E
S21400421048560020D53C000080B584B000AF7860DA
S2140042207B681B68FB607B6818000F4B98477B68B1
S21400423018000E4B98470E4B98477B681B68180073
S2140042400C4B9847030018000B4B98470B4B9847AE
S2140042507B681800044B9847FB6801221A60C0462A
S214004260BD4604B080BDC046593C00007D3C000001
S214004270DD3B0000BD3C0100F9650100F13B00009C
S21400428080B584B000AF78607B681B68FB60FB6815
S2140042901B7EDBB21A00022313400BD0FB680222FF
S2140042A01A76FB685B8B9BB21A000223134011D070
S2140042B0412310E0FB685B8B9BB21A00042313407B
S2140042C008D0FB685B68C02292021A43FB685A60FB
S2140042D0182300E000231800BD4604B080BD80B55A
S2140042E084B000AF78607B681B68BB600E23FB1849
S2140042F000221A800FE00E23FB180E22BA1812882E
S21400430001321A807B681B890E22BA1812889A42DC
S21400431001D312230EE0BB681B7EDBB21A0001231A
S214004320134006D1BB681B7EDBB21A000223134083
S214004330E1D000231800BD4604B080BD90B585B01E
S21400434000AF78600A00FB1C1A707B681B68FB6075
S214004350FB685B688022D2021A43FB685A60FB1C2B
S2140043601A78FB685A620B23FC187B681800074B08
S214004370984703002370FB6801221A760B23FB186C
S2140043801B781800BD4605B090BDC046DF42000051
S21400439080B500AF0020024B9847C046BD4680BDA2
S2140043A0CD43000080B500AF0120024B9847C046C1
S2140043B0BD4680BDCD43000080B500AF0220024B55
S2140043C09847C046BD4680BDCD43000080B584B04A
S2140043D000AF0200FB1D1A70FB1D1A78284B9200D6
S2140043E0D358FB60FB681B689B7BDBB2FA68127EC7
S2140043F01340DAB2FB68597E0B23FB180A401A708A
S2140044000B23FB181B780122134008D0FB689B681F
S214004410FA6810009847FB681B6801229A730B2302
S214004420FB181B780222134008D0FB68DB68FA688A
S21400443010009847FB681B6802229A730B23FB1830
S2140044401B781022134008D0FB681B69FA6810001E
S2140044509847FB681B6810229A730B23FB181B787F
S2140044602022134008D0FB685B69FA681000984762
S214004470FB681B6820229A73C046BD4604B080BD08
S2140044803044002080B584B000AF78600023FB6025
S2140044907B68002B01D172B6FEE70820114B9847C7
S2140044A00300BB60BB68002B01D172B6FEE7BB6899
S2140044B0002B12D00C4B9847BB687A681A60BB6812
S2140044C000225A60094B1B68BA685A60074BBA68E4
S2140044D01A60074B98470123FB60FB681800BD462F
S2140044E004B080BD9168000059670000FC00002001
S2140044F07D67000080B588B000AFF860B9607A606C
S2140045000123FB613D4B1B68002B44D13B4B3C4ACF
S2140045101A603AE0394B1B681B681B68BB61BB69B5
S2140045201800384B984703007B61FA687B69D318FC
S2140045301B78202B05D0FA687B69D3181B78002BD4
S2140045401ED17A69B969FB6818002F4B9847031E7D
S21400455016D12A4B1B681B681B7B5BB2002B19DB32
S214004560FB681800294B984703001A00234B1B686A
S2140045701B681B7B5BB29A420CD00023FB6109E0F0
S2140045801E4B1B685A681D4B1A601C4B1B68002B81
S214004590C0D100E0C046194B1B68002B0CD0FB694D
S2140045A0002B09D17A681A49BB681800194B98473E
S2140045B0124B00221A601CE0104B1B68002B10D018
S2140045C00E4B1B681B689B68FA687968B868984742
S2140045D00300FB61FB69002B0BD1084B00221A601D
S2140045E007E07A680C49BB6818000A4B9847002316
S2140045F0FB61FB691800BD4608B080BD480B002073
S214004600F4000020D7120200E51202007D460000EA
S214004610EC2F0200071302004430020080B586B07B
S21400462000AFF860B9607A60114B1B68002B02D1AE
S2140046300F4B104A1A600E4B1B681B685968BA6805
S214004640FB6818000C4B9847094B1B685A68084BC8
S2140046501A60074B1B68002B02D100237B6101E028
S21400466001237B617B691800BD4606B080BDC0464D
S2140046704C0B0020F40000200713020080B584B025
S21400468000AF78600F23FB1800221A700023BB606F
S21400469018E07B681B78202B0FD1BB68012B0ED04F
S2140046A00F23FB181B785BB2DBB20133DAB20F23A1
S2140046B0FB181A700123BB6001E00023BB607B6817
S2140046C001337B607B681B78002BE2D1BB68012B33
S2140046D009D10F23FB181B785BB2DBB2013BDAB2C1
S2140046E00F23FB181A700F23FB181B785BB21800F9
S2140046F0BD4604B080BD000080B582B000AF7860D3
S2140047007B681800034B984703001800BD4602B0AC
S21400471080BDC046B97E000080B582B000AF78602C
S2140047207B681800034B984703001800BD4602B08C
S21400473080BDC046E57E000080B582B000AF7860E0
S2140047407B681800034B984703009BB21800BD46D1
S21400475002B080BD1592000080B582B000AF7860D0
S2140047607B681800044B984703001B0C9BB218008C
S214004770BD4602B080BDC0461592000080B582B02E
S21400478000AF78600A00BB1C1A807B681800084BD4
S214004790984703001B0C1A04BB1C1B881A437B6833
S2140047A011001800034B9847C046BD4602B080BDB6
S2140047B0159200003D92000080B582B000AF786090
S2140047C00A00BB1C1A807B681800094B9847030038
S2140047D01B041A0CBB1C1B881B041A437B681100A5
S2140047E01800044B9847C046BD4602B080BDC04680
S2140047F0159200003D92000080B582B000AF786050
S2140048007B681800034B984703009BB21800BD4610
S21400481002B080BDF946000080B582B000AF786077
S2140048207B681800044B984703001B0C9BB21800CB
S214004830BD4602B080BDC046F946000080B582B0D5
S21400484000AF78600A00BB1C1A807B681800084B13
S214004850984703001B0C1A04BB1C1B881A437B6872
S21400486011001800034B9847C046BD4602B080BDF5
S214004870F9460000CD7E000080B582B000AF7860BB
S2140048800A00BB1C1A807B681800094B9847030077
S2140048901B041A0CBB1C1B881B041A437B681100E4
S2140048A01800044B9847C046BD4602B080BDC046BF
S2140048B0F9460000CD7E000080B584B000AF786079
S2140048C00023FB600023BB6018E0144BBA68D200DC
S2140048D0D358002B0FD1114BBA68D2007968D1504B
S2140048E00E4ABB68DB00D3180433012252421A601A
S2140048F00123FB6005E0BB680133BB60BB68092B86
S214004900E3DDFB68002B04D1054B1B685A1C044BE7
S2140049101A60C046BD4604B080BDC046540B002099
S214004920A40B002090B585B000AF0023FB602B4B96
S2140049301B68BB60294B1A68294BD200D358002B42
S21400494035D0264B1A68264BD200D3581800254B74
S214004950984703007B60214B1B68214ADB00D31875
S21400496004331A687B689A4207D91C4B1B681C4A9A
S214004970DB00D31804337A681A60184B1A68184B91
S214004980D200D3581800184B98470300DBB2190022
S214004990124B1B68124ADB00D31804331B680A004C
S2140049A00321EA20114CA047FB680133FB600B4B48
S2140049B01B685A1C0E4B0A21100098470B001A0061
S2140049C0064B1A60FB68002B04DC044B1A68BB68B5
S2140049D09A42AFD1C046BD4605B090BDA80B002098
S2140049E0540B0020B59300003947000081520000A8
S2140049F025F2010080B500AF024B9847030018006F
S214004A00BD4680BD6194000090B585B002AF786069
S214004A10144B98477B68012B02D1134B98470EE046
S214004A207B68022B04D1114B1800114B984706E007
S214004A307B68002B03D00F4B18000D4B98470E4B8E
S214004A401B68002B09D10D490D480B4B019304231D
S214004A5000930023C8220B4CA047C046BD4603B0B7
S214004A6090BDC0464D590000A54E0000A43002007F
S214004A70F55F0000E4300200500B00201831020001
S214004A80894A0000B983000080B582B000AF786024
S214004A90044B9847031E01D0034B98470420034B52
S214004AA09847F5E7E94E00002549000055870000C5
S214004AB080B500AF604B1B680922DA655E4B1B6849
S214004AC064220A2199545C4B1B6865220A2199547A
S214004AD0594B1B6866220A219954574B1B6867225C
S214004AE00F219954544B1B68682205219954524B48
S214004AF01B686922052199544F4B1B686A220521C1
S214004B0099544D4B1B686B22052199544A4B1B68E0
S214004B106C2205219954484B1B6870220F2199542A
S214004B20454B1B6871220F219954434B1B68722218
S214004B300F219954404B1B6873220F2199543E4B0A
S214004B401B6874220F2199543B4B1B6875220F215A
S214004B509954394B1B6876220F219954364B1B68A3
S214004B6077220F219954344B1B6878220F219954D1
S214004B70314B1B687C22102199542F4B1B687D22D9
S214004B80102199542C4B1B687E22102199542A4BD5
S214004B901B687F2213219954274B1B688022112102
S214004BA09954254B1B68812210219954224B1B686F
S214004BB0822213219954204B1B6883221321995477
S214004BC01D4B1B688422132199541B4B1B6888229B
S214004BD000219952184B1B688A22A0219952164B25
S214004BE01B688C22A02149009952134B1B688E2209
S214004BF0F02149009952104B1B6890220F49995298
S214004C000D4B1B6892220E4999520B4B1B6894223F
S214004C100C499952084B1B6896220B499952064B31
S214004C201B6898228C21C9009952034B1B68074ABF
S214004C301A66C046BD4680BD680C0020FD02000016
S214004C4052030000A203000001040000BF0400009D
S214004C5080B500AF2E4B00225A822D4B5A8A2C4B21
S214004C601A802B4B0A229A82294B9A8A284B5A8002
S214004C70274B1422DA82264BDA8A254B9A80244B5D
S214004C801E221A83224B1A8B214BDA80204B2D22B0
S214004C905A831F4B5A8B1E4B1A811D4B32229A8306
S214004CA01B4B9A8B1A4B5A81194B3722DA83184BB7
S214004CB0DA8B174B9A81164B3C221A84144B1A8CAB
S214004CC0134BDA81124B41225A84114B5A8C104BEB
S214004CD01A820F4B09229A840D4B1322DA840C4B4E
S214004CE01D221A850A4B2C225A85094B31229A8599
S214004CF0074B3622DA85064B3B221A86044B4022A7
S214004D005A86034B45229A86C046BD4680BDC0469D
S214004D10D80B002080B582B000AF0200FB1D1A70D1
S214004D20FB1D1B78082B16D89A000D4BD3181B6852
S214004D309F460C4B10E00C4B0EE00C4B0CE00C4B63
S214004D400AE00C4B08E00C4B06E00C4B04E00C4B66
S214004D5002E00C4B00E00C4B1800BD4602B080BDD4
S214004D60203402002031020068310200B031020017
S214004D7004320200503202009C320200E832020086
S214004D803C33020094330200F033020090B587B043
S214004D9000AF1723FB1800221A70364B1B68002B37
S214004DA00BD1344B1B68002B05D1334B1800334B0B
S214004DB09847002359E0002357E02E4B1B681B6BD7
S214004DC0012B01D1012350E02D4B1B68002B49D14C
S214004DD0EFF31083BB60BB683B610123FB60FB689D
S214004DE083F31088274B1B685A1C264B1A60214BEE
S214004DF01B6801221A63244B984703001800234BB4
S214004E00984703001A001723FB181A701723FB187D
S214004E101B78002B16D11723FC1803201C4B984731
S214004E20030023701B4A1723FB181B781900032066
S214004E30194B98471723FB181B78002219000320EC
S214004E40164B98471723FB181B781800144B9847E7
S214004E500C4B1B685A1E0B4B1A603B697B607B68C9
S214004E6083F31088034B1B681B6B1800BD4607B006
S214004E7090BDC046680C002044340200F55F000078
S214004E80C80B0020C00B0020F54900003947000081
S214004E90D95C000088340200095F00006D560000EF
S214004EA05555000080B500AF024B9847C046BD463A
S214004EB080BDC0468D4D000080B500AF084B1B6816
S214004EC0002B03D0064B1B6800221A63054B1B6899
S214004ED0002B02D0034B1B689847C046BD4680BDDA
S214004EE0680C0020D00B002080B500AF054B1B6877
S214004EF0002B03D0034B1B681B6B00E0002318003D
S214004F00BD4680BD680C002090B589B000AF020099
S214004F10FB1D1A70FB1D1B78002B57D02E4B1B68F1
S214004F20002B55D0FB1D1B780F2B04D92B4B1800DC
S214004F302B4B98474DE02B4B1B68002B04D02A4B7D
S214004F401800274B984744E0EFF31083FB60FB689C
S214004F50FB6101233B613B6983F31088214B1B688F
S214004F605A1C204B1A60214B1B681B6B002B22D04F
S214004F701A23FC181E4B18001E4B9847030023806C
S214004F801923FB18FA1D12781A701B4B984703005A
S214004F907B617B69002B0ED07B6902221A707B69CD
S214004FA01A22BA1812885A807B691922BA181278FF
S214004FB05A70124B98470B4B1B685A1E094B1A60C7
S214004FC0FB69BB60BB6883F3108802E0C04600E064
S214004FD0C046BD4609B090BD08010020F03702006B
S214004FE0F55F0000C00B002030380200680C00207F
S214004FF0FFFF000009620000AD5B0000B161000029
S21400500080B58EB000AFF860B9607A60484B1B6818
S214005010002B00D188E07B68002B03DA7B685B42BC
S2140050207B6301E07B687B63EFF31083BB61BB6946
S2140050303B630123FB61FB6983F310883D4B1B68D0
S2140050405A1C3C4B1A60BB68002B05D03A4B1A68BA
S2140050507B68D218384B1A60354B1B681B6B002BCD
S21400506057D0FF20354B984703001A002F23FB1814
S2140050701A707B6B324A19001000324B98470200B8
S2140050802C23FB181A80304B98470300BB62BB6A80
S214005090002B3ED0BB6A2F22BA1812785A70BB6A11
S2140050A000221A70BB6A2C22BA1812885A80274B24
S2140050B09847BB68224A19001000224B9847020006
S2140050C02623FB181A802523FB1800221A701E4B75
S2140050D0984703003B623B6A002B1AD03B6A2622A5
S2140050E0BA1812885A803B6A2522BA1812785A7063
S2140050F0FB68DBB20133DAB23B6A1A70FB68DAB2DD
S214005100BB6A1A70114B9847094B1B680A4A12680B
S2140051101A65084B1B685A1E064B1A603B6B7B6170
S2140051207B6983F3108800E0C046BD460EB080BDA4
S214005130680C0020C00B0020D40B00200962000081
S214005140FFFF0000CD530000AD5B0000B161000022
S21400515090B58BB000AFF8607A600B23FB180A1C82
S2140051601A70FB68FE2B04D9394B1800394B984748
S2140051706BE00B23FB181B78082B04D9364B180062
S214005180344B984761E0354B1A680B23FB181B78A5
S2140051906421D3185B181B781A007B689A4204D2E5
S2140051A02F4B18002B4B98474FE02E4B1B68002BBD
S2140051B004D02D4B1800274B984746E02B4B1B7806
S2140051C0002B41D0EFF310837B617B697B62012368
S2140051D0BB61BB6983F31088224B1B685A1C214BAA
S2140051E01A601E4B1B681B6B002B22D02223FC1858
S2140051F01F4B18001F4B9847030023802123FB18E2
S2140052007A681A701C4B98470300FB61FB69002BF9
S2140052100FD0FB692222BA1812885A80FB68DAB2CD
S214005220FB691A70FB692122BA1812785A70134B60
S21400523098470C4B1B685A1E0A4B1A607B6A3B61E8
S2140052403B6983F3108800E0C046BD460BB090BDB6
S214005250A0380200F55F0000D8380200680C002075
S21400526020390200C00B002068390200CC0B002059
S214005270FFFF000009620000AD5B0000B1610000A6
S21400528080B58AB000AFF8607A603B600B23FB18ED
S2140052900A1C1A70FB68FE2B04D9404B1800404BC2
S2140052A0984777E00B23FB181B78082B04D93D4B57
S2140052B018003B4B98476DE03B4B1A680B23FB18D6
S2140052C01B786421D3185B181B781A007B689A42F7
S2140052D004D2364B1800324B98475BE0344B1B68C1
S2140052E0002B04D0334B18002D4B984752E0EFF3B9
S2140052F010837B617B697B620123BB61BB6983F39F
S21400530010882B4B1B685A1C294B1A60264B1B68AF
S2140053101B6B002B34D0284B1B78002B30D0FF2083
S214005320264B984703001A002323FB181A703B6885
S2140053301900FF20224B984702002223FB181A7000
S2140053402123FB187A681A701E4B98470300FB61EE
S214005350FB69002B14D0FB692322BA181278DA7086
S214005360FB68DAB2FB691A70FB692122BA18127858
S2140053705A70FB692222BA1812789A70124B984714
S2140053800B4B1B685A1E0A4B1A607B6A3B613B69D3
S21400539083F31088BD460AB080BDC046A03902001F
S2140053A0F55F0000E0390200680C0020303A020089
S2140053B0C00B0020803A0200CC0B002009620000DF
S2140053C0CD530000AD5B0000B161000080B584B035
S2140053D000AF786039607B68FF2B09D07B68194A7C
S2140053E0934205D0184B1800184B98473B6824E0AA
S2140053F03A687B689A4201D83B681EE0144B98478F
S2140054000300FB60FB68002B14D0FB6801221A70B7
S2140054107B68DB433A6813401B0ADAB2FB685A70B3
S2140054207B68DB433A6813401B0C9AB2FB685A80D1
S214005430084B98473B687A6813401800BD4604B08E
S21400544080BDC046FFFF0000B83A0200F55F0000CE
S214005450AD5B0000B161000080B58AB000AF786037
S21400546039602623FB1800221A807B68FE2B04D99D
S2140054702D4B18002D4B984753E02D4B1B68002BE7
S21400548004D02C4B1800294B98474AE0EFF31083C2
S2140054903B613B693B6201237B617B6983F3108838
S2140054A0234B1B685A1C224B1A60234B1B681B6B32
S2140054B0002B2CD0214B1B78002B28D0FF20204B14
S2140054C0984703001A001F23FB181A703B681D4AF2
S2140054D0190010001C4B984702002623FB181A8060
S2140054E01A4B98470300BB61BB69002B0FD0BB6902
S2140054F01F22BA1812785A707B68DAB2BB691A7023
S214005500BB692622BA1812885A80114B9847084B56
S2140055101B685A1E064B1A603B6AFB60FB6883F3E7
S2140055201088BD460AB080BDF43A0200F55F000060
S214005530C00B00204C3B0200680C0020CC0B002067
S21400554009620000FFFF0000CD530000AD5B0000C5
S214005550B161000090B589B000AF0200FB1D1A7063
S214005560FB1D1B780F2B04D9344B1800344B98477F
S21400557061E0EFF31083FB60FB68FB6101233B6196
S2140055803B6983F310882F4B1B685A1C2D4B1A60FF
S2140055902D4B1B78FA1D12789A4242D02B4B1B6873
S2140055A01B6B002B3DD02A4B00221A601A23FC18D6
S2140055B0284B1800284B984703002380224BFA1DDF
S2140055C012781A701923FB181F4A12781A70234B88
S2140055D0984703007B617B69002B22D01A4B1B780F
S2140055E0190003201E4B98470300012B03D17B694B
S2140055F007221A7002E07B6906221A707B691A225B
S214005600BA1812885A807B691922BA1812785A700A
S2140056100D4B1B78012219000320124B9847124BA2
S2140056209847084B1B685A1E064B1A60FB69BB60FE
S214005630BB6883F31088BD4609B090BD843B02006A
S214005640F55F0000C00B0020CC0B0020680C00208B
S214005650AC0B0020FFFF000009620000AD5B0000FD
S21400566051580000AD570000B161000090B583B0FE
S21400567000AF040008001100FB1D221C1A70BB1DA1
S214005680021C1A707B1D0A1C1A70FB1D1B78082B47
S21400569004D91A4B18001A4B98472CE0194B1A6875
S2140056A0FB1D1B786421D3185B181B78BA1D127873
S2140056B09A4204D9144B1800114B98471BE0114B23
S2140056C01C68FB1D1A78BB1D1B78110018000F4BB9
S2140056D09847030018000B4B1A68FB1D1B787021B7
S2140056E0D3185B181B78C31801339C22E3189B1849
S2140056F07A1D12781A70BD4603B090BD183D0200A0
S214005700F55F0000680C0020643D0200015C0000AC
S21400571090B583B000AF0200FB1D1A70BB1D0A1CBB
S2140057201A70FB1D1B78082B05D91B4B18001B4B4A
S214005730984700232BE01A4B1A68FB1D1B78642140
S214005740D3185B181B78BA1D12789A4205D9154BE8
S2140057501800124B9847002319E0114B1C68FB1DDC
S2140057601A78BB1D1B78110018000F4B98470300D2
S21400577018000B4B1A68FB1D1B787021D3185B189A
S2140057801B78C31801339C22E3189B181B7818005B
S214005790BD4603B090BDC046A43D0200F55F0000C4
S2140057A0680C0020F03D0200015C000090B583B05C
S2140057B000AF040008001100FB1D221C1A70BB1D60
S2140057C0021C1A707B1D0A1C1A70FB1D1B78082B06
S2140057D004D91A4B18001A4B98472BE0194B1A6835
S2140057E0FB1D1B786421D3185B181B78BA1D127832
S2140057F09A4204D9144B1800114B98471AE0114BE3
S2140058001C68FB1D1A78BB1D1B78110018000F4B77
S2140058109847030018000B4B1A68FB1D1B78702175
S214005820D3185B181B78C3189C22E3189B187A1DA4
S21400583012781A70BD4603B090BDC046303E0200D6
S214005840F55F0000680C0020743E0200015C00005A
S21400585090B583B000AF0200FB1D1A70BB1D0A1C7A
S2140058601A70FB1D1B78082B05D91A4B18001A4B0B
S214005870984700232AE0194B1A68FB1D1B78642101
S214005880D3185B181B78BA1D12789A4205D9144BA8
S2140058901800114B9847002318E0104B1C68FB1D9E
S2140058A01A78BB1D1B78110018000E4B9847030092
S2140058B018000A4B1A68FB1D1B787021D3185B185A
S2140058C01B78C3189C22E3189B181B781800BD464B
